{"abi":[{"type":"function","name":"afterPresale","inputs":[],"outputs":[],"stateMutability":"nonpayable"},{"type":"function","name":"bumpFloor","inputs":[{"name":"reserveAmount","type":"uint256","internalType":"uint256"}],"outputs":[],"stateMutability":"nonpayable"},{"type":"function","name":"burnTokens","inputs":[{"name":"amount","type":"uint256","internalType":"uint256"}],"outputs":[],"stateMutability":"nonpayable"},{"type":"function","name":"getAccumulatedFees","inputs":[],"outputs":[{"name":"","type":"uint256","internalType":"uint256"},{"name":"","type":"uint256","internalType":"uint256"}],"stateMutability":"view"},{"type":"function","name":"getFunctionSelectors","inputs":[],"outputs":[{"name":"","type":"bytes4[]","internalType":"bytes4[]"}],"stateMutability":"pure"},{"type":"function","name":"getPositions","inputs":[],"outputs":[{"name":"positions","type":"tuple[3]","internalType":"struct LiquidityPosition[3]","components":[{"name":"lowerTick","type":"int24","internalType":"int24"},{"name":"upperTick","type":"int24","internalType":"int24"},{"name":"liquidity","type":"uint128","internalType":"uint128"},{"name":"price","type":"uint256","internalType":"uint256"},{"name":"tickSpacing","type":"int24","internalType":"int24"}]}],"stateMutability":"view"},{"type":"function","name":"getProtocolParameters","inputs":[],"outputs":[{"name":"","type":"tuple","internalType":"struct ProtocolParameters","components":[{"name":"floorPercentage","type":"uint8","internalType":"uint8"},{"name":"anchorPercentage","type":"uint8","internalType":"uint8"},{"name":"idoPriceMultiplier","type":"uint8","internalType":"uint8"},{"name":"floorBips","type":"uint16[2]","internalType":"uint16[2]"},{"name":"shiftRatio","type":"uint256","internalType":"uint256"},{"name":"slideRatio","type":"uint256","internalType":"uint256"},{"name":"discoveryBips","type":"int24","internalType":"int24"},{"name":"shiftAnchorUpperBips","type":"int24","internalType":"int24"},{"name":"slideAnchorUpperBips","type":"int24","internalType":"int24"},{"name":"lowBalanceThresholdFactor","type":"uint256","internalType":"uint256"},{"name":"highBalanceThresholdFactor","type":"uint256","internalType":"uint256"},{"name":"inflationFee","type":"uint256","internalType":"uint256"},{"name":"loanFee","type":"uint256","internalType":"uint256"},{"name":"deployFee","type":"uint256","internalType":"uint256"},{"name":"presalePremium","type":"uint256","internalType":"uint256"}]}],"stateMutability":"view"},{"type":"function","name":"getTimeSinceLastMint","inputs":[],"outputs":[{"name":"","type":"uint256","internalType":"uint256"}],"stateMutability":"view"},{"type":"function","name":"mintTokens","inputs":[{"name":"to","type":"address","internalType":"address"},{"name":"amount","type":"uint256","internalType":"uint256"}],"outputs":[{"name":"","type":"bool","internalType":"bool"}],"stateMutability":"nonpayable"},{"type":"function","name":"pool","inputs":[],"outputs":[{"name":"","type":"address","internalType":"contract IUniswapV3Pool"}],"stateMutability":"view"},{"type":"function","name":"setManager","inputs":[{"name":"manager","type":"address","internalType":"address"}],"outputs":[],"stateMutability":"nonpayable"},{"type":"function","name":"setModelHelper","inputs":[{"name":"modelHelper","type":"address","internalType":"address"}],"outputs":[],"stateMutability":"nonpayable"},{"type":"function","name":"setProtocolParameters","inputs":[{"name":"protocolParameters","type":"tuple","internalType":"struct ProtocolParameters","components":[{"name":"floorPercentage","type":"uint8","internalType":"uint8"},{"name":"anchorPercentage","type":"uint8","internalType":"uint8"},{"name":"idoPriceMultiplier","type":"uint8","internalType":"uint8"},{"name":"floorBips","type":"uint16[2]","internalType":"uint16[2]"},{"name":"shiftRatio","type":"uint256","internalType":"uint256"},{"name":"slideRatio","type":"uint256","internalType":"uint256"},{"name":"discoveryBips","type":"int24","internalType":"int24"},{"name":"shiftAnchorUpperBips","type":"int24","internalType":"int24"},{"name":"slideAnchorUpperBips","type":"int24","internalType":"int24"},{"name":"lowBalanceThresholdFactor","type":"uint256","internalType":"uint256"},{"name":"highBalanceThresholdFactor","type":"uint256","internalType":"uint256"},{"name":"inflationFee","type":"uint256","internalType":"uint256"},{"name":"loanFee","type":"uint256","internalType":"uint256"},{"name":"deployFee","type":"uint256","internalType":"uint256"},{"name":"presalePremium","type":"uint256","internalType":"uint256"}]}],"outputs":[],"stateMutability":"nonpayable"},{"type":"function","name":"teamMultiSig","inputs":[],"outputs":[{"name":"","type":"address","internalType":"address"}],"stateMutability":"view"},{"type":"function","name":"updatePositions","inputs":[{"name":"_positions","type":"tuple[3]","internalType":"struct LiquidityPosition[3]","components":[{"name":"lowerTick","type":"int24","internalType":"int24"},{"name":"upperTick","type":"int24","internalType":"int24"},{"name":"liquidity","type":"uint128","internalType":"uint128"},{"name":"price","type":"uint256","internalType":"uint256"},{"name":"tickSpacing","type":"int24","internalType":"int24"}]}],"outputs":[],"stateMutability":"nonpayable"},{"type":"error","name":"InvalidDecimals","inputs":[]},{"type":"error","name":"InvalidTick","inputs":[]},{"type":"error","name":"NotAuthorized","inputs":[]},{"type":"error","name":"NotInitialized","inputs":[]},{"type":"error","name":"OnlyInternalCalls","inputs":[]},{"type":"error","name":"OutOfRange","inputs":[]},{"type":"error","name":"SafeERC20FailedOperation","inputs":[{"name":"token","type":"address","internalType":"address"}]}],"bytecode":{"object":"0x608060405234801561000f575f80fd5b5061510a8061001d5f395ff3fe608060405234801561000f575f80fd5b50600436106100f0575f3560e01c8063a879b07811610093578063dee02ffa11610063578063dee02ffa146101db578063f0dda65c146101f1578063f326ddc814610214578063fd896f9d14610227575f80fd5b8063a879b0781461018d578063bf2e3dd2146101a0578063c58aad87146101b3578063d0ebdbe7146101c8575f80fd5b806380275860116100ce5780638027586014610155578063854567f11461016a578063899e86891461017257806395d7d0ad1461017a575f80fd5b806316f0115b146100f45780635df45a37146101255780636d1b229d14610140575b5f80fd5b602854600160301b90046001600160a01b03165b6040516001600160a01b0390911681526020015b60405180910390f35b602954602a546040805192835260208301919091520161011c565b61015361014e366004614285565b61023c565b005b61015d6103c0565b60405161011c91906142de565b6101086104a6565b610153610517565b6101536101883660046143f3565b610632565b61015361019b366004614534565b6107af565b6101536101ae36600461463f565b610965565b6101bb610a3c565b60405161011c9190614680565b6101536101d636600461463f565b610b52565b6101e3610c29565b60405190815260200161011c565b6102046101ff366004614772565b610c38565b604051901515815260200161011c565b610153610222366004614285565b610ce0565b61022f6116e5565b60405161011c919061479c565b5f546001600160a01b031633148015906102565750333014155b156102745760405163139f696160e31b815260040160405180910390fd5b5f60280160069054906101000a90046001600160a01b03166001600160a01b0316630dfe16816040518163ffffffff1660e01b8152600401602060405180830381865afa1580156102c7573d5f803e3d5ffd5b505050506040513d601f19601f820116820180604052508101906102eb91906147e9565b5f5460405163095ea7b360e01b81526001600160a01b0391821660048201526024810184905291169063095ea7b3906044016020604051808303815f875af1158015610339573d5f803e3d5ffd5b505050506040513d601f19601f8201168201806040525081019061035d9190614813565b505f54604051631dd319cb60e01b8152306004820152602481018390526001600160a01b0390911690631dd319cb906044015b5f604051808303815f87803b1580156103a7575f80fd5b505af11580156103b9573d5f803e3d5ffd5b5050505050565b6103c86140f9565b506040805161010081018252601b54600281810b60608085019182526301000000808504840b6080808801919091526001600160801b03600160301b96879004811660a0808a0191909152601c5460c08a0152601d54870b60e08a015294885288518086018a52601e5480880b8252848104880b602083810191909152908990048316828c0152601f54828701528054880b82850152808a019190915289519586018a5260215480880b8752938404870b9086015295909104909416828701526022549082015260235490910b918101919091529181019190915290565b5f80546040805163854567f160e01b815290516001600160a01b039092169163854567f1916004808201926020929091908290030181865afa1580156104ee573d5f803e3d5ffd5b505050506040513d601f19601f8201168201806040525081019061051291906147e9565b905090565b6017546001600160a01b031633146105425760405163ea8e4eb560e01b815260040160405180910390fd5b6002546040805180820190915260088152672232b83637bcb2b960c11b60208201525f916001600160a01b03169063dacb2d019061057f90611d56565b6040518263ffffffff1660e01b81526004016105c0918152604060208201819052600b908201526a3737902232b83637bcb2b960a91b606082015260800190565b602060405180830381865afa1580156105db573d5f803e3d5ffd5b505050506040513d601f19601f820116820180604052508101906105ff91906147e9565b5f54604051637d19a2cb60e01b81526001600160a01b038084166004830152929350911690637d19a2cb90602401610390565b5f546001600160a01b0316331480159061064c5750333014155b1561066a5760405163139f696160e31b815260040160405180910390fd5b60145460ff1661068d576040516321c4e35760e21b815260040160405180910390fd5b80518051601b805460208085015160408087015162ffffff96871665ffffffffffff1995861617630100000093881684021775ffffffffffffffffffffffffffffffff00000000000019908116600160301b6001600160801b039384168102919091179097556060808a0151601c556080998a0151601d805462ffffff19908116928c16929092179055868c01518051601e8054838b0151848a0151938f16918d1691909117908e168a021786169187168c0291909117905580830151601f558b015187548216908b16178755848c01518051602180549983015197830151918d1699909a1698909817958b16909602949094179091169490911690950292909217909255918101516022559092015160238054909316911617905550565b50565b6001546001600160a01b0316331480159061084657505f546040805163854567f160e01b815290516001600160a01b039092169163854567f1916004808201926020929091908290030181865afa15801561080c573d5f803e3d5ffd5b505050506040513d601f19601f8201168201806040525081019061083091906147e9565b6001600160a01b0316336001600160a01b031614155b156108645760405163ea8e4eb560e01b815260040160405180910390fd5b8051600980546020840151604085015160ff908116620100000262ff0000199282166101000261ffff199094169190951617919091171691909117815560608201518291906108b790600a906002614144565b506080820151600282015560a0820151600382015560c082015160048201805460e085015161010086015162ffffff908116600160301b0268ffffff0000000000001992821663010000000265ffffffffffff199094169190951617919091171691909117905561012082015160058201556101408201516006820155610160820151600782015561018082015160088201556101a082015160098201556101c090910151600a9091015550565b6001546001600160a01b031633148015906109fc57505f546040805163854567f160e01b815290516001600160a01b039092169163854567f1916004808201926020929091908290030181865afa1580156109c2573d5f803e3d5ffd5b505050506040513d601f19601f820116820180604052508101906109e691906147e9565b6001600160a01b0316336001600160a01b031614155b15610a1a5760405163ea8e4eb560e01b815260040160405180910390fd5b601580546001600160a01b0319166001600160a01b0392909216919091179055565b610a446141d9565b604080516101e0810182526009805460ff8082168452610100820481166020850152620100009091041682840152825180840193849052919290916060840191600a90600290825f855b82829054906101000a900461ffff1661ffff1681526020019060020190602082600101049283019260010382029150808411610a8e57505050928452505050600282810154602083015260038301546040830152600483015480820b606084015263010000008104820b6080840152600160301b9004900b60a0820152600582015460c0820152600682015460e0820152600782015461010082015260088201546101208201526009820154610140820152600a9091015461016090910152919050565b6001546001600160a01b03163314801590610be957505f546040805163854567f160e01b815290516001600160a01b039092169163854567f1916004808201926020929091908290030181865afa158015610baf573d5f803e3d5ffd5b505050506040513d601f19601f82011682018060405250810190610bd391906147e9565b6001600160a01b0316336001600160a01b031614155b15610c075760405163ea8e4eb560e01b815260040160405180910390fd5b600180546001600160a01b0319166001600160a01b0392909216919091179055565b6025545f906105129042614840565b5f80546001600160a01b03163314801590610c535750333014155b15610c715760405163139f696160e31b815260040160405180910390fd5b426025555f54604051633c37699760e21b81526001600160a01b038581166004830152602482018590529091169063f0dda65c906044015f604051808303815f87803b158015610cbf575f80fd5b505af1158015610cd1573d5f803e3d5ffd5b50505050600190505b92915050565b6001546001600160a01b03163314801590610d7757505f546040805163854567f160e01b815290516001600160a01b039092169163854567f1916004808201926020929091908290030181865afa158015610d3d573d5f803e3d5ffd5b505050506040513d601f19601f82011682018060405250810190610d6191906147e9565b6001600160a01b0316336001600160a01b031614155b15610d955760405163ea8e4eb560e01b815260040160405180910390fd5b60145460ff16610db8576040516321c4e35760e21b815260040160405180910390fd5b6015546028546040516317886cbb60e11b81525f926001600160a01b0390811692632f10d97692610dfb92600160301b9092049091169030908690600401614887565b608060405180830381865afa158015610e16573d5f803e3d5ffd5b505050506040513d601f19601f82011682018060405250810190610e3a91906148b7565b6015546028546040516317886cbb60e11b81529296505f95506001600160a01b039182169450632f10d9769350610e8492600160301b909104909116903090600190600401614887565b608060405180830381865afa158015610e9f573d5f803e3d5ffd5b505050506040513d601f19601f82011682018060405250810190610ec391906148b7565b6040805161010081018252601b54600281810b60608085019182526301000000808504840b6080808801919091526001600160801b03600160301b96879004811660a0808a0191909152601c5460c08a0152601d54870b60e08a015294885288518086018a52601e5480880b8252848104880b602083810191909152908990048316828c0152601f54828701528054880b82850152808a019190915289519586018a5260215480880b8752938404870b9086015295909104909416828701526022549082015260235490910b91810191909152918101919091529094509250610faf9150829050611db2565b602854815151610fdd91600160301b90046001600160a01b0316903090845f5b602002015160200151611e8c565b60285461100690600160301b90046001600160a01b031630836001602002015151846001610fcf565b60155460285460405163526ed0d160e11b8152600160301b9091046001600160a01b0390811660048301523060248301525f92169063a4dda1a290604401602060405180830381865afa15801561105f573d5f803e3d5ffd5b505050506040513d601f19601f820116820180604052508101906110839190614910565b90505f6110996110938787614927565b83611f6b565b90506110a58686614927565b471061115257601454611152906201000090046001600160a01b03166110cb8888614927565b5f60280160069054906101000a90046001600160a01b03166001600160a01b031663d21220a76040518163ffffffff1660e01b8152600401602060405180830381865afa15801561111e573d5f803e3d5ffd5b505050506040513d601f19601f8201168201806040525081019061114291906147e9565b6001600160a01b03169190611f94565b5f6040518060600160405280855f60038110611170576111706148fc565b602002015181526020018560016003811061118d5761118d6148fc565b60200201518152602001856002600381106111aa576111aa6148fc565b602002015190526014546028549192506001600160a01b0362010000909104811691636cc03e7d91600160301b909104163073__$00856c2daf1848075e4d6b3791a97a7365$__63b7df07b36112098a5f602002015160200151611feb565b5f60280160069054906101000a90046001600160a01b03166001600160a01b031663d21220a76040518163ffffffff1660e01b8152600401602060405180830381865afa15801561125c573d5f803e3d5ffd5b505050506040513d601f19601f8201168201806040525081019061128091906147e9565b6001600160a01b031663313ce5676040518163ffffffff1660e01b8152600401602060405180830381865afa1580156112bb573d5f803e3d5ffd5b505050506040513d601f19601f820116820180604052508101906112df9190614945565b6040516001600160e01b031960e085901b1681526001600160a01b03909216600483015260ff166024820152604401602060405180830381865af4158015611329573d5f803e3d5ffd5b505050506040513d601f19601f8201168201806040525081019061134d9190614910565b866113588d8d614927565b8a516040516001600160e01b031960e089901b1681526113819695949392918f91600401614960565b60a0604051808303815f875af115801561139d573d5f803e3d5ffd5b505050506040513d601f19601f820116820180604052508101906113c191906149ae565b815260285460408051633850c7bd60e01b815290515f92600160301b90046001600160a01b031691633850c7bd9160048083019260e09291908290030181865afa158015611411573d5f803e3d5ffd5b505050506040513d601f19601f820116820180604052508101906114359190614a30565b50506040805160c0810182526028546001600160a01b03600160301b9091048116825230602083015260145462010000900481168284015260155481166060830152601754811660808084019190915260195490911660a0830152825190810190925295965061162f95945092508291508690505f60200201516020015160020b815260200161160d6114c786611ff5565b306001600160a01b031663c58aad876040518163ffffffff1660e01b815260040161020060405180830381865afa158015611504573d5f803e3d5ffd5b505050506040513d601f19601f820116820180604052508101906115289190614b0a565b60e001515f60280160069054906101000a90046001600160a01b03166001600160a01b031663d21220a76040518163ffffffff1660e01b8152600401602060405180830381865afa15801561157f573d5f803e3d5ffd5b505050506040513d601f19601f820116820180604052508101906115a391906147e9565b6001600160a01b031663313ce5676040518163ffffffff1660e01b8152600401602060405180830381865afa1580156115de573d5f803e3d5ffd5b505050506040513d601f19601f820116820180604052508101906116029190614945565b8c516080015161232f565b60020b815260200161161f8c8b614840565b815260200160019052600161242a565b60208301526040516395d7d0ad60e01b815230906395d7d0ad906116579085906004016142de565b5f604051808303815f87803b15801561166e575f80fd5b505af1158015611680573d5f803e3d5ffd5b5050601554604051634986609560e11b81523060048201526001600160a01b03909116925063930cc12a91506024015f6040518083038186803b1580156116c5575f80fd5b505afa1580156116d7573d5f803e3d5ffd5b505050505050505050505050565b60408051600e8082526101e082019092526060915f9190602082016101c080368337505060408051808201909152600e81526d7465616d4d756c7469536967282960901b6020909101525080519091507f854567f1ebcf52af01539bbb2eb91efa4f35506d34e268a7a77e05fac717b9d69082905f90611767576117676148fc565b6001600160e01b031990921660209283029190910182015260408051808201909152601781527f67657450726f746f636f6c506172616d6574657273282900000000000000000091015280517fc58aad872b3b4ca1be02017b517aa3d4dc2cde8329ed50f2f7b5e8d426b87df890829060019081106117e8576117e86148fc565b6001600160e01b031990921660209283029190910182015260408051808201909152601681527567657454696d6553696e63654c6173744d696e74282960501b91015280517fdee02ffaa72188dc53f5a6b5d074114cf589f27a6f21fc80fb35e5a154d604029082906002908110611862576118626148fc565b6001600160e01b0319909216602092830291909101820152604080518082019091526014815273676574416363756d756c6174656446656573282960601b91015280517f5df45a3726e2430fc7db93443f7d212a24cee57c63dfca1e6d9d339521e8fb6c90829060039081106118da576118da6148fc565b6001600160e01b0319909216602092830291909101820152604080518082019091526006815265706f6f6c282960d01b91015280517f16f0115b5901d3f6295e520505af05475e18f6f1e134f347475c881a6302260d9082906004908110611944576119446148fc565b6001600160e01b031990921660209283029190910182015260408051808201909152600e81526d676574506f736974696f6e73282960901b91015280517f80275860e94ae2352a6f96e7331d60fec5acb8be3449303acc2955074b0ae89190829060059081106119b6576119b66148fc565b6001600160e01b031990921660209283029190910182015260408051808201909152600e81526d616674657250726573616c65282960901b91015280517f899e8689d09c1013329814dcc3cd2004aa09d9c22649cb76a50b413c8cae4e1f9082906006908110611a2857611a286148fc565b60200260200101906001600160e01b03191690816001600160e01b031916815250506040518060c001604052806086815260200161504f608691398051906020012081600781518110611a7d57611a7d6148fc565b6001600160e01b03199092166020928302919091018201526040805180820190915260138152727365744d616e6167657228616464726573732960681b91015280517fd0ebdbe7294e51559dff65347642239c2dcc3c1d04b820c6861367535fbf89929082906008908110611af457611af46148fc565b6001600160e01b031990921660209283029190910182015260408051808201909152601781527f7365744d6f64656c48656c70657228616464726573732900000000000000000091015280517fbf2e3dd255f1f52978ed60b745decb4605079c3c6617d6a8e938f1f35e0133a49082906009908110611b7557611b756148fc565b60200260200101906001600160e01b03191690816001600160e01b03191681525050604051806060016040528060378152602001615018603791398051906020012081600a81518110611bca57611bca6148fc565b6001600160e01b031990921660209283029190910182015260408051808201909152601b81527f6d696e74546f6b656e7328616464726573732c75696e7432353629000000000091015280517ff0dda65cf836e94d4ef937906c9c60bfee0b848c2d3202142a7cc87420ad437c908290600b908110611c4b57611c4b6148fc565b6001600160e01b03199092166020928302919091018201526040805180820190915260138152726275726e546f6b656e732875696e743235362960681b91015280517f6d1b229dafadcd720d5a60a73409508ab97a09a020cffe742460e5a58f790b61908290600c908110611cc257611cc26148fc565b6001600160e01b031990921660209283029190910182015260408051808201909152601281527162756d70466c6f6f722875696e743235362960701b91015280517ff326ddc84429e4fcb9ec26832b2cc6e9570ed159f8afdc30680827a44e2136ea908290600d908110611d3857611d386148fc565b6001600160e01b031990921660209283029190910190910152919050565b80515f9082908203611d6a57505f92915050565b602081511115611d78575f80fd5b602083015181519092505b6020811015611dab57611d9781601f614840565b611da2906008614c01565b50600101611d83565b5050919050565b5f805f80611dd75f60280160069054906101000a90046001600160a01b031686613386565b604051622de3e760e61b81526004810185905260248101849052939750919550935091503090630b78f9c0906044015f604051808303815f87803b158015611e1d575f80fd5b505af1158015611e2f573d5f803e3d5ffd5b5050604051622de3e760e61b81526004810185905260248101849052309250630b78f9c091506044015f604051808303815f87803b158015611e6f575f80fd5b505af1158015611e81573d5f803e3d5ffd5b505050505050505050565b6040516bffffffffffffffffffffffff193060601b16602082015260e883811b603483015282901b60378201525f90603a0160408051601f1981840301815290829052805160209091012063514ea4bf60e01b82526004820181905291505f906001600160a01b0387169063514ea4bf9060240160a060405180830381865afa158015611f1b573d5f803e3d5ffd5b505050506040513d601f19601f82011682018060405250810190611f3f9190614c18565b5050505090505f816001600160801b03161115611f6357611f63868686868561345e565b505050505050565b5f81611f796012600a614d56565b611f839085614c01565b611f8d9190614d75565b9392505050565b604080516001600160a01b038416602482015260448082018490528251808303909101815260649091019091526020810180516001600160e01b031663a9059cbb60e01b179052611fe6908490613578565b505050565b5f610cda826135ea565b5f6401000276a36001600160a01b03831610801590612030575073fffd8963efd1fc6a506488495d951d5263988d266001600160a01b038316105b6120655760405162461bcd60e51b81526020600482015260016024820152602960f91b60448201526064015b60405180910390fd5b640100000000600160c01b03602083901b166001600160801b03811160071b81811c67ffffffffffffffff811160061b90811c63ffffffff811160051b90811c61ffff811160041b90811c60ff8111600390811b91821c600f811160021b90811c918211600190811b92831c97908811961790941790921717909117171760808110612100576120f6607f82614840565b83901c9150612111565b61210b81607f614840565b83901b91505b5f604061211f608084614d88565b901b9050828302607f1c92508260801c80603f1b8217915083811c935050828302607f1c92508260801c80603e1b8217915083811c935050828302607f1c92508260801c80603d1b8217915083811c935050828302607f1c92508260801c80603c1b8217915083811c935050828302607f1c92508260801c80603b1b8217915083811c935050828302607f1c92508260801c80603a1b8217915083811c935050828302607f1c92508260801c8060391b8217915083811c935050828302607f1c92508260801c8060381b8217915083811c935050828302607f1c92508260801c8060371b8217915083811c935050828302607f1c92508260801c8060361b8217915083811c935050828302607f1c92508260801c8060351b8217915083811c935050828302607f1c92508260801c8060341b8217915083811c935050828302607f1c92508260801c8060331b8217915083811c935050828302607f1c92508260801c8060321b82179150505f81693627a301d71055774c856122a19190614da7565b90505f60806122c06f028f6481ab7f045a5af012a19d003aaa84614d88565b901d90505f60806122e1846fdb2df09e81959a81455e260799a0632f614dd6565b901d90508060020b8260020b1461232057886001600160a01b0316612305826135ea565b6001600160a01b0316111561231a5781612322565b80612322565b815b9998505050505050505050565b5f8073__$00856c2daf1848075e4d6b3791a97a7365$__63b7df07b361235488611feb565b6040516001600160e01b031960e084901b1681526001600160a01b03909116600482015260ff87166024820152604401602060405180830381865af415801561239f573d5f803e3d5ffd5b505050506040513d601f19601f820116820180604052508101906123c39190614910565b90505f6123d3828760020b6139fb565b90505f6123e1828688613a74565b9050620d89e719600282900b12806123ff5750620d89e8600282900b135b1561241d57604051637db3aba760e01b815260040160405180910390fd5b925050505b949350505050565b6040805160a0810182525f80825260208201819052918101829052606081018290526080810191909152825f015160020b836020015160020b13612481576040516333a3bdff60e21b815260040160405180910390fd5b5f845f01516001600160a01b0316630dfe16816040518163ffffffff1660e01b8152600401602060405180830381865afa1580156124c1573d5f803e3d5ffd5b505050506040513d601f19601f820116820180604052508101906124e591906147e9565b6040516370a0823160e01b81523060048201526001600160a01b0391909116906370a0823190602401602060405180830381865afa158015612529573d5f803e3d5ffd5b505050506040513d601f19601f8201168201806040525081019061254d9190614910565b90505f855f01516001600160a01b0316630dfe16816040518163ffffffff1660e01b8152600401602060405180830381865afa15801561258f573d5f803e3d5ffd5b505050506040513d601f19601f820116820180604052508101906125b391906147e9565b6040808801519051636eb1769f60e11b81523060048201526001600160a01b03918216602482015291169063dd62ed3e90604401602060405180830381865afa158015612602573d5f803e3d5ffd5b505050506040513d601f19601f820116820180604052508101906126269190614910565b90505f865f01516001600160a01b031663d21220a76040518163ffffffff1660e01b8152600401602060405180830381865afa158015612668573d5f803e3d5ffd5b505050506040513d601f19601f8201168201806040525081019061268c91906147e9565b6040808901519051636eb1769f60e11b81523060048201526001600160a01b03918216602482015291169063dd62ed3e90604401602060405180830381865afa1580156126db573d5f803e3d5ffd5b505050506040513d601f19601f820116820180604052508101906126ff9190614910565b90505f1982146127e357865f01516001600160a01b0316630dfe16816040518163ffffffff1660e01b8152600401602060405180830381865afa158015612748573d5f803e3d5ffd5b505050506040513d601f19601f8201168201806040525081019061276c91906147e9565b604080890151905163095ea7b360e01b81526001600160a01b0391821660048201525f19602482015291169063095ea7b3906044016020604051808303815f875af11580156127bd573d5f803e3d5ffd5b505050506040513d601f19601f820116820180604052508101906127e19190614813565b505b5f1981146128c557865f01516001600160a01b031663d21220a76040518163ffffffff1660e01b8152600401602060405180830381865afa15801561282a573d5f803e3d5ffd5b505050506040513d601f19601f8201168201806040525081019061284e91906147e9565b604080890151905163095ea7b360e01b81526001600160a01b0391821660048201525f19602482015291169063095ea7b3906044016020604051808303815f875af115801561289f573d5f803e3d5ffd5b505050506040513d601f19601f820116820180604052508101906128c39190614813565b505b6002866060015160028111156128dd576128dd614853565b036132a55760608701518751602089015160405163526ed0d160e11b81525f936001600160a01b03169263a4dda1a29261292e926004016001600160a01b0392831681529116602082015260400190565b602060405180830381865afa158015612949573d5f803e3d5ffd5b505050506040513d601f19601f8201168201806040525081019061296d9190614910565b90505f885f01516001600160a01b0316630dfe16816040518163ffffffff1660e01b8152600401602060405180830381865afa1580156129af573d5f803e3d5ffd5b505050506040513d601f19601f820116820180604052508101906129d391906147e9565b6001600160a01b03166318160ddd6040518163ffffffff1660e01b8152600401602060405180830381865afa158015612a0e573d5f803e3d5ffd5b505050506040513d601f19601f82011682018060405250810190612a329190614910565b90505f895f01516001600160a01b0316633850c7bd6040518163ffffffff1660e01b815260040160e060405180830381865afa158015612a74573d5f803e3d5ffd5b505050506040513d601f19601f82011682018060405250810190612a989190614a30565b5050505050509050306001600160a01b031663c58aad876040518163ffffffff1660e01b815260040161020060405180830381865afa158015612add573d5f803e3d5ffd5b505050506040513d601f19601f82011682018060405250810190612b019190614b0a565b6101200151612b109084614d75565b861015612e5d578715612e5d575f8a60a001516001600160a01b03166383183fd9845f306001600160a01b031663dee02ffa6040518163ffffffff1660e01b8152600401602060405180830381865afa158015612b6f573d5f803e3d5ffd5b505050506040513d601f19601f82011682018060405250810190612b939190614910565b11612b9f576001612bff565b306001600160a01b031663dee02ffa6040518163ffffffff1660e01b8152600401602060405180830381865afa158015612bdb573d5f803e3d5ffd5b505050506040513d601f19601f82011682018060405250810190612bff9190614910565b60405163b7df07b360e01b81526001600160a01b03871660048201526012602482015273__$00856c2daf1848075e4d6b3791a97a7365$__9063b7df07b390604401602060405180830381865af4158015612c5c573d5f803e3d5ffd5b505050506040513d601f19601f82011682018060405250810190612c809190614910565b8f606001516001600160a01b0316636013be6d306040518263ffffffff1660e01b8152600401612cbf91906001600160a01b0391909116815260200190565b602060405180830381865afa158015612cda573d5f803e3d5ffd5b505050506040513d601f19601f82011682018060405250810190612cfe9190614910565b6040516001600160e01b031960e087901b1681526004810194909452602484019290925260448301526064820152608401602060405180830381865afa158015612d4a573d5f803e3d5ffd5b505050506040513d601f19601f82011682018060405250810190612d6e9190614910565b9050801580612d7c57508281115b15612df457306001600160a01b031663c58aad876040518163ffffffff1660e01b815260040161020060405180830381865afa158015612dbe573d5f803e3d5ffd5b505050506040513d601f19601f82011682018060405250810190612de29190614b0a565b6101200151612df19085614d75565b90505b604051633c37699760e21b81523060048201819052602482018390529063f0dda65c906044016020604051808303815f875af1158015612e36573d5f803e3d5ffd5b505050506040513d601f19601f82011682018060405250810190612e5a9190614813565b50505b306001600160a01b031663c58aad876040518163ffffffff1660e01b815260040161020060405180830381865afa158015612e9a573d5f803e3d5ffd5b505050506040513d601f19601f82011682018060405250810190612ebe9190614b0a565b6101400151612ecd9084614d75565b8610613012578761301257604051636d1b229d60e01b8152600481018790523090636d1b229d906024015f604051808303815f87803b158015612f0e575f80fd5b505af1158015612f20573d5f803e3d5ffd5b50505050306001600160a01b031663f0dda65c30306001600160a01b031663c58aad876040518163ffffffff1660e01b815260040161020060405180830381865afa158015612f71573d5f803e3d5ffd5b505050506040513d601f19601f82011682018060405250810190612f959190614b0a565b6101400151612fa49087614d75565b6040516001600160e01b031960e085901b1681526001600160a01b03909216600483015260248201526044016020604051808303815f875af1158015612fec573d5f803e3d5ffd5b505050506040513d601f19601f820116820180604052508101906130109190614813565b505b895f01516001600160a01b0316630dfe16816040518163ffffffff1660e01b8152600401602060405180830381865afa158015613051573d5f803e3d5ffd5b505050506040513d601f19601f8201168201806040525081019061307591906147e9565b6040516370a0823160e01b81523060048201526001600160a01b0391909116906370a0823190602401602060405180830381865afa1580156130b9573d5f803e3d5ffd5b505050506040513d601f19601f820116820180604052508101906130dd9190614910565b9550855f036132a157306001600160a01b031663f0dda65c30306001600160a01b031663c58aad876040518163ffffffff1660e01b815260040161020060405180830381865afa158015613133573d5f803e3d5ffd5b505050506040513d601f19601f820116820180604052508101906131579190614b0a565b61012001516131669087614d75565b6040516001600160e01b031960e085901b1681526001600160a01b03909216600483015260248201526044016020604051808303815f875af11580156131ae573d5f803e3d5ffd5b505050506040513d601f19601f820116820180604052508101906131d29190614813565b50895f01516001600160a01b0316630dfe16816040518163ffffffff1660e01b8152600401602060405180830381865afa158015613212573d5f803e3d5ffd5b505050506040513d601f19601f8201168201806040525081019061323691906147e9565b6040516370a0823160e01b81523060048201526001600160a01b0391909116906370a0823190602401602060405180830381865afa15801561327a573d5f803e3d5ffd5b505050506040513d601f19601f8201168201806040525081019061329e9190614910565b95505b5050505b86604001516001600160a01b031663ae9b8277885f015130895f01518a602001518b6060015160405180604001604052808b8152602001600160028111156132ef576132ef614853565b8f60600151600281111561330557613305614853565b14613311576001613317565b8e604001515b8152506040518763ffffffff1660e01b815260040161333b96959493929190614dfd565b60a0604051808303815f875af1158015613357573d5f803e3d5ffd5b505050506040513d601f19601f8201168201806040525081019061337b91906149ae565b979650505050505050565b5f805f805f866001600160a01b0316633850c7bd6040518163ffffffff1660e01b815260040160e060405180830381865afa1580156133c7573d5f803e3d5ffd5b505050506040513d601f19601f820116820180604052508101906133eb9190614a30565b505050505050905061341f865f60038110613408576134086148fc565b60200201513089600161341a86611ff5565b613bb9565b945061342c866001613408565b9250613445865f5b602002015130895f61341a86611ff5565b9350613452866001613434565b91505092959194509250565b60405163a34123a760e01b8152600284810b600483015283900b60248201526001600160801b03821660448201526001600160a01b0386169063a34123a79060640160408051808303815f875af11580156134bb573d5f803e3d5ffd5b505050506040513d601f19601f820116820180604052508101906134df9190614e50565b50506040516309e3d67b60e31b81526001600160a01b038581166004830152600285810b602484015284900b60448301526001600160801b03606483018190526084830152861690634f1eb3d89060a40160408051808303815f875af115801561354b573d5f803e3d5ffd5b505050506040513d601f19601f8201168201806040525081019061356f9190614e72565b50505050505050565b5f8060205f8451602086015f885af180613597576040513d5f823e3d81fd5b50505f513d915081156135ae5780600114156135bb565b6001600160a01b0384163b155b156135e457604051635274afe760e01b81526001600160a01b038516600482015260240161205c565b50505050565b5f805f8360020b126135ff578260020b61360c565b8260020b61360c90614eaa565b905061361b620d89e719614ec4565b60020b8111156136515760405162461bcd60e51b81526020600482015260016024820152601560fa1b604482015260640161205c565b5f816001165f0361366657600160801b613678565b6ffffcb933bd6fad37aa2d162d1a5940015b70ffffffffffffffffffffffffffffffffff16905060028216156136b75760806136b2826ffff97272373d413259a46990580e213a614c01565b901c90505b60048216156136e15760806136dc826ffff2e50f5f656932ef12357cf3c7fdcc614c01565b901c90505b600882161561370b576080613706826fffe5caca7e10e4e61c3624eaa0941cd0614c01565b901c90505b6010821615613735576080613730826fffcb9843d60f6159c9db58835c926644614c01565b901c90505b602082161561375f57608061375a826fff973b41fa98c081472e6896dfb254c0614c01565b901c90505b6040821615613789576080613784826fff2ea16466c96a3843ec78b326b52861614c01565b901c90505b60808216156137b35760806137ae826ffe5dee046a99a2a811c461f1969c3053614c01565b901c90505b6101008216156137de5760806137d9826ffcbe86c7900a88aedcffc83b479aa3a4614c01565b901c90505b610200821615613809576080613804826ff987a7253ac413176f2b074cf7815e54614c01565b901c90505b61040082161561383457608061382f826ff3392b0822b70005940c7a398e4b70f3614c01565b901c90505b61080082161561385f57608061385a826fe7159475a2c29b7443b29c7fa6e889d9614c01565b901c90505b61100082161561388a576080613885826fd097f3bdfd2022b8845ad8f792aa5825614c01565b901c90505b6120008216156138b55760806138b0826fa9f746462d870fdf8a65dc1f90e061e5614c01565b901c90505b6140008216156138e05760806138db826f70d869a156d2a1b890bb3df62baf32f7614c01565b901c90505b61800082161561390b576080613906826f31be135f97d08fd981231505542fcfa6614c01565b901c90505b62010000821615613937576080613932826f09aa508b5b7a84e1c677de54f3e99bc9614c01565b901c90505b6202000082161561396257608061395d826e5d6af8dedb81196699c329225ee604614c01565b901c90505b6204000082161561398c576080613987826d2216e584f5fa1ea926041bedfe98614c01565b901c90505b620800008216156139b45760806139af826b048a170391f7dc42444e8fa2614c01565b901c90505b5f8460020b13156139cd576139ca815f19614d75565b90505b6139dc64010000000082614ee4565b156139e85760016139ea565b5f5b6124229060ff16602083901c614927565b5f808212613a2f575f612710613a118486614c01565b613a1b9190614d75565b9050613a278185614927565b915050610cda565b5f612710613a3c84614eaa565b613a469086614c01565b613a509190614d75565b905083811115613a63575f915050610cda565b613a278185614840565b5092915050565b5f60068260ff1610158015613a8d575060128260ff1611155b613aaa57604051630692acc560e51b815260040160405180910390fd5b5f613ab6836012614ef7565b613ac190600a614f10565b9050613acd8186614da7565b945083613ba668033dd1780914b9684073__$28bae0af19d0e90d77349cc0e88bc3c39a$__63bc4225aa613b098a670de0b6b3a7640000614da7565b6040516001600160e01b031960e084901b1681526004810191909152670de0b6b3a764000060248201526706f05b59d3b200006044820152606401602060405180830381865af4158015613b5f573d5f803e3d5ffd5b505050506040513d601f19601f82011682018060405250810190613b839190614910565b613b8d9190614d88565b613ba1600288900b658334ae9d7c0a614da7565b614004565b613bb09190614f1e565b95945050505050565b5f805f805f805f896001600160a01b031663514ea4bf8c8e5f01518f60200151604051602001613c149392919060609390931b6bffffffffffffffffffffffff1916835260e891821b6014840152901b6017820152601a0190565b604051602081830303815290604052805190602001206040518263ffffffff1660e01b8152600401613c4891815260200190565b60a060405180830381865afa158015613c63573d5f803e3d5ffd5b505050506040513d601f19601f82011682018060405250810190613c879190614c18565b50509250925092508815613e1157896001600160a01b031663f30583996040518163ffffffff1660e01b8152600401602060405180830381865afa158015613cd1573d5f803e3d5ffd5b505050506040513d601f19601f82011682018060405250810190613cf59190614910565b8c5160405163f30dba9360e01b815260029190910b60048201529094506001600160a01b038b169063f30dba939060240161010060405180830381865afa158015613d42573d5f803e3d5ffd5b505050506040513d601f19601f82011682018060405250810190613d669190614f3d565b90919293949596509091929394955090919293509091925090915090505080965050896001600160a01b031663f30dba938d602001516040518263ffffffff1660e01b8152600401613dc1919060029190910b815260200190565b61010060405180830381865afa158015613ddd573d5f803e3d5ffd5b505050506040513d601f19601f82011682018060405250810190613e019190614f3d565b50939a50613f8995505050505050565b896001600160a01b031663461413196040518163ffffffff1660e01b8152600401602060405180830381865afa158015613e4d573d5f803e3d5ffd5b505050506040513d601f19601f82011682018060405250810190613e719190614910565b8c5160405163f30dba9360e01b815260029190910b60048201529094506001600160a01b038b169063f30dba939060240161010060405180830381865afa158015613ebe573d5f803e3d5ffd5b505050506040513d601f19601f82011682018060405250810190613ee29190614f3d565b9091929394959650909192939495509091929394509091925090915090505080965050896001600160a01b031663f30dba938d602001516040518263ffffffff1660e01b8152600401613f3e919060029190910b815260200190565b61010060405180830381865afa158015613f5a573d5f803e3d5ffd5b505050506040513d601f19601f82011682018060405250810190613f7e9190614f3d565b50929a505050505050505b5f8c5f015160020b8960020b12613fa1575085613fa6565b508584035b5f8d6020015160020b8a60020b1215613fc0575085613fc5565b508585035b818603819003613ff16001600160801b0387168d613fe35785613fe5565b865b8303600160801b614053565b9f9e505050505050505050505050505050565b5f611388612710836140168683614da7565b6140209190614fd8565b61402a9190615004565b1361403e576140398284614fd8565b611f8d565b6140488284614fd8565b611f8d906001614dd6565b5f80805f19858709858702925082811083820303915050805f03614087575f841161407c575f80fd5b508290049050611f8d565b808411614092575f80fd5b5f8486880960026001871981018816978890046003810283188082028403028082028403028082028403028082028403028082028403029081029092039091025f889003889004909101858311909403939093029303949094049190911702949350505050565b60405180606001604052806003905b6040805160a0810182525f808252602080830182905292820181905260608201819052608082015282525f199092019101816141085790505090565b6001830191839082156141c9579160200282015f5b8382111561419957835183826101000a81548161ffff021916908361ffff1602179055509260200192600201602081600101049283019260010302614159565b80156141c75782816101000a81549061ffff0219169055600201602081600101049283019260010302614199565b505b506141d5929150614253565b5090565b604080516101e0810182525f808252602082018190529181019190915260608101614202614267565b81526020015f81526020015f81526020015f60020b81526020015f60020b81526020015f60020b81526020015f81526020015f81526020015f81526020015f81526020015f81526020015f81525090565b5b808211156141d5575f8155600101614254565b60405180604001604052806002906020820280368337509192915050565b5f60208284031215614295575f80fd5b5035919050565b805160020b8252602081015160020b60208301526001600160801b03604082015116604083015260608101516060830152608081015160020b60808301525050565b6101e0810181835f5b6003811015614311576142fb83835161429c565b60a09290920191602091909101906001016142e7565b50505092915050565b634e487b7160e01b5f52604160045260245ffd5b60405160a0810167ffffffffffffffff811182821017156143515761435161431a565b60405290565b6040516101e0810167ffffffffffffffff811182821017156143515761435161431a565b6040516060810167ffffffffffffffff811182821017156143515761435161431a565b6040805190810167ffffffffffffffff811182821017156143515761435161431a565b8060020b81146107ac575f80fd5b80356143da816143c1565b919050565b6001600160801b03811681146107ac575f80fd5b5f6101e0808385031215614405575f80fd5b83601f840112614413575f80fd5b61441b61437b565b90830190808583111561442c575f80fd5b845b838110156144ac5760a08188031215614445575f80fd5b61444d61432e565b8135614458816143c1565b8152602082810135614469816143c1565b8282015260408381013561447c816143df565b9083015260608381013590830152608080840135614499816143c1565b908301529084529092019160a00161442e565b5095945050505050565b60ff811681146107ac575f80fd5b80356143da816144b6565b61ffff811681146107ac575f80fd5b5f82601f8301126144ed575f80fd5b6144f561439e565b806040840185811115614506575f80fd5b845b8181101561452957803561451b816144cf565b845260209384019301614508565b509095945050505050565b5f6102008284031215614545575f80fd5b61454d614357565b614556836144c4565b8152614564602084016144c4565b6020820152614575604084016144c4565b604082015261458784606085016144de565b606082015260a0830135608082015260c083013560a08201526145ac60e084016143cf565b60c08201526101006145bf8185016143cf565b60e08301526101206145d28186016143cf565b828401526101409150818501358184015250610160808501358284015261018091508185013581840152506101a080850135828401526101c091508185013581840152506101e084013581830152508091505092915050565b6001600160a01b03811681146107ac575f80fd5b5f6020828403121561464f575f80fd5b8135611f8d8161462b565b805f5b60028110156135e457815161ffff1684526020938401939091019060010161465d565b815160ff168152610200810160208301516146a0602084018260ff169052565b5060408301516146b5604084018260ff169052565b5060608301516146c8606084018261465a565b50608083015160a083015260a083015160c083015260c08301516146f160e084018260020b9052565b5060e08301516101006147088185018360020b9052565b840151905061012061471e8482018360020b9052565b8401516101408481019190915284015161016080850191909152840151610180808501919091528401516101a0808501919091528401516101c080850191909152909301516101e090920191909152919050565b5f8060408385031215614783575f80fd5b823561478e8161462b565b946020939093013593505050565b602080825282518282018190525f9190848201906040850190845b818110156147dd5783516001600160e01b031916835292840192918401916001016147b7565b50909695505050505050565b5f602082840312156147f9575f80fd5b8151611f8d8161462b565b805180151581146143da575f80fd5b5f60208284031215614823575f80fd5b611f8d82614804565b634e487b7160e01b5f52601160045260245ffd5b81810381811115610cda57610cda61482c565b634e487b7160e01b5f52602160045260245ffd5b6003811061488357634e487b7160e01b5f52602160045260245ffd5b9052565b6001600160a01b03848116825283166020820152606081016124226040830184614867565b80516143da816143c1565b5f805f80608085870312156148ca575f80fd5b84516148d5816143c1565b60208601519094506148e6816143c1565b6040860151606090960151949790965092505050565b634e487b7160e01b5f52603260045260245ffd5b5f60208284031215614920575f80fd5b5051919050565b80820180821115610cda57610cda61482c565b80516143da816144b6565b5f60208284031215614955575f80fd5b8151611f8d816144b6565b6001600160a01b0388811682528716602082015260408101869052606081018590526080810184905260a0810183905261016081016149a260c083018461429c565b98975050505050505050565b5f60a082840312156149be575f80fd5b6149c661432e565b82516149d1816143c1565b815260208301516149e1816143c1565b602082015260408301516149f4816143df565b6040820152606083810151908201526080830151614a11816143c1565b60808201529392505050565b805163ffffffff811681146143da575f80fd5b5f805f805f805f60e0888a031215614a46575f80fd5b8751614a518161462b565b6020890151909750614a62816143c1565b6040890151909650614a73816144cf565b6060890151909550614a84816144cf565b6080890151909450614a95816144cf565b9250614aa360a08901614a1d565b9150614ab160c08901614804565b905092959891949750929550565b5f82601f830112614ace575f80fd5b614ad661439e565b806040840185811115614ae7575f80fd5b845b81811015614529578051614afc816144cf565b845260209384019301614ae9565b5f6102008284031215614b1b575f80fd5b614b23614357565b614b2c8361493a565b8152614b3a6020840161493a565b6020820152614b4b6040840161493a565b6040820152614b5d8460608501614abf565b606082015260a0830151608082015260c083015160a0820152614b8260e084016148ac565b60c0820152610100614b958185016148ac565b60e0830152610120614ba88186016148ac565b828401526101409150818501518184015250610160808501518284015261018091508185015181840152506101a080850151828401526101c091508185015181840152506101e084015181830152508091505092915050565b8082028115828204841417610cda57610cda61482c565b5f805f805f60a08688031215614c2c575f80fd5b8551614c37816143df565b8095505060208601519350604086015192506060860151614c57816143df565b6080870151909250614c68816143df565b809150509295509295909350565b600181815b80851115614cb057815f1904821115614c9657614c9661482c565b80851615614ca357918102915b93841c9390800290614c7b565b509250929050565b5f82614cc657506001610cda565b81614cd257505f610cda565b8160018114614ce85760028114614cf257614d0e565b6001915050610cda565b60ff841115614d0357614d0361482c565b50506001821b610cda565b5060208310610133831016604e8410600b8410161715614d31575081810a610cda565b614d3b8383614c76565b805f1904821115614d4e57614d4e61482c565b029392505050565b5f611f8d8383614cb8565b634e487b7160e01b5f52601260045260245ffd5b5f82614d8357614d83614d61565b500490565b8181035f831280158383131683831282161715613a6d57613a6d61482c565b8082025f8212600160ff1b84141615614dc257614dc261482c565b8181058314821517610cda57610cda61482c565b8082018281125f831280158216821582161715614df557614df561482c565b505092915050565b6001600160a01b03878116825286166020820152600285810b604083015284900b606082015260e08101614e346080830185614867565b825160a0830152602083015160c0830152979650505050505050565b5f8060408385031215614e61575f80fd5b505080516020909101519092909150565b5f8060408385031215614e83575f80fd5b8251614e8e816143df565b6020840151909250614e9f816143df565b809150509250929050565b5f600160ff1b8201614ebe57614ebe61482c565b505f0390565b5f8160020b627fffff198103614edc57614edc61482c565b5f0392915050565b5f82614ef257614ef2614d61565b500690565b60ff8281168282160390811115610cda57610cda61482c565b5f611f8d60ff841683614cb8565b5f8260020b8260020b028060020b9150808214613a6d57613a6d61482c565b5f805f805f805f80610100898b031215614f55575f80fd5b8851614f60816143df565b80985050602089015180600f0b8114614f77575f80fd5b80975050604089015195506060890151945060808901518060060b8114614f9c575f80fd5b60a08a0151909450614fad8161462b565b9250614fbb60c08a01614a1d565b9150614fc960e08a01614804565b90509295985092959890939650565b5f82614fe657614fe6614d61565b600160ff1b82145f1984141615614fff57614fff61482c565b500590565b5f8261501257615012614d61565b50079056fe757064617465506f736974696f6e732828696e7432342c696e7432342c75696e743132382c75696e743235362c696e743234295b335d2973657450726f746f636f6c506172616d6574657273282875696e74382c75696e74382c75696e74382c75696e7431365b325d2c75696e743235362c75696e743235362c696e7432342c696e7432342c696e7432342c75696e743235362c75696e743235362c75696e743235362c75696e743235362c75696e743235362c75696e743235362929a2646970667358221220910d14e3566922fed9c7c7de20236d818c497aeb14b41c651ed5652d212a939964736f6c63430008170033","linkReferences":{"src/libraries/Conversions.sol":{"Conversions":[{"start":4603,"length":20},{"start":9040,"length":20},{"start":11329,"length":20}]},"src/libraries/Logarithm.sol":{"Logarithm":[{"start":15100,"length":20}]}}},"methodIdentifiers":{"afterPresale()":"899e8689","bumpFloor(uint256)":"f326ddc8","burnTokens(uint256)":"6d1b229d","getAccumulatedFees()":"5df45a37","getFunctionSelectors()":"fd896f9d","getPositions()":"80275860","getProtocolParameters()":"c58aad87","getTimeSinceLastMint()":"dee02ffa","mintTokens(address,uint256)":"f0dda65c","pool()":"16f0115b","setManager(address)":"d0ebdbe7","setModelHelper(address)":"bf2e3dd2","setProtocolParameters((uint8,uint8,uint8,uint16[2],uint256,uint256,int24,int24,int24,uint256,uint256,uint256,uint256,uint256,uint256))":"a879b078","teamMultiSig()":"854567f1","updatePositions((int24,int24,uint128,uint256,int24)[3])":"95d7d0ad"},"id":125}