{"abi":[{"type":"function","name":"adaptiveSupply","inputs":[],"outputs":[{"name":"","type":"address","internalType":"address"}],"stateMutability":"view"},{"type":"function","name":"factory","inputs":[],"outputs":[{"name":"","type":"address","internalType":"address"}],"stateMutability":"view"},{"type":"function","name":"getExcessReserveToken1","inputs":[],"outputs":[{"name":"","type":"uint256","internalType":"uint256"}],"stateMutability":"view"},{"type":"function","name":"getFunctionSelectors","inputs":[],"outputs":[{"name":"","type":"bytes4[]","internalType":"bytes4[]"}],"stateMutability":"pure"},{"type":"function","name":"getProtocolAddresses","inputs":[],"outputs":[{"name":"","type":"tuple","internalType":"struct ProtocolAddresses","components":[{"name":"pool","type":"address","internalType":"address"},{"name":"vault","type":"address","internalType":"address"},{"name":"deployer","type":"address","internalType":"address"},{"name":"modelHelper","type":"address","internalType":"address"},{"name":"presaleContract","type":"address","internalType":"address"},{"name":"adaptiveSupplyController","type":"address","internalType":"address"}]}],"stateMutability":"view"},{"type":"function","name":"getUnderlyingBalances","inputs":[{"name":"liquidityType","type":"uint8","internalType":"enum LiquidityType"}],"outputs":[{"name":"","type":"int24","internalType":"int24"},{"name":"","type":"int24","internalType":"int24"},{"name":"","type":"uint256","internalType":"uint256"},{"name":"","type":"uint256","internalType":"uint256"}],"stateMutability":"view"},{"type":"function","name":"getVaultInfo","inputs":[],"outputs":[{"name":"vaultInfo","type":"tuple","internalType":"struct VaultInfo","components":[{"name":"liquidityRatio","type":"uint256","internalType":"uint256"},{"name":"circulatingSupply","type":"uint256","internalType":"uint256"},{"name":"spotPriceX96","type":"uint256","internalType":"uint256"},{"name":"anchorCapacity","type":"uint256","internalType":"uint256"},{"name":"floorCapacity","type":"uint256","internalType":"uint256"},{"name":"token0","type":"address","internalType":"address"},{"name":"token1","type":"address","internalType":"address"},{"name":"newFloor","type":"uint256","internalType":"uint256"}]}],"stateMutability":"view"},{"type":"function","name":"initialize","inputs":[{"name":"_factory","type":"address","internalType":"address"},{"name":"_owner","type":"address","internalType":"address"},{"name":"_deployer","type":"address","internalType":"address"},{"name":"_pool","type":"address","internalType":"address"},{"name":"_stakingContract","type":"address","internalType":"address"},{"name":"_proxyAddress","type":"address","internalType":"address"},{"name":"_presaleContract","type":"address","internalType":"address"},{"name":"_params","type":"tuple","internalType":"struct ProtocolParameters","components":[{"name":"floorPercentage","type":"uint8","internalType":"uint8"},{"name":"anchorPercentage","type":"uint8","internalType":"uint8"},{"name":"idoPriceMultiplier","type":"uint8","internalType":"uint8"},{"name":"floorBips","type":"uint16[2]","internalType":"uint16[2]"},{"name":"shiftRatio","type":"uint256","internalType":"uint256"},{"name":"slideRatio","type":"uint256","internalType":"uint256"},{"name":"discoveryBips","type":"int24","internalType":"int24"},{"name":"shiftAnchorUpperBips","type":"int24","internalType":"int24"},{"name":"slideAnchorUpperBips","type":"int24","internalType":"int24"},{"name":"lowBalanceThresholdFactor","type":"uint256","internalType":"uint256"},{"name":"highBalanceThresholdFactor","type":"uint256","internalType":"uint256"},{"name":"inflationFee","type":"uint256","internalType":"uint256"},{"name":"loanFee","type":"uint256","internalType":"uint256"},{"name":"deployFee","type":"uint256","internalType":"uint256"},{"name":"presalePremium","type":"uint256","internalType":"uint256"}]}],"outputs":[],"stateMutability":"nonpayable"},{"type":"function","name":"initializeLiquidity","inputs":[{"name":"positions","type":"tuple[3]","internalType":"struct LiquidityPosition[3]","components":[{"name":"lowerTick","type":"int24","internalType":"int24"},{"name":"upperTick","type":"int24","internalType":"int24"},{"name":"liquidity","type":"uint128","internalType":"uint128"},{"name":"price","type":"uint256","internalType":"uint256"},{"name":"tickSpacing","type":"int24","internalType":"int24"}]}],"outputs":[],"stateMutability":"nonpayable"},{"type":"function","name":"modelHelper","inputs":[],"outputs":[{"name":"","type":"address","internalType":"address"}],"stateMutability":"view"},{"type":"function","name":"setFees","inputs":[{"name":"_feesAccumulatedToken0","type":"uint256","internalType":"uint256"},{"name":"_feesAccumulatedToken1","type":"uint256","internalType":"uint256"}],"outputs":[],"stateMutability":"nonpayable"},{"type":"function","name":"uniswapV3MintCallback","inputs":[{"name":"amount0Owed","type":"uint256","internalType":"uint256"},{"name":"amount1Owed","type":"uint256","internalType":"uint256"},{"name":"data","type":"bytes","internalType":"bytes"}],"outputs":[],"stateMutability":"nonpayable"},{"type":"event","name":"FloorUpdated","inputs":[{"name":"floorPrice","type":"uint256","indexed":false,"internalType":"uint256"},{"name":"floorCapacity","type":"uint256","indexed":false,"internalType":"uint256"}],"anonymous":false},{"type":"error","name":"AlreadyInitialized","inputs":[]},{"type":"error","name":"CallbackCaller","inputs":[]},{"type":"error","name":"InvalidPosition","inputs":[]},{"type":"error","name":"OnlyDeployer","inputs":[]},{"type":"error","name":"OnlyFactory","inputs":[]},{"type":"error","name":"OnlyInternalCalls","inputs":[]},{"type":"error","name":"ResolverNotSet","inputs":[]}],"bytecode":{"object":"0x608060405234801561001057600080fd5b50611d07806100206000396000f3fe608060405234801561001057600080fd5b50600436106100b45760003560e01c8063c45a015511610071578063c45a0155146101f7578063d3487997146101ff578063ef5ddb3114610212578063f4a1a46d1461021a578063fd896f9d14610255578063ffb938db1461026a57600080fd5b80630b78f9c0146100b957806314cdce32146100ce5780637f98aa71146100e15780637fd762af14610161578063a1774da014610174578063a3e44b33146101d7575b600080fd5b6100cc6100c73660046114e7565b610280565b005b6100cc6100dc366004611658565b6102f1565b6100e961074c565b6040516101589190600061010082019050825182526020830151602083015260408301516040830152606083015160608301526080830151608083015260a083015160018060a01b0380821660a08501528060c08601511660c0850152505060e083015160e083015292915050565b60405180910390f35b6100cc61016f3660046117ea565b610842565b61017c610a1e565b604051610158919081516001600160a01b03908116825260208084015182169083015260408084015182169083015260608084015182169083015260808084015182169083015260a092830151169181019190915260c00190565b6101df610ac5565b6040516001600160a01b039091168152602001610158565b6101df610b98565b6100cc61020d3660046118c0565b610c20565b6101df610e43565b61022d610228366004611940565b610ed5565b60408051600295860b81529390940b6020840152928201526060810191909152608001610158565b61025d610f71565b6040516101589190611968565b61027261130f565b604051908152602001610158565b6000546001600160a01b0316331480159061029b5750333014155b156102b95760405163139f696160e31b815260040160405180910390fd5b81600060280160008282546102ce91906119cc565b9091555050602980548291906000906102e89084906119cc565b90915550505050565b6102f9610b98565b6001600160a01b0316336001600160a01b03161461032a57604051630636a15760e11b815260040160405180910390fd5b7f69730368e6694620030103ebb8c2fe0f33ca206057d7fbee6e88a9161a059d29547f69730368e6694620030103ebb8c2fe0f33ca206057d7fbee6e88a9161a059d24906001600160a01b031661039457604051630d09117560e41b815260040160405180910390fd5b6005810154600280546001600160a01b039283166001600160a01b031991821617909155602780546601000000000000600160d01b031916600160301b8a851681029190911791829055600080549093168d85161790925560408051630dfe168160e01b815290519290910490921691630dfe16819160048083019260209291908290030181865afa15801561042e573d6000803e3d6000fd5b505050506040513d601f19601f8201168201806040525081019061045291906119f0565b602580546001600160a01b0319166001600160a01b039283161790556027546040805163d21220a760e01b81529051600160301b9092049092169163d21220a79160048083019260209291908290030181865afa1580156104b7573d6000803e3d6000fd5b505050506040513d601f19601f820116820180604052508101906104db91906119f0565b602680546001600160a01b03199081166001600160a01b0393841617909155601480546101808601516006556016805484168a861617905560178054841688861617905560188054909316888516179092556001600160b01b031990911662010000928a1683021790558251600980546020860151604087015160ff94851661ffff1990931692909217610100918516919091021762ff000019169216909202178155606083015183919061059490600a90600261143c565b506080820151600282015560a0820151600382015560c08201516004808301805460e086015161010087015162ffffff95861665ffffffffffff19909316929092176301000000918616919091021768ffffff0000000000001916600160301b94909116840217905561012084015160058401556101408401516006840155610160840151600784015561018084015160088401556101a084015160098401556101c090930151600a90920191909155600180546001600160a01b0319166001600160a01b038c81169190911790915560275460408051630dfe168160e01b815290519390910490911692630dfe16819282820192602092908290030181865afa1580156106a6573d6000803e3d6000fd5b505050506040513d601f19601f820116820180604052508101906106ca91906119f0565b60405163095ea7b360e01b81526001600160a01b0389811660048301526000196024830152919091169063095ea7b3906044016020604051808303816000875af115801561071c573d6000803e3d6000fd5b505050506040513d601f19601f820116820180604052508101906107409190611a0d565b50505050505050505050565b6107a6604051806101000160405280600081526020016000815260200160008152602001600081526020016000815260200160006001600160a01b0316815260200160006001600160a01b03168152602001600081525090565b6107ae610ac5565b602754604051638a3fecc960e01b81526001600160a01b03600160301b909204821660048201523060248201526025548216604482015260265482166064820152911690638a3fecc99060840161010060405180830381865afa158015610819573d6000803e3d6000fd5b505050506040513d601f19601f8201168201806040525081019061083d9190611a2f565b905090565b6014546201000090046001600160a01b031633146108735760405163618bbdd560e01b815260040160405180910390fd5b60145460ff16156108965760405162dc149f60e41b815260040160405180910390fd5b8051604001516001600160801b031615806108c057506020810151604001516001600160801b0316155b806108d9575060408082015101516001600160801b0316155b156108f75760405163673f032f60e11b815260040160405180910390fd5b6014805460ff1916600117905580518051601a805460208085015160408087015162ffffff96871665ffffffffffff1995861617630100000093881684021775ffffffffffffffffffffffffffffffff00000000000019908116600160301b6001600160801b039384168102919091179097556060808a0151601b556080998a0151601c805462ffffff19908116928c16929092179055868c01518051601d8054838b0151848a0151938f16918d1691909117908e168a021786169187168c0291909117905580830151601e558b0151601f80548316918c169190911790559a840151805187548289015196830151918c16991698909817948a16909502939093171694169094029290921790559081015160215590910151602280549093169116179055565b6040805160c081018252600080825260208201819052918101829052606081018290526080810182905260a08101919091526040805160c0810182526027546001600160a01b03600160301b90910481168252306020830152601454620100009004169181019190915260608101610a94610ac5565b6001600160a01b039081168252601754166020820152604001610ab5610e43565b6001600160a01b03169052919050565b600080610ad061139c565b9050806001600160a01b031663dacb2d01610b0d6040518060400160405280600b81526020016a26b7b232b62432b63832b960a91b8152506113dd565b6040518263ffffffff1660e01b8152600401610b51918152604060208201819052600e908201526d37379026b7b232b62432b63832b960911b606082015260800190565b602060405180830381865afa158015610b6e573d6000803e3d6000fd5b505050506040513d601f19601f82011682018060405250810190610b9291906119f0565b91505090565b600080610ba361139c565b9050806001600160a01b031663dacb2d01610be06040518060400160405280600b81526020016a4e6f6d61466163746f727960a81b8152506113dd565b6040518263ffffffff1660e01b8152600401610b51918152604060208201819052600a90820152696e6f20466163746f727960b01b606082015260800190565b602754600160301b90046001600160a01b03163314610c52576040516348b77d9160e11b815260040160405180910390fd5b6025546040516370a0823160e01b81523060048201526000916001600160a01b0316906370a0823190602401602060405180830381865afa158015610c9b573d6000803e3d6000fd5b505050506040513d601f19601f82011682018060405250810190610cbf9190611ae8565b6026546040516370a0823160e01b81523060048201529192506000916001600160a01b03909116906370a0823190602401602060405180830381865afa158015610d0d573d6000803e3d6000fd5b505050506040513d601f19601f82011682018060405250810190610d319190611ae8565b9050858210610db7578515610db75760255460405163a9059cbb60e01b8152336004820152602481018890526001600160a01b039091169063a9059cbb906044016020604051808303816000875af1158015610d91573d6000803e3d6000fd5b505050506040513d601f19601f82011682018060405250810190610db59190611a0d565b505b848110610e3b578415610e3b5760265460405163a9059cbb60e01b8152336004820152602481018790526001600160a01b039091169063a9059cbb906044016020604051808303816000875af1158015610e15573d6000803e3d6000fd5b505050506040513d601f19601f82011682018060405250810190610e399190611a0d565b505b505050505050565b600080610e4e61139c565b9050806001600160a01b031663dacb2d01610e8e6040518060400160405280600e81526020016d4164617074697665537570706c7960901b8152506113dd565b6040518263ffffffff1660e01b8152600401610b51918152604060208201819052601190820152706e6f204164617074697665537570706c7960781b606082015260800190565b600080600080610ee3610ac5565b6027546040516317886cbb60e11b81526001600160a01b0392831692632f10d97692610f2192600160301b9091049091169030908a90600401611b01565b608060405180830381865afa158015610f3e573d6000803e3d6000fd5b505050506040513d601f19601f82011682018060405250810190610f629190611b45565b93509350935093509193509193565b6040805160088082526101208201909252606091600091906020820161010080368337505060408051808201909152600e81526d6765745661756c74496e666f282960901b6020909101525080519091507f7f98aa714a3525a7c26e3db0020339a51582b26f1979450e3cd048c68a8cda4b908290600090610ff557610ff5611ad2565b60200260200101906001600160e01b03191690816001600160e01b031916815250506040518060e0016040528060b38152602001611bb860b39139805190602001208160018151811061104a5761104a611ad2565b60200260200101906001600160e01b03191690816001600160e01b031916815250506040518060600160405280603b8152602001611c6b603b9139805190602001208160028151811061109f5761109f611ad2565b60200260200101906001600160e01b03191690816001600160e01b031916815250506040518060600160405280602c8152602001611ca6602c913980519060200120816003815181106110f4576110f4611ad2565b6001600160e01b031990921660209283029190910182015260408051808201909152601c81527f676574556e6465726c79696e6742616c616e6365732875696e7438290000000091015280517ff4a1a46d9751fea7e3c0d062d30718ab082c893574174cf12af66e299ce647f5908290600490811061117557611175611ad2565b6001600160e01b031990921660209283029190910182015260408051808201909152601881527f67657445786365737352657365727665546f6b656e312829000000000000000091015280517fffb938db9e30e82b807a6ab855c99d6aa577bd70313c73ac1cad97f6c8af88dd90829060059081106111f6576111f6611ad2565b6001600160e01b031990921660209283029190910182015260408051808201909152601681527567657450726f746f636f6c416464726573736573282960501b91015280517fa1774da0607326e7b68dddef0ef263fd071b35b63439913ee80d4e75e89b0783908290600690811061127057611270611ad2565b6001600160e01b031990921660209283029190910182015260408051808201909152601881527f736574466565732875696e743235362c75696e7432353629000000000000000091015280517f0b78f9c0c079f44f7aa9e8a073994e94ea5f1ec98f3c0123d3c8350dcfca20c290829060079081106112f1576112f1611ad2565b6001600160e01b031990921660209283029190910190910152919050565b60008061131a610ac5565b602754604051630c45b42360e11b81526001600160a01b03600160301b90920482166004820152306024820152831515604482015291169063188b684690606401602060405180830381865afa158015611378573d6000803e3d6000fd5b505050506040513d601f19601f82011682018060405250810190610b929190611ae8565b6002546001600160a01b0316806113da57507f69730368e6694620030103ebb8c2fe0f33ca206057d7fbee6e88a9161a059d29546001600160a01b03165b90565b8051600090829082036113f35750600092915050565b60208151111561140257600080fd5b602083015181519092505b60208110156114355761142181601f611b8d565b61142c906008611ba0565b5060010161140d565b5050919050565b6001830191839082156114c25791602002820160005b8382111561149257835183826101000a81548161ffff021916908361ffff1602179055509260200192600201602081600101049283019260010302611452565b80156114c05782816101000a81549061ffff0219169055600201602081600101049283019260010302611492565b505b506114ce9291506114d2565b5090565b5b808211156114ce57600081556001016114d3565b600080604083850312156114fa57600080fd5b50508035926020909101359150565b6001600160a01b038116811461151e57600080fd5b50565b634e487b7160e01b600052604160045260246000fd5b6040516101e0810167ffffffffffffffff8111828210171561155b5761155b611521565b60405290565b60405160a0810167ffffffffffffffff8111828210171561155b5761155b611521565b6040516060810167ffffffffffffffff8111828210171561155b5761155b611521565b803560ff811681146115b857600080fd5b919050565b600082601f8301126115ce57600080fd5b6040516040810181811067ffffffffffffffff821117156115f1576115f1611521565b806040525080604084018581111561160857600080fd5b845b8181101561163357803561ffff811681146116255760008081fd5b83526020928301920161160a565b509195945050505050565b8060020b811461151e57600080fd5b80356115b88161163e565b600080600080600080600080888a036102e081121561167657600080fd5b893561168181611509565b985060208a013561169181611509565b975060408a01356116a181611509565b965060608a01356116b181611509565b955060808a01356116c181611509565b945060a08a01356116d181611509565b935060c08a01356116e181611509565b925061020060df19820112156116f657600080fd5b506116ff611537565b61170b60e08b016115a7565b815261171a6101008b016115a7565b602082015261172c6101208b016115a7565b60408201526101406117408c828d016115bd565b6060830152610180808c013560808401526101a0808d013560a08501526101c061176b818f0161164d565b60c086015261177d6101e08f0161164d565b60e086015261178f6102008f0161164d565b6101008601526102208e01356101208601526102408e0135848601526102608e01356101608601526102808e0135838601526102a08e0135828601526102c08e01358186015250505050809150509295985092959890939650565b60006101e08083850312156117fe57600080fd5b83601f84011261180d57600080fd5b611815611584565b90830190808583111561182757600080fd5b845b838110156118b65760a081880312156118425760008081fd5b61184a611561565b81356118558161163e565b81526020828101356118668161163e565b828201526040838101356001600160801b03811681146118865760008081fd5b90830152606083810135908301526080808401356118a38161163e565b908301529084529092019160a001611829565b5095945050505050565b600080600080606085870312156118d657600080fd5b8435935060208501359250604085013567ffffffffffffffff808211156118fc57600080fd5b818701915087601f83011261191057600080fd5b81358181111561191f57600080fd5b88602082850101111561193157600080fd5b95989497505060200194505050565b60006020828403121561195257600080fd5b81356003811061196157600080fd5b9392505050565b6020808252825182820181905260009190848201906040850190845b818110156119aa5783516001600160e01b03191683529284019291840191600101611984565b50909695505050505050565b634e487b7160e01b600052601160045260246000fd5b808201808211156119df576119df6119b6565b92915050565b80516115b881611509565b600060208284031215611a0257600080fd5b815161196181611509565b600060208284031215611a1f57600080fd5b8151801515811461196157600080fd5b6000610100808385031215611a4357600080fd5b6040519081019067ffffffffffffffff82118183101715611a6657611a66611521565b81604052835181526020840151602082015260408401516040820152606084015160608201526080840151608082015260a08401519150611aa682611509565b8160a0820152611ab860c085016119e5565b60c082015260e084015160e0820152809250505092915050565b634e487b7160e01b600052603260045260246000fd5b600060208284031215611afa57600080fd5b5051919050565b6001600160a01b038481168252831660208201526060810160038310611b3757634e487b7160e01b600052602160045260246000fd5b826040830152949350505050565b60008060008060808587031215611b5b57600080fd5b8451611b668161163e565b6020860151909450611b778161163e565b6040860151606090960151949790965092505050565b818103818111156119df576119df6119b6565b80820281158282048414176119df576119df6119b656fe696e697469616c697a6528616464726573732c616464726573732c616464726573732c616464726573732c616464726573732c616464726573732c616464726573732c2875696e74382c75696e74382c75696e74382c75696e7431365b325d2c75696e743235362c75696e743235362c696e7432342c696e7432342c696e7432342c75696e743235362c75696e743235362c75696e743235362c75696e743235362c75696e743235362c75696e743235362929696e697469616c697a654c69717569646974792828696e7432342c696e7432342c75696e743132382c75696e743235362c696e743234295b335d29756e697377617056334d696e7443616c6c6261636b2875696e743235362c75696e743235362c627974657329a26469706673582212200c5c08342700334e1b5807f141950786767c85edf8087339b051eb3cdd398df264736f6c63430008170033","linkReferences":{}},"methodIdentifiers":{"adaptiveSupply()":"ef5ddb31","factory()":"c45a0155","getExcessReserveToken1()":"ffb938db","getFunctionSelectors()":"fd896f9d","getProtocolAddresses()":"a1774da0","getUnderlyingBalances(uint8)":"f4a1a46d","getVaultInfo()":"7f98aa71","initialize(address,address,address,address,address,address,address,(uint8,uint8,uint8,uint16[2],uint256,uint256,int24,int24,int24,uint256,uint256,uint256,uint256,uint256,uint256))":"14cdce32","initializeLiquidity((int24,int24,uint128,uint256,int24)[3])":"7fd762af","modelHelper()":"a3e44b33","setFees(uint256,uint256)":"0b78f9c0","uniswapV3MintCallback(uint256,uint256,bytes)":"d3487997"},"id":125}