{"abi":[{"type":"constructor","inputs":[],"stateMutability":"nonpayable"},{"type":"receive","stateMutability":"payable"},{"type":"function","name":"WETH","inputs":[],"outputs":[{"name":"","type":"address","internalType":"address"}],"stateMutability":"view"},{"type":"function","name":"buyTokensETH","inputs":[{"name":"pool","type":"address","internalType":"address"},{"name":"price","type":"uint256","internalType":"uint256"},{"name":"amount","type":"uint256","internalType":"uint256"},{"name":"receiver","type":"address","internalType":"address"},{"name":"isLimitOrder","type":"bool","internalType":"bool"}],"outputs":[],"stateMutability":"payable"},{"type":"function","name":"buyTokensWETH","inputs":[{"name":"pool","type":"address","internalType":"address"},{"name":"price","type":"uint256","internalType":"uint256"},{"name":"amount","type":"uint256","internalType":"uint256"},{"name":"receiver","type":"address","internalType":"address"},{"name":"isLimitOrder","type":"bool","internalType":"bool"}],"outputs":[],"stateMutability":"nonpayable"},{"type":"function","name":"poolAddress","inputs":[],"outputs":[{"name":"","type":"address","internalType":"address"}],"stateMutability":"view"},{"type":"function","name":"sellTokens","inputs":[{"name":"pool","type":"address","internalType":"address"},{"name":"price","type":"uint256","internalType":"uint256"},{"name":"amount","type":"uint256","internalType":"uint256"},{"name":"receiver","type":"address","internalType":"address"},{"name":"isLimitOrder","type":"bool","internalType":"bool"}],"outputs":[],"stateMutability":"nonpayable"},{"type":"function","name":"tickSpacing","inputs":[],"outputs":[{"name":"","type":"int24","internalType":"int24"}],"stateMutability":"view"},{"type":"function","name":"tokenInfo","inputs":[],"outputs":[{"name":"token0","type":"address","internalType":"address"},{"name":"token1","type":"address","internalType":"address"}],"stateMutability":"view"},{"type":"function","name":"uniswapV3SwapCallback","inputs":[{"name":"amount0Delta","type":"int256","internalType":"int256"},{"name":"amount1Delta","type":"int256","internalType":"int256"},{"name":"data","type":"bytes","internalType":"bytes"}],"outputs":[],"stateMutability":"nonpayable"},{"type":"error","name":"InvalidDecimals","inputs":[]},{"type":"error","name":"InvalidSwap","inputs":[]},{"type":"error","name":"NoTokensExchanged","inputs":[]}],"bytecode":{"object":"0x6080604052600380546001600160a01b0319167382af49447d8a07e3bd95bd0d56f35241523fbab117905534801561003657600080fd5b50611b6a806100466000396000f3fe60806040526004361061007f5760003560e01c80638031d5101161004e5780638031d51014610151578063ad5c464814610164578063d0c93a7c14610184578063fa461e33146101ac57600080fd5b80631755ff211461008b5780632a00e91c146100c85780632bfd2ea7146100ea5780636addb6631461010a57600080fd5b3661008657005b600080fd5b34801561009757600080fd5b506002546100ab906001600160a01b031681565b6040516001600160a01b0390911681526020015b60405180910390f35b3480156100d457600080fd5b506100e86100e33660046115e3565b6101cc565b005b3480156100f657600080fd5b506100e86101053660046115e3565b610481565b34801561011657600080fd5b50600054600154610131916001600160a01b03908116911682565b604080516001600160a01b039384168152929091166020830152016100bf565b6100e861015f3660046115e3565b610716565b34801561017057600080fd5b506003546100ab906001600160a01b031681565b34801561019057600080fd5b50610199603c81565b60405160029190910b81526020016100bf565b3480156101b857600080fd5b506100e86101c7366004611642565b610bd2565b600354600160a01b900460ff16156101ff5760405162461bcd60e51b81526004016101f6906116c2565b60405180910390fd5b6003805460ff60a01b1916600160a01b1790558261022f5760405162461bcd60e51b81526004016101f6906116f9565b6040518060400160405280866001600160a01b0316630dfe16816040518163ffffffff1660e01b8152600401602060405180830381865afa158015610278573d6000803e3d6000fd5b505050506040513d601f19601f8201168201806040525081019061029c9190611746565b6001600160a01b03168152602001866001600160a01b031663d21220a76040518163ffffffff1660e01b8152600401602060405180830381865afa1580156102e8573d6000803e3d6000fd5b505050506040513d601f19601f8201168201806040525081019061030c9190611746565b6001600160a01b039081169091528151600080546001600160a01b031990811692841692831790915560209093015160018054851691841691909117905560028054909316918816919091179091556040516323b872dd60e01b8152336004820152306024820152604481018590526323b872dd906064016020604051808303816000875af11580156103a3573d6000803e3d6000fd5b505050506040513d601f19601f820116820180604052508101906103c79190611763565b50600080546040805163313ce56760e01b815290516001600160a01b039092169163313ce567916004808201926020929091908290030181865afa158015610413573d6000803e3d6000fd5b505050506040513d601f19601f820116820180604052508101906104379190611780565b60005460015491925061046a91889186916001600160a01b0391821691166104618a603c88610d80565b89600089610d9d565b50506003805460ff60a01b19169055505050505050565b600354600160a01b900460ff16156104ab5760405162461bcd60e51b81526004016101f6906116c2565b6003805460ff60a01b1916600160a01b179055826104db5760405162461bcd60e51b81526004016101f6906116f9565b6040518060400160405280866001600160a01b0316630dfe16816040518163ffffffff1660e01b8152600401602060405180830381865afa158015610524573d6000803e3d6000fd5b505050506040513d601f19601f820116820180604052508101906105489190611746565b6001600160a01b03168152602001866001600160a01b031663d21220a76040518163ffffffff1660e01b8152600401602060405180830381865afa158015610594573d6000803e3d6000fd5b505050506040513d601f19601f820116820180604052508101906105b89190611746565b6001600160a01b039081169091528151600080546001600160a01b031990811692841692831790915560209093015160018054851691841691909117905560028054909316918816919091179091556040516323b872dd60e01b8152336004820152306024820152604481018590526323b872dd906064016020604051808303816000875af115801561064f573d6000803e3d6000fd5b505050506040513d601f19601f820116820180604052508101906106739190611763565b50600080546040805163313ce56760e01b815290516001600160a01b039092169163313ce567916004808201926020929091908290030181865afa1580156106bf573d6000803e3d6000fd5b505050506040513d601f19601f820116820180604052508101906106e39190611780565b60005460015491925061046a91889186916001600160a01b03918216911661070d8a603c88610d80565b89600189610d9d565b600354600160a01b900460ff16156107405760405162461bcd60e51b81526004016101f6906116c2565b6003805460ff60a01b1916600160a01b179055346107a05760405162461bcd60e51b815260206004820152601b60248201527f45786368616e676548656c7065723a204e6f204554482073656e74000000000060448201526064016101f6565b6040518060400160405280866001600160a01b0316630dfe16816040518163ffffffff1660e01b8152600401602060405180830381865afa1580156107e9573d6000803e3d6000fd5b505050506040513d601f19601f8201168201806040525081019061080d9190611746565b6001600160a01b03168152602001866001600160a01b031663d21220a76040518163ffffffff1660e01b8152600401602060405180830381865afa158015610859573d6000803e3d6000fd5b505050506040513d601f19601f8201168201806040525081019061087d9190611746565b6001600160a01b039081169091528151600080549183166001600160a01b0319928316811782556020948501516001805491861691851691909117905560028054948b1694909316939093179091556040805163313ce56760e01b81529051919363313ce567926004808401938290030181865afa158015610903573d6000803e3d6000fd5b505050506040513d601f19601f820116820180604052508101906109279190611780565b6003546040516370a0823160e01b81523060048201529192506000916001600160a01b03909116906370a08231906024016020604051808303816000875af1158015610977573d6000803e3d6000fd5b505050506040513d601f19601f8201168201806040525081019061099b91906117a3565b9050600360009054906101000a90046001600160a01b03166001600160a01b031663d0e30db0346040518263ffffffff1660e01b81526004016000604051808303818588803b1580156109ed57600080fd5b505af1158015610a01573d6000803e3d6000fd5b505060008054600154919450849350610a3b92508b9189916001600160a01b039081169116610a328d603c8b610d80565b3460008c610d9d565b9150915060008212610a9a5760405162461bcd60e51b815260206004820152602260248201527f45786368616e676548656c7065723a204e6f20746f6b656e3020726563656976604482015261195960f21b60648201526084016101f6565b6000610aa5836117d2565b6003546040516370a0823160e01b815230600482015291925060009186916001600160a01b0316906370a08231906024016020604051808303816000875af1158015610af5573d6000803e3d6000fd5b505050506040513d601f19601f82011682018060405250810190610b1991906117a3565b610b2391906117ee565b90508015610bb857600354604051632e1a7d4d60e01b8152600481018390526001600160a01b0390911690632e1a7d4d90602401600060405180830381600087803b158015610b7157600080fd5b505af1158015610b85573d6000803e3d6000fd5b505060405133925083156108fc02915083906000818181858888f19350505050158015610bb6573d6000803e3d6000fd5b505b50506003805460ff60a01b19169055505050505050505050565b6002546001600160a01b03163314610c3d5760405162461bcd60e51b815260206004820152602860248201527f45786368616e676548656c7065723a2043616c6c6261636b2063616c6c6572206044820152671b9bdd081c1bdbdb60c21b60648201526084016101f6565b6000841315610cc15760005460405163a9059cbb60e01b8152336004820152602481018690526001600160a01b039091169063a9059cbb906044016020604051808303816000875af1158015610c97573d6000803e3d6000fd5b505050506040513d601f19601f82011682018060405250810190610cbb9190611763565b50610d41565b6000831315610d415760015460405163a9059cbb60e01b8152336004820152602481018590526001600160a01b039091169063a9059cbb906044016020604051808303816000875af1158015610d1b573d6000803e3d6000fd5b505050506040513d601f19601f82011682018060405250810190610d3f9190611763565b505b5050604080518082019091526000808252602090910181905280546001600160a01b031990811690915560018054821690556002805490911690555050565b6000610d95610d90858585610ff4565b61113d565b949350505050565b600080600084610dad5788610daf565b875b6040516370a0823160e01b81526001600160a01b038c8116600483015291909116906370a0823190602401602060405180830381865afa158015610df7573d6000803e3d6000fd5b505050506040513d601f19601f82011682018060405250810190610e1b91906117a3565b9050600085610e4a576064610e31896005611801565b610e3b9190611849565b610e45908961186f565b610e6b565b6064610e57896005611801565b610e619190611849565b610e6b9089611896565b90508b6001600160a01b031663128acb088c888a89610e8a5785610e8c565b8c5b60405160e086901b6001600160e01b03191681526001600160a01b03948516600482015292151560248401526044830191909152909116606482015260a06084820152600060a482015260c40160408051808303816000875af1925050508015610f13575060408051601f3d908101601f19168201909252610f10918101906118b6565b60015b610f3057604051631115766760e01b815260040160405180910390fd5b819550809450600088610f43578c610f45565b8b5b6001600160a01b03166370a082318f6040518263ffffffff1660e01b8152600401610f7f91906001600160a01b0391909116815260200190565b602060405180830381865afa158015610f9c573d6000803e3d6000fd5b505050506040513d601f19601f82011682018060405250810190610fc091906117a3565b9050808503610fe2576040516304ecdfb360e41b815260040160405180910390fd5b50505050509850989650505050505050565b600060068260ff161015801561100e575060128260ff1611155b61102b57604051630692acc560e51b815260040160405180910390fd5b60006110388360126118da565b61104390600a6119d7565b905061104f81866119e6565b94508361112a68033dd1780914b9684073__$28bae0af19d0e90d77349cc0e88bc3c39a$__63bc4225aa61108b8a670de0b6b3a76400006119e6565b6040516001600160e01b031960e084901b1681526004810191909152670de0b6b3a764000060248201526706f05b59d3b200006044820152606401602060405180830381865af41580156110e3573d6000803e3d6000fd5b505050506040513d601f19601f8201168201806040525081019061110791906117a3565b6111119190611a16565b611125600288900b658334ae9d7c0a6119e6565b61114e565b6111349190611a36565b95945050505050565b6000611148826111a5565b92915050565b60006113886127108361116186836119e6565b61116b9190611a56565b6111759190611a84565b13611189576111848284611a56565b61119e565b6111938284611a56565b61119e906001611a98565b9392505050565b60008060008360020b126111bc578260020b6111c9565b8260020b6111c9906117d2565b90506111d8620d89e719611ac0565b60020b81111561120e5760405162461bcd60e51b81526020600482015260016024820152601560fa1b60448201526064016101f6565b60008160011660000361122557600160801b611237565b6ffffcb933bd6fad37aa2d162d1a5940015b70ffffffffffffffffffffffffffffffffff1690506002821615611276576080611271826ffff97272373d413259a46990580e213a611ae2565b901c90505b60048216156112a057608061129b826ffff2e50f5f656932ef12357cf3c7fdcc611ae2565b901c90505b60088216156112ca5760806112c5826fffe5caca7e10e4e61c3624eaa0941cd0611ae2565b901c90505b60108216156112f45760806112ef826fffcb9843d60f6159c9db58835c926644611ae2565b901c90505b602082161561131e576080611319826fff973b41fa98c081472e6896dfb254c0611ae2565b901c90505b6040821615611348576080611343826fff2ea16466c96a3843ec78b326b52861611ae2565b901c90505b608082161561137257608061136d826ffe5dee046a99a2a811c461f1969c3053611ae2565b901c90505b61010082161561139d576080611398826ffcbe86c7900a88aedcffc83b479aa3a4611ae2565b901c90505b6102008216156113c85760806113c3826ff987a7253ac413176f2b074cf7815e54611ae2565b901c90505b6104008216156113f35760806113ee826ff3392b0822b70005940c7a398e4b70f3611ae2565b901c90505b61080082161561141e576080611419826fe7159475a2c29b7443b29c7fa6e889d9611ae2565b901c90505b611000821615611449576080611444826fd097f3bdfd2022b8845ad8f792aa5825611ae2565b901c90505b61200082161561147457608061146f826fa9f746462d870fdf8a65dc1f90e061e5611ae2565b901c90505b61400082161561149f57608061149a826f70d869a156d2a1b890bb3df62baf32f7611ae2565b901c90505b6180008216156114ca5760806114c5826f31be135f97d08fd981231505542fcfa6611ae2565b901c90505b620100008216156114f65760806114f1826f09aa508b5b7a84e1c677de54f3e99bc9611ae2565b901c90505b6202000082161561152157608061151c826e5d6af8dedb81196699c329225ee604611ae2565b901c90505b6204000082161561154b576080611546826d2216e584f5fa1ea926041bedfe98611ae2565b901c90505b6208000082161561157357608061156e826b048a170391f7dc42444e8fa2611ae2565b901c90505b60008460020b131561158e5761158b81600019611af9565b90505b61159d64010000000082611b0d565b156115a95760016115ac565b60005b610d959060ff16602083901c611b21565b6001600160a01b03811681146115d257600080fd5b50565b80151581146115d257600080fd5b600080600080600060a086880312156115fb57600080fd5b8535611606816115bd565b945060208601359350604086013592506060860135611624816115bd565b91506080860135611634816115d5565b809150509295509295909350565b6000806000806060858703121561165857600080fd5b8435935060208501359250604085013567ffffffffffffffff8082111561167e57600080fd5b818701915087601f83011261169257600080fd5b8135818111156116a157600080fd5b8860208285010111156116b357600080fd5b95989497505060200194505050565b6020808252601e908201527f45786368616e676548656c7065723a205265656e7472616e742063616c6c0000604082015260600190565b6020808252602d908201527f45786368616e676548656c7065723a20416d6f756e74206d757374206265206760408201526c0726561746572207468616e203609c1b606082015260800190565b60006020828403121561175857600080fd5b815161119e816115bd565b60006020828403121561177557600080fd5b815161119e816115d5565b60006020828403121561179257600080fd5b815160ff8116811461119e57600080fd5b6000602082840312156117b557600080fd5b5051919050565b634e487b7160e01b600052601160045260246000fd5b6000600160ff1b82016117e7576117e76117bc565b5060000390565b81810381811115611148576111486117bc565b6001600160a01b0382811682821681810283169291811582850482141761182a5761182a6117bc565b50505092915050565b634e487b7160e01b600052601260045260246000fd5b60006001600160a01b038381168061186357611863611833565b92169190910492915050565b6001600160a01b0381811683821601908082111561188f5761188f6117bc565b5092915050565b6001600160a01b0382811682821603908082111561188f5761188f6117bc565b600080604083850312156118c957600080fd5b505080516020909101519092909150565b60ff8281168282160390811115611148576111486117bc565b600181815b8085111561192e578160001904821115611914576119146117bc565b8085161561192157918102915b93841c93908002906118f8565b509250929050565b60008261194557506001611148565b8161195257506000611148565b816001811461196857600281146119725761198e565b6001915050611148565b60ff841115611983576119836117bc565b50506001821b611148565b5060208310610133831016604e8410600b84101617156119b1575081810a611148565b6119bb83836118f3565b80600019048211156119cf576119cf6117bc565b029392505050565b600061119e60ff841683611936565b80820260008212600160ff1b84141615611a0257611a026117bc565b8181058314821517611148576111486117bc565b818103600083128015838313168383128216171561188f5761188f6117bc565b60008260020b8260020b028060020b915080821461188f5761188f6117bc565b600082611a6557611a65611833565b600160ff1b821460001984141615611a7f57611a7f6117bc565b500590565b600082611a9357611a93611833565b500790565b8082018281126000831280158216821582161715611ab857611ab86117bc565b505092915050565b60008160020b627fffff198103611ad957611ad96117bc565b60000392915050565b8082028115828204841417611148576111486117bc565b600082611b0857611b08611833565b500490565b600082611b1c57611b1c611833565b500690565b80820180821115611148576111486117bc56fea264697066735822122077e34531087eb3507126afc386097f35d5c44385bef21612b370506006a0679c64736f6c63430008170033","linkReferences":{"src/libraries/Logarithm.sol":{"Logarithm":[{"start":4263,"length":20}]}}},"methodIdentifiers":{"WETH()":"ad5c4648","buyTokensETH(address,uint256,uint256,address,bool)":"8031d510","buyTokensWETH(address,uint256,uint256,address,bool)":"2a00e91c","poolAddress()":"1755ff21","sellTokens(address,uint256,uint256,address,bool)":"2bfd2ea7","tickSpacing()":"d0c93a7c","tokenInfo()":"6addb663","uniswapV3SwapCallback(int256,int256,bytes)":"fa461e33"},"id":74}