{"abi":[{"type":"constructor","inputs":[{"name":"wrappedMonAddress","type":"address","internalType":"address"}],"stateMutability":"nonpayable"},{"type":"receive","stateMutability":"payable"},{"type":"function","name":"WMON","inputs":[],"outputs":[{"name":"","type":"address","internalType":"address"}],"stateMutability":"view"},{"type":"function","name":"buyTokens","inputs":[{"name":"pool","type":"address","internalType":"address"},{"name":"price","type":"uint256","internalType":"uint256"},{"name":"amount","type":"uint256","internalType":"uint256"},{"name":"receiver","type":"address","internalType":"address"},{"name":"isLimitOrder","type":"bool","internalType":"bool"}],"outputs":[],"stateMutability":"payable"},{"type":"function","name":"buyTokensWETH","inputs":[{"name":"pool","type":"address","internalType":"address"},{"name":"price","type":"uint256","internalType":"uint256"},{"name":"amount","type":"uint256","internalType":"uint256"},{"name":"receiver","type":"address","internalType":"address"},{"name":"isLimitOrder","type":"bool","internalType":"bool"}],"outputs":[],"stateMutability":"nonpayable"},{"type":"function","name":"poolAddress","inputs":[],"outputs":[{"name":"","type":"address","internalType":"address"}],"stateMutability":"view"},{"type":"function","name":"sellTokens","inputs":[{"name":"pool","type":"address","internalType":"address"},{"name":"price","type":"uint256","internalType":"uint256"},{"name":"amount","type":"uint256","internalType":"uint256"},{"name":"receiver","type":"address","internalType":"address"},{"name":"isLimitOrder","type":"bool","internalType":"bool"}],"outputs":[],"stateMutability":"nonpayable"},{"type":"function","name":"sellTokensETH","inputs":[{"name":"pool","type":"address","internalType":"address"},{"name":"price","type":"uint256","internalType":"uint256"},{"name":"amount","type":"uint256","internalType":"uint256"},{"name":"receiver","type":"address","internalType":"address"},{"name":"isLimitOrder","type":"bool","internalType":"bool"}],"outputs":[],"stateMutability":"nonpayable"},{"type":"function","name":"tokenInfo","inputs":[],"outputs":[{"name":"token0","type":"address","internalType":"address"},{"name":"token1","type":"address","internalType":"address"}],"stateMutability":"view"},{"type":"function","name":"uniswapV3SwapCallback","inputs":[{"name":"amount0Delta","type":"int256","internalType":"int256"},{"name":"amount1Delta","type":"int256","internalType":"int256"},{"name":"data","type":"bytes","internalType":"bytes"}],"outputs":[],"stateMutability":"nonpayable"},{"type":"event","name":"BoughtTokensETH","inputs":[{"name":"who","type":"address","indexed":false,"internalType":"address"},{"name":"amount","type":"uint256","indexed":false,"internalType":"uint256"}],"anonymous":false},{"type":"event","name":"BoughtTokensWETH","inputs":[{"name":"who","type":"address","indexed":false,"internalType":"address"},{"name":"amount","type":"uint256","indexed":false,"internalType":"uint256"}],"anonymous":false},{"type":"event","name":"SoldTokensETH","inputs":[{"name":"who","type":"address","indexed":false,"internalType":"address"},{"name":"amount","type":"uint256","indexed":false,"internalType":"uint256"}],"anonymous":false},{"type":"event","name":"SoldTokensWETH","inputs":[{"name":"who","type":"address","indexed":false,"internalType":"address"},{"name":"amount","type":"uint256","indexed":false,"internalType":"uint256"}],"anonymous":false},{"type":"error","name":"InvalidAmount","inputs":[]},{"type":"error","name":"InvalidDecimals","inputs":[]},{"type":"error","name":"InvalidSwap","inputs":[]},{"type":"error","name":"InvalidSwap","inputs":[]},{"type":"error","name":"NoETHSent","inputs":[]},{"type":"error","name":"NoToken0Received","inputs":[]},{"type":"error","name":"NoTokensExchanged","inputs":[]}],"bytecode":{"object":"0x60806040525f60035f6101000a81548173ffffffffffffffffffffffffffffffffffffffff021916908373ffffffffffffffffffffffffffffffffffffffff16021790555034801562000050575f80fd5b5060405162003dcc38038062003dcc833981810160405281019062000076919062000122565b8060035f6101000a81548173ffffffffffffffffffffffffffffffffffffffff021916908373ffffffffffffffffffffffffffffffffffffffff1602179055505062000152565b5f80fd5b5f73ffffffffffffffffffffffffffffffffffffffff82169050919050565b5f620000ec82620000c1565b9050919050565b620000fe81620000e0565b811462000109575f80fd5b50565b5f815190506200011c81620000f3565b92915050565b5f602082840312156200013a5762000139620000bd565b5b5f62000149848285016200010c565b91505092915050565b613c6c80620001605f395ff3fe60806040526004361061007e575f3560e01c80637ad2e7071161004d5780637ad2e7071461012e578063caa21beb1461014a578063f1435d2914610172578063fa461e331461019c57610085565b80631755ff21146100895780632a00e91c146100b35780632bfd2ea7146100db5780636addb6631461010357610085565b3661008557005b5f80fd5b348015610094575f80fd5b5061009d6101c4565b6040516100aa9190612ddd565b60405180910390f35b3480156100be575f80fd5b506100d960048036038101906100d49190612e90565b6101e9565b005b3480156100e6575f80fd5b5061010160048036038101906100fc9190612e90565b6107c2565b005b34801561010e575f80fd5b50610117610eee565b604051610125929190612f07565b60405180910390f35b61014860048036038101906101439190612e90565b610f3c565b005b348015610155575f80fd5b50610170600480360381019061016b9190612e90565b61170c565b005b34801561017d575f80fd5b50610186611f23565b6040516101939190612ddd565b60405180910390f35b3480156101a7575f80fd5b506101c260048036038101906101bd9190612fc2565b611f48565b005b60025f9054906101000a900473ffffffffffffffffffffffffffffffffffffffff1681565b600360149054906101000a900460ff1615610239576040517f08c379a00000000000000000000000000000000000000000000000000000000081526004016102309061308d565b60405180910390fd5b6001600360146101000a81548160ff0219169083151502179055505f831161028d576040517f2c5211c600000000000000000000000000000000000000000000000000000000815260040160405180910390fd5b5f8573ffffffffffffffffffffffffffffffffffffffff1663d0c93a7c6040518163ffffffff1660e01b8152600401602060405180830381865afa1580156102d7573d5f803e3d5ffd5b505050506040513d601f19601f820116820180604052508101906102fb91906130e1565b905060405180604001604052808773ffffffffffffffffffffffffffffffffffffffff16630dfe16816040518163ffffffff1660e01b8152600401602060405180830381865afa158015610351573d5f803e3d5ffd5b505050506040513d601f19601f820116820180604052508101906103759190613120565b73ffffffffffffffffffffffffffffffffffffffff1681526020018773ffffffffffffffffffffffffffffffffffffffff1663d21220a76040518163ffffffff1660e01b8152600401602060405180830381865afa1580156103d9573d5f803e3d5ffd5b505050506040513d601f19601f820116820180604052508101906103fd9190613120565b73ffffffffffffffffffffffffffffffffffffffff168152505f80820151815f015f6101000a81548173ffffffffffffffffffffffffffffffffffffffff021916908373ffffffffffffffffffffffffffffffffffffffff1602179055506020820151816001015f6101000a81548173ffffffffffffffffffffffffffffffffffffffff021916908373ffffffffffffffffffffffffffffffffffffffff1602179055509050508560025f6101000a81548173ffffffffffffffffffffffffffffffffffffffff021916908373ffffffffffffffffffffffffffffffffffffffff1602179055505f6001015f9054906101000a900473ffffffffffffffffffffffffffffffffffffffff1673ffffffffffffffffffffffffffffffffffffffff166323b872dd3330876040518463ffffffff1660e01b81526004016105449392919061315a565b6020604051808303815f875af1158015610560573d5f803e3d5ffd5b505050506040513d601f19601f8201168201806040525081019061058491906131a3565b505f806001015f9054906101000a900473ffffffffffffffffffffffffffffffffffffffff1673ffffffffffffffffffffffffffffffffffffffff1663313ce5676040518163ffffffff1660e01b8152600401602060405180830381865afa1580156105f2573d5f803e3d5ffd5b505050506040513d601f19601f820116820180604052508101906106169190613204565b90505f6040518061010001604052808973ffffffffffffffffffffffffffffffffffffffff1681526020018673ffffffffffffffffffffffffffffffffffffffff1681526020015f80015f9054906101000a900473ffffffffffffffffffffffffffffffffffffffff1673ffffffffffffffffffffffffffffffffffffffff1681526020015f6001015f9054906101000a900473ffffffffffffffffffffffffffffffffffffffff1673ffffffffffffffffffffffffffffffffffffffff1681526020016106e5898686612240565b73ffffffffffffffffffffffffffffffffffffffff1681526020018781526020015f1515815260200185151581525090505f6107208261225d565b5090505f811261075c576040517f1115766700000000000000000000000000000000000000000000000000000000815260040160405180910390fd5b7f97c6088a966cd0ebbedc701f66399b8b51aa01a317df60217d5867cd397c66f58661078783612708565b60405161079592919061322f565b60405180910390a1505050505f600360146101000a81548160ff0219169083151502179055505050505050565b600360149054906101000a900460ff1615610812576040517f08c379a00000000000000000000000000000000000000000000000000000000081526004016108099061308d565b60405180910390fd5b6001600360146101000a81548160ff0219169083151502179055505f8311610866576040517f2c5211c600000000000000000000000000000000000000000000000000000000815260040160405180910390fd5b5f8573ffffffffffffffffffffffffffffffffffffffff1663d0c93a7c6040518163ffffffff1660e01b8152600401602060405180830381865afa1580156108b0573d5f803e3d5ffd5b505050506040513d601f19601f820116820180604052508101906108d491906130e1565b905060405180604001604052808773ffffffffffffffffffffffffffffffffffffffff16630dfe16816040518163ffffffff1660e01b8152600401602060405180830381865afa15801561092a573d5f803e3d5ffd5b505050506040513d601f19601f8201168201806040525081019061094e9190613120565b73ffffffffffffffffffffffffffffffffffffffff1681526020018773ffffffffffffffffffffffffffffffffffffffff1663d21220a76040518163ffffffff1660e01b8152600401602060405180830381865afa1580156109b2573d5f803e3d5ffd5b505050506040513d601f19601f820116820180604052508101906109d69190613120565b73ffffffffffffffffffffffffffffffffffffffff168152505f80820151815f015f6101000a81548173ffffffffffffffffffffffffffffffffffffffff021916908373ffffffffffffffffffffffffffffffffffffffff1602179055506020820151816001015f6101000a81548173ffffffffffffffffffffffffffffffffffffffff021916908373ffffffffffffffffffffffffffffffffffffffff1602179055509050508560025f6101000a81548173ffffffffffffffffffffffffffffffffffffffff021916908373ffffffffffffffffffffffffffffffffffffffff1602179055505f805f015f9054906101000a900473ffffffffffffffffffffffffffffffffffffffff1690505f80015f9054906101000a900473ffffffffffffffffffffffffffffffffffffffff1673ffffffffffffffffffffffffffffffffffffffff166323b872dd3330886040518463ffffffff1660e01b8152600401610b429392919061315a565b6020604051808303815f875af1158015610b5e573d5f803e3d5ffd5b505050506040513d601f19601f82011682018060405250810190610b8291906131a3565b505f805f015f9054906101000a900473ffffffffffffffffffffffffffffffffffffffff1673ffffffffffffffffffffffffffffffffffffffff1663313ce5676040518163ffffffff1660e01b8152600401602060405180830381865afa158015610bef573d5f803e3d5ffd5b505050506040513d601f19601f82011682018060405250810190610c139190613204565b90505f6040518061010001604052808a73ffffffffffffffffffffffffffffffffffffffff1681526020018773ffffffffffffffffffffffffffffffffffffffff1681526020015f80015f9054906101000a900473ffffffffffffffffffffffffffffffffffffffff1673ffffffffffffffffffffffffffffffffffffffff1681526020015f6001015f9054906101000a900473ffffffffffffffffffffffffffffffffffffffff1673ffffffffffffffffffffffffffffffffffffffff168152602001610ce28a8786612240565b73ffffffffffffffffffffffffffffffffffffffff16815260200188815260200160011515815260200186151581525090505f80610d1f8361225d565b915091505f8112610d5c576040517f1115766700000000000000000000000000000000000000000000000000000000815260040160405180910390fd5b5f8573ffffffffffffffffffffffffffffffffffffffff166370a08231306040518263ffffffff1660e01b8152600401610d969190612ddd565b602060405180830381865afa158015610db1573d5f803e3d5ffd5b505050506040513d601f19601f82011682018060405250810190610dd5919061326a565b90505f838b610de491906132c2565b8211610df05781610dfd565b838b610dfc91906132c2565b5b90505f811115610e84578673ffffffffffffffffffffffffffffffffffffffff1663a9059cbb33836040518363ffffffff1660e01b8152600401610e4292919061322f565b6020604051808303815f875af1158015610e5e573d5f803e3d5ffd5b505050506040513d601f19601f82011682018060405250810190610e8291906131a3565b505b7f9169c0979d20b8ac8954a8c6315813566dcd0f7156f9586b659f8b2c45a21c718a610eaf85612708565b604051610ebd92919061322f565b60405180910390a150505050505050505f600360146101000a81548160ff0219169083151502179055505050505050565b5f805f015f9054906101000a900473ffffffffffffffffffffffffffffffffffffffff1690806001015f9054906101000a900473ffffffffffffffffffffffffffffffffffffffff16905082565b600360149054906101000a900460ff1615610f8c576040517f08c379a0000000000000000000000000000000000000000000000000000000008152600401610f839061308d565b60405180910390fd5b6001600360146101000a81548160ff0219169083151502179055505f3411610fe0576040517f16f98f8600000000000000000000000000000000000000000000000000000000815260040160405180910390fd5b5f8573ffffffffffffffffffffffffffffffffffffffff1663d0c93a7c6040518163ffffffff1660e01b8152600401602060405180830381865afa15801561102a573d5f803e3d5ffd5b505050506040513d601f19601f8201168201806040525081019061104e91906130e1565b905060405180604001604052808773ffffffffffffffffffffffffffffffffffffffff16630dfe16816040518163ffffffff1660e01b8152600401602060405180830381865afa1580156110a4573d5f803e3d5ffd5b505050506040513d601f19601f820116820180604052508101906110c89190613120565b73ffffffffffffffffffffffffffffffffffffffff1681526020018773ffffffffffffffffffffffffffffffffffffffff1663d21220a76040518163ffffffff1660e01b8152600401602060405180830381865afa15801561112c573d5f803e3d5ffd5b505050506040513d601f19601f820116820180604052508101906111509190613120565b73ffffffffffffffffffffffffffffffffffffffff168152505f80820151815f015f6101000a81548173ffffffffffffffffffffffffffffffffffffffff021916908373ffffffffffffffffffffffffffffffffffffffff1602179055506020820151816001015f6101000a81548173ffffffffffffffffffffffffffffffffffffffff021916908373ffffffffffffffffffffffffffffffffffffffff1602179055509050508560025f6101000a81548173ffffffffffffffffffffffffffffffffffffffff021916908373ffffffffffffffffffffffffffffffffffffffff1602179055505f805f015f9054906101000a900473ffffffffffffffffffffffffffffffffffffffff1673ffffffffffffffffffffffffffffffffffffffff1663313ce5676040518163ffffffff1660e01b8152600401602060405180830381865afa1580156112a3573d5f803e3d5ffd5b505050506040513d601f19601f820116820180604052508101906112c79190613204565b90505f60035f9054906101000a900473ffffffffffffffffffffffffffffffffffffffff1673ffffffffffffffffffffffffffffffffffffffff166370a08231306040518263ffffffff1660e01b81526004016113249190612ddd565b6020604051808303815f875af1158015611340573d5f803e3d5ffd5b505050506040513d601f19601f82011682018060405250810190611364919061326a565b905060035f9054906101000a900473ffffffffffffffffffffffffffffffffffffffff1673ffffffffffffffffffffffffffffffffffffffff1663d0e30db0346040518263ffffffff1660e01b81526004015f604051808303818588803b1580156113cd575f80fd5b505af11580156113df573d5f803e3d5ffd5b50505050505f6040518061010001604052808a73ffffffffffffffffffffffffffffffffffffffff1681526020018773ffffffffffffffffffffffffffffffffffffffff1681526020015f80015f9054906101000a900473ffffffffffffffffffffffffffffffffffffffff1673ffffffffffffffffffffffffffffffffffffffff1681526020015f6001015f9054906101000a900473ffffffffffffffffffffffffffffffffffffffff1673ffffffffffffffffffffffffffffffffffffffff1681526020016114b18a8787612240565b73ffffffffffffffffffffffffffffffffffffffff1681526020013481526020015f1515815260200186151581525090505f6114ec8261225d565b5090505f8112611528576040517fb09ae40000000000000000000000000000000000000000000000000000000000815260040160405180910390fd5b5f8360035f9054906101000a900473ffffffffffffffffffffffffffffffffffffffff1673ffffffffffffffffffffffffffffffffffffffff166370a08231306040518263ffffffff1660e01b81526004016115849190612ddd565b6020604051808303815f875af11580156115a0573d5f803e3d5ffd5b505050506040513d601f19601f820116820180604052508101906115c4919061326a565b6115ce91906132c2565b90505f8111156116a45760035f9054906101000a900473ffffffffffffffffffffffffffffffffffffffff1673ffffffffffffffffffffffffffffffffffffffff16632e1a7d4d826040518263ffffffff1660e01b815260040161163291906132f5565b5f604051808303815f87803b158015611649575f80fd5b505af115801561165b573d5f803e3d5ffd5b505050508773ffffffffffffffffffffffffffffffffffffffff166108fc8290811502906040515f60405180830381858888f193505050501580156116a2573d5f803e3d5ffd5b505b7f33daa9f9211714f6792e0b7c3c14f2bd7f00356725f591ab25eef1830f4f9940886116cf84612708565b6040516116dd92919061322f565b60405180910390a15050505050505f600360146101000a81548160ff0219169083151502179055505050505050565b600360149054906101000a900460ff161561175c576040517f08c379a00000000000000000000000000000000000000000000000000000000081526004016117539061308d565b60405180910390fd5b6001600360146101000a81548160ff0219169083151502179055505f83116117b9576040517f08c379a00000000000000000000000000000000000000000000000000000000081526004016117b09061337e565b60405180910390fd5b5f8573ffffffffffffffffffffffffffffffffffffffff1663d0c93a7c6040518163ffffffff1660e01b8152600401602060405180830381865afa158015611803573d5f803e3d5ffd5b505050506040513d601f19601f8201168201806040525081019061182791906130e1565b905060405180604001604052808773ffffffffffffffffffffffffffffffffffffffff16630dfe16816040518163ffffffff1660e01b8152600401602060405180830381865afa15801561187d573d5f803e3d5ffd5b505050506040513d601f19601f820116820180604052508101906118a19190613120565b73ffffffffffffffffffffffffffffffffffffffff1681526020018773ffffffffffffffffffffffffffffffffffffffff1663d21220a76040518163ffffffff1660e01b8152600401602060405180830381865afa158015611905573d5f803e3d5ffd5b505050506040513d601f19601f820116820180604052508101906119299190613120565b73ffffffffffffffffffffffffffffffffffffffff168152505f80820151815f015f6101000a81548173ffffffffffffffffffffffffffffffffffffffff021916908373ffffffffffffffffffffffffffffffffffffffff1602179055506020820151816001015f6101000a81548173ffffffffffffffffffffffffffffffffffffffff021916908373ffffffffffffffffffffffffffffffffffffffff1602179055509050508560025f6101000a81548173ffffffffffffffffffffffffffffffffffffffff021916908373ffffffffffffffffffffffffffffffffffffffff1602179055505f805f015f9054906101000a900473ffffffffffffffffffffffffffffffffffffffff1690505f80015f9054906101000a900473ffffffffffffffffffffffffffffffffffffffff1673ffffffffffffffffffffffffffffffffffffffff166323b872dd3330886040518463ffffffff1660e01b8152600401611a959392919061315a565b6020604051808303815f875af1158015611ab1573d5f803e3d5ffd5b505050506040513d601f19601f82011682018060405250810190611ad591906131a3565b505f805f015f9054906101000a900473ffffffffffffffffffffffffffffffffffffffff1673ffffffffffffffffffffffffffffffffffffffff1663313ce5676040518163ffffffff1660e01b8152600401602060405180830381865afa158015611b42573d5f803e3d5ffd5b505050506040513d601f19601f82011682018060405250810190611b669190613204565b90505f6040518061010001604052808a73ffffffffffffffffffffffffffffffffffffffff1681526020013073ffffffffffffffffffffffffffffffffffffffff1681526020015f80015f9054906101000a900473ffffffffffffffffffffffffffffffffffffffff1673ffffffffffffffffffffffffffffffffffffffff1681526020015f6001015f9054906101000a900473ffffffffffffffffffffffffffffffffffffffff1673ffffffffffffffffffffffffffffffffffffffff168152602001611c358a8786612240565b73ffffffffffffffffffffffffffffffffffffffff16815260200188815260200160011515815260200186151581525090505f80611c728361225d565b915091505f8112611cb8576040517f08c379a0000000000000000000000000000000000000000000000000000000008152600401611caf906133e6565b60405180910390fd5b5f81611cc390613404565b905060035f9054906101000a900473ffffffffffffffffffffffffffffffffffffffff1673ffffffffffffffffffffffffffffffffffffffff16632e1a7d4d826040518263ffffffff1660e01b8152600401611d1f91906132f5565b5f604051808303815f87803b158015611d36575f80fd5b505af1158015611d48573d5f803e3d5ffd5b505050508873ffffffffffffffffffffffffffffffffffffffff166108fc8290811502906040515f60405180830381858888f19350505050158015611d8f573d5f803e3d5ffd5b505f8673ffffffffffffffffffffffffffffffffffffffff166370a08231306040518263ffffffff1660e01b8152600401611dca9190612ddd565b602060405180830381865afa158015611de5573d5f803e3d5ffd5b505050506040513d601f19601f82011682018060405250810190611e09919061326a565b90505f848c611e1891906132c2565b8211611e245781611e31565b848c611e3091906132c2565b5b90505f811115611eb8578773ffffffffffffffffffffffffffffffffffffffff1663a9059cbb33836040518363ffffffff1660e01b8152600401611e7692919061322f565b6020604051808303815f875af1158015611e92573d5f803e3d5ffd5b505050506040513d601f19601f82011682018060405250810190611eb691906131a3565b505b7f9169c0979d20b8ac8954a8c6315813566dcd0f7156f9586b659f8b2c45a21c718b611ee386612708565b604051611ef192919061322f565b60405180910390a15050505050505050505f600360146101000a81548160ff0219169083151502179055505050505050565b60035f9054906101000a900473ffffffffffffffffffffffffffffffffffffffff1681565b60025f9054906101000a900473ffffffffffffffffffffffffffffffffffffffff1673ffffffffffffffffffffffffffffffffffffffff163373ffffffffffffffffffffffffffffffffffffffff1614611fd7576040517f08c379a0000000000000000000000000000000000000000000000000000000008152600401611fce906134ba565b60405180910390fd5b5f841315612082575f80015f9054906101000a900473ffffffffffffffffffffffffffffffffffffffff1673ffffffffffffffffffffffffffffffffffffffff1663a9059cbb33866040518363ffffffff1660e01b815260040161203c92919061322f565b6020604051808303815f875af1158015612058573d5f803e3d5ffd5b505050506040513d601f19601f8201168201806040525081019061207c91906131a3565b5061212b565b5f83131561212a575f6001015f9054906101000a900473ffffffffffffffffffffffffffffffffffffffff1673ffffffffffffffffffffffffffffffffffffffff1663a9059cbb33856040518363ffffffff1660e01b81526004016120e892919061322f565b6020604051808303815f875af1158015612104573d5f803e3d5ffd5b505050506040513d601f19601f8201168201806040525081019061212891906131a3565b505b5b60405180604001604052805f73ffffffffffffffffffffffffffffffffffffffff1681526020015f73ffffffffffffffffffffffffffffffffffffffff168152505f80820151815f015f6101000a81548173ffffffffffffffffffffffffffffffffffffffff021916908373ffffffffffffffffffffffffffffffffffffffff1602179055506020820151816001015f6101000a81548173ffffffffffffffffffffffffffffffffffffffff021916908373ffffffffffffffffffffffffffffffffffffffff1602179055509050505f60025f6101000a81548173ffffffffffffffffffffffffffffffffffffffff021916908373ffffffffffffffffffffffffffffffffffffffff16021790555050505050565b5f61225461224f85858561271e565b61287a565b90509392505050565b5f805f8360c00151612273578360400151612279565b83606001515b73ffffffffffffffffffffffffffffffffffffffff166370a0823185602001516040518263ffffffff1660e01b81526004016122b59190612ddd565b602060405180830381865afa1580156122d0573d5f803e3d5ffd5b505050506040513d601f19601f820116820180604052508101906122f4919061326a565b90505f845f015173ffffffffffffffffffffffffffffffffffffffff1663d0c93a7c6040518163ffffffff1660e01b8152600401602060405180830381865afa158015612343573d5f803e3d5ffd5b505050506040513d601f19601f8201168201806040525081019061236791906130e1565b90505f73__$00856c2daf1848075e4d6b3791a97a7365$__63b7df07b387608001518860c0015161239c5788604001516123a2565b88606001515b73ffffffffffffffffffffffffffffffffffffffff1663313ce5676040518163ffffffff1660e01b8152600401602060405180830381865afa1580156123ea573d5f803e3d5ffd5b505050506040513d601f19601f8201168201806040525081019061240e9190613204565b6040518363ffffffff1660e01b815260040161242b9291906134f6565b602060405180830381865af4158015612446573d5f803e3d5ffd5b505050506040513d601f19601f8201168201806040525081019061246a919061326a565b90505f6125528760c001516124a2576064600584612488919061351d565b612492919061358b565b8361249d91906135bb565b6124c7565b60646005846124b1919061351d565b6124bb919061358b565b836124c691906132c2565b5b848960c001516124db5789604001516124e1565b89606001515b73ffffffffffffffffffffffffffffffffffffffff1663313ce5676040518163ffffffff1660e01b8152600401602060405180830381865afa158015612529573d5f803e3d5ffd5b505050506040513d601f19601f8201168201806040525081019061254d9190613204565b612240565b9050865f015173ffffffffffffffffffffffffffffffffffffffff1663128acb0888602001518960c001518a60a001518b60e001516125915785612597565b8b608001515b6040518563ffffffff1660e01b81526004016125b6949392919061364e565b60408051808303815f875af19250505080156125f057506040513d601f19601f820116820180604052508101906125ed91906136b8565b60015b612626576040517f1115766700000000000000000000000000000000000000000000000000000000815260040160405180910390fd5b8197508096505f8960c00151612640578960400151612646565b89606001515b73ffffffffffffffffffffffffffffffffffffffff166370a082318b602001516040518263ffffffff1660e01b81526004016126829190612ddd565b602060405180830381865afa15801561269d573d5f803e3d5ffd5b505050506040513d601f19601f820116820180604052508101906126c1919061326a565b90508087036126fc576040517f4ecdfb3000000000000000000000000000000000000000000000000000000000815260040160405180910390fd5b50505050505050915091565b5f8060ff83901d90508081840118915050919050565b5f60068260ff1610158015612737575060128260ff1611155b61276d576040517fd25598a000000000000000000000000000000000000000000000000000000000815260040160405180910390fd5b5f82601261277b91906136f6565b600a6127879190613859565b9050808561279591906138a3565b94508361286668033dd1780914b9684073__$28bae0af19d0e90d77349cc0e88bc3c39a$__63bc4225aa670de0b6b3a76400008a6127d391906138a3565b670de0b6b3a76400006706f05b59d3b200006040518463ffffffff1660e01b8152600401612803939291906139a3565b602060405180830381865af415801561281e573d5f803e3d5ffd5b505050506040513d601f19601f8201168201806040525081019061284291906139d8565b61284c9190613a03565b8660020b658334ae9d7c0a61286191906138a3565b61288b565b6128709190613a43565b9150509392505050565b5f612884826128ec565b9050919050565b5f61138861271083856127106128a191906138a3565b6128ab9190613a7f565b6128b59190613ae7565b136128cb5781836128c69190613a7f565b6128e4565b600182846128d99190613a7f565b6128e39190613b17565b5b905092915050565b5f805f8360020b12612901578260020b61290f565b8260020b61290e90613404565b5b90507ffffffffffffffffffffffffffffffffffffffffffffffffffffffffffff2761861293b90613b58565b60020b811115612980576040517f08c379a000000000000000000000000000000000000000000000000000000000815260040161297790613be8565b60405180910390fd5b5f8060018316036129a2577001000000000000000000000000000000006129b4565b6ffffcb933bd6fad37aa2d162d1a5940015b70ffffffffffffffffffffffffffffffffff1690505f60028316146129f65760806ffff97272373d413259a46990580e213a826129f1919061351d565b901c90505b5f6004831614612a235760806ffff2e50f5f656932ef12357cf3c7fdcc82612a1e919061351d565b901c90505b5f6008831614612a505760806fffe5caca7e10e4e61c3624eaa0941cd082612a4b919061351d565b901c90505b5f6010831614612a7d5760806fffcb9843d60f6159c9db58835c92664482612a78919061351d565b901c90505b5f6020831614612aaa5760806fff973b41fa98c081472e6896dfb254c082612aa5919061351d565b901c90505b5f6040831614612ad75760806fff2ea16466c96a3843ec78b326b5286182612ad2919061351d565b901c90505b5f6080831614612b045760806ffe5dee046a99a2a811c461f1969c305382612aff919061351d565b901c90505b5f610100831614612b325760806ffcbe86c7900a88aedcffc83b479aa3a482612b2d919061351d565b901c90505b5f610200831614612b605760806ff987a7253ac413176f2b074cf7815e5482612b5b919061351d565b901c90505b5f610400831614612b8e5760806ff3392b0822b70005940c7a398e4b70f382612b89919061351d565b901c90505b5f610800831614612bbc5760806fe7159475a2c29b7443b29c7fa6e889d982612bb7919061351d565b901c90505b5f611000831614612bea5760806fd097f3bdfd2022b8845ad8f792aa582582612be5919061351d565b901c90505b5f612000831614612c185760806fa9f746462d870fdf8a65dc1f90e061e582612c13919061351d565b901c90505b5f614000831614612c465760806f70d869a156d2a1b890bb3df62baf32f782612c41919061351d565b901c90505b5f618000831614612c745760806f31be135f97d08fd981231505542fcfa682612c6f919061351d565b901c90505b5f62010000831614612ca35760806f09aa508b5b7a84e1c677de54f3e99bc982612c9e919061351d565b901c90505b5f62020000831614612cd15760806e5d6af8dedb81196699c329225ee60482612ccc919061351d565b901c90505b5f62040000831614612cfe5760806d2216e584f5fa1ea926041bedfe9882612cf9919061351d565b901c90505b5f62080000831614612d295760806b048a170391f7dc42444e8fa282612d24919061351d565b901c90505b5f8460020b1315612d6357807fffffffffffffffffffffffffffffffffffffffffffffffffffffffffffffffff612d60919061358b565b90505b5f64010000000082612d759190613c06565b14612d81576001612d83565b5f5b60ff16602082901c612d9591906135bb565b92505050919050565b5f73ffffffffffffffffffffffffffffffffffffffff82169050919050565b5f612dc782612d9e565b9050919050565b612dd781612dbd565b82525050565b5f602082019050612df05f830184612dce565b92915050565b5f80fd5b5f80fd5b612e0781612dbd565b8114612e11575f80fd5b50565b5f81359050612e2281612dfe565b92915050565b5f819050919050565b612e3a81612e28565b8114612e44575f80fd5b50565b5f81359050612e5581612e31565b92915050565b5f8115159050919050565b612e6f81612e5b565b8114612e79575f80fd5b50565b5f81359050612e8a81612e66565b92915050565b5f805f805f60a08688031215612ea957612ea8612df6565b5b5f612eb688828901612e14565b9550506020612ec788828901612e47565b9450506040612ed888828901612e47565b9350506060612ee988828901612e14565b9250506080612efa88828901612e7c565b9150509295509295909350565b5f604082019050612f1a5f830185612dce565b612f276020830184612dce565b9392505050565b5f819050919050565b612f4081612f2e565b8114612f4a575f80fd5b50565b5f81359050612f5b81612f37565b92915050565b5f80fd5b5f80fd5b5f80fd5b5f8083601f840112612f8257612f81612f61565b5b8235905067ffffffffffffffff811115612f9f57612f9e612f65565b5b602083019150836001820283011115612fbb57612fba612f69565b5b9250929050565b5f805f8060608587031215612fda57612fd9612df6565b5b5f612fe787828801612f4d565b9450506020612ff887828801612f4d565b935050604085013567ffffffffffffffff81111561301957613018612dfa565b5b61302587828801612f6d565b925092505092959194509250565b5f82825260208201905092915050565b7f45786368616e676548656c7065723a205265656e7472616e742063616c6c00005f82015250565b5f613077601e83613033565b915061308282613043565b602082019050919050565b5f6020820190508181035f8301526130a48161306b565b9050919050565b5f8160020b9050919050565b6130c0816130ab565b81146130ca575f80fd5b50565b5f815190506130db816130b7565b92915050565b5f602082840312156130f6576130f5612df6565b5b5f613103848285016130cd565b91505092915050565b5f8151905061311a81612dfe565b92915050565b5f6020828403121561313557613134612df6565b5b5f6131428482850161310c565b91505092915050565b61315481612e28565b82525050565b5f60608201905061316d5f830186612dce565b61317a6020830185612dce565b613187604083018461314b565b949350505050565b5f8151905061319d81612e66565b92915050565b5f602082840312156131b8576131b7612df6565b5b5f6131c58482850161318f565b91505092915050565b5f60ff82169050919050565b6131e3816131ce565b81146131ed575f80fd5b50565b5f815190506131fe816131da565b92915050565b5f6020828403121561321957613218612df6565b5b5f613226848285016131f0565b91505092915050565b5f6040820190506132425f830185612dce565b61324f602083018461314b565b9392505050565b5f8151905061326481612e31565b92915050565b5f6020828403121561327f5761327e612df6565b5b5f61328c84828501613256565b91505092915050565b7f4e487b71000000000000000000000000000000000000000000000000000000005f52601160045260245ffd5b5f6132cc82612e28565b91506132d783612e28565b92508282039050818111156132ef576132ee613295565b5b92915050565b5f6020820190506133085f83018461314b565b92915050565b7f45786368616e676548656c7065723a20416d6f756e74206d75737420626520675f8201527f726561746572207468616e203000000000000000000000000000000000000000602082015250565b5f613368602d83613033565b91506133738261330e565b604082019050919050565b5f6020820190508181035f8301526133958161335c565b9050919050565b7f45786368616e676548656c7065723a20496e76616c69642073776170000000005f82015250565b5f6133d0601c83613033565b91506133db8261339c565b602082019050919050565b5f6020820190508181035f8301526133fd816133c4565b9050919050565b5f61340e82612f2e565b91507f800000000000000000000000000000000000000000000000000000000000000082036134405761343f613295565b5b815f039050919050565b7f45786368616e676548656c7065723a2043616c6c6261636b2063616c6c6572205f8201527f6e6f7420706f6f6c000000000000000000000000000000000000000000000000602082015250565b5f6134a4602883613033565b91506134af8261344a565b604082019050919050565b5f6020820190508181035f8301526134d181613498565b9050919050565b6134e181612d9e565b82525050565b6134f0816131ce565b82525050565b5f6040820190506135095f8301856134d8565b61351660208301846134e7565b9392505050565b5f61352782612e28565b915061353283612e28565b925082820261354081612e28565b9150828204841483151761355757613556613295565b5b5092915050565b7f4e487b71000000000000000000000000000000000000000000000000000000005f52601260045260245ffd5b5f61359582612e28565b91506135a083612e28565b9250826135b0576135af61355e565b5b828204905092915050565b5f6135c582612e28565b91506135d083612e28565b92508282019050808211156135e8576135e7613295565b5b92915050565b6135f781612e5b565b82525050565b61360681612f2e565b82525050565b61361581612d9e565b82525050565b5f82825260208201905092915050565b50565b5f6136395f8361361b565b91506136448261362b565b5f82019050919050565b5f60a0820190506136615f830187612dce565b61366e60208301866135ee565b61367b60408301856135fd565b613688606083018461360c565b81810360808301526136998161362e565b905095945050505050565b5f815190506136b281612f37565b92915050565b5f80604083850312156136ce576136cd612df6565b5b5f6136db858286016136a4565b92505060206136ec858286016136a4565b9150509250929050565b5f613700826131ce565b915061370b836131ce565b9250828203905060ff81111561372457613723613295565b5b92915050565b5f8160011c9050919050565b5f808291508390505b600185111561377f5780860481111561375b5761375a613295565b5b600185161561376a5780820291505b80810290506137788561372a565b945061373f565b94509492505050565b5f826137975760019050613852565b816137a4575f9050613852565b81600181146137ba57600281146137c4576137f3565b6001915050613852565b60ff8411156137d6576137d5613295565b5b8360020a9150848211156137ed576137ec613295565b5b50613852565b5060208310610133831016604e8410600b84101617156138285782820a90508381111561382357613822613295565b5b613852565b6138358484846001613736565b9250905081840481111561384c5761384b613295565b5b81810290505b9392505050565b5f61386382612e28565b915061386e836131ce565b925061389b7fffffffffffffffffffffffffffffffffffffffffffffffffffffffffffffffff8484613788565b905092915050565b5f6138ad82612f2e565b91506138b883612f2e565b92508282026138c681612f2e565b91507f800000000000000000000000000000000000000000000000000000000000000084145f841216156138fd576138fc613295565b5b828205841483151761391257613911613295565b5b5092915050565b61392281612f2e565b82525050565b5f819050919050565b5f819050919050565b5f61395461394f61394a84613928565b613931565b612f2e565b9050919050565b6139648161393a565b82525050565b5f819050919050565b5f61398d6139886139838461396a565b613931565b612f2e565b9050919050565b61399d81613973565b82525050565b5f6060820190506139b65f830186613919565b6139c3602083018561395b565b6139d06040830184613994565b949350505050565b5f602082840312156139ed576139ec612df6565b5b5f6139fa848285016136a4565b91505092915050565b5f613a0d82612f2e565b9150613a1883612f2e565b925082820390508181125f8412168282135f851215161715613a3d57613a3c613295565b5b92915050565b5f613a4d826130ab565b9150613a58836130ab565b9250828202613a66816130ab565b9150808214613a7857613a77613295565b5b5092915050565b5f613a8982612f2e565b9150613a9483612f2e565b925082613aa457613aa361355e565b5b60015f0383147f800000000000000000000000000000000000000000000000000000000000000083141615613adc57613adb613295565b5b828205905092915050565b5f613af182612f2e565b9150613afc83612f2e565b925082613b0c57613b0b61355e565b5b828207905092915050565b5f613b2182612f2e565b9150613b2c83612f2e565b92508282019050828112155f8312168382125f841215161715613b5257613b51613295565b5b92915050565b5f613b62826130ab565b91507fffffffffffffffffffffffffffffffffffffffffffffffffffffffffff8000008203613b9457613b93613295565b5b815f039050919050565b7f54000000000000000000000000000000000000000000000000000000000000005f82015250565b5f613bd2600183613033565b9150613bdd82613b9e565b602082019050919050565b5f6020820190508181035f830152613bff81613bc6565b9050919050565b5f613c1082612e28565b9150613c1b83612e28565b925082613c2b57613c2a61355e565b5b82820690509291505056fea2646970667358221220a04b89c56aec3cc144a3757365793295e9fbdd973e176927e96b0db0f886170564736f6c63430008170033","linkReferences":{"src/libraries/Conversions.sol":{"Conversions":[{"start":9420,"length":20}]},"src/libraries/Logarithm.sol":{"Logarithm":[{"start":10503,"length":20}]}}},"methodIdentifiers":{"WMON()":"f1435d29","buyTokens(address,uint256,uint256,address,bool)":"7ad2e707","buyTokensWETH(address,uint256,uint256,address,bool)":"2a00e91c","poolAddress()":"1755ff21","sellTokens(address,uint256,uint256,address,bool)":"2bfd2ea7","sellTokensETH(address,uint256,uint256,address,bool)":"caa21beb","tokenInfo()":"6addb663","uniswapV3SwapCallback(int256,int256,bytes)":"fa461e33"},"id":81}