{"abi":[{"type":"constructor","inputs":[{"name":"wrappedMonAddress","type":"address","internalType":"address"}],"stateMutability":"nonpayable"},{"type":"receive","stateMutability":"payable"},{"type":"function","name":"WMON","inputs":[],"outputs":[{"name":"","type":"address","internalType":"address"}],"stateMutability":"view"},{"type":"function","name":"buyTokens","inputs":[{"name":"pool","type":"address","internalType":"address"},{"name":"price","type":"uint256","internalType":"uint256"},{"name":"receiver","type":"address","internalType":"address"},{"name":"isLimitOrder","type":"bool","internalType":"bool"},{"name":"slippageTolerance","type":"uint256","internalType":"uint256"}],"outputs":[],"stateMutability":"payable"},{"type":"function","name":"buyTokensWETH","inputs":[{"name":"pool","type":"address","internalType":"address"},{"name":"price","type":"uint256","internalType":"uint256"},{"name":"amount","type":"uint256","internalType":"uint256"},{"name":"receiver","type":"address","internalType":"address"},{"name":"isLimitOrder","type":"bool","internalType":"bool"},{"name":"slippageTolerance","type":"uint256","internalType":"uint256"}],"outputs":[],"stateMutability":"nonpayable"},{"type":"function","name":"poolAddress","inputs":[],"outputs":[{"name":"","type":"address","internalType":"address"}],"stateMutability":"view"},{"type":"function","name":"sellTokens","inputs":[{"name":"pool","type":"address","internalType":"address"},{"name":"price","type":"uint256","internalType":"uint256"},{"name":"amount","type":"uint256","internalType":"uint256"},{"name":"receiver","type":"address","internalType":"address"},{"name":"isLimitOrder","type":"bool","internalType":"bool"},{"name":"slippageTolerance","type":"uint256","internalType":"uint256"}],"outputs":[],"stateMutability":"nonpayable"},{"type":"function","name":"sellTokensETH","inputs":[{"name":"pool","type":"address","internalType":"address"},{"name":"price","type":"uint256","internalType":"uint256"},{"name":"amount","type":"uint256","internalType":"uint256"},{"name":"receiver","type":"address","internalType":"address"},{"name":"isLimitOrder","type":"bool","internalType":"bool"},{"name":"slippageTolerance","type":"uint256","internalType":"uint256"}],"outputs":[],"stateMutability":"nonpayable"},{"type":"function","name":"tokenInfo","inputs":[],"outputs":[{"name":"token0","type":"address","internalType":"address"},{"name":"token1","type":"address","internalType":"address"}],"stateMutability":"view"},{"type":"function","name":"uniswapV3SwapCallback","inputs":[{"name":"amount0Delta","type":"int256","internalType":"int256"},{"name":"amount1Delta","type":"int256","internalType":"int256"},{"name":"data","type":"bytes","internalType":"bytes"}],"outputs":[],"stateMutability":"nonpayable"},{"type":"event","name":"BoughtTokensETH","inputs":[{"name":"who","type":"address","indexed":false,"internalType":"address"},{"name":"amount","type":"uint256","indexed":false,"internalType":"uint256"}],"anonymous":false},{"type":"event","name":"BoughtTokensWETH","inputs":[{"name":"who","type":"address","indexed":false,"internalType":"address"},{"name":"amount","type":"uint256","indexed":false,"internalType":"uint256"}],"anonymous":false},{"type":"event","name":"SoldTokensETH","inputs":[{"name":"who","type":"address","indexed":false,"internalType":"address"},{"name":"amount","type":"uint256","indexed":false,"internalType":"uint256"}],"anonymous":false},{"type":"event","name":"SoldTokensWETH","inputs":[{"name":"who","type":"address","indexed":false,"internalType":"address"},{"name":"amount","type":"uint256","indexed":false,"internalType":"uint256"}],"anonymous":false},{"type":"error","name":"InvalidAmount","inputs":[]},{"type":"error","name":"InvalidDecimals","inputs":[]},{"type":"error","name":"InvalidSwap","inputs":[]},{"type":"error","name":"InvalidSwap","inputs":[]},{"type":"error","name":"NoETHSent","inputs":[]},{"type":"error","name":"NoToken0Received","inputs":[]},{"type":"error","name":"NoTokensExchanged","inputs":[]}],"bytecode":{"object":"0x6080604052600380546001600160a01b031916905534801562000020575f80fd5b50604051620026e5380380620026e5833981016040819052620000439162000069565b600380546001600160a01b0319166001600160a01b039290921691909117905562000098565b5f602082840312156200007a575f80fd5b81516001600160a01b038116811462000091575f80fd5b9392505050565b61263f80620000a65f395ff3fe60806040526004361061007c575f3560e01c80636c212a631161004c5780636c212a631461013c578063d5e93ef61461015b578063f1435d291461017a578063fa461e3314610199575f80fd5b80631755ff21146100875780634ad9a89a146100c3578063519258e8146100d85780636addb663146100f7575f80fd5b3661008357005b5f80fd5b348015610092575f80fd5b506002546100a6906001600160a01b031681565b6040516001600160a01b0390911681526020015b60405180910390f35b6100d66100d136600461214a565b6101b8565b005b3480156100e3575f80fd5b506100d66100f23660046121a1565b6106e6565b348015610102575f80fd5b505f5460015461011c916001600160a01b03908116911682565b604080516001600160a01b039384168152929091166020830152016100ba565b348015610147575f80fd5b506100d66101563660046121a1565b610cbb565b348015610166575f80fd5b506100d66101753660046121a1565b611075565b348015610185575f80fd5b506003546100a6906001600160a01b031681565b3480156101a4575f80fd5b506100d66101b3366004612204565b61153f565b600354600160a01b900460ff16156101eb5760405162461bcd60e51b81526004016101e29061227d565b60405180910390fd5b6003805460ff60a01b1916600160a01b1790553461021c57604051630b7cc7c360e11b815260040160405180910390fd5b5f856001600160a01b031663d0c93a7c6040518163ffffffff1660e01b8152600401602060405180830381865afa158015610259573d5f803e3d5ffd5b505050506040513d601f19601f8201168201806040525081019061027d91906122b4565b90506040518060400160405280876001600160a01b0316630dfe16816040518163ffffffff1660e01b8152600401602060405180830381865afa1580156102c6573d5f803e3d5ffd5b505050506040513d601f19601f820116820180604052508101906102ea91906122d4565b6001600160a01b03168152602001876001600160a01b031663d21220a76040518163ffffffff1660e01b8152600401602060405180830381865afa158015610334573d5f803e3d5ffd5b505050506040513d601f19601f8201168201806040525081019061035891906122d4565b6001600160a01b0390811690915281515f80549183166001600160a01b0319928316811782556020948501516001805491861691851691909117905560028054948c1694909316939093179091556040805163313ce56760e01b81529051919363313ce567926004808401938290030181865afa1580156103db573d5f803e3d5ffd5b505050506040513d601f19601f820116820180604052508101906103ff91906122ef565b6003546040516370a0823160e01b81523060048201529192505f916001600160a01b03909116906370a08231906024016020604051808303815f875af115801561044b573d5f803e3d5ffd5b505050506040513d601f19601f8201168201806040525081019061046f919061230f565b905060035f9054906101000a90046001600160a01b03166001600160a01b031663d0e30db0346040518263ffffffff1660e01b81526004015f604051808303818588803b1580156104be575f80fd5b505af11580156104d0573d5f803e3d5ffd5b505060408051610120810182526001600160a01b03808e1682528b811660208301525f80548216938301939093526001541660608201529093509150506080810161051c8a87876116e3565b6001600160a01b031681526020013481526020018681526020015f1515815260200187151581525090505f610550826116ff565b5090505f811261057257604051622c26b960ea1b815260040160405180910390fd5b6003546040516370a0823160e01b81523060048201525f9185916001600160a01b03909116906370a08231906024016020604051808303815f875af11580156105bd573d5f803e3d5ffd5b505050506040513d601f19601f820116820180604052508101906105e1919061230f565b6105eb919061233a565b9050801561068157600354604051632e1a7d4d60e01b8152600481018390526001600160a01b0390911690632e1a7d4d906024015f604051808303815f87803b158015610636575f80fd5b505af1158015610648573d5f803e3d5ffd5b50506040516001600160a01b038c16925083156108fc02915083905f818181858888f1935050505015801561067f573d5f803e3d5ffd5b505b604080516001600160a01b038b16815260ff84901d80850118602082015281517f33daa9f9211714f6792e0b7c3c14f2bd7f00356725f591ab25eef1830f4f9940929181900390910190a150506003805460ff60a01b19169055505050505050505050565b600354600160a01b900460ff16156107105760405162461bcd60e51b81526004016101e29061227d565b6003805460ff60a01b1916600160a01b179055836107865760405162461bcd60e51b815260206004820152602d60248201527f45786368616e676548656c7065723a20416d6f756e74206d757374206265206760448201526c0726561746572207468616e203609c1b60648201526084016101e2565b5f866001600160a01b031663d0c93a7c6040518163ffffffff1660e01b8152600401602060405180830381865afa1580156107c3573d5f803e3d5ffd5b505050506040513d601f19601f820116820180604052508101906107e791906122b4565b90506040518060400160405280886001600160a01b0316630dfe16816040518163ffffffff1660e01b8152600401602060405180830381865afa158015610830573d5f803e3d5ffd5b505050506040513d601f19601f8201168201806040525081019061085491906122d4565b6001600160a01b03168152602001886001600160a01b031663d21220a76040518163ffffffff1660e01b8152600401602060405180830381865afa15801561089e573d5f803e3d5ffd5b505050506040513d601f19601f820116820180604052508101906108c291906122d4565b6001600160a01b0390811690915281515f80546001600160a01b031990811692841692831790915560209093015160018054851691841691909117905560028054909316918a16919091179091556040516323b872dd60e01b81523360048201523060248201526044810187905281906323b872dd906064016020604051808303815f875af1158015610957573d5f803e3d5ffd5b505050506040513d601f19601f8201168201806040525081019061097b919061234d565b505f80546040805163313ce56760e01b815290516001600160a01b039092169163313ce567916004808201926020929091908290030181865afa1580156109c4573d5f803e3d5ffd5b505050506040513d601f19601f820116820180604052508101906109e891906122ef565b60408051610120810182526001600160a01b03808d1682523060208301525f80548216938301939093526001541660608201529192509060808101610a2e8b87866116e3565b6001600160a01b0316815260200189815260200186815260200160011515815260200187151581525090505f80610a64836116ff565b915091505f8112610ab75760405162461bcd60e51b815260206004820152601c60248201527f45786368616e676548656c7065723a20496e76616c696420737761700000000060448201526064016101e2565b5f610ac182612368565b600354604051632e1a7d4d60e01b8152600481018390529192506001600160a01b031690632e1a7d4d906024015f604051808303815f87803b158015610b05575f80fd5b505af1158015610b17573d5f803e3d5ffd5b50506040516001600160a01b038d16925083156108fc02915083905f818181858888f19350505050158015610b4e573d5f803e3d5ffd5b506040516370a0823160e01b81523060048201525f906001600160a01b038816906370a0823190602401602060405180830381865afa158015610b93573d5f803e3d5ffd5b505050506040513d601f19601f82011682018060405250810190610bb7919061230f565b90505f610bc4858e61233a565b8211610bd05781610bda565b610bda858e61233a565b90508015610c525760405163a9059cbb60e01b8152336004820152602481018290526001600160a01b0389169063a9059cbb906044016020604051808303815f875af1158015610c2c573d5f803e3d5ffd5b505050506040513d601f19601f82011682018060405250810190610c50919061234d565b505b604080516001600160a01b038e16815260ff86901d80870118602082015281517f9169c0979d20b8ac8954a8c6315813566dcd0f7156f9586b659f8b2c45a21c71929181900390910190a150506003805460ff60a01b1916905550505050505050505050505050565b600354600160a01b900460ff1615610ce55760405162461bcd60e51b81526004016101e29061227d565b6003805460ff60a01b1916600160a01b17905583610d165760405163162908e360e11b815260040160405180910390fd5b5f866001600160a01b031663d0c93a7c6040518163ffffffff1660e01b8152600401602060405180830381865afa158015610d53573d5f803e3d5ffd5b505050506040513d601f19601f82011682018060405250810190610d7791906122b4565b90506040518060400160405280886001600160a01b0316630dfe16816040518163ffffffff1660e01b8152600401602060405180830381865afa158015610dc0573d5f803e3d5ffd5b505050506040513d601f19601f82011682018060405250810190610de491906122d4565b6001600160a01b03168152602001886001600160a01b031663d21220a76040518163ffffffff1660e01b8152600401602060405180830381865afa158015610e2e573d5f803e3d5ffd5b505050506040513d601f19601f82011682018060405250810190610e5291906122d4565b6001600160a01b0390811690915281515f80549183166001600160a01b0319928316179055602090920151600180549183169184168217905560028054928b1692909316919091179091556040516323b872dd60e01b8152336004820152306024820152604481018790526323b872dd906064016020604051808303815f875af1158015610ee2573d5f803e3d5ffd5b505050506040513d601f19601f82011682018060405250810190610f06919061234d565b506001546040805163313ce56760e01b815290515f926001600160a01b03169163313ce5679160048083019260209291908290030181865afa158015610f4e573d5f803e3d5ffd5b505050506040513d601f19601f82011682018060405250810190610f7291906122ef565b60408051610120810182526001600160a01b03808c16825288811660208301525f80548216938301939093526001541660608201529192509060808101610fba8a86866116e3565b6001600160a01b031681526020018881526020018581526020015f1515815260200186151581525090505f610fee826116ff565b5090505f811261101157604051631115766760e01b815260040160405180910390fd5b604080516001600160a01b038916815260ff83901d80840118602082015281517f97c6088a966cd0ebbedc701f66399b8b51aa01a317df60217d5867cd397c66f5929181900390910190a150506003805460ff60a01b191690555050505050505050565b600354600160a01b900460ff161561109f5760405162461bcd60e51b81526004016101e29061227d565b6003805460ff60a01b1916600160a01b179055836110d05760405163162908e360e11b815260040160405180910390fd5b5f866001600160a01b031663d0c93a7c6040518163ffffffff1660e01b8152600401602060405180830381865afa15801561110d573d5f803e3d5ffd5b505050506040513d601f19601f8201168201806040525081019061113191906122b4565b90506040518060400160405280886001600160a01b0316630dfe16816040518163ffffffff1660e01b8152600401602060405180830381865afa15801561117a573d5f803e3d5ffd5b505050506040513d601f19601f8201168201806040525081019061119e91906122d4565b6001600160a01b03168152602001886001600160a01b031663d21220a76040518163ffffffff1660e01b8152600401602060405180830381865afa1580156111e8573d5f803e3d5ffd5b505050506040513d601f19601f8201168201806040525081019061120c91906122d4565b6001600160a01b0390811690915281515f80546001600160a01b031990811692841692831790915560209093015160018054851691841691909117905560028054909316918a16919091179091556040516323b872dd60e01b81523360048201523060248201526044810187905281906323b872dd906064016020604051808303815f875af11580156112a1573d5f803e3d5ffd5b505050506040513d601f19601f820116820180604052508101906112c5919061234d565b505f80546040805163313ce56760e01b815290516001600160a01b039092169163313ce567916004808201926020929091908290030181865afa15801561130e573d5f803e3d5ffd5b505050506040513d601f19601f8201168201806040525081019061133291906122ef565b60408051610120810182526001600160a01b03808d16825289811660208301525f8054821693830193909352600154166060820152919250906080810161137a8b87866116e3565b6001600160a01b0316815260200189815260200186815260200160011515815260200187151581525090505f806113b0836116ff565b915091505f81126113d457604051631115766760e01b815260040160405180910390fd5b6040516370a0823160e01b81523060048201525f906001600160a01b038716906370a0823190602401602060405180830381865afa158015611418573d5f803e3d5ffd5b505050506040513d601f19601f8201168201806040525081019061143c919061230f565b90505f611449848d61233a565b8211611455578161145f565b61145f848d61233a565b905080156114d75760405163a9059cbb60e01b8152336004820152602481018290526001600160a01b0388169063a9059cbb906044016020604051808303815f875af11580156114b1573d5f803e3d5ffd5b505050506040513d601f19601f820116820180604052508101906114d5919061234d565b505b604080516001600160a01b038d16815260ff85901d80860118602082015281517f9169c0979d20b8ac8954a8c6315813566dcd0f7156f9586b659f8b2c45a21c71929181900390910190a150506003805460ff60a01b19169055505050505050505050505050565b6002546001600160a01b031633146115aa5760405162461bcd60e51b815260206004820152602860248201527f45786368616e676548656c7065723a2043616c6c6261636b2063616c6c6572206044820152671b9bdd081c1bdbdb60c21b60648201526084016101e2565b5f841315611629575f5460405163a9059cbb60e01b8152336004820152602481018690526001600160a01b039091169063a9059cbb906044016020604051808303815f875af11580156115ff573d5f803e3d5ffd5b505050506040513d601f19601f82011682018060405250810190611623919061234d565b506116a5565b5f8313156116a55760015460405163a9059cbb60e01b8152336004820152602481018590526001600160a01b039091169063a9059cbb906044016020604051808303815f875af115801561167f573d5f803e3d5ffd5b505050506040513d601f19601f820116820180604052508101906116a3919061234d565b505b5050604080518082019091525f808252602090910181905280546001600160a01b031990811690915560018054821690556002805490911690555050565b5f6116f76116f2858585611b6a565b611caf565b949350505050565b5f805f8360e0015161171557836040015161171b565b83606001515b60208501516040516370a0823160e01b81526001600160a01b0391821660048201529116906370a0823190602401602060405180830381865afa158015611764573d5f803e3d5ffd5b505050506040513d601f19601f82011682018060405250810190611788919061230f565b90505f845f01516001600160a01b031663d0c93a7c6040518163ffffffff1660e01b8152600401602060405180830381865afa1580156117ca573d5f803e3d5ffd5b505050506040513d601f19601f820116820180604052508101906117ee91906122b4565b90505f73__$00856c2daf1848075e4d6b3791a97a7365$__63b7df07b387608001518860e00151611823578860400151611829565b88606001515b6001600160a01b031663313ce5676040518163ffffffff1660e01b8152600401602060405180830381865afa158015611864573d5f803e3d5ffd5b505050506040513d601f19601f8201168201806040525081019061188891906122ef565b6040516001600160e01b031960e085901b1681526001600160a01b03909216600483015260ff166024820152604401602060405180830381865af41580156118d2573d5f803e3d5ffd5b505050506040513d601f19601f820116820180604052508101906118f6919061230f565b90505f6119d48760e001516119305760648860c00151846119179190612382565b61192191906123ad565b61192b90846123c0565b611956565b60648860c00151846119429190612382565b61194c91906123ad565b611956908461233a565b848960e0015161196a578960400151611970565b89606001515b6001600160a01b031663313ce5676040518163ffffffff1660e01b8152600401602060405180830381865afa1580156119ab573d5f803e3d5ffd5b505050506040513d601f19601f820116820180604052508101906119cf91906122ef565b6116e3565b9050865f01516001600160a01b031663128acb0888602001518960e001518a60a001518b6101000151611a075785611a0d565b8b608001515b60405160e086901b6001600160e01b03191681526001600160a01b03948516600482015292151560248401526044830191909152909116606482015260a060848201525f60a482015260c40160408051808303815f875af1925050508015611a92575060408051601f3d908101601f19168201909252611a8f918101906123d3565b60015b611aaf57604051631115766760e01b815260040160405180910390fd5b8197508096505f8960e00151611ac9578960400151611acf565b89606001515b60208b01516040516370a0823160e01b81526001600160a01b0391821660048201529116906370a0823190602401602060405180830381865afa158015611b18573d5f803e3d5ffd5b505050506040513d601f19601f82011682018060405250810190611b3c919061230f565b9050808703611b5e576040516304ecdfb360e41b815260040160405180910390fd5b50505050505050915091565b5f60068260ff1610158015611b83575060128260ff1611155b611ba057604051630692acc560e51b815260040160405180910390fd5b5f611bac8360126123f5565b611bb790600a6124ee565b9050611bc381866124fc565b945083611c9c68033dd1780914b9684073__$28bae0af19d0e90d77349cc0e88bc3c39a$__63bc4225aa611bff8a670de0b6b3a76400006124fc565b6040516001600160e01b031960e084901b1681526004810191909152670de0b6b3a764000060248201526706f05b59d3b200006044820152606401602060405180830381865af4158015611c55573d5f803e3d5ffd5b505050506040513d601f19601f82011682018060405250810190611c79919061230f565b611c83919061252b565b611c97600288900b658334ae9d7c0a6124fc565b611cbf565b611ca69190612551565b95945050505050565b5f611cb982611d15565b92915050565b5f61138861271083611cd186836124fc565b611cdb9190612570565b611ce5919061259c565b13611cf957611cf48284612570565b611d0e565b611d038284612570565b611d0e9060016125af565b9392505050565b5f805f8360020b12611d2a578260020b611d37565b8260020b611d3790612368565b9050611d46620d89e7196125d6565b60020b811115611d7c5760405162461bcd60e51b81526020600482015260016024820152601560fa1b60448201526064016101e2565b5f816001165f03611d9157600160801b611da3565b6ffffcb933bd6fad37aa2d162d1a5940015b70ffffffffffffffffffffffffffffffffff1690506002821615611de2576080611ddd826ffff97272373d413259a46990580e213a612382565b901c90505b6004821615611e0c576080611e07826ffff2e50f5f656932ef12357cf3c7fdcc612382565b901c90505b6008821615611e36576080611e31826fffe5caca7e10e4e61c3624eaa0941cd0612382565b901c90505b6010821615611e60576080611e5b826fffcb9843d60f6159c9db58835c926644612382565b901c90505b6020821615611e8a576080611e85826fff973b41fa98c081472e6896dfb254c0612382565b901c90505b6040821615611eb4576080611eaf826fff2ea16466c96a3843ec78b326b52861612382565b901c90505b6080821615611ede576080611ed9826ffe5dee046a99a2a811c461f1969c3053612382565b901c90505b610100821615611f09576080611f04826ffcbe86c7900a88aedcffc83b479aa3a4612382565b901c90505b610200821615611f34576080611f2f826ff987a7253ac413176f2b074cf7815e54612382565b901c90505b610400821615611f5f576080611f5a826ff3392b0822b70005940c7a398e4b70f3612382565b901c90505b610800821615611f8a576080611f85826fe7159475a2c29b7443b29c7fa6e889d9612382565b901c90505b611000821615611fb5576080611fb0826fd097f3bdfd2022b8845ad8f792aa5825612382565b901c90505b612000821615611fe0576080611fdb826fa9f746462d870fdf8a65dc1f90e061e5612382565b901c90505b61400082161561200b576080612006826f70d869a156d2a1b890bb3df62baf32f7612382565b901c90505b618000821615612036576080612031826f31be135f97d08fd981231505542fcfa6612382565b901c90505b6201000082161561206257608061205d826f09aa508b5b7a84e1c677de54f3e99bc9612382565b901c90505b6202000082161561208d576080612088826e5d6af8dedb81196699c329225ee604612382565b901c90505b620400008216156120b75760806120b2826d2216e584f5fa1ea926041bedfe98612382565b901c90505b620800008216156120df5760806120da826b048a170391f7dc42444e8fa2612382565b901c90505b5f8460020b13156120f8576120f5815f196123ad565b90505b612107640100000000826125f6565b15612113576001612115565b5f5b6116f79060ff16602083901c6123c0565b6001600160a01b038116811461213a575f80fd5b50565b801515811461213a575f80fd5b5f805f805f60a0868803121561215e575f80fd5b853561216981612126565b945060208601359350604086013561218081612126565b925060608601356121908161213d565b949793965091946080013592915050565b5f805f805f8060c087890312156121b6575f80fd5b86356121c181612126565b9550602087013594506040870135935060608701356121df81612126565b925060808701356121ef8161213d565b8092505060a087013590509295509295509295565b5f805f8060608587031215612217575f80fd5b8435935060208501359250604085013567ffffffffffffffff8082111561223c575f80fd5b818701915087601f83011261224f575f80fd5b81358181111561225d575f80fd5b88602082850101111561226e575f80fd5b95989497505060200194505050565b6020808252601e908201527f45786368616e676548656c7065723a205265656e7472616e742063616c6c0000604082015260600190565b5f602082840312156122c4575f80fd5b81518060020b8114611d0e575f80fd5b5f602082840312156122e4575f80fd5b8151611d0e81612126565b5f602082840312156122ff575f80fd5b815160ff81168114611d0e575f80fd5b5f6020828403121561231f575f80fd5b5051919050565b634e487b7160e01b5f52601160045260245ffd5b81810381811115611cb957611cb9612326565b5f6020828403121561235d575f80fd5b8151611d0e8161213d565b5f600160ff1b820161237c5761237c612326565b505f0390565b8082028115828204841417611cb957611cb9612326565b634e487b7160e01b5f52601260045260245ffd5b5f826123bb576123bb612399565b500490565b80820180821115611cb957611cb9612326565b5f80604083850312156123e4575f80fd5b505080516020909101519092909150565b60ff8281168282160390811115611cb957611cb9612326565b600181815b8085111561244857815f190482111561242e5761242e612326565b8085161561243b57918102915b93841c9390800290612413565b509250929050565b5f8261245e57506001611cb9565b8161246a57505f611cb9565b8160018114612480576002811461248a576124a6565b6001915050611cb9565b60ff84111561249b5761249b612326565b50506001821b611cb9565b5060208310610133831016604e8410600b84101617156124c9575081810a611cb9565b6124d3838361240e565b805f19048211156124e6576124e6612326565b029392505050565b5f611d0e60ff841683612450565b8082025f8212600160ff1b8414161561251757612517612326565b8181058314821517611cb957611cb9612326565b8181035f83128015838313168383128216171561254a5761254a612326565b5092915050565b5f8260020b8260020b028060020b915080821461254a5761254a612326565b5f8261257e5761257e612399565b600160ff1b82145f198414161561259757612597612326565b500590565b5f826125aa576125aa612399565b500790565b8082018281125f8312801582168215821617156125ce576125ce612326565b505092915050565b5f8160020b627fffff1981036125ee576125ee612326565b5f0392915050565b5f8261260457612604612399565b50069056fea264697066735822122045c77fcaa972f62f0461273cf9c46ac9e509271a5ff95aef41cdf4e23ff7369564736f6c63430008170033","linkReferences":{"src/libraries/Conversions.sol":{"Conversions":[{"start":6297,"length":20}]},"src/libraries/Logarithm.sol":{"Logarithm":[{"start":7291,"length":20}]}}},"methodIdentifiers":{"WMON()":"f1435d29","buyTokens(address,uint256,address,bool,uint256)":"4ad9a89a","buyTokensWETH(address,uint256,uint256,address,bool,uint256)":"6c212a63","poolAddress()":"1755ff21","sellTokens(address,uint256,uint256,address,bool,uint256)":"d5e93ef6","sellTokensETH(address,uint256,uint256,address,bool,uint256)":"519258e8","tokenInfo()":"6addb663","uniswapV3SwapCallback(int256,int256,bytes)":"fa461e33"},"id":78}