{"abi":[{"type":"constructor","inputs":[],"stateMutability":"nonpayable"},{"type":"receive","stateMutability":"payable"},{"type":"function","name":"WBNB","inputs":[],"outputs":[{"name":"","type":"address","internalType":"address"}],"stateMutability":"view"},{"type":"function","name":"buyTokens","inputs":[{"name":"pool","type":"address","internalType":"address"},{"name":"price","type":"uint256","internalType":"uint256"},{"name":"amount","type":"uint256","internalType":"uint256"},{"name":"receiver","type":"address","internalType":"address"},{"name":"isLimitOrder","type":"bool","internalType":"bool"}],"outputs":[],"stateMutability":"payable"},{"type":"function","name":"buyTokensWETH","inputs":[{"name":"pool","type":"address","internalType":"address"},{"name":"price","type":"uint256","internalType":"uint256"},{"name":"amount","type":"uint256","internalType":"uint256"},{"name":"receiver","type":"address","internalType":"address"},{"name":"isLimitOrder","type":"bool","internalType":"bool"}],"outputs":[],"stateMutability":"nonpayable"},{"type":"function","name":"poolAddress","inputs":[],"outputs":[{"name":"","type":"address","internalType":"address"}],"stateMutability":"view"},{"type":"function","name":"sellTokens","inputs":[{"name":"pool","type":"address","internalType":"address"},{"name":"price","type":"uint256","internalType":"uint256"},{"name":"amount","type":"uint256","internalType":"uint256"},{"name":"receiver","type":"address","internalType":"address"},{"name":"isLimitOrder","type":"bool","internalType":"bool"}],"outputs":[],"stateMutability":"nonpayable"},{"type":"function","name":"sellTokensETH","inputs":[{"name":"pool","type":"address","internalType":"address"},{"name":"price","type":"uint256","internalType":"uint256"},{"name":"amount","type":"uint256","internalType":"uint256"},{"name":"receiver","type":"address","internalType":"address"},{"name":"isLimitOrder","type":"bool","internalType":"bool"}],"outputs":[],"stateMutability":"nonpayable"},{"type":"function","name":"tickSpacing","inputs":[],"outputs":[{"name":"","type":"int24","internalType":"int24"}],"stateMutability":"view"},{"type":"function","name":"tokenInfo","inputs":[],"outputs":[{"name":"token0","type":"address","internalType":"address"},{"name":"token1","type":"address","internalType":"address"}],"stateMutability":"view"},{"type":"function","name":"uniswapV3SwapCallback","inputs":[{"name":"amount0Delta","type":"int256","internalType":"int256"},{"name":"amount1Delta","type":"int256","internalType":"int256"},{"name":"data","type":"bytes","internalType":"bytes"}],"outputs":[],"stateMutability":"nonpayable"},{"type":"error","name":"InvalidDecimals","inputs":[]},{"type":"error","name":"InvalidSwap","inputs":[]},{"type":"error","name":"NoTokensExchanged","inputs":[]}],"bytecode":{"object":"0x6080604052600380546001600160a01b03191673bb4cdb9cbd36b01bd1cbaebf2de08d9173bc095c17905534801561003657600080fd5b5061225e806100466000396000f3fe60806040526004361061008a5760003560e01c80637ad2e707116100595780637ad2e7071461015c5780638dd950021461016f578063caa21beb1461018f578063d0c93a7c146101af578063fa461e33146101d757600080fd5b80631755ff21146100965780632a00e91c146100d35780632bfd2ea7146100f55780636addb6631461011557600080fd5b3661009157005b600080fd5b3480156100a257600080fd5b506002546100b6906001600160a01b031681565b6040516001600160a01b0390911681526020015b60405180910390f35b3480156100df57600080fd5b506100f36100ee366004611d4c565b6101f7565b005b34801561010157600080fd5b506100f3610110366004611d4c565b6104f3565b34801561012157600080fd5b5060005460015461013c916001600160a01b03908116911682565b604080516001600160a01b039384168152929091166020830152016100ca565b6100f361016a366004611d4c565b61083b565b34801561017b57600080fd5b506003546100b6906001600160a01b031681565b34801561019b57600080fd5b506100f36101aa366004611d4c565b610d38565b3480156101bb57600080fd5b506101c4603c81565b60405160029190910b81526020016100ca565b3480156101e357600080fd5b506100f36101f2366004611dab565b61111c565b600354600160a01b900460ff161561022a5760405162461bcd60e51b815260040161022190611e2b565b60405180910390fd5b6003805460ff60a01b1916600160a01b1790558261025a5760405162461bcd60e51b815260040161022190611e62565b6040518060400160405280866001600160a01b0316630dfe16816040518163ffffffff1660e01b8152600401602060405180830381865afa1580156102a3573d6000803e3d6000fd5b505050506040513d601f19601f820116820180604052508101906102c79190611eaf565b6001600160a01b03168152602001866001600160a01b031663d21220a76040518163ffffffff1660e01b8152600401602060405180830381865afa158015610313573d6000803e3d6000fd5b505050506040513d601f19601f820116820180604052508101906103379190611eaf565b6001600160a01b039081169091528151600080549183166001600160a01b031992831617905560209092015160018054918316918416821790556002805492891692909316919091179091556040516323b872dd60e01b8152336004820152306024820152604481018590526323b872dd906064016020604051808303816000875af11580156103cb573d6000803e3d6000fd5b505050506040513d601f19601f820116820180604052508101906103ef9190611ecc565b506001546040805163313ce56760e01b815290516000926001600160a01b03169163313ce5679160048083019260209291908290030181865afa15801561043a573d6000803e3d6000fd5b505050506040513d601f19601f8201168201806040525081019061045e9190611ee9565b60408051610100810182526001600160a01b03808a16825286811660208301526000805482169383019390935260015416606082015291925090608081016104a888603c866112ca565b6001600160a01b0316815260200186815260200160001515815260200184151581525090506000806104d9836112e7565b50506003805460ff60a01b19169055505050505050505050565b600354600160a01b900460ff161561051d5760405162461bcd60e51b815260040161022190611e2b565b6003805460ff60a01b1916600160a01b1790558261054d5760405162461bcd60e51b815260040161022190611e62565b6040518060400160405280866001600160a01b0316630dfe16816040518163ffffffff1660e01b8152600401602060405180830381865afa158015610596573d6000803e3d6000fd5b505050506040513d601f19601f820116820180604052508101906105ba9190611eaf565b6001600160a01b03168152602001866001600160a01b031663d21220a76040518163ffffffff1660e01b8152600401602060405180830381865afa158015610606573d6000803e3d6000fd5b505050506040513d601f19601f8201168201806040525081019061062a9190611eaf565b6001600160a01b039081169091528151600080546001600160a01b031990811692841692831790915560209093015160018054851691841691909117905560028054909316918816919091179091556040516323b872dd60e01b8152336004820152306024820152604481018590526323b872dd906064016020604051808303816000875af11580156106c1573d6000803e3d6000fd5b505050506040513d601f19601f820116820180604052508101906106e59190611ecc565b50600080546040805163313ce56760e01b815290516001600160a01b039092169163313ce567916004808201926020929091908290030181865afa158015610731573d6000803e3d6000fd5b505050506040513d601f19601f820116820180604052508101906107559190611ee9565b60408051610100810182526001600160a01b03808a168252868116602083015260008054821693830193909352600154166060820152919250906080810161079f88603c866112ca565b6001600160a01b03168152602081018790526001604082015284151560609091015290506000806107cf836112e7565b91509150600081126108235760405162461bcd60e51b815260206004820152601c60248201527f45786368616e676548656c7065723a20496e76616c69642073776170000000006044820152606401610221565b50506003805460ff60a01b1916905550505050505050565b600354600160a01b900460ff16156108655760405162461bcd60e51b815260040161022190611e2b565b6003805460ff60a01b1916600160a01b179055346108c55760405162461bcd60e51b815260206004820152601b60248201527f45786368616e676548656c7065723a204e6f204554482073656e7400000000006044820152606401610221565b6040518060400160405280866001600160a01b0316630dfe16816040518163ffffffff1660e01b8152600401602060405180830381865afa15801561090e573d6000803e3d6000fd5b505050506040513d601f19601f820116820180604052508101906109329190611eaf565b6001600160a01b03168152602001866001600160a01b031663d21220a76040518163ffffffff1660e01b8152600401602060405180830381865afa15801561097e573d6000803e3d6000fd5b505050506040513d601f19601f820116820180604052508101906109a29190611eaf565b6001600160a01b039081169091528151600080549183166001600160a01b0319928316811782556020948501516001805491861691851691909117905560028054948b1694909316939093179091556040805163313ce56760e01b81529051919363313ce567926004808401938290030181865afa158015610a28573d6000803e3d6000fd5b505050506040513d601f19601f82011682018060405250810190610a4c9190611ee9565b6003546040516370a0823160e01b81523060048201529192506000916001600160a01b03909116906370a08231906024016020604051808303816000875af1158015610a9c573d6000803e3d6000fd5b505050506040513d601f19601f82011682018060405250810190610ac09190611f0c565b9050600360009054906101000a90046001600160a01b03166001600160a01b031663d0e30db0346040518263ffffffff1660e01b81526004016000604051808303818588803b158015610b1257600080fd5b505af1158015610b26573d6000803e3d6000fd5b505060408051610100810182526001600160a01b03808d16825289811660208301526000805482169383019390935260015416606082015290935091505060808101610b7489603c876112ca565b6001600160a01b031681526020013481526020016000151581526020018515158152509050600080610ba5836112e7565b9150915060008212610c045760405162461bcd60e51b815260206004820152602260248201527f45786368616e676548656c7065723a204e6f20746f6b656e3020726563656976604482015261195960f21b6064820152608401610221565b6003546040516370a0823160e01b815230600482015260009186916001600160a01b03909116906370a08231906024016020604051808303816000875af1158015610c53573d6000803e3d6000fd5b505050506040513d601f19601f82011682018060405250810190610c779190611f0c565b610c819190611f3b565b905080156104d957600354604051632e1a7d4d60e01b8152600481018390526001600160a01b0390911690632e1a7d4d90602401600060405180830381600087803b158015610ccf57600080fd5b505af1158015610ce3573d6000803e3d6000fd5b50506040516001600160a01b038b16925083156108fc02915083906000818181858888f19350505050158015610d1d573d6000803e3d6000fd5b5050506003805460ff60a01b19169055505050505050505050565b600354600160a01b900460ff1615610d625760405162461bcd60e51b815260040161022190611e2b565b6003805460ff60a01b1916600160a01b17905582610d925760405162461bcd60e51b815260040161022190611e62565b6040518060400160405280866001600160a01b0316630dfe16816040518163ffffffff1660e01b8152600401602060405180830381865afa158015610ddb573d6000803e3d6000fd5b505050506040513d601f19601f82011682018060405250810190610dff9190611eaf565b6001600160a01b03168152602001866001600160a01b031663d21220a76040518163ffffffff1660e01b8152600401602060405180830381865afa158015610e4b573d6000803e3d6000fd5b505050506040513d601f19601f82011682018060405250810190610e6f9190611eaf565b6001600160a01b039081169091528151600080546001600160a01b031990811692841692831790915560209093015160018054851691841691909117905560028054909316918816919091179091556040516323b872dd60e01b8152336004820152306024820152604481018590526323b872dd906064016020604051808303816000875af1158015610f06573d6000803e3d6000fd5b505050506040513d601f19601f82011682018060405250810190610f2a9190611ecc565b50600080546040805163313ce56760e01b815290516001600160a01b039092169163313ce567916004808201926020929091908290030181865afa158015610f76573d6000803e3d6000fd5b505050506040513d601f19601f82011682018060405250810190610f9a9190611ee9565b60408051610100810182526001600160a01b03808a168252306020830152600080548216938301939093526001541660608201529192509060808101610fe288603c866112ca565b6001600160a01b0316815260208101879052600160408201528415156060909101529050600080611012836112e7565b91509150600082126110665760405162461bcd60e51b815260206004820152601c60248201527f45786368616e676548656c7065723a20496e76616c69642073776170000000006044820152606401610221565b600081131561082357600354604051632e1a7d4d60e01b8152600481018390526001600160a01b0390911690632e1a7d4d90602401600060405180830381600087803b1580156110b557600080fd5b505af11580156110c9573d6000803e3d6000fd5b50506040516001600160a01b038916925083156108fc02915083906000818181858888f19350505050158015611103573d6000803e3d6000fd5b5050506003805460ff60a01b1916905550505050505050565b6002546001600160a01b031633146111875760405162461bcd60e51b815260206004820152602860248201527f45786368616e676548656c7065723a2043616c6c6261636b2063616c6c6572206044820152671b9bdd081c1bdbdb60c21b6064820152608401610221565b600084131561120b5760005460405163a9059cbb60e01b8152336004820152602481018690526001600160a01b039091169063a9059cbb906044016020604051808303816000875af11580156111e1573d6000803e3d6000fd5b505050506040513d601f19601f820116820180604052508101906112059190611ecc565b5061128b565b600083131561128b5760015460405163a9059cbb60e01b8152336004820152602481018590526001600160a01b039091169063a9059cbb906044016020604051808303816000875af1158015611265573d6000803e3d6000fd5b505050506040513d601f19601f820116820180604052508101906112899190611ecc565b505b5050604080518082019091526000808252602090910181905280546001600160a01b031990811690915560018054821690556002805490911690555050565b60006112df6112da85858561175d565b6118a6565b949350505050565b60008060008360c001516112ff578360400151611305565b83606001515b60208501516040516370a0823160e01b81526001600160a01b0391821660048201529116906370a0823190602401602060405180830381865afa158015611350573d6000803e3d6000fd5b505050506040513d601f19601f820116820180604052508101906113749190611f0c565b9050600084600001516001600160a01b031663d0c93a7c6040518163ffffffff1660e01b8152600401602060405180830381865afa1580156113ba573d6000803e3d6000fd5b505050506040513d601f19601f820116820180604052508101906113de9190611f4e565b9050600073__$00856c2daf1848075e4d6b3791a97a7365$__63b7df07b387608001518860c0015161141457886040015161141a565b88606001515b6001600160a01b031663313ce5676040518163ffffffff1660e01b8152600401602060405180830381865afa158015611457573d6000803e3d6000fd5b505050506040513d601f19601f8201168201806040525081019061147b9190611ee9565b6040516001600160e01b031960e085901b1681526001600160a01b03909216600483015260ff166024820152604401602060405180830381865af41580156114c7573d6000803e3d6000fd5b505050506040513d601f19601f820116820180604052508101906114eb9190611f0c565b905060006115c28760c00151611521576064611508846005611f71565b6115129190611f9e565b61151c9084611fb2565b611542565b606461152e846005611f71565b6115389190611f9e565b6115429084611f3b565b848960c0015161155657896040015161155c565b89606001515b6001600160a01b031663313ce5676040518163ffffffff1660e01b8152600401602060405180830381865afa158015611599573d6000803e3d6000fd5b505050506040513d601f19601f820116820180604052508101906115bd9190611ee9565b6112ca565b905086600001516001600160a01b031663128acb0888602001518960c001518a60a001518b60e001516115f557856115fb565b8b608001515b60405160e086901b6001600160e01b03191681526001600160a01b03948516600482015292151560248401526044830191909152909116606482015260a06084820152600060a482015260c40160408051808303816000875af1925050508015611682575060408051601f3d908101601f1916820190925261167f91810190611fc5565b60015b61169f57604051631115766760e01b815260040160405180910390fd5b81975080965060008960c001516116ba5789604001516116c0565b89606001515b60208b01516040516370a0823160e01b81526001600160a01b0391821660048201529116906370a0823190602401602060405180830381865afa15801561170b573d6000803e3d6000fd5b505050506040513d601f19601f8201168201806040525081019061172f9190611f0c565b9050808703611751576040516304ecdfb360e41b815260040160405180910390fd5b50505050505050915091565b600060068260ff1610158015611777575060128260ff1611155b61179457604051630692acc560e51b815260040160405180910390fd5b60006117a1836012611fe9565b6117ac90600a6120e6565b90506117b881866120f5565b94508361189368033dd1780914b9684073__$28bae0af19d0e90d77349cc0e88bc3c39a$__63bc4225aa6117f48a670de0b6b3a76400006120f5565b6040516001600160e01b031960e084901b1681526004810191909152670de0b6b3a764000060248201526706f05b59d3b200006044820152606401602060405180830381865af415801561184c573d6000803e3d6000fd5b505050506040513d601f19601f820116820180604052508101906118709190611f0c565b61187a9190612125565b61188e600288900b658334ae9d7c0a6120f5565b6118b7565b61189d919061214c565b95945050505050565b60006118b18261190e565b92915050565b6000611388612710836118ca86836120f5565b6118d4919061216c565b6118de919061219a565b136118f2576118ed828461216c565b611907565b6118fc828461216c565b6119079060016121ae565b9392505050565b60008060008360020b12611925578260020b611932565b8260020b611932906121d6565b9050611941620d89e7196121f2565b60020b8111156119775760405162461bcd60e51b81526020600482015260016024820152601560fa1b6044820152606401610221565b60008160011660000361198e57600160801b6119a0565b6ffffcb933bd6fad37aa2d162d1a5940015b70ffffffffffffffffffffffffffffffffff16905060028216156119df5760806119da826ffff97272373d413259a46990580e213a611f71565b901c90505b6004821615611a09576080611a04826ffff2e50f5f656932ef12357cf3c7fdcc611f71565b901c90505b6008821615611a33576080611a2e826fffe5caca7e10e4e61c3624eaa0941cd0611f71565b901c90505b6010821615611a5d576080611a58826fffcb9843d60f6159c9db58835c926644611f71565b901c90505b6020821615611a87576080611a82826fff973b41fa98c081472e6896dfb254c0611f71565b901c90505b6040821615611ab1576080611aac826fff2ea16466c96a3843ec78b326b52861611f71565b901c90505b6080821615611adb576080611ad6826ffe5dee046a99a2a811c461f1969c3053611f71565b901c90505b610100821615611b06576080611b01826ffcbe86c7900a88aedcffc83b479aa3a4611f71565b901c90505b610200821615611b31576080611b2c826ff987a7253ac413176f2b074cf7815e54611f71565b901c90505b610400821615611b5c576080611b57826ff3392b0822b70005940c7a398e4b70f3611f71565b901c90505b610800821615611b87576080611b82826fe7159475a2c29b7443b29c7fa6e889d9611f71565b901c90505b611000821615611bb2576080611bad826fd097f3bdfd2022b8845ad8f792aa5825611f71565b901c90505b612000821615611bdd576080611bd8826fa9f746462d870fdf8a65dc1f90e061e5611f71565b901c90505b614000821615611c08576080611c03826f70d869a156d2a1b890bb3df62baf32f7611f71565b901c90505b618000821615611c33576080611c2e826f31be135f97d08fd981231505542fcfa6611f71565b901c90505b62010000821615611c5f576080611c5a826f09aa508b5b7a84e1c677de54f3e99bc9611f71565b901c90505b62020000821615611c8a576080611c85826e5d6af8dedb81196699c329225ee604611f71565b901c90505b62040000821615611cb4576080611caf826d2216e584f5fa1ea926041bedfe98611f71565b901c90505b62080000821615611cdc576080611cd7826b048a170391f7dc42444e8fa2611f71565b901c90505b60008460020b1315611cf757611cf481600019611f9e565b90505b611d0664010000000082612214565b15611d12576001611d15565b60005b6112df9060ff16602083901c611fb2565b6001600160a01b0381168114611d3b57600080fd5b50565b8015158114611d3b57600080fd5b600080600080600060a08688031215611d6457600080fd5b8535611d6f81611d26565b945060208601359350604086013592506060860135611d8d81611d26565b91506080860135611d9d81611d3e565b809150509295509295909350565b60008060008060608587031215611dc157600080fd5b8435935060208501359250604085013567ffffffffffffffff80821115611de757600080fd5b818701915087601f830112611dfb57600080fd5b813581811115611e0a57600080fd5b886020828501011115611e1c57600080fd5b95989497505060200194505050565b6020808252601e908201527f45786368616e676548656c7065723a205265656e7472616e742063616c6c0000604082015260600190565b6020808252602d908201527f45786368616e676548656c7065723a20416d6f756e74206d757374206265206760408201526c0726561746572207468616e203609c1b606082015260800190565b600060208284031215611ec157600080fd5b815161190781611d26565b600060208284031215611ede57600080fd5b815161190781611d3e565b600060208284031215611efb57600080fd5b815160ff8116811461190757600080fd5b600060208284031215611f1e57600080fd5b5051919050565b634e487b7160e01b600052601160045260246000fd5b818103818111156118b1576118b1611f25565b600060208284031215611f6057600080fd5b81518060020b811461190757600080fd5b80820281158282048414176118b1576118b1611f25565b634e487b7160e01b600052601260045260246000fd5b600082611fad57611fad611f88565b500490565b808201808211156118b1576118b1611f25565b60008060408385031215611fd857600080fd5b505080516020909101519092909150565b60ff82811682821603908111156118b1576118b1611f25565b600181815b8085111561203d57816000190482111561202357612023611f25565b8085161561203057918102915b93841c9390800290612007565b509250929050565b600082612054575060016118b1565b81612061575060006118b1565b816001811461207757600281146120815761209d565b60019150506118b1565b60ff84111561209257612092611f25565b50506001821b6118b1565b5060208310610133831016604e8410600b84101617156120c0575081810a6118b1565b6120ca8383612002565b80600019048211156120de576120de611f25565b029392505050565b600061190760ff841683612045565b80820260008212600160ff1b8414161561211157612111611f25565b81810583148215176118b1576118b1611f25565b818103600083128015838313168383128216171561214557612145611f25565b5092915050565b60008260020b8260020b028060020b915080821461214557612145611f25565b60008261217b5761217b611f88565b600160ff1b82146000198414161561219557612195611f25565b500590565b6000826121a9576121a9611f88565b500790565b80820182811260008312801582168215821617156121ce576121ce611f25565b505092915050565b6000600160ff1b82016121eb576121eb611f25565b5060000390565b60008160020b627fffff19810361220b5761220b611f25565b60000392915050565b60008261222357612223611f88565b50069056fea2646970667358221220629b4b5eeeba627b95d998a88272a4be5fc12176d94fc31f9e849bfb7b52406b64736f6c63430008170033","linkReferences":{"src/libraries/Conversions.sol":{"Conversions":[{"start":5162,"length":20}]},"src/libraries/Logarithm.sol":{"Logarithm":[{"start":6160,"length":20}]}}},"methodIdentifiers":{"WBNB()":"8dd95002","buyTokens(address,uint256,uint256,address,bool)":"7ad2e707","buyTokensWETH(address,uint256,uint256,address,bool)":"2a00e91c","poolAddress()":"1755ff21","sellTokens(address,uint256,uint256,address,bool)":"2bfd2ea7","sellTokensETH(address,uint256,uint256,address,bool)":"caa21beb","tickSpacing()":"d0c93a7c","tokenInfo()":"6addb663","uniswapV3SwapCallback(int256,int256,bytes)":"fa461e33"},"id":67}