{"abi":[{"type":"function","name":"addCollateral","inputs":[{"name":"amount","type":"uint256","internalType":"uint256"}],"outputs":[],"stateMutability":"nonpayable"},{"type":"function","name":"borrow","inputs":[{"name":"borrowAmount","type":"uint256","internalType":"uint256"},{"name":"duration","type":"uint256","internalType":"uint256"}],"outputs":[],"stateMutability":"nonpayable"},{"type":"function","name":"defaultLoans","inputs":[],"outputs":[],"stateMutability":"nonpayable"},{"type":"function","name":"getFunctionSelectors","inputs":[],"outputs":[{"name":"","type":"bytes4[]","internalType":"bytes4[]"}],"stateMutability":"pure"},{"type":"function","name":"payback","inputs":[],"outputs":[],"stateMutability":"nonpayable"},{"type":"function","name":"roll","inputs":[{"name":"newDuration","type":"uint256","internalType":"uint256"}],"outputs":[],"stateMutability":"nonpayable"},{"type":"function","name":"shift","inputs":[],"outputs":[],"stateMutability":"nonpayable"},{"type":"function","name":"slide","inputs":[],"outputs":[],"stateMutability":"nonpayable"},{"type":"event","name":"Borrow","inputs":[{"name":"who","type":"address","indexed":true,"internalType":"address"},{"name":"borrowAmount","type":"uint256","indexed":false,"internalType":"uint256"},{"name":"duration","type":"uint256","indexed":false,"internalType":"uint256"}],"anonymous":false},{"type":"event","name":"DefaultLoans","inputs":[],"anonymous":false},{"type":"event","name":"Payback","inputs":[{"name":"who","type":"address","indexed":true,"internalType":"address"}],"anonymous":false},{"type":"event","name":"RollLoan","inputs":[{"name":"who","type":"address","indexed":true,"internalType":"address"}],"anonymous":false},{"type":"event","name":"Shift","inputs":[],"anonymous":false},{"type":"event","name":"Slide","inputs":[],"anonymous":false},{"type":"error","name":"AboveThreshold","inputs":[]},{"type":"error","name":"BelowThreshold","inputs":[]},{"type":"error","name":"InvalidDecimals","inputs":[]},{"type":"error","name":"InvalidTick","inputs":[]},{"type":"error","name":"NoLiquidity","inputs":[]},{"type":"error","name":"OnlyNotEmptyPositions","inputs":[]},{"type":"error","name":"OutOfRange","inputs":[]},{"type":"error","name":"PositionsLength","inputs":[]},{"type":"error","name":"SafeERC20FailedOperation","inputs":[{"name":"token","type":"address","internalType":"address"}]},{"type":"error","name":"ZeroLiquidty","inputs":[]}],"bytecode":{"object":"0x608060405234801561001057600080fd5b50614f17806100206000396000f3fe608060405234801561001057600080fd5b50600436106100885760003560e01c8063854bec871161005b578063854bec87146100c5578063982f3bfd146100cd578063bcc46e83146100d5578063fd896f9d146100e857600080fd5b80630ecbcdab1461008d57806312fc41ca146100a25780631f7b4f30146100aa5780635f260855146100bd575b600080fd5b6100a061009b3660046142c8565b610106565b005b6100a06101a3565b6100a06100b83660046142ea565b610342565b6100a06103c7565b6100a0610445565b6100a06104c2565b6100a06100e33660046142ea565b6105c7565b6100f0610621565b6040516100fd9190614303565b60405180910390f35b604051636bb5c0bd60e11b81523360048201526024810183905260448101829052309063d76b817a90606401600060405180830381600087803b15801561014c57600080fd5b505af1158015610160573d6000803e3d6000fd5b505060408051858152602081018590523393507fe1979fe4c35e0cef342fef5668e2c8e7a7e9f5d5d1ca8fee0ac6c427fa4153af92500160405180910390a25050565b6000306001600160a01b031663802758606040518163ffffffff1660e01b81526004016101e060405180830381865afa1580156101e4573d6000803e3d6000fd5b505050506040513d601f19601f820116820180604052508101906102089190614449565b90506000306001600160a01b031663a1774da06040518163ffffffff1660e01b815260040160c060405180830381865afa15801561024a573d6000803e3d6000fd5b505050506040513d601f19601f8201168201806040525081019061026e91906144eb565b905061027a81836108fe565b505060408051630b3c342360e31b815282516001600160a01b039081166004830152602084015181166024830152918301518216604482015260608301518216606482015260808301518216608482015260a083015190911660a482015230906359e1a1189060c401600060405180830381600087803b1580156102fd57600080fd5b505af1158015610311573d6000803e3d6000fd5b50506040517f4e7f4c591a7da2f29fa296a59268851382577661a96cf8be96d925ddcd06d5a3925060009150a15050565b60405163b331fdcb60e01b815233600482015260248101829052309063b331fdcb90604401600060405180830381600087803b15801561038157600080fd5b505af1158015610395573d6000803e3d6000fd5b50506040513392507ff9e904a8d040a3f74a4002f93a8cd4e02aba8c67e2811307e0ee4af9e88796cb9150600090a250565b306001600160a01b0316635f2608556040518163ffffffff1660e01b8152600401600060405180830381600087803b15801561040257600080fd5b505af1158015610416573d6000803e3d6000fd5b50506040517f3f4d122f92634272d53f63c3461a9c56e9b63085a55b1c67deeeecee989dbe2a925060009150a1565b6040516320a8460d60e21b815233600482015230906382a1183490602401600060405180830381600087803b15801561047d57600080fd5b505af1158015610491573d6000803e3d6000fd5b50506040513392507fd7fbec11dbe04073dfbfa8c6a50d73565d9a0039dc14b9a9a4c55829bc6791c99150600090a2565b6000306001600160a01b031663802758606040518163ffffffff1660e01b81526004016101e060405180830381865afa158015610503573d6000803e3d6000fd5b505050506040513d601f19601f820116820180604052508101906105279190614449565b90506000306001600160a01b031663a1774da06040518163ffffffff1660e01b815260040160c060405180830381865afa158015610569573d6000803e3d6000fd5b505050506040513d601f19601f8201168201806040525081019061058d91906144eb565b90506105998183610d40565b506040517ff32746b4cd878ae944732ad09d04c73d4b7f950f8323aed34107cc478a087ace90600090a15050565b6040516336badcf760e11b8152336004820152602481018290523090636d75b9ee90604401600060405180830381600087803b15801561060657600080fd5b505af115801561061a573d6000803e3d6000fd5b5050505050565b60408051600680825260e08201909252606091600091906020820160c08036833750506040805180820190915260078152667368696674282960c81b6020909101525080519091507f12fc41ca56ca3aa7ff9259abf3e0211600a967707c7f2c9ce1cf0ad9baf5f10690829060009061069c5761069c614596565b6001600160e01b0319909216602092830291909101820152604080518082019091526007815266736c696465282960c81b91015280517f982f3bfd4ba393dca0e196f8741ba8d559ed4cac6b306e3d133a86b025b22b9c908290600190811061070757610707614596565b6001600160e01b031990921660209283029190910182015260408051808201909152601781527f626f72726f772875696e743235362c75696e743235362900000000000000000091015280517f0ecbcdab8ac064968137359b115f0e2755ddc707151fb6866170eb68ffdcd75e908290600290811061078857610788614596565b6001600160e01b03199092166020928302919091018201526040805180820190915260098152687061796261636b282960b81b91015280517f854bec878b51936aa3fe0e6c1c9e521fd19854aa7e713536725d72a318bcab1790829060039081106107f5576107f5614596565b6001600160e01b031990921660209283029190910182015260408051808201909152600d81526c726f6c6c2875696e743235362960981b91015280517f1f7b4f30c3ae826cfb96d5277648418a175aebb15abc0706d40403a2812488ab908290600490811061086657610866614596565b6001600160e01b0319909216602092830291909101820152604080518082019091526016815275616464436f6c6c61746572616c2875696e743235362960501b91015280517fbcc46e83f1d8463f1634778afba30ec31b14e799378d5b158bc87e23a7390e5690829060059081106108e0576108e0614596565b6001600160e01b031990921660209283029190910190910152919050565b600061090861427b565b83518360005b6003811015610a1d5760003083836003811061092c5761092c614596565b60200201515184846003811061094457610944614596565b60200201516020015160405160200161095f939291906145ac565b60408051601f1981840301815290829052805160209091012063514ea4bf60e01b82526004820181905291506000906001600160a01b0386169063514ea4bf9060240160a060405180830381865afa1580156109bf573d6000803e3d6000fd5b505050506040513d601f19601f820116820180604052508101906109e391906145da565b505050509050806001600160801b0316600003610a135760405163170d402360e01b815260040160405180910390fd5b505060010161090e565b506060860151865160208801516040516323c9deeb60e01b81526001600160a01b03928316600482015290821660248201529116906323c9deeb90604401602060405180830381865afa158015610a78573d6000803e3d6000fd5b505050506040513d601f19601f82011682018060405250810190610a9c9190614631565b9350600080600080610aad8a6110f0565b9350935093509350306001600160a01b031663c58aad876040518163ffffffff1660e01b815260040161020060405180830381865afa158015610af4573d6000803e3d6000fd5b505050506040513d601f19601f82011682018060405250810190610b1891906146e4565b608001518811610d19576000610b3789610b3285876147f3565b61128d565b610b4184866147f3565b610b4b9190614806565b90508415610d135760608b01518b516040516317886cbb60e11b81526000926001600160a01b031691632f10d97691610b8b919030908690600401614851565b608060405180830381865afa158015610ba8573d6000803e3d6000fd5b505050506040513d601f19601f82011682018060405250810190610bcc9190614876565b935050505060008c606001516001600160a01b031663280eabf48e600001518f602001518f600160038110610c0357610c03614596565b602002015160016040518563ffffffff1660e01b8152600401610c2994939291906148fb565b602060405180830381865afa158015610c46573d6000803e3d6000fd5b505050506040513d601f19601f82011682018060405250810190610c6a9190614631565b9050610caf6040518061010001604052808f8152602001858152602001898152602001838152602001848152602001888152602001878152602001868152508d6112b8565b6040516395d7d0ad60e01b8152909a5030906395d7d0ad90610cd5908d9060040161495c565b600060405180830381600087803b158015610cef57600080fd5b505af1158015610d03573d6000803e3d6000fd5b5050505050505050505050610d37565b50610d32565b60405163e40aeaf560e01b815260040160405180910390fd5b505050505b50509250929050565b610d4861427b565b82518260005b6003811015610e5d57600030838360038110610d6c57610d6c614596565b602002015151848460038110610d8457610d84614596565b602002015160200151604051602001610d9f939291906145ac565b60408051601f1981840301815290829052805160209091012063514ea4bf60e01b82526004820181905291506000906001600160a01b0386169063514ea4bf9060240160a060405180830381865afa158015610dff573d6000803e3d6000fd5b505050506040513d601f19601f82011682018060405250810190610e2391906145da565b505050509050806001600160801b0316600003610e535760405163170d402360e01b815260040160405180910390fd5b5050600101610d4e565b506000610e69866110f0565b5050915050306001600160a01b031663c58aad876040518163ffffffff1660e01b815260040161020060405180830381865afa158015610ead573d6000803e3d6000fd5b505050506040513d601f19601f82011682018060405250810190610ed191906146e4565b60a001516060870151875160208901516040516323c9deeb60e01b81526001600160a01b03928316600482015290821660248201529116906323c9deeb90604401602060405180830381865afa158015610f2f573d6000803e3d6000fd5b505050506040513d601f19601f82011682018060405250810190610f539190614631565b106110cf57600080600080610f6c8a600001518a61140a565b604051622de3e760e61b81526004810185905260248101849052939750919550935091503090630b78f9c090604401600060405180830381600087803b158015610fb557600080fd5b505af1158015610fc9573d6000803e3d6000fd5b5050604051622de3e760e61b81526004810185905260248101849052309250630b78f9c09150604401600060405180830381600087803b15801561100c57600080fd5b505af1158015611020573d6000803e3d6000fd5b50508b5161104792509050308b60016020020151518c60015b6020020151602001516114ea565b895161105f90308b60026020020151518c6002611039565b61106a8a8a876115d0565b895181526040516395d7d0ad60e01b815290985030906395d7d0ad90611094908b9060040161495c565b600060405180830381600087803b1580156110ae57600080fd5b505af11580156110c2573d6000803e3d6000fd5b50505050505050506110e7565b604051625713a160e91b815260040160405180910390fd5b50505092915050565b600080600080600085606001516001600160a01b0316632f10d97687600001513060016040518463ffffffff1660e01b815260040161113193929190614851565b608060405180830381865afa15801561114e573d6000803e3d6000fd5b505050506040513d601f19601f820116820180604052508101906111729190614876565b935050505060008087606001516001600160a01b0316632f10d97689600001513060026040518463ffffffff1660e01b81526004016111b393929190614851565b608060405180830381865afa1580156111d0573d6000803e3d6000fd5b505050506040513d601f19601f820116820180604052508101906111f49190614876565b60608c01518c5160208e015160405163526ed0d160e11b81526001600160a01b03928316600482015290821660248201529397509195506000945016915063a4dda1a290604401602060405180830381865afa158015611258573d6000803e3d6000fd5b505050506040513d601f19601f8201168201806040525081019061127c9190614631565b975092955093509150509193509193565b600061129b6012600a614a4f565b6112a58385614a5b565b6112af9190614a88565b90505b92915050565b6112c061427b565b600083600001516040015190506000816001600160a01b031663de0ca7e1866020015187608001518860400151886040518563ffffffff1660e01b815260040161130d9493929190614a9c565b602060405180830381865afa15801561132a573d6000803e3d6000fd5b505050506040513d601f19601f8201168201806040525081019061134e9190614631565b905061140185600001516040518061016001604052808860000151600001516001600160a01b031681526020018860000151604001516001600160a01b03168152602001886020015181526020018481526020018860000151606001516001600160a01b03168152602001886000015160a001516001600160a01b03168152602001886080015181526020018860a0015181526020018860c0015181526020018860e00151815260200187815250611994565b95945050505050565b6000806000806000866001600160a01b0316633850c7bd6040518163ffffffff1660e01b815260040160e060405180830381865afa158015611450573d6000803e3d6000fd5b505050506040513d601f19601f820116820180604052508101906114749190614acf565b50505050505090506114a98660006003811061149257611492614596565b6020020151308960016114a486611c59565b611f93565b94506114b6866001611492565b92506114d18660005b6020020151308960006114a486611c59565b93506114de8660016114bf565b91505092959194509250565b6000308383604051602001611501939291906145ac565b60408051601f1981840301815290829052805160209091012063514ea4bf60e01b82526004820181905291506000906001600160a01b0387169063514ea4bf9060240160a060405180830381865afa158015611561573d6000803e3d6000fd5b505050506040513d601f19601f8201168201806040525081019061158591906145da565b5050505090506000816001600160801b031611156115af576115aa86868686856123cb565b6115c8565b60405163367e98e760e11b815260040160405180910390fd5b505050505050565b6115d861427b565b600084600001516001600160a01b0316633850c7bd6040518163ffffffff1660e01b815260040160e060405180830381865afa15801561161c573d6000803e3d6000fd5b505050506040513d601f19601f820116820180604052508101906116409190614acf565b50505050505090506117e38560405180608001604052808760006003811061166a5761166a614596565b60200201516020015160020b81526020016117c861168786611c59565b306001600160a01b031663c58aad876040518163ffffffff1660e01b815260040161020060405180830381865afa1580156116c6573d6000803e3d6000fd5b505050506040513d601f19601f820116820180604052508101906116ea91906146e4565b61010001518b600001516001600160a01b0316630dfe16816040518163ffffffff1660e01b8152600401602060405180830381865afa158015611731573d6000803e3d6000fd5b505050506040513d601f19601f820116820180604052508101906117559190614b57565b6001600160a01b031663313ce5676040518163ffffffff1660e01b8152600401602060405180830381865afa158015611792573d6000803e3d6000fd5b505050506040513d601f19601f820116820180604052508101906117b69190614b74565b8b60005b6020020151608001516124eb565b60020b81526020810187905260400160015b905260006125eb565b82600160200201819052506119876040518060c0016040528087600001516001600160a01b0316815260200187602001516001600160a01b0316815260200187604001516001600160a01b0316815260200187606001516001600160a01b0316815260200187608001516001600160a01b031681526020018760a001516001600160a01b031681525060405180608001604052808760006003811061188a5761188a614596565b6020020151608001518660016020020151602001516118a99190614b8f565b60020b81526020016119666118bd86611c59565b306001600160a01b031663c58aad876040518163ffffffff1660e01b815260040161020060405180830381865afa1580156118fc573d6000803e3d6000fd5b505050506040513d601f19601f8201168201806040525081019061192091906146e4565b60c001518b600001516001600160a01b0316630dfe16816040518163ffffffff1660e01b8152600401602060405180830381865afa158015611731573d6000803e3d6000fd5b60020b8152602001600081526020016002808111156117da576117da614819565b6040830152509392505050565b61199c61427b565b61014082015151604001516001600160801b031615611bfe576000806000806119ce866000015187610140015161140a565b604051622de3e760e61b81526004810185905260248101849052939750919550935091503090630b78f9c090604401600060405180830381600087803b158015611a1757600080fd5b505af1158015611a2b573d6000803e3d6000fd5b5050604051622de3e760e61b81526004810185905260248101849052309250630b78f9c09150604401600060405180830381600087803b158015611a6e57600080fd5b505af1158015611a82573d6000803e3d6000fd5b50508751610140890151805151611aa194509192503091906000611039565b8551610140870151604081015151611abe92913091906002611039565b8551610140870151602081015151611adb92913091906001611039565b60c08601516040870151611aef90826147f3565b1115611b8757611b87866020015187604001518860c00151611b1191906147f3565b88600001516001600160a01b031663d21220a76040518163ffffffff1660e01b8152600401602060405180830381865afa158015611b53573d6000803e3d6000fd5b505050506040513d601f19601f82011682018060405250810190611b779190614b57565b6001600160a01b03169190613576565b611b9187876135cd565b8051604001519095506001600160801b03161580611bbe57506020850151604001516001600160801b0316155b80611bd7575060408086015101516001600160801b0316155b15611bf557604051636180f03f60e11b815260040160405180910390fd5b505050506112b2565b60405162461bcd60e51b815260206004820152602560248201527f7368696674506f736974696f6e733a206e6f206c697175696469747920696e20604482015264233637b7b960d91b60648201526084015b60405180910390fd5b60006401000276a36001600160a01b03831610801590611c95575073fffd8963efd1fc6a506488495d951d5263988d266001600160a01b038316105b611cc55760405162461bcd60e51b81526020600482015260016024820152602960f91b6044820152606401611c50565b640100000000600160c01b03602083901b166001600160801b03811160071b81811c67ffffffffffffffff811160061b90811c63ffffffff811160051b90811c61ffff811160041b90811c60ff8111600390811b91821c600f811160021b90811c918211600190811b92831c97908811961790941790921717909117171760808110611d6057611d56607f82614806565b83901c9150611d71565b611d6b81607f614806565b83901b91505b60006040611d80608084614bb4565b901b9050828302607f1c92508260801c80603f1b8217915083811c935050828302607f1c92508260801c80603e1b8217915083811c935050828302607f1c92508260801c80603d1b8217915083811c935050828302607f1c92508260801c80603c1b8217915083811c935050828302607f1c92508260801c80603b1b8217915083811c935050828302607f1c92508260801c80603a1b8217915083811c935050828302607f1c92508260801c8060391b8217915083811c935050828302607f1c92508260801c8060381b8217915083811c935050828302607f1c92508260801c8060371b8217915083811c935050828302607f1c92508260801c8060361b8217915083811c935050828302607f1c92508260801c8060351b8217915083811c935050828302607f1c92508260801c8060341b8217915083811c935050828302607f1c92508260801c8060331b8217915083811c935050828302607f1c92508260801c8060321b8217915050600081693627a301d71055774c85611f039190614bd4565b905060006080611f236f028f6481ab7f045a5af012a19d003aaa84614bb4565b901d905060006080611f45846fdb2df09e81959a81455e260799a0632f614c04565b901d90508060020b8260020b14611f8457886001600160a01b0316611f6982613b20565b6001600160a01b03161115611f7e5781611f86565b80611f86565b815b9998505050505050505050565b6000806000806000806000896001600160a01b031663514ea4bf8c8e600001518f60200151604051602001611fca939291906145ac565b604051602081830303815290604052805190602001206040518263ffffffff1660e01b8152600401611ffe91815260200190565b60a060405180830381865afa15801561201b573d6000803e3d6000fd5b505050506040513d601f19601f8201168201806040525081019061203f91906145da565b505092509250925088156121cf57896001600160a01b031663f30583996040518163ffffffff1660e01b8152600401602060405180830381865afa15801561208b573d6000803e3d6000fd5b505050506040513d601f19601f820116820180604052508101906120af9190614631565b8c5160405163f30dba9360e01b815260029190910b60048201529094506001600160a01b038b169063f30dba939060240161010060405180830381865afa1580156120fe573d6000803e3d6000fd5b505050506040513d601f19601f820116820180604052508101906121229190614c2c565b90919293949596509091929394955090919293509091925090915090505080965050896001600160a01b031663f30dba938d602001516040518263ffffffff1660e01b815260040161217d919060029190910b815260200190565b61010060405180830381865afa15801561219b573d6000803e3d6000fd5b505050506040513d601f19601f820116820180604052508101906121bf9190614c2c565b50939a5061234d95505050505050565b896001600160a01b031663461413196040518163ffffffff1660e01b8152600401602060405180830381865afa15801561220d573d6000803e3d6000fd5b505050506040513d601f19601f820116820180604052508101906122319190614631565b8c5160405163f30dba9360e01b815260029190910b60048201529094506001600160a01b038b169063f30dba939060240161010060405180830381865afa158015612280573d6000803e3d6000fd5b505050506040513d601f19601f820116820180604052508101906122a49190614c2c565b9091929394959650909192939495509091929394509091925090915090505080965050896001600160a01b031663f30dba938d602001516040518263ffffffff1660e01b8152600401612300919060029190910b815260200190565b61010060405180830381865afa15801561231e573d6000803e3d6000fd5b505050506040513d601f19601f820116820180604052508101906123429190614c2c565b50929a505050505050505b60008c6000015160020b8960020b1261236757508561236c565b508584035b60008d6020015160020b8a60020b121561238757508561238c565b508585035b8186038190036123b86001600160801b0387168d6123aa57856123ac565b865b8303600160801b613f38565b9f9e505050505050505050505050505050565b60405163a34123a760e01b8152600284810b600483015283900b60248201526001600160801b03821660448201526001600160a01b0386169063a34123a79060640160408051808303816000875af115801561242b573d6000803e3d6000fd5b505050506040513d601f19601f8201168201806040525081019061244f9190614cd6565b50506040516309e3d67b60e31b81526001600160a01b038581166004830152600285810b602484015284900b60448301526001600160801b03606483018190526084830152861690634f1eb3d89060a40160408051808303816000875af11580156124be573d6000803e3d6000fd5b505050506040513d601f19601f820116820180604052508101906124e29190614cfa565b50505050505050565b60008073__$00856c2daf1848075e4d6b3791a97a7365$__63b7df07b361251188613fec565b6040516001600160e01b031960e084901b1681526001600160a01b03909116600482015260ff87166024820152604401602060405180830381865af415801561255e573d6000803e3d6000fd5b505050506040513d601f19601f820116820180604052508101906125829190614631565b90506000612593828760020b613ff7565b905060006125a2828688614074565b9050620d89e719600282900b12806125c05750620d89e8600282900b135b156125de57604051637db3aba760e01b815260040160405180910390fd5b925050505b949350505050565b6040805160a081018252600080825260208201819052918101829052606081018290526080810191909152826000015160020b836020015160020b13612644576040516333a3bdff60e21b815260040160405180910390fd5b600084600001516001600160a01b0316630dfe16816040518163ffffffff1660e01b8152600401602060405180830381865afa158015612688573d6000803e3d6000fd5b505050506040513d601f19601f820116820180604052508101906126ac9190614b57565b6040516370a0823160e01b81523060048201526001600160a01b0391909116906370a0823190602401602060405180830381865afa1580156126f2573d6000803e3d6000fd5b505050506040513d601f19601f820116820180604052508101906127169190614631565b9050600085600001516001600160a01b0316630dfe16816040518163ffffffff1660e01b8152600401602060405180830381865afa15801561275c573d6000803e3d6000fd5b505050506040513d601f19601f820116820180604052508101906127809190614b57565b6040808801519051636eb1769f60e11b81523060048201526001600160a01b03918216602482015291169063dd62ed3e90604401602060405180830381865afa1580156127d1573d6000803e3d6000fd5b505050506040513d601f19601f820116820180604052508101906127f59190614631565b9050600086600001516001600160a01b031663d21220a76040518163ffffffff1660e01b8152600401602060405180830381865afa15801561283b573d6000803e3d6000fd5b505050506040513d601f19601f8201168201806040525081019061285f9190614b57565b6040808901519051636eb1769f60e11b81523060048201526001600160a01b03918216602482015291169063dd62ed3e90604401602060405180830381865afa1580156128b0573d6000803e3d6000fd5b505050506040513d601f19601f820116820180604052508101906128d49190614631565b905060001982146129c05786600001516001600160a01b0316630dfe16816040518163ffffffff1660e01b8152600401602060405180830381865afa158015612921573d6000803e3d6000fd5b505050506040513d601f19601f820116820180604052508101906129459190614b57565b604080890151905163095ea7b360e01b81526001600160a01b039182166004820152600019602482015291169063095ea7b3906044016020604051808303816000875af115801561299a573d6000803e3d6000fd5b505050506040513d601f19601f820116820180604052508101906129be9190614d2d565b505b6000198114612aaa5786600001516001600160a01b031663d21220a76040518163ffffffff1660e01b8152600401602060405180830381865afa158015612a0b573d6000803e3d6000fd5b505050506040513d601f19601f82011682018060405250810190612a2f9190614b57565b604080890151905163095ea7b360e01b81526001600160a01b039182166004820152600019602482015291169063095ea7b3906044016020604051808303816000875af1158015612a84573d6000803e3d6000fd5b505050506040513d601f19601f82011682018060405250810190612aa89190614d2d565b505b600286606001516002811115612ac257612ac2614819565b036134905760608701518751602089015160405163526ed0d160e11b81526000936001600160a01b03169263a4dda1a292612b14926004016001600160a01b0392831681529116602082015260400190565b602060405180830381865afa158015612b31573d6000803e3d6000fd5b505050506040513d601f19601f82011682018060405250810190612b559190614631565b9050600088600001516001600160a01b0316630dfe16816040518163ffffffff1660e01b8152600401602060405180830381865afa158015612b9b573d6000803e3d6000fd5b505050506040513d601f19601f82011682018060405250810190612bbf9190614b57565b6001600160a01b03166318160ddd6040518163ffffffff1660e01b8152600401602060405180830381865afa158015612bfc573d6000803e3d6000fd5b505050506040513d601f19601f82011682018060405250810190612c209190614631565b9050600089600001516001600160a01b0316633850c7bd6040518163ffffffff1660e01b815260040160e060405180830381865afa158015612c66573d6000803e3d6000fd5b505050506040513d601f19601f82011682018060405250810190612c8a9190614acf565b5050505050509050306001600160a01b031663c58aad876040518163ffffffff1660e01b815260040161020060405180830381865afa158015612cd1573d6000803e3d6000fd5b505050506040513d601f19601f82011682018060405250810190612cf591906146e4565b6101200151612d049084614a88565b8610156130505787156130505760008a60a001516001600160a01b03166383183fd9846000306001600160a01b031663dee02ffa6040518163ffffffff1660e01b8152600401602060405180830381865afa158015612d67573d6000803e3d6000fd5b505050506040513d601f19601f82011682018060405250810190612d8b9190614631565b11612d97576001612df9565b306001600160a01b031663dee02ffa6040518163ffffffff1660e01b8152600401602060405180830381865afa158015612dd5573d6000803e3d6000fd5b505050506040513d601f19601f82011682018060405250810190612df99190614631565b60405163b7df07b360e01b81526001600160a01b03871660048201526012602482015273__$00856c2daf1848075e4d6b3791a97a7365$__9063b7df07b390604401602060405180830381865af4158015612e58573d6000803e3d6000fd5b505050506040513d601f19601f82011682018060405250810190612e7c9190614631565b8f606001516001600160a01b0316636013be6d306040518263ffffffff1660e01b8152600401612ebb91906001600160a01b0391909116815260200190565b602060405180830381865afa158015612ed8573d6000803e3d6000fd5b505050506040513d601f19601f82011682018060405250810190612efc9190614631565b6040516001600160e01b031960e087901b1681526004810194909452602484019290925260448301526064820152608401602060405180830381865afa158015612f4a573d6000803e3d6000fd5b505050506040513d601f19601f82011682018060405250810190612f6e9190614631565b9050801580612f7c57508281115b15612ff657306001600160a01b031663c58aad876040518163ffffffff1660e01b815260040161020060405180830381865afa158015612fc0573d6000803e3d6000fd5b505050506040513d601f19601f82011682018060405250810190612fe491906146e4565b6101200151612ff39085614a88565b90505b604051633c37699760e21b81523060048201819052602482018390529063f0dda65c90604401600060405180830381600087803b15801561303657600080fd5b505af115801561304a573d6000803e3d6000fd5b50505050505b306001600160a01b031663c58aad876040518163ffffffff1660e01b815260040161020060405180830381865afa15801561308f573d6000803e3d6000fd5b505050506040513d601f19601f820116820180604052508101906130b391906146e4565b61014001516130c29084614a88565b86106131ff57876131ff57604051636d1b229d60e01b8152600481018790523090636d1b229d90602401600060405180830381600087803b15801561310657600080fd5b505af115801561311a573d6000803e3d6000fd5b50505050306001600160a01b031663f0dda65c30306001600160a01b031663c58aad876040518163ffffffff1660e01b815260040161020060405180830381865afa15801561316d573d6000803e3d6000fd5b505050506040513d601f19601f8201168201806040525081019061319191906146e4565b61014001516131a09087614a88565b6040516001600160e01b031960e085901b1681526001600160a01b0390921660048301526024820152604401600060405180830381600087803b1580156131e657600080fd5b505af11580156131fa573d6000803e3d6000fd5b505050505b89600001516001600160a01b0316630dfe16816040518163ffffffff1660e01b8152600401602060405180830381865afa158015613241573d6000803e3d6000fd5b505050506040513d601f19601f820116820180604052508101906132659190614b57565b6040516370a0823160e01b81523060048201526001600160a01b0391909116906370a0823190602401602060405180830381865afa1580156132ab573d6000803e3d6000fd5b505050506040513d601f19601f820116820180604052508101906132cf9190614631565b95508560000361348c57306001600160a01b031663f0dda65c30306001600160a01b031663c58aad876040518163ffffffff1660e01b815260040161020060405180830381865afa158015613328573d6000803e3d6000fd5b505050506040513d601f19601f8201168201806040525081019061334c91906146e4565b610120015161335b9087614a88565b6040516001600160e01b031960e085901b1681526001600160a01b0390921660048301526024820152604401600060405180830381600087803b1580156133a157600080fd5b505af11580156133b5573d6000803e3d6000fd5b5050505089600001516001600160a01b0316630dfe16816040518163ffffffff1660e01b8152600401602060405180830381865afa1580156133fb573d6000803e3d6000fd5b505050506040513d601f19601f8201168201806040525081019061341f9190614b57565b6040516370a0823160e01b81523060048201526001600160a01b0391909116906370a0823190602401602060405180830381865afa158015613465573d6000803e3d6000fd5b505050506040513d601f19601f820116820180604052508101906134899190614631565b95505b5050505b86604001516001600160a01b031663ae9b827788600001513089600001518a602001518b6060015160405180604001604052808b8152602001600160028111156134dc576134dc614819565b8f6060015160028111156134f2576134f2614819565b146134fe576001613504565b8e604001515b8152506040518763ffffffff1660e01b815260040161352896959493929190614d48565b60a0604051808303816000875af1158015613547573d6000803e3d6000fd5b505050506040513d601f19601f8201168201806040525081019061356b9190614d9b565b979650505050505050565b604080516001600160a01b038416602482015260448082018490528251808303909101815260649091019091526020810180516001600160e01b031663a9059cbb60e01b1790526135c89084906141b4565b505050565b6135d561427b565b600082600001516001600160a01b0316633850c7bd6040518163ffffffff1660e01b815260040160e060405180830381865afa158015613619573d6000803e3d6000fd5b505050506040513d601f19601f8201168201806040525081019061363d9190614acf565b5050505050509050600083600001516001600160a01b0316630dfe16816040518163ffffffff1660e01b8152600401602060405180830381865afa158015613689573d6000803e3d6000fd5b505050506040513d601f19601f820116820180604052508101906136ad9190614b57565b6001600160a01b031663313ce5676040518163ffffffff1660e01b8152600401602060405180830381865afa1580156136ea573d6000803e3d6000fd5b505050506040513d601f19601f8201168201806040525081019061370e9190614b74565b905083602001516001600160a01b0316636cc03e7d85600001513073__$00856c2daf1848075e4d6b3791a97a7365$__63b7df07b361376c8a610140015160006003811061375e5761375e614596565b602002015160200151613fec565b6040516001600160e01b031960e084901b1681526001600160a01b03909116600482015260ff88166024820152604401602060405180830381865af41580156137b9573d6000803e3d6000fd5b505050506040513d601f19601f820116820180604052508101906137dd9190614631565b886060015189604001518a60c001516137f691906147f3565b60c08b01516101408c0151516040516001600160e01b031960e08a901b1681526138299796959493929190600401614db7565b60a0604051808303816000875af1158015613848573d6000803e3d6000fd5b505050506040513d601f19601f8201168201806040525081019061386c9190614d9b565b83526040805160c08101825285516001600160a01b039081168252602088810151821681840152888401518216838501526060808a01518316908401526080808a015183168185015260a0808b0151909316928401929092528351918201909352855183015160020b815261399c92810161395f6138e987611c59565b306001600160a01b031663c58aad876040518163ffffffff1660e01b815260040161020060405180830381865afa158015613928573d6000803e3d6000fd5b505050506040513d601f19601f8201168201806040525081019061394c91906146e4565b60e001516101408b0151889060006117ba565b60020b815260200187604001518861010001518960e0015161398191906147f3565b61398b9190614806565b815260200160015b905260016125eb565b8360016020020181905250613b126040518060c0016040528086600001516001600160a01b0316815260200187602001516001600160a01b0316815260200187604001516001600160a01b0316815260200187606001516001600160a01b0316815260200187608001516001600160a01b031681526020018760a001516001600160a01b03168152506040518060800160405280876101400151600060038110613a4857613a48614596565b602002015160800151876001602002015160200151613a679190614b8f565b60020b8152602001613af1613a7b87611c59565b306001600160a01b031663c58aad876040518163ffffffff1660e01b815260040161020060405180830381865afa158015613aba573d6000803e3d6000fd5b505050506040513d601f19601f82011682018060405250810190613ade91906146e4565b60c001516101408b0151889060006117ba565b60020b81526020016000815260200160028081111561399357613993614819565b604084015250909392505050565b60008060008360020b12613b37578260020b613b44565b8260020b613b4490614e05565b9050613b53620d89e719614e21565b60020b811115613b895760405162461bcd60e51b81526020600482015260016024820152601560fa1b6044820152606401611c50565b600081600116600003613ba057600160801b613bb2565b6ffffcb933bd6fad37aa2d162d1a5940015b70ffffffffffffffffffffffffffffffffff1690506002821615613bf1576080613bec826ffff97272373d413259a46990580e213a614a5b565b901c90505b6004821615613c1b576080613c16826ffff2e50f5f656932ef12357cf3c7fdcc614a5b565b901c90505b6008821615613c45576080613c40826fffe5caca7e10e4e61c3624eaa0941cd0614a5b565b901c90505b6010821615613c6f576080613c6a826fffcb9843d60f6159c9db58835c926644614a5b565b901c90505b6020821615613c99576080613c94826fff973b41fa98c081472e6896dfb254c0614a5b565b901c90505b6040821615613cc3576080613cbe826fff2ea16466c96a3843ec78b326b52861614a5b565b901c90505b6080821615613ced576080613ce8826ffe5dee046a99a2a811c461f1969c3053614a5b565b901c90505b610100821615613d18576080613d13826ffcbe86c7900a88aedcffc83b479aa3a4614a5b565b901c90505b610200821615613d43576080613d3e826ff987a7253ac413176f2b074cf7815e54614a5b565b901c90505b610400821615613d6e576080613d69826ff3392b0822b70005940c7a398e4b70f3614a5b565b901c90505b610800821615613d99576080613d94826fe7159475a2c29b7443b29c7fa6e889d9614a5b565b901c90505b611000821615613dc4576080613dbf826fd097f3bdfd2022b8845ad8f792aa5825614a5b565b901c90505b612000821615613def576080613dea826fa9f746462d870fdf8a65dc1f90e061e5614a5b565b901c90505b614000821615613e1a576080613e15826f70d869a156d2a1b890bb3df62baf32f7614a5b565b901c90505b618000821615613e45576080613e40826f31be135f97d08fd981231505542fcfa6614a5b565b901c90505b62010000821615613e71576080613e6c826f09aa508b5b7a84e1c677de54f3e99bc9614a5b565b901c90505b62020000821615613e9c576080613e97826e5d6af8dedb81196699c329225ee604614a5b565b901c90505b62040000821615613ec6576080613ec1826d2216e584f5fa1ea926041bedfe98614a5b565b901c90505b62080000821615613eee576080613ee9826b048a170391f7dc42444e8fa2614a5b565b901c90505b60008460020b1315613f0957613f0681600019614a88565b90505b613f1864010000000082614e43565b15613f24576001613f27565b60005b6125e39060ff16602083901c6147f3565b6000808060001985870985870292508281108382030391505080600003613f715760008411613f6657600080fd5b508290049050613fe5565b808411613f7d57600080fd5b600084868809851960019081018716968790049682860381900495909211909303600082900391909104909201919091029190911760038402600290811880860282030280860282030280860282030280860282030280860282030280860290910302029150505b9392505050565b60006112b282613b20565b600080821261402d57600061271061400f8486614a5b565b6140199190614a88565b905061402581856147f3565b9150506112b2565b600061271061403b84614e05565b6140459086614a5b565b61404f9190614a88565b9050838111156140635760009150506112b2565b6140258185614806565b5092915050565b600060068260ff161015801561408e575060128260ff1611155b6140ab57604051630692acc560e51b815260040160405180910390fd5b60006140b8836012614e57565b6140c390600a614e70565b90506140cf8186614bd4565b9450836141aa68033dd1780914b9684073__$28bae0af19d0e90d77349cc0e88bc3c39a$__63bc4225aa61410b8a670de0b6b3a7640000614bd4565b6040516001600160e01b031960e084901b1681526004810191909152670de0b6b3a764000060248201526706f05b59d3b200006044820152606401602060405180830381865af4158015614163573d6000803e3d6000fd5b505050506040513d601f19601f820116820180604052508101906141879190614631565b6141919190614bb4565b6141a5600288900b658334ae9d7c0a614bd4565b61422b565b6114019190614e7f565b600080602060008451602086016000885af1806141d7576040513d6000823e3d81fd5b50506000513d915081156141ef5780600114156141fc565b6001600160a01b0384163b155b1561422557604051635274afe760e01b81526001600160a01b0385166004820152602401611c50565b50505050565b60006113886127108361423e8683614bd4565b6142489190614e9f565b6142529190614ecd565b13614266576142618284614e9f565b6112af565b6142708284614e9f565b6112af906001614c04565b60405180606001604052806003905b6040805160a08101825260008082526020808301829052928201819052606082018190526080820152825260001990920191018161428a5790505090565b600080604083850312156142db57600080fd5b50508035926020909101359150565b6000602082840312156142fc57600080fd5b5035919050565b6020808252825182820181905260009190848201906040850190845b818110156143455783516001600160e01b0319168352928401929184019160010161431f565b50909695505050505050565b634e487b7160e01b600052604160045260246000fd5b6040516101e0810167ffffffffffffffff8111828210171561438b5761438b614351565b60405290565b8051600281900b81146143a357600080fd5b919050565b80516001600160801b03811681146143a357600080fd5b600060a082840312156143d157600080fd5b60405160a0810181811067ffffffffffffffff821117156143f4576143f4614351565b60405290508061440383614391565b815261441160208401614391565b6020820152614422604084016143a8565b60408201526060830151606082015261443d60808401614391565b60808201525092915050565b60006101e080838503121561445d57600080fd5b83601f84011261446c57600080fd5b6040516060810181811067ffffffffffffffff8211171561448f5761448f614351565b6040529083019080858311156144a457600080fd5b845b838110156144c8576144b887826143bf565b825260209091019060a0016144a6565b509095945050505050565b6001600160a01b03811681146144e857600080fd5b50565b600060c082840312156144fd57600080fd5b60405160c0810181811067ffffffffffffffff8211171561452057614520614351565b604052825161452e816144d3565b8152602083015161453e816144d3565b60208201526040830151614551816144d3565b60408201526060830151614564816144d3565b60608201526080830151614577816144d3565b608082015260a083015161458a816144d3565b60a08201529392505050565b634e487b7160e01b600052603260045260246000fd5b60609390931b6bffffffffffffffffffffffff1916835260e891821b6014840152901b6017820152601a0190565b600080600080600060a086880312156145f257600080fd5b6145fb866143a8565b94506020860151935060408601519250614617606087016143a8565b9150614625608087016143a8565b90509295509295909350565b60006020828403121561464357600080fd5b5051919050565b805160ff811681146143a357600080fd5b805161ffff811681146143a357600080fd5b600082601f83011261467e57600080fd5b6040516040810181811067ffffffffffffffff821117156146a1576146a1614351565b80604052508060408401858111156146b857600080fd5b845b818110156146d9576146cb8161465b565b8352602092830192016146ba565b509195945050505050565b600061020082840312156146f757600080fd5b6146ff614367565b6147088361464a565b81526147166020840161464a565b60208201526147276040840161464a565b6040820152614739846060850161466d565b606082015260a0830151608082015260c083015160a082015261475e60e08401614391565b60c0820152610100614771818501614391565b60e0830152610120614784818601614391565b828401526101409150818501518184015250610160808501518284015261018091508185015181840152506101a080850151828401526101c091508185015181840152506101e084015181830152508091505092915050565b634e487b7160e01b600052601160045260246000fd5b808201808211156112b2576112b26147dd565b818103818111156112b2576112b26147dd565b634e487b7160e01b600052602160045260246000fd5b6003811061484d57634e487b7160e01b600052602160045260246000fd5b9052565b6001600160a01b03848116825283166020820152606081016125e3604083018461482f565b6000806000806080858703121561488c57600080fd5b61489585614391565b93506148a360208601614391565b6040860151606090960151949790965092505050565b805160020b8252602081015160020b60208301526001600160801b03604082015116604083015260608101516060830152608081015160020b60808301525050565b6001600160a01b03858116825284166020820152610100810161492160408301856148b9565b61140160e083018461482f565b8060005b6003811015614225576149468483516148b9565b60a0939093019260209190910190600101614932565b6101e081016112b2828461492e565b600181815b808511156149a657816000190482111561498c5761498c6147dd565b8085161561499957918102915b93841c9390800290614970565b509250929050565b6000826149bd575060016112b2565b816149ca575060006112b2565b81600181146149e057600281146149ea57614a06565b60019150506112b2565b60ff8411156149fb576149fb6147dd565b50506001821b6112b2565b5060208310610133831016604e8410600b8410161715614a29575081810a6112b2565b614a33838361496b565b8060001904821115614a4757614a476147dd565b029392505050565b60006112af83836149ae565b80820281158282048414176112b2576112b26147dd565b634e487b7160e01b600052601260045260246000fd5b600082614a9757614a97614a72565b500490565b84815260208101849052604081018390526102408101611401606083018461492e565b805180151581146143a357600080fd5b600080600080600080600060e0888a031215614aea57600080fd5b8751614af5816144d3565b9650614b0360208901614391565b9550614b116040890161465b565b9450614b1f6060890161465b565b9350614b2d6080890161465b565b9250614b3b60a0890161464a565b9150614b4960c08901614abf565b905092959891949750929550565b600060208284031215614b6957600080fd5b8151613fe5816144d3565b600060208284031215614b8657600080fd5b6112af8261464a565b600281810b9083900b01627fffff8113627fffff19821217156112b2576112b26147dd565b818103600083128015838313168383128216171561406d5761406d6147dd565b80820260008212600160ff1b84141615614bf057614bf06147dd565b81810583148215176112b2576112b26147dd565b8082018281126000831280158216821582161715614c2457614c246147dd565b505092915050565b600080600080600080600080610100898b031215614c4957600080fd5b614c52896143a8565b9750602089015180600f0b8114614c6857600080fd5b80975050604089015195506060890151945060808901518060060b8114614c8e57600080fd5b60a08a0151909450614c9f816144d3565b60c08a015190935063ffffffff81168114614cb957600080fd5b9150614cc760e08a01614abf565b90509295985092959890939650565b60008060408385031215614ce957600080fd5b505080516020909101519092909150565b60008060408385031215614d0d57600080fd5b614d16836143a8565b9150614d24602084016143a8565b90509250929050565b600060208284031215614d3f57600080fd5b6112af82614abf565b6001600160a01b03878116825286166020820152600285810b604083015284900b606082015260e08101614d7f608083018561482f565b825160a0830152602083015160c0830152979650505050505050565b600060a08284031215614dad57600080fd5b6112af83836143bf565b6001600160a01b0388811682528716602082015260408101869052606081018590526080810184905260a081018390526101608101614df960c08301846148b9565b98975050505050505050565b6000600160ff1b8201614e1a57614e1a6147dd565b5060000390565b60008160020b627fffff198103614e3a57614e3a6147dd565b60000392915050565b600082614e5257614e52614a72565b500690565b60ff82811682821603908111156112b2576112b26147dd565b60006112af60ff8416836149ae565b60008260020b8260020b028060020b915080821461406d5761406d6147dd565b600082614eae57614eae614a72565b600160ff1b821460001984141615614ec857614ec86147dd565b500590565b600082614edc57614edc614a72565b50079056fea2646970667358221220ca024767af3e82d06a78da0bc6bdda7f89705988d705fbf9e14505bf9dfaa1e464736f6c63430008170033","linkReferences":{"src/libraries/Conversions.sol":{"Conversions":[{"start":9488,"length":20},{"start":11838,"length":20},{"start":14155,"length":20}]},"src/libraries/Logarithm.sol":{"Logarithm":[{"start":16641,"length":20}]}}},"methodIdentifiers":{"addCollateral(uint256)":"bcc46e83","borrow(uint256,uint256)":"0ecbcdab","defaultLoans()":"5f260855","getFunctionSelectors()":"fd896f9d","payback()":"854bec87","roll(uint256)":"1f7b4f30","shift()":"12fc41ca","slide()":"982f3bfd"},"id":121}