{"abi":[{"type":"function","name":"adaptiveSupply","inputs":[],"outputs":[{"name":"","type":"address","internalType":"address"}],"stateMutability":"view"},{"type":"function","name":"afterPresale","inputs":[],"outputs":[],"stateMutability":"nonpayable"},{"type":"function","name":"borrowFromFloor","inputs":[{"name":"who","type":"address","internalType":"address"},{"name":"borrowAmount","type":"uint256","internalType":"uint256"},{"name":"duration","type":"uint256","internalType":"uint256"}],"outputs":[],"stateMutability":"nonpayable"},{"type":"function","name":"burnTokens","inputs":[{"name":"amount","type":"uint256","internalType":"uint256"}],"outputs":[],"stateMutability":"nonpayable"},{"type":"function","name":"calculateLoanFees","inputs":[{"name":"borrowAmount","type":"uint256","internalType":"uint256"},{"name":"duration","type":"uint256","internalType":"uint256"}],"outputs":[{"name":"","type":"uint256","internalType":"uint256"}],"stateMutability":"view"},{"type":"function","name":"defaultLoans","inputs":[],"outputs":[],"stateMutability":"nonpayable"},{"type":"function","name":"factory","inputs":[],"outputs":[{"name":"","type":"address","internalType":"address"}],"stateMutability":"view"},{"type":"function","name":"getAccumulatedFees","inputs":[],"outputs":[{"name":"","type":"uint256","internalType":"uint256"},{"name":"","type":"uint256","internalType":"uint256"}],"stateMutability":"view"},{"type":"function","name":"getActiveLoan","inputs":[{"name":"who","type":"address","internalType":"address"}],"outputs":[{"name":"borrowAmount","type":"uint256","internalType":"uint256"},{"name":"collateralAmount","type":"uint256","internalType":"uint256"},{"name":"fees","type":"uint256","internalType":"uint256"},{"name":"expiry","type":"uint256","internalType":"uint256"},{"name":"duration","type":"uint256","internalType":"uint256"}],"stateMutability":"view"},{"type":"function","name":"getCollateralAmount","inputs":[],"outputs":[{"name":"","type":"uint256","internalType":"uint256"}],"stateMutability":"view"},{"type":"function","name":"getExcessReserveToken1","inputs":[],"outputs":[{"name":"","type":"uint256","internalType":"uint256"}],"stateMutability":"view"},{"type":"function","name":"getFunctionSelectors","inputs":[],"outputs":[{"name":"","type":"bytes4[]","internalType":"bytes4[]"}],"stateMutability":"pure"},{"type":"function","name":"getPositions","inputs":[],"outputs":[{"name":"positions","type":"tuple[3]","internalType":"struct LiquidityPosition[3]","components":[{"name":"lowerTick","type":"int24","internalType":"int24"},{"name":"upperTick","type":"int24","internalType":"int24"},{"name":"liquidity","type":"uint128","internalType":"uint128"},{"name":"price","type":"uint256","internalType":"uint256"},{"name":"tickSpacing","type":"int24","internalType":"int24"}]}],"stateMutability":"view"},{"type":"function","name":"getProtocolAddresses","inputs":[],"outputs":[{"name":"","type":"tuple","internalType":"struct ProtocolAddresses","components":[{"name":"pool","type":"address","internalType":"address"},{"name":"vault","type":"address","internalType":"address"},{"name":"deployer","type":"address","internalType":"address"},{"name":"modelHelper","type":"address","internalType":"address"},{"name":"presaleContract","type":"address","internalType":"address"},{"name":"adaptiveSupplyController","type":"address","internalType":"address"}]}],"stateMutability":"view"},{"type":"function","name":"getProtocolParameters","inputs":[],"outputs":[{"name":"","type":"tuple","internalType":"struct ProtocolParameters","components":[{"name":"floorPercentage","type":"uint8","internalType":"uint8"},{"name":"anchorPercentage","type":"uint8","internalType":"uint8"},{"name":"idoPriceMultiplier","type":"uint8","internalType":"uint8"},{"name":"floorBips","type":"uint16[2]","internalType":"uint16[2]"},{"name":"shiftRatio","type":"uint256","internalType":"uint256"},{"name":"slideRatio","type":"uint256","internalType":"uint256"},{"name":"discoveryBips","type":"int24","internalType":"int24"},{"name":"shiftAnchorUpperBips","type":"int24","internalType":"int24"},{"name":"slideAnchorUpperBips","type":"int24","internalType":"int24"},{"name":"lowBalanceThresholdFactor","type":"uint256","internalType":"uint256"},{"name":"highBalanceThresholdFactor","type":"uint256","internalType":"uint256"},{"name":"inflationFee","type":"uint256","internalType":"uint256"},{"name":"loanFee","type":"uint256","internalType":"uint256"},{"name":"deployFee","type":"uint256","internalType":"uint256"},{"name":"presalePremium","type":"uint256","internalType":"uint256"}]}],"stateMutability":"view"},{"type":"function","name":"getTimeSinceLastMint","inputs":[],"outputs":[{"name":"","type":"uint256","internalType":"uint256"}],"stateMutability":"view"},{"type":"function","name":"getUnderlyingBalances","inputs":[{"name":"liquidityType","type":"uint8","internalType":"enum LiquidityType"}],"outputs":[{"name":"","type":"int24","internalType":"int24"},{"name":"","type":"int24","internalType":"int24"},{"name":"","type":"uint256","internalType":"uint256"},{"name":"","type":"uint256","internalType":"uint256"}],"stateMutability":"view"},{"type":"function","name":"getVaultInfo","inputs":[],"outputs":[{"name":"vaultInfo","type":"tuple","internalType":"struct VaultInfo","components":[{"name":"liquidityRatio","type":"uint256","internalType":"uint256"},{"name":"circulatingSupply","type":"uint256","internalType":"uint256"},{"name":"spotPriceX96","type":"uint256","internalType":"uint256"},{"name":"anchorCapacity","type":"uint256","internalType":"uint256"},{"name":"floorCapacity","type":"uint256","internalType":"uint256"},{"name":"token0","type":"address","internalType":"address"},{"name":"token1","type":"address","internalType":"address"},{"name":"newFloor","type":"uint256","internalType":"uint256"}]}],"stateMutability":"view"},{"type":"function","name":"initialize","inputs":[{"name":"_factory","type":"address","internalType":"address"},{"name":"_owner","type":"address","internalType":"address"},{"name":"_deployer","type":"address","internalType":"address"},{"name":"_pool","type":"address","internalType":"address"},{"name":"_stakingContract","type":"address","internalType":"address"},{"name":"_presaleContract","type":"address","internalType":"address"},{"name":"_tokenRepo","type":"address","internalType":"address"},{"name":"_params","type":"tuple","internalType":"struct ProtocolParameters","components":[{"name":"floorPercentage","type":"uint8","internalType":"uint8"},{"name":"anchorPercentage","type":"uint8","internalType":"uint8"},{"name":"idoPriceMultiplier","type":"uint8","internalType":"uint8"},{"name":"floorBips","type":"uint16[2]","internalType":"uint16[2]"},{"name":"shiftRatio","type":"uint256","internalType":"uint256"},{"name":"slideRatio","type":"uint256","internalType":"uint256"},{"name":"discoveryBips","type":"int24","internalType":"int24"},{"name":"shiftAnchorUpperBips","type":"int24","internalType":"int24"},{"name":"slideAnchorUpperBips","type":"int24","internalType":"int24"},{"name":"lowBalanceThresholdFactor","type":"uint256","internalType":"uint256"},{"name":"highBalanceThresholdFactor","type":"uint256","internalType":"uint256"},{"name":"inflationFee","type":"uint256","internalType":"uint256"},{"name":"loanFee","type":"uint256","internalType":"uint256"},{"name":"deployFee","type":"uint256","internalType":"uint256"},{"name":"presalePremium","type":"uint256","internalType":"uint256"}]}],"outputs":[],"stateMutability":"nonpayable"},{"type":"function","name":"initializeLiquidity","inputs":[{"name":"positions","type":"tuple[3]","internalType":"struct LiquidityPosition[3]","components":[{"name":"lowerTick","type":"int24","internalType":"int24"},{"name":"upperTick","type":"int24","internalType":"int24"},{"name":"liquidity","type":"uint128","internalType":"uint128"},{"name":"price","type":"uint256","internalType":"uint256"},{"name":"tickSpacing","type":"int24","internalType":"int24"}]}],"outputs":[],"stateMutability":"nonpayable"},{"type":"function","name":"mintTokens","inputs":[{"name":"to","type":"address","internalType":"address"},{"name":"amount","type":"uint256","internalType":"uint256"}],"outputs":[],"stateMutability":"nonpayable"},{"type":"function","name":"modelHelper","inputs":[],"outputs":[{"name":"","type":"address","internalType":"address"}],"stateMutability":"view"},{"type":"function","name":"paybackLoan","inputs":[{"name":"who","type":"address","internalType":"address"}],"outputs":[],"stateMutability":"nonpayable"},{"type":"function","name":"pool","inputs":[],"outputs":[{"name":"","type":"address","internalType":"contract IUniswapV3Pool"}],"stateMutability":"view"},{"type":"function","name":"rollLoan","inputs":[{"name":"who","type":"address","internalType":"address"},{"name":"newDuration","type":"uint256","internalType":"uint256"}],"outputs":[],"stateMutability":"nonpayable"},{"type":"function","name":"setFees","inputs":[{"name":"_feesAccumulatedToken0","type":"uint256","internalType":"uint256"},{"name":"_feesAccumulatedToken1","type":"uint256","internalType":"uint256"}],"outputs":[],"stateMutability":"nonpayable"},{"type":"function","name":"teamMultiSig","inputs":[],"outputs":[{"name":"","type":"address","internalType":"address"}],"stateMutability":"view"},{"type":"function","name":"uniswapV3MintCallback","inputs":[{"name":"amount0Owed","type":"uint256","internalType":"uint256"},{"name":"amount1Owed","type":"uint256","internalType":"uint256"},{"name":"data","type":"bytes","internalType":"bytes"}],"outputs":[],"stateMutability":"nonpayable"},{"type":"function","name":"updatePositions","inputs":[{"name":"_positions","type":"tuple[3]","internalType":"struct LiquidityPosition[3]","components":[{"name":"lowerTick","type":"int24","internalType":"int24"},{"name":"upperTick","type":"int24","internalType":"int24"},{"name":"liquidity","type":"uint128","internalType":"uint128"},{"name":"price","type":"uint256","internalType":"uint256"},{"name":"tickSpacing","type":"int24","internalType":"int24"}]}],"outputs":[],"stateMutability":"nonpayable"},{"type":"event","name":"FloorUpdated","inputs":[{"name":"floorPrice","type":"uint256","indexed":false,"internalType":"uint256"},{"name":"floorCapacity","type":"uint256","indexed":false,"internalType":"uint256"}],"anonymous":false},{"type":"error","name":"ActiveLoan","inputs":[]},{"type":"error","name":"AlreadyInitialized","inputs":[]},{"type":"error","name":"CallbackCaller","inputs":[]},{"type":"error","name":"CantRollLoan","inputs":[]},{"type":"error","name":"InsufficientCollateral","inputs":[]},{"type":"error","name":"InsufficientFloorBalance","inputs":[]},{"type":"error","name":"InsufficientLoanAmount","inputs":[]},{"type":"error","name":"InvalidDuration","inputs":[]},{"type":"error","name":"InvalidPosition","inputs":[]},{"type":"error","name":"InvalidTicks","inputs":[]},{"type":"error","name":"LoanExpired","inputs":[]},{"type":"error","name":"NoActiveLoan","inputs":[]},{"type":"error","name":"NoLiquidity","inputs":[]},{"type":"error","name":"NotAuthorized","inputs":[]},{"type":"error","name":"NotInitialized","inputs":[]},{"type":"error","name":"OnlyDeployer","inputs":[]},{"type":"error","name":"OnlyFactory","inputs":[]},{"type":"error","name":"OnlyInternalCalls","inputs":[]},{"type":"error","name":"ResolverNotSet","inputs":[]},{"type":"error","name":"SafeERC20FailedOperation","inputs":[{"name":"token","type":"address","internalType":"address"}]},{"type":"error","name":"ZeroLiquidty","inputs":[]}],"bytecode":{"object":"0x608060405234801561001057600080fd5b5061569a80620000216000396000f3fe608060405234801561001057600080fd5b50600436106101cf5760003560e01c806395d7d0ad11610104578063d3487997116100a2578063f0dda65c11610071578063f0dda65c14610469578063f4a1a46d1461047c578063fd896f9d146104b7578063ffb938db146104cc57600080fd5b8063d348799714610433578063d76b817a14610446578063dee02ffa14610459578063ef5ddb311461046157600080fd5b8063ad66d3b3116100de578063ad66d3b3146103f0578063b331fdcb14610403578063c45a015514610416578063c58aad871461041e57600080fd5b806395d7d0ad14610372578063a1774da014610385578063a3e44b33146103e857600080fd5b80636d1b229d11610171578063802758601161014b578063802758601461033a57806382a118341461034f578063854567f114610362578063899e86891461036a57600080fd5b80636d1b229d1461029d5780637f98aa71146102b05780637fd762af1461032757600080fd5b8063315deeaa116101ad578063315deeaa1461022d5780635df45a371461023f5780635f2608551461025a5780636010ba641461026257600080fd5b80630b78f9c0146101d457806314cdce32146101e957806316f0115b146101fc575b600080fd5b6101e76101e2366004614813565b6104d4565b005b6101e76101f736600461498d565b610545565b602854600160301b90046001600160a01b03165b6040516001600160a01b0390911681526020015b60405180910390f35b6005545b604051908152602001610224565b602954602a5460408051928352602083019190915201610224565b6101e76109ae565b610275610270366004614b1f565b610a92565b604080519586526020860194909452928401919091526060830152608082015260a001610224565b6101e76102ab366004614b3c565b610b00565b6102b8610c92565b6040516102249190600061010082019050825182526020830151602083015260408301516040830152606083015160608301526080830151608083015260a083015160018060a01b0380821660a08501528060c08601511660c0850152505060e083015160e083015292915050565b6101e7610335366004614b6a565b610d88565b610342610f6b565b6040516102249190614c33565b6101e761035d366004614b1f565b611051565b6102106114c5565b6101e7611534565b6101e7610380366004614b6a565b611653565b61038d611719565b604051610224919081516001600160a01b03908116825260208084015182169083015260408084015182169083015260608084015182169083015260808084015182169083015260a092830151169181019190915260c00190565b6102106117c0565b6102316103fe366004614813565b611893565b6101e7610411366004614ca5565b6118a8565b610210611e8e565b610426611f17565b6040516102249190614cf8565b6101e7610441366004614dea565b61202e565b6101e7610454366004614e6a565b612251565b6102316129d6565b6102106129e6565b6101e7610477366004614ca5565b612a78565b61048f61048a366004614e9f565b612b18565b60408051600295860b81529390940b6020840152928201526060810191909152608001610224565b6104bf612bb4565b6040516102249190614ec0565b610231613361565b6000546001600160a01b031633148015906104ef5750333014155b1561050d5760405163139f696160e31b815260040160405180910390fd5b81600060290160008282546105229190614f24565b9091555050602a805482919060009061053c908490614f24565b90915550505050565b61054d611e8e565b6001600160a01b0316336001600160a01b03161461057e57604051630636a15760e11b815260040160405180910390fd5b7f4f9c0bef5053eed4819cef85d67629ba17aab16cf28b037737c292417ab8601a547f4f9c0bef5053eed4819cef85d67629ba17aab16cf28b037737c292417ab86015906001600160a01b03166105e857604051630d09117560e41b815260040160405180910390fd5b6005810154600280546001600160a01b039283166001600160a01b031991821617909155602880546601000000000000600160d01b031916600160301b8a851681029190911791829055600080549093168d85161790925560408051630dfe168160e01b815290519290910490921691630dfe16819160048083019260209291908290030181865afa158015610682573d6000803e3d6000fd5b505050506040513d601f19601f820116820180604052508101906106a69190614f42565b602680546001600160a01b0319166001600160a01b039283161790556028546040805163d21220a760e01b81529051600160301b9092049092169163d21220a79160048083019260209291908290030181865afa15801561070b573d6000803e3d6000fd5b505050506040513d601f19601f8201168201806040525081019061072f9190614f42565b602780546001600160a01b03199081166001600160a01b0393841617909155601480546101808601516006556016805484168a86161790556017805484168986161790556000600555601a8054909316878516179092556101006001600160b01b031990921662010000938b16840217821790558351600980546020870151604088015160ff94851661ffff19909316929092179084169094029390931762ff000019169190921690920291909117815560608301518391906107f690600a906002614677565b506080820151600282015560a0820151600382015560c08201516004808301805460e086015161010087015162ffffff95861665ffffffffffff19909316929092176301000000918616919091021768ffffff0000000000001916600160301b94909116840217905561012084015160058401556101408401516006840155610160840151600784015561018084015160088401556101a084015160098401556101c090930151600a90920191909155600180546001600160a01b0319166001600160a01b038c81169190911790915560285460408051630dfe168160e01b815290519390910490911692630dfe16819282820192602092908290030181865afa158015610908573d6000803e3d6000fd5b505050506040513d601f19601f8201168201806040525081019061092c9190614f42565b60405163095ea7b360e01b81526001600160a01b0389811660048301526000196024830152919091169063095ea7b3906044016020604051808303816000875af115801561097e573d6000803e3d6000fd5b505050506040513d601f19601f820116820180604052508101906109a29190614f6f565b50505050505050505050565b6000546001600160a01b031633148015906109c95750333014155b156109e75760405163139f696160e31b815260040160405180910390fd5b60005b600354811015610a8f576000806003018281548110610a0b57610a0b614f8a565b60009182526020808320909101546001600160a01b031680835260079091526040909120600381015491925090421115610a8557610a48826133ee565b6001600160a01b038216600090815260076020526040812081815560018101829055600281018290556003810182905560040155610a85826134c9565b50506001016109ea565b50565b6001600160a01b0381166000908152600760205260408120805482918291829182918203610ad25760008060008060009550955095509550955050610af7565b8060000154816001015482600201548360030154846004015495509550955095509550505b91939590929450565b6000546001600160a01b03163314801590610b1b5750333014155b15610b395760405163139f696160e31b815260040160405180910390fd5b600060280160069054906101000a90046001600160a01b03166001600160a01b0316630dfe16816040518163ffffffff1660e01b8152600401602060405180830381865afa158015610b8f573d6000803e3d6000fd5b505050506040513d601f19601f82011682018060405250810190610bb39190614f42565b60005460405163095ea7b360e01b81526001600160a01b0391821660048201526024810184905291169063095ea7b3906044016020604051808303816000875af1158015610c05573d6000803e3d6000fd5b505050506040513d601f19601f82011682018060405250810190610c299190614f6f565b50600054604051631dd319cb60e01b8152306004820152602481018390526001600160a01b0390911690631dd319cb906044015b600060405180830381600087803b158015610c7757600080fd5b505af1158015610c8b573d6000803e3d6000fd5b5050505050565b610cec604051806101000160405280600081526020016000815260200160008152602001600081526020016000815260200160006001600160a01b0316815260200160006001600160a01b03168152602001600081525090565b610cf46117c0565b602854604051638a3fecc960e01b81526001600160a01b03600160301b909204821660048201523060248201526026548216604482015260275482166064820152911690638a3fecc99060840161010060405180830381865afa158015610d5f573d6000803e3d6000fd5b505050506040513d601f19601f82011682018060405250810190610d839190614fa0565b905090565b6014546201000090046001600160a01b03163314610db95760405163618bbdd560e01b815260040160405180910390fd5b60145460ff1615610ddc5760405162dc149f60e41b815260040160405180910390fd5b8051604001516001600160801b03161580610e0657506020810151604001516001600160801b0316155b80610e1f575060408082015101516001600160801b0316155b15610e3d5760405163673f032f60e11b815260040160405180910390fd5b6014805460ff191660011790558060005b602090810291909101518051601b80548385015160408086015162ffffff95861665ffffffffffff1994851617630100000093871684021775ffffffffffffffffffffffffffffffff00000000000019908116600160301b6001600160801b03938416810291909117909655606080890151601c55608098890151601d805462ffffff19908116928b169290921790558b8b01518051601e8054838f0151848a0151938e16918c1691909117908d168a021786169187168b0291909117905580830151601f558a01518b548216908a16178b559a8401518051602180549c83015196830151918b169c9098169b909b1794891690950293909317169716909302959095179055830151602255910151602380549093169116179055565b610f7361470d565b506040805161010081018252601b54600281810b60608085019182526301000000808504840b6080808801919091526001600160801b03600160301b96879004811660a0808a0191909152601c5460c08a0152601d54870b60e08a015294885288518086018a52601e5480880b8252848104880b602083810191909152908990048316828c0152601f54828701528054880b82850152808a019190915289519586018a5260215480880b8752938404870b9086015295909104909416828701526022549082015260235490910b918101919091529181019190915290565b6000546001600160a01b0316331480159061106c5750333014155b1561108a5760405163139f696160e31b815260040160405180910390fd5b6001600160a01b038116600090815260076020526040812080549091036110c4576040516301c8bc7760e21b815260040160405180910390fd5b80600301544211156110e957604051632ee48ce560e11b815260040160405180910390fd5b600060280160069054906101000a90046001600160a01b03166001600160a01b031663d21220a76040518163ffffffff1660e01b8152600401602060405180830381865afa15801561113f573d6000803e3d6000fd5b505050506040513d601f19601f820116820180604052508101906111639190614f42565b81546040516323b872dd60e01b81526001600160a01b0392909216916323b872dd916111959186913091600401615043565b6020604051808303816000875af11580156111b4573d6000803e3d6000fd5b505050506040513d601f19601f820116820180604052508101906111d89190614f6f565b50601a5460285460408051630dfe168160e01b815290516001600160a01b0393841693639e3f751e93600160301b90041691630dfe16819160048083019260209291908290030181865afa158015611234573d6000803e3d6000fd5b505050506040513d601f19601f820116820180604052508101906112589190614f42565b8484600101546040518463ffffffff1660e01b815260040161127c93929190615043565b600060405180830381600087803b15801561129657600080fd5b505af11580156112aa573d6000803e3d6000fd5b505050506000806112b96117c0565b6028546040516317886cbb60e11b81526001600160a01b0392831692632f10d976926112f892600160301b90910490911690309060009060040161507d565b608060405180830381865afa158015611315573d6000803e3d6000fd5b505050506040513d601f19601f8201168201806040525081019061133991906150c1565b9350935050508260010154600060050160008282546113589190615109565b90915550506040805161010081018252601b54600281810b60608085018281526301000000808604850b6080808901829052600160301b978890046001600160801b0390811660a0808c0191909152601c5460c08c0152601d54890b60e08c0152948a528a518086018c52601e54808a0b82528581048a0b602080840191909152908b90048316828e0152601f548289015280548a0b82850152808c01919091528b519586018c52602154808a0b8752948504890b9086015292889004909216838a01526022549383019390935260235490940b9381019390935294840191909152602854929361145993929092046001600160a01b0316913091906135c8565b602854845461148791600160301b90046001600160a01b031690309086906114819087614f24565b856136c2565b506001600160a01b038516600090815260076020526040812081815560018101829055600281018290556003810182905560040155610c8b856134c9565b600080546040805163854567f160e01b815290516001600160a01b039092169163854567f1916004808201926020929091908290030181865afa158015611510573d6000803e3d6000fd5b505050506040513d601f19601f82011682018060405250810190610d839190614f42565b6017546001600160a01b0316331461155f5760405163ea8e4eb560e01b815260040160405180910390fd5b6002546040805180820190915260088152672232b83637bcb2b960c11b60208201526000916001600160a01b03169063dacb2d019061159d9061380c565b6040518263ffffffff1660e01b81526004016115de918152604060208201819052600b908201526a3737902232b83637bcb2b960a91b606082015260800190565b602060405180830381865afa1580156115fb573d6000803e3d6000fd5b505050506040513d601f19601f8201168201806040525081019061161f9190614f42565b600054604051637d19a2cb60e01b81526001600160a01b038084166004830152929350911690637d19a2cb90602401610c5d565b6000546001600160a01b0316331480159061166e5750333014155b1561168c5760405163139f696160e31b815260040160405180910390fd5b60145460ff166116af576040516321c4e35760e21b815260040160405180910390fd5b8051604001516001600160801b031615806116d957506020810151604001516001600160801b0316155b806116f2575060408082015101516001600160801b0316155b1561171057604051636180f03f60e11b815260040160405180910390fd5b610a8f8161386b565b6040805160c081018252600080825260208201819052918101829052606081018290526080810182905260a08101919091526040805160c0810182526028546001600160a01b03600160301b9091048116825230602083015260145462010000900416918101919091526060810161178f6117c0565b6001600160a01b0390811682526017541660208201526040016117b06129e6565b6001600160a01b03169052919050565b6000806117cb613873565b9050806001600160a01b031663dacb2d016118086040518060400160405280600b81526020016a26b7b232b62432b63832b960a91b81525061380c565b6040518263ffffffff1660e01b815260040161184c918152604060208201819052600e908201526d37379026b7b232b62432b63832b960911b606082015260800190565b602060405180830381865afa158015611869573d6000803e3d6000fd5b505050506040513d601f19601f8201168201806040525081019061188d9190614f42565b91505090565b600061189f83836138b4565b90505b92915050565b6000546001600160a01b031633148015906118c35750333014155b156118e15760405163139f696160e31b815260040160405180910390fd5b6001600160a01b0382166000908152600760205260408120805490910361191b576040516301c8bc7760e21b815260040160405180910390fd5b806003015442111561194057604051632ee48ce560e11b815260040160405180910390fd5b8160000361196157604051637616640160e01b815260040160405180910390fd5b60006119e282600101546119736117c0565b604051636013be6d60e01b81523060048201526001600160a01b039190911690636013be6d90602401602060405180830381865afa1580156119b9573d6000803e3d6000fd5b505050506040513d601f19601f820116820180604052508101906119dd919061511c565b61390d565b82549091508111611a06576040516330a15b0960e01b815260040160405180910390fd5b8154600090611a159083615109565b90506000611a2382866138b4565b9050611a2f8542614f24565b60038501558354611a41908390614f24565b8455600080611a4e6117c0565b6028546040516317886cbb60e11b81526001600160a01b0392831692632f10d97692611a8d92600160301b90910490911690309060009060040161507d565b608060405180830381865afa158015611aaa573d6000803e3d6000fd5b505050506040513d601f19601f82011682018060405250810190611ace91906150c1565b6040805161010081018252601b54600281810b60608085018281526301000000808604850b6080808901829052600160301b978890046001600160801b0390811660a0808c0191909152601c5460c08c0152601d54890b60e08c0152948a528a518086018c52601e54808a0b82528581048a0b602080840191909152908b90048316828e0152601f548289015280548a0b82850152808c01919091528b519586018c52602154808a0b8752948504890b9086015292889004909216838a01526022549383019390935260235490940b9381019390935294840191909152602854959950939750909550611bd194509092046001600160a01b0316913091906135c8565b602854611bf490600160301b90046001600160a01b031630856114818987615109565b50600060280160069054906101000a90046001600160a01b03166001600160a01b031663d21220a76040518163ffffffff1660e01b8152600401602060405180830381865afa158015611c4b573d6000803e3d6000fd5b505050506040513d601f19601f82011682018060405250810190611c6f9190614f42565b6001600160a01b031663a9059cbb8a611c888789615109565b6040516001600160e01b031960e085901b1681526001600160a01b03909216600483015260248201526044016020604051808303816000875af1158015611cd3573d6000803e3d6000fd5b505050506040513d601f19601f82011682018060405250810190611cf79190614f6f565b506040805161010081018252601b54600281810b60608085019182526301000000808504840b6080808801919091526001600160801b03600160301b96879004811660a0808a0191909152601c5460c08a0152601d54870b60e08a015294885288518086018a52601e5480880b8252848104880b602083810191909152908990048316828c0152601f54828701528054880b82850152808a019190915289519586018a5260215480880b8752938404870b9086015295909104909416828701526022549082015260235490910b918101919091528183015290516395d7d0ad60e01b815230916395d7d0ad91611df09190600401614c33565b600060405180830381600087803b158015611e0a57600080fd5b505af1158015611e1e573d6000803e3d6000fd5b50505050611e2a6117c0565b604051634986609560e11b81523060048201526001600160a01b03919091169063930cc12a9060240160006040518083038186803b158015611e6b57600080fd5b505afa158015611e7f573d6000803e3d6000fd5b50505050505050505050505050565b600080611e99613873565b9050806001600160a01b031663dacb2d01611ed76040518060400160405280600c81526020016b4f696b6f73466163746f727960a01b81525061380c565b6040518263ffffffff1660e01b815260040161184c918152604060208201819052600a90820152696e6f20466163746f727960b01b606082015260800190565b611f1f61475a565b604080516101e0810182526009805460ff8082168452610100820481166020850152620100009091041682840152825180840193849052919290916060840191600a90600290826000855b82829054906101000a900461ffff1661ffff1681526020019060020190602082600101049283019260010382029150808411611f6a57505050928452505050600282810154602083015260038301546040830152600483015480820b606084015263010000008104820b6080840152600160301b9004900b60a0820152600582015460c0820152600682015460e0820152600782015461010082015260088201546101208201526009820154610140820152600a9091015461016090910152919050565b602854600160301b90046001600160a01b03163314612060576040516348b77d9160e11b815260040160405180910390fd5b6026546040516370a0823160e01b81523060048201526000916001600160a01b0316906370a0823190602401602060405180830381865afa1580156120a9573d6000803e3d6000fd5b505050506040513d601f19601f820116820180604052508101906120cd919061511c565b6027546040516370a0823160e01b81523060048201529192506000916001600160a01b03909116906370a0823190602401602060405180830381865afa15801561211b573d6000803e3d6000fd5b505050506040513d601f19601f8201168201806040525081019061213f919061511c565b90508582106121c55785156121c55760265460405163a9059cbb60e01b8152336004820152602481018890526001600160a01b039091169063a9059cbb906044016020604051808303816000875af115801561219f573d6000803e3d6000fd5b505050506040513d601f19601f820116820180604052508101906121c39190614f6f565b505b8481106122495784156122495760275460405163a9059cbb60e01b8152336004820152602481018790526001600160a01b039091169063a9059cbb906044016020604051808303816000875af1158015612223573d6000803e3d6000fd5b505050506040513d601f19601f820116820180604052508101906122479190614f6f565b505b505050505050565b6000546001600160a01b0316331480159061226c5750333014155b1561228a5760405163139f696160e31b815260040160405180910390fd5b816000036122ab57604051639c73083760e01b815260040160405180910390fd5b62278d008110806122bf57506301e1338081115b156122dd57604051637616640160e01b815260040160405180910390fd5b6001600160a01b038316600090815260076020526040902054156123145760405163f16664fd60e01b815260040160405180910390fd5b600061231f8361392f565b5090508060000361234357604051633a23d82560e01b815260040160405180910390fd5b60008061234e6117c0565b6028546040516317886cbb60e11b81526001600160a01b0392831692632f10d9769261238d92600160301b90910490911690309060009060040161507d565b608060405180830381865afa1580156123aa573d6000803e3d6000fd5b505050506040513d601f19601f820116820180604052508101906123ce91906150c1565b935093505050848110156123f5576040516318f76aff60e11b815260040160405180910390fd5b600060280160069054906101000a90046001600160a01b03166001600160a01b0316630dfe16816040518163ffffffff1660e01b8152600401602060405180830381865afa15801561244b573d6000803e3d6000fd5b505050506040513d601f19601f8201168201806040525081019061246f9190614f42565b6001600160a01b03166323b872dd8730866040518463ffffffff1660e01b815260040161249e93929190615043565b6020604051808303816000875af11580156124bd573d6000803e3d6000fd5b505050506040513d601f19601f820116820180604052508101906124e19190614f6f565b50612571600060280160069054906101000a90046001600160a01b03166001600160a01b0316630dfe16816040518163ffffffff1660e01b8152600401602060405180830381865afa15801561253b573d6000803e3d6000fd5b505050506040513d601f19601f8201168201806040525081019061255f9190614f42565b601a546001600160a01b0316856139bb565b600061257d86866138b4565b905083600060050160008282546125949190614f24565b90915550506040805161010081018252601b54600281810b60608085018281526301000000808604850b6080808901829052600160301b978890046001600160801b0390811660a0808c0191909152601c5460c08c0152601d54890b60e08c0152948a528a518086018c52601e54808a0b82528581048a0b602080840191909152908b90048316828e0152601f548289015280548a0b82850152808c01919091528b519586018c52602154808a0b8752948504890b9086015292889004909216838a01526022549383019390935260235490940b9381019390935294840191909152602854929361269593929092046001600160a01b0316913091906135c8565b6028546126b890600160301b90046001600160a01b031630866114818b88615109565b50612746600060280160069054906101000a90046001600160a01b03166001600160a01b031663d21220a76040518163ffffffff1660e01b8152600401602060405180830381865afa158015612712573d6000803e3d6000fd5b505050506040513d601f19601f820116820180604052508101906127369190614f42565b89612741858b615109565b6139bb565b6001600160a01b038816600090815260086020908152604080832054815160a0810183528b81529283018990529082018590529190606081016127898a42614f24565b815260209081018a90526001600160a01b038c166000908152600782526040908190208351815591830151600183015582015160028201556060820151600382015560808201516004909101559050816127e281615135565b6001600160a01b038c166000818152600860209081526040808320959095556003805460018101825592527fc2575a0e9e593c00f959f8c92f12db2869c3395a3b0502d05e2516446f71f85b90910180546001600160a01b031916909217909155825161010081018452601b54600281810b60608085019182526301000000808504840b6080808801919091526001600160801b03600160301b96879004811660a0808a0191909152601c5460c08a0152601d54870b60e08a01529488528a518086018c52601e5480880b8252848104880b828c01528890048216818d0152601f54818601528954870b81840152888a01528a519485018b5260215480870b8652928304860b988501989098529490049095168188015260225494810194909452602354900b908301528084019190915291516395d7d0ad60e01b815290935030916395d7d0ad916129379190600401614c33565b600060405180830381600087803b15801561295157600080fd5b505af1158015612965573d6000803e3d6000fd5b505050506129716117c0565b604051634986609560e11b81523060048201526001600160a01b03919091169063930cc12a9060240160006040518083038186803b1580156129b257600080fd5b505afa1580156129c6573d6000803e3d6000fd5b5050505050505050505050505050565b602554600090610d839042615109565b6000806129f1613873565b9050806001600160a01b031663dacb2d01612a316040518060400160405280600e81526020016d4164617074697665537570706c7960901b81525061380c565b6040518263ffffffff1660e01b815260040161184c918152604060208201819052601190820152706e6f204164617074697665537570706c7960781b606082015260800190565b6000546001600160a01b03163314801590612a935750333014155b15612ab15760405163139f696160e31b815260040160405180910390fd5b42602555600054604051633c37699760e21b81526001600160a01b038481166004830152602482018490529091169063f0dda65c906044015b600060405180830381600087803b158015612b0457600080fd5b505af1158015612249573d6000803e3d6000fd5b600080600080612b266117c0565b6028546040516317886cbb60e11b81526001600160a01b0392831692632f10d97692612b6492600160301b9091049091169030908a9060040161507d565b608060405180830381865afa158015612b81573d6000803e3d6000fd5b505050506040513d601f19601f82011682018060405250810190612ba591906150c1565b93509350935093509193509193565b604080516011808252610240820190925260609160009190602082016102208036833701905050905060405180606001604052806028815260200161563d602891398051906020012081600081518110612c1057612c10614f8a565b6001600160e01b03199092166020928302919091018201526040805180820190915260148152737061796261636b4c6f616e28616464726573732960601b91015280517f82a11834c50de487b6fbe11b87924da2c1de50953747740385efe5b5a2293b6e9082906001908110612c8857612c88614f8a565b6001600160e01b031990921660209283029190910182015260408051808201909152601981527f726f6c6c4c6f616e28616464726573732c75696e74323536290000000000000091015280517fb331fdcb54e030d83421252fb8a3e0bfd04b9d4591f28edd8de53da03fc65ff29082906002908110612d0957612d09614f8a565b6001600160e01b031990921660209283029190910182015260408051808201909152600e81526d64656661756c744c6f616e73282960901b91015280517f5f2608558f9fd129b4e36803431a07c7f34134980dbf6bcfeef7bff09b18425c9082906003908110612d7b57612d7b614f8a565b60200260200101906001600160e01b03191690816001600160e01b031916815250506040518060600160405280603781526020016155e4603791398051906020012081600481518110612dd057612dd0614f8a565b6001600160e01b031990921660209283029190910182015260408051808201909152600e81526d676574506f736974696f6e73282960901b91015280517f80275860e94ae2352a6f96e7331d60fec5acb8be3449303acc2955074b0ae8919082906005908110612e4257612e42614f8a565b6001600160e01b031990921660209283029190910182015260408051808201909152600e81526d7465616d4d756c7469536967282960901b91015280517f854567f1ebcf52af01539bbb2eb91efa4f35506d34e268a7a77e05fac717b9d69082906006908110612eb457612eb4614f8a565b6001600160e01b031990921660209283029190910182015260408051808201909152601781527f67657450726f746f636f6c506172616d6574657273282900000000000000000091015280517fc58aad872b3b4ca1be02017b517aa3d4dc2cde8329ed50f2f7b5e8d426b87df89082906007908110612f3557612f35614f8a565b6001600160e01b031990921660209283029190910182015260408051808201909152601681527567657454696d6553696e63654c6173744d696e74282960501b91015280517fdee02ffaa72188dc53f5a6b5d074114cf589f27a6f21fc80fb35e5a154d604029082906008908110612faf57612faf614f8a565b6001600160e01b0319909216602092830291909101820152604080518082019091526015815274676574436f6c6c61746572616c416d6f756e74282960581b91015280517f315deeaaa77bb93e9c57a7a502d8026cdd3dadf8faa53374cabfc419585f37fd908290600990811061302857613028614f8a565b6001600160e01b031990921660209283029190910182015260408051808201909152601b81527f6d696e74546f6b656e7328616464726573732c75696e7432353629000000000091015280517ff0dda65cf836e94d4ef937906c9c60bfee0b848c2d3202142a7cc87420ad437c908290600a9081106130a9576130a9614f8a565b6001600160e01b03199092166020928302919091018201526040805180820190915260138152726275726e546f6b656e732875696e743235362960681b91015280517f6d1b229dafadcd720d5a60a73409508ab97a09a020cffe742460e5a58f790b61908290600b90811061312057613120614f8a565b6001600160e01b0319909216602092830291909101820152604080518082019091526006815265706f6f6c282960d01b91015280517f16f0115b5901d3f6295e520505af05475e18f6f1e134f347475c881a6302260d908290600c90811061318a5761318a614f8a565b6001600160e01b0319909216602092830291909101820152604080518082019091526014815273676574416363756d756c6174656446656573282960601b91015280517f5df45a3726e2430fc7db93443f7d212a24cee57c63dfca1e6d9d339521e8fb6c908290600d90811061320257613202614f8a565b6001600160e01b031990921660209283029190910182015260408051808201909152600e8082526d616674657250726573616c65282960901b919092015281517f899e8689d09c1013329814dcc3cd2004aa09d9c22649cb76a50b413c8cae4e1f918391811061327457613274614f8a565b6001600160e01b03199092166020928302919091018201526040805180820190915260168152756765744163746976654c6f616e28616464726573732960501b91015280517f6010ba64103ad51dc5ab347605dca601efead93ea7ef6332a4ee8d12a4e95fd4908290600f9081106132ee576132ee614f8a565b60200260200101906001600160e01b03191690816001600160e01b0319168152505060405180606001604052806022815260200161561b60229139805190602001208160108151811061334357613343614f8a565b6001600160e01b031990921660209283029190910190910152919050565b60008061336c6117c0565b602854604051630c45b42360e11b81526001600160a01b03600160301b90920482166004820152306024820152831515604482015291169063188b684690606401602060405180830381865afa1580156133ca573d6000803e3d6000fd5b505050506040513d601f19601f8201168201806040525081019061188d919061511c565b6001600160a01b038116600090815260076020526040812060018101546005805492939192909190613421908490615109565b9091555050601a5460285460408051630dfe168160e01b815290516001600160a01b0393841693639e3f751e93600160301b90041691630dfe16819160048083019260209291908290030181865afa158015613481573d6000803e3d6000fd5b505050506040513d601f19601f820116820180604052508101906134a59190614f42565b3084600101546040518463ffffffff1660e01b8152600401612aea93929190615043565b60005b6003548110156135c457816001600160a01b0316600060030182815481106134f6576134f6614f8a565b6000918252602090912001546001600160a01b0316036135bc576003805461352090600190615109565b8154811061353057613530614f8a565b600091825260209091200154600380546001600160a01b03909216918390811061355c5761355c614f8a565b600091825260209091200180546001600160a01b0319166001600160a01b039290921691909117905560038054806135965761359661514e565b600082815260209020810160001990810180546001600160a01b03191690550190555050565b6001016134cc565b5050565b6040516bffffffffffffffffffffffff193060601b16602082015260e883811b603483015282901b6037820152600090603a0160408051601f1981840301815290829052805160209091012063514ea4bf60e01b82526004820181905291506000906001600160a01b0387169063514ea4bf9060240160a060405180830381865afa15801561365b573d6000803e3d6000fd5b505050506040513d601f19601f8201168201806040525081019061367f9190615164565b5050505090506000816001600160801b031611156136a9576136a48686868685613a12565b612249565b60405163367e98e760e11b815260040160405180910390fd5b6040805160a08101825260008082526020808301829052928201819052606082018190526080820152825180519201519091600290810b91900b1361371a57604051631434ed7f60e01b815260040160405180910390fd5b81518051602090910151613755918891889190866000602002015160800151600060405180604001604052808c81526020018b815250613b29565b9050600060405180606001604052808381526020018460016003811061377d5761377d614f8a565b602002015181526020018460026003811061379a5761379a614f8a565b602002015190526040516395d7d0ad60e01b81529091506001600160a01b038716906395d7d0ad906137d0908490600401614c33565b600060405180830381600087803b1580156137ea57600080fd5b505af11580156137fe573d6000803e3d6000fd5b505050505095945050505050565b8051600090829082036138225750600092915050565b60208151111561383157600080fd5b602083015181519092505b60208110156138645761385081601f615109565b61385b9060086151c6565b5060010161383c565b5050919050565b806000610e4e565b6002546001600160a01b0316806138b157507f4f9c0bef5053eed4819cef85d67629ba17aab16cf28b037737c292417ab8601a546001600160a01b03165b90565b6006546000906201518090826138cf8264e8d4a510006151c6565b905068056bc75e2d631000006138e584876151f3565b6138ef83896151c6565b6138f991906151c6565b61390391906151f3565b9695505050505050565b600061391b6012600a6152eb565b61392583856151c6565b61189f91906151f3565b600080600061393c6117c0565b604051636013be6d60e01b81523060048201526001600160a01b039190911690636013be6d90602401602060405180830381865afa158015613982573d6000803e3d6000fd5b505050506040513d601f19601f820116820180604052508101906139a6919061511c565b90506139b28482613cd9565b94909350915050565b604080516001600160a01b038416602482015260448082018490528251808303909101815260649091019091526020810180516001600160e01b031663a9059cbb60e01b179052613a0d908490613cf2565b505050565b60405163a34123a760e01b8152600284810b600483015283900b60248201526001600160801b03821660448201526001600160a01b0386169063a34123a79060640160408051808303816000875af1158015613a72573d6000803e3d6000fd5b505050506040513d601f19601f82011682018060405250810190613a9691906152f7565b50506040516309e3d67b60e31b81526001600160a01b038581166004830152600285810b602484015284900b60448301526001600160801b03606483018190526084830152861690634f1eb3d89060a40160408051808303816000875af1158015613b05573d6000803e3d6000fd5b505050506040513d601f19601f82011682018060405250810190612247919061531b565b6040805160a0810182526000808252602082018190529181018290526060810182905260808101919091526000886001600160a01b0316633850c7bd6040518163ffffffff1660e01b815260040160e060405180830381865afa158015613b94573d6000803e3d6000fd5b505050506040513d601f19601f82011682018060405250810190613bb89190615355565b50505050505090506000613be482613bcf8a613d69565b613bd88a613d69565b87516020890151614189565b90506002856002811115613bfa57613bfa615067565b03613c52578351600003613c52578351613c139061424d565b604051602001613c239190615410565b60408051601f198184030181529082905262461bcd60e51b8252613c499160040161548f565b60405180910390fd5b6001600160801b03811615613c7657613c718a8a8a8a858a6000614379565b613c98565b613c88816001600160801b031661424d565b604051602001613c2391906154a2565b6040805160a0810182526002998a0b815297890b60208901526001600160801b0390911690870152505060006060850152505090910b608082015292915050565b600081613ce86012600a6152eb565b61392590856151c6565b600080602060008451602086016000885af180613d15576040513d6000823e3d81fd5b50506000513d91508115613d2d578060011415613d3a565b6001600160a01b0384163b155b15613d6357604051635274afe760e01b81526001600160a01b0385166004820152602401613c49565b50505050565b60008060008360020b12613d80578260020b613d8d565b8260020b613d8d906154e8565b9050613d9c620d89e719615504565b60020b811115613dd25760405162461bcd60e51b81526020600482015260016024820152601560fa1b6044820152606401613c49565b600081600116600003613de957600160801b613dfb565b6ffffcb933bd6fad37aa2d162d1a5940015b70ffffffffffffffffffffffffffffffffff1690506002821615613e3a576080613e35826ffff97272373d413259a46990580e213a6151c6565b901c90505b6004821615613e64576080613e5f826ffff2e50f5f656932ef12357cf3c7fdcc6151c6565b901c90505b6008821615613e8e576080613e89826fffe5caca7e10e4e61c3624eaa0941cd06151c6565b901c90505b6010821615613eb8576080613eb3826fffcb9843d60f6159c9db58835c9266446151c6565b901c90505b6020821615613ee2576080613edd826fff973b41fa98c081472e6896dfb254c06151c6565b901c90505b6040821615613f0c576080613f07826fff2ea16466c96a3843ec78b326b528616151c6565b901c90505b6080821615613f36576080613f31826ffe5dee046a99a2a811c461f1969c30536151c6565b901c90505b610100821615613f61576080613f5c826ffcbe86c7900a88aedcffc83b479aa3a46151c6565b901c90505b610200821615613f8c576080613f87826ff987a7253ac413176f2b074cf7815e546151c6565b901c90505b610400821615613fb7576080613fb2826ff3392b0822b70005940c7a398e4b70f36151c6565b901c90505b610800821615613fe2576080613fdd826fe7159475a2c29b7443b29c7fa6e889d96151c6565b901c90505b61100082161561400d576080614008826fd097f3bdfd2022b8845ad8f792aa58256151c6565b901c90505b612000821615614038576080614033826fa9f746462d870fdf8a65dc1f90e061e56151c6565b901c90505b61400082161561406357608061405e826f70d869a156d2a1b890bb3df62baf32f76151c6565b901c90505b61800082161561408e576080614089826f31be135f97d08fd981231505542fcfa66151c6565b901c90505b620100008216156140ba5760806140b5826f09aa508b5b7a84e1c677de54f3e99bc96151c6565b901c90505b620200008216156140e55760806140e0826e5d6af8dedb81196699c329225ee6046151c6565b901c90505b6204000082161561410f57608061410a826d2216e584f5fa1ea926041bedfe986151c6565b901c90505b62080000821615614137576080614132826b048a170391f7dc42444e8fa26151c6565b901c90505b60008460020b13156141525761414f816000196151f3565b90505b61416164010000000082615526565b1561416d576001614170565b60005b6141819060ff16602083901c614f24565b949350505050565b6000836001600160a01b0316856001600160a01b031611156141a9579293925b846001600160a01b0316866001600160a01b0316116141d4576141cd858585614503565b9050614244565b836001600160a01b0316866001600160a01b031610156142365760006141fb878686614503565b9050600061420a878986614578565b9050806001600160801b0316826001600160801b03161061422b578061422d565b815b92505050614244565b614241858584614578565b90505b95945050505050565b6060816000036142745750506040805180820190915260018152600360fc1b602082015290565b8160005b811561429e578061428881615135565b91506142979050600a836151f3565b9150614278565b60008167ffffffffffffffff8111156142b9576142b961484a565b6040519080825280601f01601f1916602001820160405280156142e3576020820181803683370190505b509050815b8515614370576142f9600182615109565b90506000614308600a886151f3565b61431390600a6151c6565b61431d9088615109565b61432890603061553a565b905060008160f81b90508084848151811061434557614345614f8a565b60200101906001600160f81b031916908160001a905350614367600a896151f3565b975050506142e8565b50949350505050565b6040805180820190915260048152631b5a5b9d60e21b602082015260609082156143e757604051806040016040528060058152602001641cda1a599d60da1b81525090506000816040516020016143d1929190615553565b6040516020818303038152906040529150614480565b60008460028111156143fb576143fb615067565b03614414576000816040516020016143d1929190615553565b600184600281111561442857614428615067565b03614441576001816040516020016143d1929190615553565b600284600281111561445557614455615067565b036144805760028160405160200161446e929190615553565b60405160208183030381529060405291505b604051633c8a7d8d60e01b81526001600160a01b038a1690633c8a7d8d906144b4908b908b908b908b90899060040161556f565b60408051808303816000875af11580156144d2573d6000803e3d6000fd5b505050506040513d601f19601f820116820180604052508101906144f691906152f7565b5050505050505050505050565b6000826001600160a01b0316846001600160a01b03161115614523579192915b6000614546856001600160a01b0316856001600160a01b0316600160601b6145ae565b905061456d614568848361455a89896155bc565b6001600160a01b03166145ae565b61465c565b9150505b9392505050565b6000826001600160a01b0316846001600160a01b03161115614598579192915b61418161456883600160601b61455a88886155bc565b60008080600019858709858702925082811083820303915050806000036145e757600084116145dc57600080fd5b508290049050614571565b8084116145f357600080fd5b60008486880960026001871981018816978890046003810283188082028403028082028403028082028403028082028403028082028403029081029092039091026000889003889004909101858311909403939093029303949094049190911702949350505050565b806001600160801b038116811461467257600080fd5b919050565b6001830191839082156146fd5791602002820160005b838211156146cd57835183826101000a81548161ffff021916908361ffff160217905550926020019260020160208160010104928301926001030261468d565b80156146fb5782816101000a81549061ffff02191690556002016020816001010492830192600103026146cd565b505b506147099291506147e0565b5090565b60405180606001604052806003905b6040805160a08101825260008082526020808301829052928201819052606082018190526080820152825260001990920191018161471c5790505090565b604080516101e08101825260008082526020820181905291810191909152606081016147846147f5565b81526020016000815260200160008152602001600060020b8152602001600060020b8152602001600060020b81526020016000815260200160008152602001600081526020016000815260200160008152602001600081525090565b5b8082111561470957600081556001016147e1565b60405180604001604052806002906020820280368337509192915050565b6000806040838503121561482657600080fd5b50508035926020909101359150565b6001600160a01b0381168114610a8f57600080fd5b634e487b7160e01b600052604160045260246000fd5b6040516101e0810167ffffffffffffffff811182821017156148845761488461484a565b60405290565b60405160a0810167ffffffffffffffff811182821017156148845761488461484a565b6040516060810167ffffffffffffffff811182821017156148845761488461484a565b60ff81168114610a8f57600080fd5b8035614672816148d0565b61ffff81168114610a8f57600080fd5b600082601f83011261490b57600080fd5b6040516040810181811067ffffffffffffffff8211171561492e5761492e61484a565b806040525080604084018581111561494557600080fd5b845b8181101561496857803561495a816148ea565b835260209283019201614947565b509195945050505050565b8060020b8114610a8f57600080fd5b803561467281614973565b600080600080600080600080888a036102e08112156149ab57600080fd5b89356149b681614835565b985060208a01356149c681614835565b975060408a01356149d681614835565b965060608a01356149e681614835565b955060808a01356149f681614835565b945060a08a0135614a0681614835565b935060c08a0135614a1681614835565b925061020060df1982011215614a2b57600080fd5b50614a34614860565b614a4060e08b016148df565b8152614a4f6101008b016148df565b6020820152614a616101208b016148df565b6040820152610140614a758c828d016148fa565b6060830152610180808c013560808401526101a0808d013560a08501526101c0614aa0818f01614982565b60c0860152614ab26101e08f01614982565b60e0860152614ac46102008f01614982565b6101008601526102208e01356101208601526102408e0135848601526102608e01356101608601526102808e0135838601526102a08e0135828601526102c08e01358186015250505050809150509295985092959890939650565b600060208284031215614b3157600080fd5b813561457181614835565b600060208284031215614b4e57600080fd5b5035919050565b6001600160801b0381168114610a8f57600080fd5b60006101e0808385031215614b7e57600080fd5b83601f840112614b8d57600080fd5b614b956148ad565b908301908085831115614ba757600080fd5b845b83811015614c295760a08188031215614bc25760008081fd5b614bca61488a565b8135614bd581614973565b8152602082810135614be681614973565b82820152604083810135614bf981614b55565b9083015260608381013590830152608080840135614c1681614973565b908301529084529092019160a001614ba9565b5095945050505050565b6101e08101818360005b6003811015614c9c5781518051600290810b8552602080830151820b818701526040808401516001600160801b0316908701526060808401519087015260809283015190910b9185019190915260a09093019290910190600101614c3d565b50505092915050565b60008060408385031215614cb857600080fd5b8235614cc381614835565b946020939093013593505050565b8060005b6002811015613d6357815161ffff16845260209384019390910190600101614cd5565b815160ff16815261020081016020830151614d18602084018260ff169052565b506040830151614d2d604084018260ff169052565b506060830151614d406060840182614cd1565b50608083015160a083015260a083015160c083015260c0830151614d6960e084018260020b9052565b5060e0830151610100614d808185018360020b9052565b8401519050610120614d968482018360020b9052565b8401516101408481019190915284015161016080850191909152840151610180808501919091528401516101a0808501919091528401516101c080850191909152909301516101e090920191909152919050565b60008060008060608587031215614e0057600080fd5b8435935060208501359250604085013567ffffffffffffffff80821115614e2657600080fd5b818701915087601f830112614e3a57600080fd5b813581811115614e4957600080fd5b886020828501011115614e5b57600080fd5b95989497505060200194505050565b600080600060608486031215614e7f57600080fd5b8335614e8a81614835565b95602085013595506040909401359392505050565b600060208284031215614eb157600080fd5b81356003811061457157600080fd5b6020808252825182820181905260009190848201906040850190845b81811015614f025783516001600160e01b03191683529284019291840191600101614edc565b50909695505050505050565b634e487b7160e01b600052601160045260246000fd5b808201808211156118a2576118a2614f0e565b805161467281614835565b600060208284031215614f5457600080fd5b815161457181614835565b8051801515811461467257600080fd5b600060208284031215614f8157600080fd5b61189f82614f5f565b634e487b7160e01b600052603260045260246000fd5b6000610100808385031215614fb457600080fd5b6040519081019067ffffffffffffffff82118183101715614fd757614fd761484a565b81604052835181526020840151602082015260408401516040820152606084015160608201526080840151608082015260a0840151915061501782614835565b8160a082015261502960c08501614f37565b60c082015260e084015160e0820152809250505092915050565b6001600160a01b039384168152919092166020820152604081019190915260600190565b634e487b7160e01b600052602160045260246000fd5b6001600160a01b0384811682528316602082015260608101600383106150b357634e487b7160e01b600052602160045260246000fd5b826040830152949350505050565b600080600080608085870312156150d757600080fd5b84516150e281614973565b60208601519094506150f381614973565b6040860151606090960151949790965092505050565b818103818111156118a2576118a2614f0e565b60006020828403121561512e57600080fd5b5051919050565b60006001820161514757615147614f0e565b5060010190565b634e487b7160e01b600052603160045260246000fd5b600080600080600060a0868803121561517c57600080fd5b855161518781614b55565b80955050602086015193506040860151925060608601516151a781614b55565b60808701519092506151b881614b55565b809150509295509295909350565b80820281158282048414176118a2576118a2614f0e565b634e487b7160e01b600052601260045260246000fd5b600082615202576152026151dd565b500490565b600181815b8085111561524257816000190482111561522857615228614f0e565b8085161561523557918102915b93841c939080029061520c565b509250929050565b600082615259575060016118a2565b81615266575060006118a2565b816001811461527c5760028114615286576152a2565b60019150506118a2565b60ff84111561529757615297614f0e565b50506001821b6118a2565b5060208310610133831016604e8410600b84101617156152c5575081810a6118a2565b6152cf8383615207565b80600019048211156152e3576152e3614f0e565b029392505050565b600061189f838361524a565b6000806040838503121561530a57600080fd5b505080516020909101519092909150565b6000806040838503121561532e57600080fd5b825161533981614b55565b602084015190925061534a81614b55565b809150509250929050565b600080600080600080600060e0888a03121561537057600080fd5b875161537b81614835565b602089015190975061538c81614973565b604089015190965061539d816148ea565b60608901519095506153ae816148ea565b60808901519094506153bf816148ea565b60a08901519093506153d0816148d0565b91506153de60c08901614f5f565b905092959891949750929550565b60005b838110156154075781810151838201526020016153ef565b50506000910152565b7f5f6465706c6f79506f736974696f6e2831293a206c697175696469747920697381526401018101d160dd1b6020820152600082516154568160258501602087016153ec565b9190910160250192915050565b6000815180845261547b8160208601602086016153ec565b601f01601f19169290920160200192915050565b60208152600061189f6020830184615463565b7f5f6465706c6f79506f736974696f6e2832293a206c697175696469747920697381526401018101d160dd1b6020820152600082516154568160258501602087016153ec565b6000600160ff1b82016154fd576154fd614f0e565b5060000390565b60008160020b627fffff19810361551d5761551d614f0e565b60000392915050565b600082615535576155356151dd565b500690565b60ff81811683821601908111156118a2576118a2614f0e565b60ff831681526040602082015260006141816040830184615463565b60018060a01b03861681528460020b60208201528360020b60408201526001600160801b038316606082015260a0608082015260006155b160a0830184615463565b979650505050505050565b6001600160a01b038281168282160390808211156155dc576155dc614f0e565b509291505056fe757064617465506f736974696f6e732828696e7432342c696e7432342c75696e743132382c75696e743235362c696e743234295b335d2963616c63756c6174654c6f616e466565732875696e743235362c75696e7432353629626f72726f7746726f6d466c6f6f7228616464726573732c75696e743235362c75696e7432353629a26469706673582212206bee2597b42b315d57cc9eb83edb6e9ea62b83cba731d10cf4c85b7769d04eb164736f6c63430008170033","linkReferences":{}},"methodIdentifiers":{"adaptiveSupply()":"ef5ddb31","afterPresale()":"899e8689","borrowFromFloor(address,uint256,uint256)":"d76b817a","burnTokens(uint256)":"6d1b229d","calculateLoanFees(uint256,uint256)":"ad66d3b3","defaultLoans()":"5f260855","factory()":"c45a0155","getAccumulatedFees()":"5df45a37","getActiveLoan(address)":"6010ba64","getCollateralAmount()":"315deeaa","getExcessReserveToken1()":"ffb938db","getFunctionSelectors()":"fd896f9d","getPositions()":"80275860","getProtocolAddresses()":"a1774da0","getProtocolParameters()":"c58aad87","getTimeSinceLastMint()":"dee02ffa","getUnderlyingBalances(uint8)":"f4a1a46d","getVaultInfo()":"7f98aa71","initialize(address,address,address,address,address,address,address,(uint8,uint8,uint8,uint16[2],uint256,uint256,int24,int24,int24,uint256,uint256,uint256,uint256,uint256,uint256))":"14cdce32","initializeLiquidity((int24,int24,uint128,uint256,int24)[3])":"7fd762af","mintTokens(address,uint256)":"f0dda65c","modelHelper()":"a3e44b33","paybackLoan(address)":"82a11834","pool()":"16f0115b","rollLoan(address,uint256)":"b331fdcb","setFees(uint256,uint256)":"0b78f9c0","teamMultiSig()":"854567f1","uniswapV3MintCallback(uint256,uint256,bytes)":"d3487997","updatePositions((int24,int24,uint128,uint256,int24)[3])":"95d7d0ad"},"id":129}