{"abi":[{"type":"function","name":"enforceSolvencyInvariant","inputs":[{"name":"_vault","type":"address","internalType":"address"}],"outputs":[],"stateMutability":"view"},{"type":"function","name":"getCirculatingSupply","inputs":[{"name":"pool","type":"address","internalType":"address"},{"name":"vault","type":"address","internalType":"address"}],"outputs":[{"name":"","type":"uint256","internalType":"uint256"}],"stateMutability":"view"},{"type":"function","name":"getExcessReserveBalance","inputs":[{"name":"pool","type":"address","internalType":"address"},{"name":"vault","type":"address","internalType":"address"},{"name":"isToken0","type":"bool","internalType":"bool"}],"outputs":[{"name":"","type":"uint256","internalType":"uint256"}],"stateMutability":"view"},{"type":"function","name":"getIntrinsicMinimumValue","inputs":[{"name":"_vault","type":"address","internalType":"address"}],"outputs":[{"name":"","type":"uint256","internalType":"uint256"}],"stateMutability":"view"},{"type":"function","name":"getLiquidityRatio","inputs":[{"name":"pool","type":"address","internalType":"address"},{"name":"vault","type":"address","internalType":"address"}],"outputs":[{"name":"liquidityRatio","type":"uint256","internalType":"uint256"}],"stateMutability":"view"},{"type":"function","name":"getPositionCapacity","inputs":[{"name":"pool","type":"address","internalType":"address"},{"name":"vault","type":"address","internalType":"address"},{"name":"position","type":"tuple","internalType":"struct LiquidityPosition","components":[{"name":"lowerTick","type":"int24","internalType":"int24"},{"name":"upperTick","type":"int24","internalType":"int24"},{"name":"liquidity","type":"uint128","internalType":"uint128"},{"name":"price","type":"uint256","internalType":"uint256"},{"name":"tickSpacing","type":"int24","internalType":"int24"}]},{"name":"liquidityType","type":"uint8","internalType":"enum LiquidityType"}],"outputs":[{"name":"amount0Current","type":"uint256","internalType":"uint256"}],"stateMutability":"view"},{"type":"function","name":"getTotalSupply","inputs":[{"name":"pool","type":"address","internalType":"address"},{"name":"isToken0","type":"bool","internalType":"bool"}],"outputs":[{"name":"totalSupply","type":"uint256","internalType":"uint256"}],"stateMutability":"view"},{"type":"function","name":"getUnderlyingBalances","inputs":[{"name":"pool","type":"address","internalType":"address"},{"name":"vault","type":"address","internalType":"address"},{"name":"liquidityType","type":"uint8","internalType":"enum LiquidityType"}],"outputs":[{"name":"","type":"int24","internalType":"int24"},{"name":"","type":"int24","internalType":"int24"},{"name":"","type":"uint256","internalType":"uint256"},{"name":"","type":"uint256","internalType":"uint256"}],"stateMutability":"view"},{"type":"function","name":"getVaultInfo","inputs":[{"name":"pool","type":"address","internalType":"address"},{"name":"vault","type":"address","internalType":"address"},{"name":"tokenInfo","type":"tuple","internalType":"struct TokenInfo","components":[{"name":"token0","type":"address","internalType":"address"},{"name":"token1","type":"address","internalType":"address"}]}],"outputs":[{"name":"vaultInfo","type":"tuple","internalType":"struct VaultInfo","components":[{"name":"liquidityRatio","type":"uint256","internalType":"uint256"},{"name":"circulatingSupply","type":"uint256","internalType":"uint256"},{"name":"spotPriceX96","type":"uint256","internalType":"uint256"},{"name":"anchorCapacity","type":"uint256","internalType":"uint256"},{"name":"floorCapacity","type":"uint256","internalType":"uint256"},{"name":"token0","type":"address","internalType":"address"},{"name":"token1","type":"address","internalType":"address"},{"name":"newFloor","type":"uint256","internalType":"uint256"}]}],"stateMutability":"view"},{"type":"error","name":"InsolvencyInvariant","inputs":[]},{"type":"error","name":"NoLiquidity","inputs":[]}],"bytecode":{"object":"0x608060405234801561001057600080fd5b50612c0a806100206000396000f3fe608060405234801561001057600080fd5b50600436106100935760003560e01c80636013be6d116100665780636013be6d1461011f5780638a3fecc914610132578063930cc12a146101b4578063a4dda1a2146101c9578063e1f00486146101dc57600080fd5b8063188b68461461009857806323c9deeb146100be578063280eabf4146100d15780632f10d976146100e4575b600080fd5b6100ab6100a636600461225c565b6101ef565b6040519081526020015b60405180910390f35b6100ab6100cc3660046122a7565b6103c4565b6100ab6100df36600461237a565b6106a3565b6100f76100f2366004612436565b61081b565b60408051600295860b81529390940b60208401529282015260608101919091526080016100b5565b6100ab61012d36600461247d565b610967565b61014561014036600461249a565b610a6d565b6040516100b59190600061010082019050825182526020830151602083015260408301516040830152606083015160608301526080830151608083015260a083015160018060a01b0380821660a08501528060c08601511660c0850152505060e083015160e083015292915050565b6101c76101c236600461247d565b610a88565b005b6100ab6101d73660046122a7565b610b31565b6100ab6101ea366004612535565b610fa9565b6000808261025e57846001600160a01b031663d21220a76040518163ffffffff1660e01b8152600401602060405180830381865afa158015610235573d6000803e3d6000fd5b505050506040513d601f19601f82011682018060405250810190610259919061256e565b6102c0565b846001600160a01b0316630dfe16816040518163ffffffff1660e01b8152600401602060405180830381865afa15801561029c573d6000803e3d6000fd5b505050506040513d601f19601f820116820180604052508101906102c0919061256e565b6040516370a0823160e01b81526001600160a01b0386811660048301529192506000918316906370a0823190602401602060405180830381865afa15801561030c573d6000803e3d6000fd5b505050506040513d601f19601f82011682018060405250810190610330919061258b565b9050600080866001600160a01b0316635df45a376040518163ffffffff1660e01b81526004016040805180830381865afa158015610372573d6000803e3d6000fd5b505050506040513d601f19601f8201168201806040525081019061039691906125a4565b915091506000866103a757816103a9565b825b90506103b581856125de565b955050505050505b9392505050565b600080826001600160a01b031663802758606040518163ffffffff1660e01b81526004016101e060405180830381865afa158015610406573d6000803e3d6000fd5b505050506040513d601f19601f8201168201806040525081019061042a91906125f1565b90506000846001600160a01b0316633850c7bd6040518163ffffffff1660e01b815260040160e060405180830381865afa15801561046c573d6000803e3d6000fd5b505050506040513d601f19601f8201168201806040525081019061049091906126e8565b50505050505090506000856001600160a01b0316630dfe16816040518163ffffffff1660e01b8152600401602060405180830381865afa1580156104d8573d6000803e3d6000fd5b505050506040513d601f19601f820116820180604052508101906104fc919061256e565b6001600160a01b031663313ce5676040518163ffffffff1660e01b8152600401602060405180830381865afa158015610539573d6000803e3d6000fd5b505050506040513d601f19601f8201168201806040525081019061055d9190612777565b9050600073__$00856c2daf1848075e4d6b3791a97a7365$__63b7df07b361058f8660016020020151602001516110da565b6040516001600160e01b031960e084901b1681526001600160a01b03909116600482015260ff85166024820152604401602060405180830381865af41580156105dc573d6000803e3d6000fd5b505050506040513d601f19601f82011682018060405250810190610600919061258b565b60405163b7df07b360e01b81526001600160a01b038516600482015260ff8416602482015290915060009073__$00856c2daf1848075e4d6b3791a97a7365$__9063b7df07b390604401602060405180830381865af4158015610667573d6000803e3d6000fd5b505050506040513d601f19601f8201168201806040525081019061068b919061258b565b905061069782826110e5565b98975050505050505050565b600080856001600160a01b031663514ea4bf86866000015187602001516040516020016106d2939291906127a8565b604051602081830303815290604052805190602001206040518263ffffffff1660e01b815260040161070691815260200190565b60a060405180830381865afa158015610723573d6000803e3d6000fd5b505050506040513d601f19601f8201168201806040525081019061074791906127d6565b5050505090506000816001600160801b031611156107855761078261076f8560000151611108565b61077c8660200151611108565b83611525565b91505b600083600281111561079957610799612838565b03610812576000856001600160a01b031663315deeaa6040518163ffffffff1660e01b8152600401602060405180830381865afa1580156107de573d6000803e3d6000fd5b505050506040513d601f19601f82011682018060405250810190610802919061258b565b905061080e818461284e565b9250505b50949350505050565b6000806000806000866001600160a01b031663802758606040518163ffffffff1660e01b81526004016101e060405180830381865afa158015610862573d6000803e3d6000fd5b505050506040513d601f19601f8201168201806040525081019061088691906125f1565b6040805160a08101825260008082526020820181905291810182905260608101829052608081018290529192508760028111156108c5576108c5612838565b036108da578160005b6020020151905061091b565b60018760028111156108ee576108ee612838565b036108fb578160016108ce565b600287600281111561090f5761090f612838565b0361091b575060408101515b80604001516001600160801b031660000361094957604051636180f03f60e11b815260040160405180910390fd5b610954898983611598565b9550955095509550505093509350935093565b600080826001600160a01b031663802758606040518163ffffffff1660e01b81526004016101e060405180830381865afa1580156109a9573d6000803e3d6000fd5b505050506040513d601f19601f820116820180604052508101906109cd91906125f1565b80515190915060006109de826110da565b60405163b7df07b360e01b81526001600160a01b03821660048201526012602482015290915073__$00856c2daf1848075e4d6b3791a97a7365$__9063b7df07b390604401602060405180830381865af4158015610a40573d6000803e3d6000fd5b505050506040513d601f19601f82011682018060405250810190610a64919061258b565b95945050505050565b610a756121df565b610a80848484611706565b949350505050565b6000816001600160a01b0316637f98aa716040518163ffffffff1660e01b815260040161010060405180830381865afa158015610ac9573d6000803e3d6000fd5b505050506040513d601f19601f82011682018060405250810190610aed9190612861565b602081015160608201516080830151929350909182610b0c828461284e565b11610b2a576040516306e4305160e31b815260040160405180910390fd5b5050505050565b600080826001600160a01b031663802758606040518163ffffffff1660e01b81526004016101e060405180830381865afa158015610b73573d6000803e3d6000fd5b505050506040513d601f19601f82011682018060405250810190610b9791906125f1565b90506000846001600160a01b0316630dfe16816040518163ffffffff1660e01b8152600401602060405180830381865afa158015610bd9573d6000803e3d6000fd5b505050506040513d601f19601f82011682018060405250810190610bfd919061256e565b6001600160a01b03166318160ddd6040518163ffffffff1660e01b8152600401602060405180830381865afa158015610c3a573d6000803e3d6000fd5b505050506040513d601f19601f82011682018060405250810190610c5e919061258b565b90506000610c74868685845b6020020151611598565b50925060009150610c8a90508787866001610c6a565b50925060009150610ca090508888876002610c6a565b50925050506000886001600160a01b0316630dfe16816040518163ffffffff1660e01b8152600401602060405180830381865afa158015610ce5573d6000803e3d6000fd5b505050506040513d601f19601f82011682018060405250810190610d09919061256e565b6040516370a0823160e01b81526001600160a01b038a8116600483015291909116906370a0823190602401602060405180830381865afa158015610d51573d6000803e3d6000fd5b505050506040513d601f19601f82011682018060405250810190610d75919061258b565b90506000886001600160a01b0316638e68dce46040518163ffffffff1660e01b8152600401602060405180830381865afa158015610db7573d6000803e3d6000fd5b505050506040513d601f19601f82011682018060405250810190610ddb919061256e565b905060006001600160a01b038216610df4576000610ec2565b8a6001600160a01b0316630dfe16816040518163ffffffff1660e01b8152600401602060405180830381865afa158015610e32573d6000803e3d6000fd5b505050506040513d601f19601f82011682018060405250810190610e56919061256e565b6040516370a0823160e01b81526001600160a01b03848116600483015291909116906370a0823190602401602060405180830381865afa158015610e9e573d6000803e3d6000fd5b505050506040513d601f19601f82011682018060405250810190610ec2919061258b565b905060008b6001600160a01b0316633850c7bd6040518163ffffffff1660e01b815260040160e060405180830381865afa158015610f04573d6000803e3d6000fd5b505050506040513d601f19601f82011682018060405250810190610f2891906126e8565b50505050505090506000610f5f8a600060038110610f4857610f48612792565b60200201518d8f6001610f5a876118d9565b611c13565b9050808587610f6e8a8c61284e565b610f78919061284e565b610f82919061284e565b610f8c919061284e565b610f96908a6125de565b9a50505050505050505050505b92915050565b60008161101757826001600160a01b031663d21220a76040518163ffffffff1660e01b8152600401602060405180830381865afa158015610fee573d6000803e3d6000fd5b505050506040513d601f19601f82011682018060405250810190611012919061256e565b611079565b826001600160a01b0316630dfe16816040518163ffffffff1660e01b8152600401602060405180830381865afa158015611055573d6000803e3d6000fd5b505050506040513d601f19601f82011682018060405250810190611079919061256e565b6001600160a01b03166318160ddd6040518163ffffffff1660e01b8152600401602060405180830381865afa1580156110b6573d6000803e3d6000fd5b505050506040513d601f19601f820116820180604052508101906103bd919061258b565b6000610fa382611108565b6000816110f46012600a6129e8565b6110fe90856129f4565b6103bd9190612a21565b60008060008360020b1261111f578260020b61112c565b8260020b61112c90612a35565b905061113b620d89e719612a51565b60020b8111156111765760405162461bcd60e51b81526020600482015260016024820152601560fa1b60448201526064015b60405180910390fd5b60008160011660000361118d57600160801b61119f565b6ffffcb933bd6fad37aa2d162d1a5940015b70ffffffffffffffffffffffffffffffffff16905060028216156111de5760806111d9826ffff97272373d413259a46990580e213a6129f4565b901c90505b6004821615611208576080611203826ffff2e50f5f656932ef12357cf3c7fdcc6129f4565b901c90505b600882161561123257608061122d826fffe5caca7e10e4e61c3624eaa0941cd06129f4565b901c90505b601082161561125c576080611257826fffcb9843d60f6159c9db58835c9266446129f4565b901c90505b6020821615611286576080611281826fff973b41fa98c081472e6896dfb254c06129f4565b901c90505b60408216156112b05760806112ab826fff2ea16466c96a3843ec78b326b528616129f4565b901c90505b60808216156112da5760806112d5826ffe5dee046a99a2a811c461f1969c30536129f4565b901c90505b610100821615611305576080611300826ffcbe86c7900a88aedcffc83b479aa3a46129f4565b901c90505b61020082161561133057608061132b826ff987a7253ac413176f2b074cf7815e546129f4565b901c90505b61040082161561135b576080611356826ff3392b0822b70005940c7a398e4b70f36129f4565b901c90505b610800821615611386576080611381826fe7159475a2c29b7443b29c7fa6e889d96129f4565b901c90505b6110008216156113b15760806113ac826fd097f3bdfd2022b8845ad8f792aa58256129f4565b901c90505b6120008216156113dc5760806113d7826fa9f746462d870fdf8a65dc1f90e061e56129f4565b901c90505b614000821615611407576080611402826f70d869a156d2a1b890bb3df62baf32f76129f4565b901c90505b61800082161561143257608061142d826f31be135f97d08fd981231505542fcfa66129f4565b901c90505b6201000082161561145e576080611459826f09aa508b5b7a84e1c677de54f3e99bc96129f4565b901c90505b62020000821615611489576080611484826e5d6af8dedb81196699c329225ee6046129f4565b901c90505b620400008216156114b35760806114ae826d2216e584f5fa1ea926041bedfe986129f4565b901c90505b620800008216156114db5760806114d6826b048a170391f7dc42444e8fa26129f4565b901c90505b60008460020b13156114f6576114f381600019612a21565b90505b61150564010000000082612a73565b15611511576001611514565b60005b610a809060ff16602083901c61284e565b6000826001600160a01b0316846001600160a01b03161115611545579192915b6001600160a01b03841661158e6fffffffffffffffffffffffffffffffff60601b606085901b166115768787612a87565b6001600160a01b0316866001600160a01b031661204b565b610a809190612a21565b6000806000806000876001600160a01b0316633850c7bd6040518163ffffffff1660e01b815260040160e060405180830381865afa1580156115de573d6000803e3d6000fd5b505050506040513d601f19601f8201168201806040525081019061160291906126e8565b50505050505090506000886001600160a01b031663514ea4bf8989600001518a60200151604051602001611638939291906127a8565b604051602081830303815290604052805190602001206040518263ffffffff1660e01b815260040161166c91815260200190565b60a060405180830381865afa158015611689573d6000803e3d6000fd5b505050506040513d601f19601f820116820180604052508101906116ad91906127d6565b5050505090506000816001600160801b031611156116fb576116e9826116d68960000151611108565b6116e38a60200151611108565b846120f9565b885160208a0151909850965090945092505b505093509350935093565b61170e6121df565b6000836001600160a01b031663802758606040518163ffffffff1660e01b81526004016101e060405180830381865afa15801561174f573d6000803e3d6000fd5b505050506040513d601f19601f8201168201806040525081019061177391906125f1565b90506000856001600160a01b0316633850c7bd6040518163ffffffff1660e01b815260040160e060405180830381865afa1580156117b5573d6000803e3d6000fd5b505050506040513d601f19601f820116820180604052508101906117d991906126e8565b50505050505090506117eb86866103c4565b83526117f78686610b31565b602084015260405163b7df07b360e01b81526001600160a01b03821660048201526012602482015273__$00856c2daf1848075e4d6b3791a97a7365$__9063b7df07b390604401602060405180830381865af415801561185b573d6000803e3d6000fd5b505050506040513d601f19601f8201168201806040525081019061187f919061258b565b60408401526118988686846001602002015160016106a3565b606084015281516118ae908790879060006106a3565b6080840152505081516001600160a01b0390811660a083015260208301511660c08201529392505050565b60006401000276a36001600160a01b03831610801590611915575073fffd8963efd1fc6a506488495d951d5263988d266001600160a01b038316105b6119455760405162461bcd60e51b81526020600482015260016024820152602960f91b604482015260640161116d565b640100000000600160c01b03602083901b166001600160801b03811160071b81811c67ffffffffffffffff811160061b90811c63ffffffff811160051b90811c61ffff811160041b90811c60ff8111600390811b91821c600f811160021b90811c918211600190811b92831c979088119617909417909217179091171717608081106119e0576119d6607f826125de565b83901c91506119f1565b6119eb81607f6125de565b83901b91505b60006040611a00608084612aae565b901b9050828302607f1c92508260801c80603f1b8217915083811c935050828302607f1c92508260801c80603e1b8217915083811c935050828302607f1c92508260801c80603d1b8217915083811c935050828302607f1c92508260801c80603c1b8217915083811c935050828302607f1c92508260801c80603b1b8217915083811c935050828302607f1c92508260801c80603a1b8217915083811c935050828302607f1c92508260801c8060391b8217915083811c935050828302607f1c92508260801c8060381b8217915083811c935050828302607f1c92508260801c8060371b8217915083811c935050828302607f1c92508260801c8060361b8217915083811c935050828302607f1c92508260801c8060351b8217915083811c935050828302607f1c92508260801c8060341b8217915083811c935050828302607f1c92508260801c8060331b8217915083811c935050828302607f1c92508260801c8060321b8217915050600081693627a301d71055774c85611b839190612ace565b905060006080611ba36f028f6481ab7f045a5af012a19d003aaa84612aae565b901d905060006080611bc5846fdb2df09e81959a81455e260799a0632f612afe565b901d90508060020b8260020b14611c0457886001600160a01b0316611be982611108565b6001600160a01b03161115611bfe5781611c06565b80611c06565b815b9998505050505050505050565b6000806000806000806000896001600160a01b031663514ea4bf8c8e600001518f60200151604051602001611c4a939291906127a8565b604051602081830303815290604052805190602001206040518263ffffffff1660e01b8152600401611c7e91815260200190565b60a060405180830381865afa158015611c9b573d6000803e3d6000fd5b505050506040513d601f19601f82011682018060405250810190611cbf91906127d6565b50509250925092508815611e4f57896001600160a01b031663f30583996040518163ffffffff1660e01b8152600401602060405180830381865afa158015611d0b573d6000803e3d6000fd5b505050506040513d601f19601f82011682018060405250810190611d2f919061258b565b8c5160405163f30dba9360e01b815260029190910b60048201529094506001600160a01b038b169063f30dba939060240161010060405180830381865afa158015611d7e573d6000803e3d6000fd5b505050506040513d601f19601f82011682018060405250810190611da29190612b26565b90919293949596509091929394955090919293509091925090915090505080965050896001600160a01b031663f30dba938d602001516040518263ffffffff1660e01b8152600401611dfd919060029190910b815260200190565b61010060405180830381865afa158015611e1b573d6000803e3d6000fd5b505050506040513d601f19601f82011682018060405250810190611e3f9190612b26565b50939a50611fcd95505050505050565b896001600160a01b031663461413196040518163ffffffff1660e01b8152600401602060405180830381865afa158015611e8d573d6000803e3d6000fd5b505050506040513d601f19601f82011682018060405250810190611eb1919061258b565b8c5160405163f30dba9360e01b815260029190910b60048201529094506001600160a01b038b169063f30dba939060240161010060405180830381865afa158015611f00573d6000803e3d6000fd5b505050506040513d601f19601f82011682018060405250810190611f249190612b26565b9091929394959650909192939495509091929394509091925090915090505080965050896001600160a01b031663f30dba938d602001516040518263ffffffff1660e01b8152600401611f80919060029190910b815260200190565b61010060405180830381865afa158015611f9e573d6000803e3d6000fd5b505050506040513d601f19601f82011682018060405250810190611fc29190612b26565b50929a505050505050505b60008c6000015160020b8960020b12611fe7575085611fec565b508584035b60008d6020015160020b8a60020b121561200757508561200c565b508585035b8186038190036120386001600160801b0387168d61202a578561202c565b865b8303600160801b61204b565b9f9e505050505050505050505050505050565b6000808060001985870985870292508281108382030391505080600003612084576000841161207957600080fd5b5082900490506103bd565b80841161209057600080fd5b60008486880960026001871981018816978890046003810283188082028403028082028403028082028403028082028403028082028403029081029092039091026000889003889004909101858311909403939093029303949094049190911702949350505050565b600080836001600160a01b0316856001600160a01b0316111561211a579293925b846001600160a01b0316866001600160a01b0316116121455761213e858585611525565b915061218c565b836001600160a01b0316866001600160a01b0316101561217e5761216a868585611525565b9150612177858785612195565b905061218c565b612189858585612195565b90505b94509492505050565b6000826001600160a01b0316846001600160a01b031611156121b5579192915b610a806001600160801b0383166121cc8686612a87565b6001600160a01b0316600160601b61204b565b604051806101000160405280600081526020016000815260200160008152602001600081526020016000815260200160006001600160a01b0316815260200160006001600160a01b03168152602001600081525090565b6001600160a01b038116811461224b57600080fd5b50565b801515811461224b57600080fd5b60008060006060848603121561227157600080fd5b833561227c81612236565b9250602084013561228c81612236565b9150604084013561229c8161224e565b809150509250925092565b600080604083850312156122ba57600080fd5b82356122c581612236565b915060208301356122d581612236565b809150509250929050565b634e487b7160e01b600052604160045260246000fd5b60405160a0810167ffffffffffffffff81118282101715612319576123196122e0565b60405290565b6040516060810167ffffffffffffffff81118282101715612319576123196122e0565b8060020b811461224b57600080fd5b6001600160801b038116811461224b57600080fd5b80356003811061237557600080fd5b919050565b60008060008084860361010081121561239257600080fd5b853561239d81612236565b945060208601356123ad81612236565b935060a0603f19820112156123c157600080fd5b506123ca6122f6565b60408601356123d881612342565b815260608601356123e881612342565b602082015260808601356123fb81612351565b604082015260a0860135606082015260c086013561241881612342565b6080820152915061242b60e08601612366565b905092959194509250565b60008060006060848603121561244b57600080fd5b833561245681612236565b9250602084013561246681612236565b915061247460408501612366565b90509250925092565b60006020828403121561248f57600080fd5b81356103bd81612236565b600080600083850360808112156124b057600080fd5b84356124bb81612236565b935060208501356124cb81612236565b92506040603f19820112156124df57600080fd5b506040516040810181811067ffffffffffffffff82111715612503576125036122e0565b604090815285013561251481612236565b8152606085013561252481612236565b602082015292959194509192509050565b6000806040838503121561254857600080fd5b823561255381612236565b915060208301356122d58161224e565b805161237581612236565b60006020828403121561258057600080fd5b81516103bd81612236565b60006020828403121561259d57600080fd5b5051919050565b600080604083850312156125b757600080fd5b505080516020909101519092909150565b634e487b7160e01b600052601160045260246000fd5b81810381811115610fa357610fa36125c8565b60006101e080838503121561260557600080fd5b83601f84011261261457600080fd5b61261c61231f565b90830190808583111561262e57600080fd5b845b838110156126b05760a081880312156126495760008081fd5b6126516122f6565b815161265c81612342565b815260208281015161266d81612342565b8282015260408381015161268081612351565b908301526060838101519083015260808084015161269d81612342565b908301529084529092019160a001612630565b5095945050505050565b805161ffff8116811461237557600080fd5b805160ff8116811461237557600080fd5b80516123758161224e565b600080600080600080600060e0888a03121561270357600080fd5b875161270e81612236565b602089015190975061271f81612342565b955061272d604089016126ba565b945061273b606089016126ba565b9350612749608089016126ba565b925061275760a089016126cc565b915060c08801516127678161224e565b8091505092959891949750929550565b60006020828403121561278957600080fd5b6103bd826126cc565b634e487b7160e01b600052603260045260246000fd5b60609390931b6bffffffffffffffffffffffff1916835260e891821b6014840152901b6017820152601a0190565b600080600080600060a086880312156127ee57600080fd5b85516127f981612351565b809550506020860151935060408601519250606086015161281981612351565b608087015190925061282a81612351565b809150509295509295909350565b634e487b7160e01b600052602160045260246000fd5b80820180821115610fa357610fa36125c8565b600061010080838503121561287557600080fd5b6040519081019067ffffffffffffffff82118183101715612898576128986122e0565b81604052835181526020840151602082015260408401516040820152606084015160608201526080840151608082015260a084015191506128d882612236565b8160a08201526128ea60c08501612563565b60c082015260e084015160e0820152809250505092915050565b600181815b8085111561293f578160001904821115612925576129256125c8565b8085161561293257918102915b93841c9390800290612909565b509250929050565b60008261295657506001610fa3565b8161296357506000610fa3565b816001811461297957600281146129835761299f565b6001915050610fa3565b60ff841115612994576129946125c8565b50506001821b610fa3565b5060208310610133831016604e8410600b84101617156129c2575081810a610fa3565b6129cc8383612904565b80600019048211156129e0576129e06125c8565b029392505050565b60006103bd8383612947565b8082028115828204841417610fa357610fa36125c8565b634e487b7160e01b600052601260045260246000fd5b600082612a3057612a30612a0b565b500490565b6000600160ff1b8201612a4a57612a4a6125c8565b5060000390565b60008160020b627fffff198103612a6a57612a6a6125c8565b60000392915050565b600082612a8257612a82612a0b565b500690565b6001600160a01b03828116828216039080821115612aa757612aa76125c8565b5092915050565b8181036000831280158383131683831282161715612aa757612aa76125c8565b80820260008212600160ff1b84141615612aea57612aea6125c8565b8181058314821517610fa357610fa36125c8565b8082018281126000831280158216821582161715612b1e57612b1e6125c8565b505092915050565b600080600080600080600080610100898b031215612b4357600080fd5b8851612b4e81612351565b80985050602089015180600f0b8114612b6657600080fd5b80975050604089015195506060890151945060808901518060060b8114612b8c57600080fd5b60a08a0151909450612b9d81612236565b60c08a015190935063ffffffff81168114612bb757600080fd5b9150612bc560e08a016126dd565b9050929598509295989093965056fea26469706673582212200c0b7ac22f6cddeecd0ae8da4619090058b9cbd26bbfc5d2babcae25842b2a2764736f6c63430008170033","linkReferences":{"src/libraries/Conversions.sol":{"Conversions":[{"start":1411,"length":20},{"start":1613,"length":20},{"start":2598,"length":20},{"start":6209,"length":20}]}}},"methodIdentifiers":{"enforceSolvencyInvariant(address)":"930cc12a","getCirculatingSupply(address,address)":"a4dda1a2","getExcessReserveBalance(address,address,bool)":"188b6846","getIntrinsicMinimumValue(address)":"6013be6d","getLiquidityRatio(address,address)":"23c9deeb","getPositionCapacity(address,address,(int24,int24,uint128,uint256,int24),uint8)":"280eabf4","getTotalSupply(address,bool)":"e1f00486","getUnderlyingBalances(address,address,uint8)":"2f10d976","getVaultInfo(address,address,(address,address))":"8a3fecc9"},"id":115}