{"abi":[{"type":"constructor","inputs":[{"name":"_uniswapV3Factory","type":"address","internalType":"address"},{"name":"_resolver","type":"address","internalType":"address"},{"name":"_deployerFactory","type":"address","internalType":"address"},{"name":"_extFactory","type":"address","internalType":"address"},{"name":"_presaleFactory","type":"address","internalType":"address"}],"stateMutability":"nonpayable"},{"type":"function","name":"adaptiveSupply","inputs":[],"outputs":[{"name":"","type":"address","internalType":"address"}],"stateMutability":"view"},{"type":"function","name":"burnFor","inputs":[{"name":"from","type":"address","internalType":"address"},{"name":"amount","type":"uint256","internalType":"uint256"}],"outputs":[],"stateMutability":"nonpayable"},{"type":"function","name":"deferredDeploy","inputs":[{"name":"_deployerContract","type":"address","internalType":"address"}],"outputs":[],"stateMutability":"nonpayable"},{"type":"function","name":"deployVault","inputs":[{"name":"presaleParams","type":"tuple","internalType":"struct PresaleUserParams","components":[{"name":"softCap","type":"uint256","internalType":"uint256"},{"name":"deadline","type":"uint256","internalType":"uint256"}]},{"name":"vaultDeployParams","type":"tuple","internalType":"struct VaultDeployParams","components":[{"name":"name","type":"string","internalType":"string"},{"name":"symbol","type":"string","internalType":"string"},{"name":"decimals","type":"uint8","internalType":"uint8"},{"name":"initialSupply","type":"uint256","internalType":"uint256"},{"name":"maxTotalSupply","type":"uint256","internalType":"uint256"},{"name":"IDOPrice","type":"uint256","internalType":"uint256"},{"name":"floorPrice","type":"uint256","internalType":"uint256"},{"name":"token1","type":"address","internalType":"address"},{"name":"feeTier","type":"uint24","internalType":"uint24"},{"name":"presale","type":"uint8","internalType":"uint8"}]}],"outputs":[{"name":"","type":"address","internalType":"address"},{"name":"","type":"address","internalType":"address"},{"name":"","type":"address","internalType":"address"}],"stateMutability":"payable"},{"type":"function","name":"getDeployers","inputs":[],"outputs":[{"name":"","type":"address[]","internalType":"address[]"}],"stateMutability":"view"},{"type":"function","name":"getPresaleProtocolParams","inputs":[],"outputs":[{"name":"","type":"tuple","internalType":"struct PresaleProtocolParams","components":[{"name":"maxSoftCap","type":"uint256","internalType":"uint256"},{"name":"minContributionRatio","type":"uint256","internalType":"uint256"},{"name":"maxContributionRatio","type":"uint256","internalType":"uint256"},{"name":"presalePercentage","type":"uint256","internalType":"uint256"},{"name":"minDuration","type":"uint256","internalType":"uint256"},{"name":"maxDuration","type":"uint256","internalType":"uint256"},{"name":"referralPercentage","type":"uint256","internalType":"uint256"},{"name":"teamFee","type":"uint256","internalType":"uint256"}]}],"stateMutability":"view"},{"type":"function","name":"getProtocolParameters","inputs":[],"outputs":[{"name":"","type":"tuple","internalType":"struct ProtocolParameters","components":[{"name":"floorPercentage","type":"uint8","internalType":"uint8"},{"name":"anchorPercentage","type":"uint8","internalType":"uint8"},{"name":"idoPriceMultiplier","type":"uint8","internalType":"uint8"},{"name":"floorBips","type":"uint16[2]","internalType":"uint16[2]"},{"name":"shiftRatio","type":"uint256","internalType":"uint256"},{"name":"slideRatio","type":"uint256","internalType":"uint256"},{"name":"discoveryBips","type":"int24","internalType":"int24"},{"name":"shiftAnchorUpperBips","type":"int24","internalType":"int24"},{"name":"slideAnchorUpperBips","type":"int24","internalType":"int24"},{"name":"lowBalanceThresholdFactor","type":"uint256","internalType":"uint256"},{"name":"highBalanceThresholdFactor","type":"uint256","internalType":"uint256"},{"name":"inflationFee","type":"uint256","internalType":"uint256"},{"name":"loanFee","type":"uint256","internalType":"uint256"},{"name":"deployFee","type":"uint256","internalType":"uint256"},{"name":"presalePremium","type":"uint256","internalType":"uint256"}]}],"stateMutability":"view"},{"type":"function","name":"getVaultDescription","inputs":[{"name":"_deployer","type":"address","internalType":"address"}],"outputs":[{"name":"","type":"tuple","internalType":"struct VaultDescription","components":[{"name":"tokenName","type":"string","internalType":"string"},{"name":"tokenSymbol","type":"string","internalType":"string"},{"name":"tokenDecimals","type":"uint8","internalType":"uint8"},{"name":"token0","type":"address","internalType":"address"},{"name":"token1","type":"address","internalType":"address"},{"name":"deployer","type":"address","internalType":"address"},{"name":"vault","type":"address","internalType":"address"},{"name":"presaleContract","type":"address","internalType":"address"},{"name":"stakingContract","type":"address","internalType":"address"}]}],"stateMutability":"view"},{"type":"function","name":"getVaults","inputs":[{"name":"_deployer","type":"address","internalType":"address"}],"outputs":[{"name":"","type":"address[]","internalType":"address[]"}],"stateMutability":"view"},{"type":"function","name":"mintTokens","inputs":[{"name":"to","type":"address","internalType":"address"},{"name":"amount","type":"uint256","internalType":"uint256"}],"outputs":[],"stateMutability":"nonpayable"},{"type":"function","name":"modelHelper","inputs":[],"outputs":[{"name":"","type":"address","internalType":"address"}],"stateMutability":"view"},{"type":"function","name":"numDeployers","inputs":[],"outputs":[{"name":"","type":"uint256","internalType":"uint256"}],"stateMutability":"view"},{"type":"function","name":"numVaults","inputs":[{"name":"_deployer","type":"address","internalType":"address"}],"outputs":[{"name":"","type":"uint256","internalType":"uint256"}],"stateMutability":"view"},{"type":"function","name":"owner","inputs":[],"outputs":[{"name":"","type":"address","internalType":"address"}],"stateMutability":"view"},{"type":"function","name":"setMultiSigAddress","inputs":[{"name":"_address","type":"address","internalType":"address"}],"outputs":[],"stateMutability":"nonpayable"},{"type":"function","name":"setPermissionlessDeploy","inputs":[{"name":"_flag","type":"bool","internalType":"bool"}],"outputs":[],"stateMutability":"nonpayable"},{"type":"function","name":"setPresaleProtocolParams","inputs":[{"name":"_params","type":"tuple","internalType":"struct PresaleProtocolParams","components":[{"name":"maxSoftCap","type":"uint256","internalType":"uint256"},{"name":"minContributionRatio","type":"uint256","internalType":"uint256"},{"name":"maxContributionRatio","type":"uint256","internalType":"uint256"},{"name":"presalePercentage","type":"uint256","internalType":"uint256"},{"name":"minDuration","type":"uint256","internalType":"uint256"},{"name":"maxDuration","type":"uint256","internalType":"uint256"},{"name":"referralPercentage","type":"uint256","internalType":"uint256"},{"name":"teamFee","type":"uint256","internalType":"uint256"}]}],"outputs":[],"stateMutability":"nonpayable"},{"type":"function","name":"setProtocolParameters","inputs":[{"name":"_params","type":"tuple","internalType":"struct ProtocolParameters","components":[{"name":"floorPercentage","type":"uint8","internalType":"uint8"},{"name":"anchorPercentage","type":"uint8","internalType":"uint8"},{"name":"idoPriceMultiplier","type":"uint8","internalType":"uint8"},{"name":"floorBips","type":"uint16[2]","internalType":"uint16[2]"},{"name":"shiftRatio","type":"uint256","internalType":"uint256"},{"name":"slideRatio","type":"uint256","internalType":"uint256"},{"name":"discoveryBips","type":"int24","internalType":"int24"},{"name":"shiftAnchorUpperBips","type":"int24","internalType":"int24"},{"name":"slideAnchorUpperBips","type":"int24","internalType":"int24"},{"name":"lowBalanceThresholdFactor","type":"uint256","internalType":"uint256"},{"name":"highBalanceThresholdFactor","type":"uint256","internalType":"uint256"},{"name":"inflationFee","type":"uint256","internalType":"uint256"},{"name":"loanFee","type":"uint256","internalType":"uint256"},{"name":"deployFee","type":"uint256","internalType":"uint256"},{"name":"presalePremium","type":"uint256","internalType":"uint256"}]}],"outputs":[],"stateMutability":"nonpayable"},{"type":"function","name":"teamMultiSig","inputs":[],"outputs":[{"name":"","type":"address","internalType":"address"}],"stateMutability":"view"},{"type":"function","name":"tokenFactory","inputs":[],"outputs":[{"name":"","type":"address","internalType":"address"}],"stateMutability":"view"},{"type":"function","name":"upgradeToken","inputs":[{"name":"_token","type":"address","internalType":"address"},{"name":"_newImplementation","type":"address","internalType":"address"}],"outputs":[],"stateMutability":"nonpayable"},{"type":"error","name":"InvalidDecimals","inputs":[]},{"type":"error","name":"InvalidFeeTier","inputs":[]},{"type":"error","name":"InvalidParameters","inputs":[]},{"type":"error","name":"InvalidSymbol","inputs":[]},{"type":"error","name":"NotAuthorityError","inputs":[]},{"type":"error","name":"OnlyVaultsError","inputs":[]},{"type":"error","name":"SafeERC20FailedOperation","inputs":[{"name":"token","type":"address","internalType":"address"}]},{"type":"error","name":"SupplyTransferError","inputs":[]},{"type":"error","name":"TokenAlreadyExistsError","inputs":[]},{"type":"error","name":"ZeroAddressError","inputs":[]}],"bytecode":{"object":"0x60806040526001805460ff60a01b191690553480156200001d575f80fd5b506040516200481b3803806200481b833981016040819052620000409162000155565b6001600160a01b03851615806200005e57506001600160a01b038416155b806200007157506001600160a01b038316155b806200008457506001600160a01b038216155b806200009757506001600160a01b038116155b15620000b657604051633efa09af60e01b815260040160405180910390fd5b60058054336001600160a01b031991821681179092556007805482169092179091556006805482166001600160a01b039788161790555f8054821695871695909517909455600380548516938616939093179092556004805484169185169190911790556002805490921692169190911790556009805460ff19169055620001c1565b80516001600160a01b038116811462000150575f80fd5b919050565b5f805f805f60a086880312156200016a575f80fd5b620001758662000139565b9450620001856020870162000139565b9350620001956040870162000139565b9250620001a56060870162000139565b9150620001b56080870162000139565b90509295509295909350565b61464c80620001cf5f395ff3fe608060405260043610610126575f3560e01c8063854567f1116100a8578063e77772fe1161006d578063e77772fe1461033f578063ee4a3e3714610353578063ef5ddb3114610372578063f0dda65c14610386578063f9c7bba5146103a5578063fe7c9c92146103c4575f80fd5b8063854567f11461029d5780638da5cb5b146102ce578063a3e44b33146102eb578063a879b078146102ff578063c58aad871461031e575f80fd5b806352f882fe116100ee57806352f882fe146101e057806355b8ce0a1461021d578063607c12b51461023c578063615de71f1461025d5780637d19a2cb1461027e575f80fd5b80630337c57a1461012a578063077f2cfc1461015f578063098eddb1146101805780631dd319cb146101a2578063397ae005146101c1575b5f80fd5b348015610135575f80fd5b5061014961014436600461345d565b6103e3565b60405161015691906134c5565b60405180910390f35b34801561016a575f80fd5b5061017e61017936600461345d565b6105d3565b005b34801561018b575f80fd5b50610194610647565b604051908152602001610156565b3480156101ad575f80fd5b5061017e6101bc3660046135a6565b610657565b3480156101cc575f80fd5b5061017e6101db3660046135d0565b61070a565b6101f36101ee36600461376c565b610748565b604080516001600160a01b0394851681529284166020840152921691810191909152606001610156565b348015610228575f80fd5b5061017e610237366004613899565b610a90565b348015610247575f80fd5b50610250610af5565b6040516101569190613913565b348015610268575f80fd5b50610271610b94565b6040516101569190613973565b348015610289575f80fd5b5061017e61029836600461345d565b610c22565b3480156102a8575f80fd5b506007546001600160a01b03165b6040516001600160a01b039091168152602001610156565b3480156102d9575f80fd5b506005546001600160a01b03166102b6565b3480156102f6575f80fd5b506102b6610ee0565b34801561030a575f80fd5b5061017e6103193660046139f7565b610fa3565b348015610329575f80fd5b506103326110d2565b6040516101569190613bff565b34801561034a575f80fd5b506102b66111eb565b34801561035e575f80fd5b5061017e61036d366004613c0e565b611271565b34801561037d575f80fd5b506102b66112da565b348015610391575f80fd5b5061017e6103a03660046135a6565b611364565b3480156103b0575f80fd5b506101946103bf36600461345d565b6113ea565b3480156103cf575f80fd5b506102506103de36600461345d565b611410565b60408051610120810182526060808252602082018190525f92820183905281018290526080810182905260a0810182905260c0810182905260e081018290526101008101919091526001600160a01b0382165f908152602080526040908190208151610120810190925280548290829061045c90613c9c565b80601f016020809104026020016040519081016040528092919081815260200182805461048890613c9c565b80156104d35780601f106104aa576101008083540402835291602001916104d3565b820191905f5260205f20905b8154815290600101906020018083116104b657829003601f168201915b505050505081526020016001820180546104ec90613c9c565b80601f016020809104026020016040519081016040528092919081815260200182805461051890613c9c565b80156105635780601f1061053a57610100808354040283529160200191610563565b820191905f5260205f20905b81548152906001019060200180831161054657829003601f168201915b5050509183525050600282015460ff811660208301526001600160a01b03610100909104811660408301526003830154811660608301526004830154811660808301526005830154811660a08301526006830154811660c083015260079092015490911660e09091015292915050565b6007546001600160a01b031633146105fe576040516314b2e6c760e21b815260040160405180910390fd5b6001600160a01b03811661062557604051633efa09af60e01b815260040160405180910390fd5b600780546001600160a01b0319166001600160a01b0392909216919091179055565b5f610652601d6114b2565b905090565b335f8181526020805260409020600501546001600160a01b03161461068f576040516313063b3f60e11b815260040160405180910390fd5b335f90815260208052604090819020600201549051632770a7eb60e21b81526001600160a01b0384811660048301526024820184905261010090920490911690639dc29fac906044015b5f604051808303815f87803b1580156106f0575f80fd5b505af1158015610702573d5f803e3d5ffd5b505050505050565b6005546001600160a01b03163314610735576040516314b2e6c760e21b815260040160405180910390fd5b6009805460ff1916911515919091179055565b6009545f908190819060ff16610783576005546001600160a01b03163314610783576040516314b2e6c760e21b815260040160405180910390fd5b6107908460e001516114bb565b5f61079f8561010001516115e8565b85516020808801516040519394505f936107ba939201613cce565b60408051601f1981840301815291815281516020928301205f818152602190935291205490915060ff161561080257604051637495878760e11b815260040160405180910390fd5b5f61080b6111eb565b6001600160a01b0316638257cb0d886040518263ffffffff1660e01b81526004016108369190613cfc565b6060604051808303815f875af1158015610852573d5f803e3d5ffd5b505050506040513d601f19601f820116820180604052508101906108769190613dbd565b505f848152602160205260408120805460ff1916600117905560a08a015160e08b01516101008c01519395509193506108b39290918591886115f2565b905061096f604080516101a0810182525f6101608201818152610180830182905282528251610140810184526060808252602082810182905294820183905281018290526080810182905260a0810182905260c0810182905260e081018290526101008101829052610120810191909152909182019081525f6020820181905260408201819052606082018190526080820181905260a0820181905260c0820181905260e0820181905261010082018190526101209091015290565b898152602081018990526001600160a01b03828116604083015283166060820152600285900b608082015261012089015160ff1660011480156109bd57506005546001600160a01b03163314155b15610a74576109ca6110d2565b6101a001513410156109ef57604051630e52390960e41b815260040160405180910390fd5b6007546001600160a01b031615610a3c576007546040516001600160a01b03909116903480156108fc02915f818181858888f19350505050158015610a36573d5f803e3d5ffd5b50610a74565b6005546040516001600160a01b03909116903480156108fc02915f818181858888f19350505050158015610a72573d5f803e3d5ffd5b505b610a7e89826117e1565b97509750975050505050509250925092565b6005546001600160a01b03163314610abb576040516314b2e6c760e21b815260040160405180910390fd5b604080515f8152602081019182905263278f794360e11b9091526001600160a01b03831690634f1ef286906106d990849060248101613dfd565b60605f610b00610647565b90505f8167ffffffffffffffff811115610b1c57610b1c6135ef565b604051908082528060200260200182016040528015610b45578160200160208202803683370190505b5090505f5b82811015610b8d57610b5b81611f44565b828281518110610b6d57610b6d613e20565b6001600160a01b0390921660209283029190910190910152600101610b4a565b5092915050565b610bd46040518061010001604052805f81526020015f81526020015f81526020015f81526020015f81526020015f81526020015f81526020015f81525090565b506040805161010081018252601554815260165460208201526017549181019190915260185460608201526019546080820152601a5460a0820152601b5460c0820152601c5460e082015290565b335f8181526020805260409020600501546001600160a01b031614610c5a576040516313063b3f60e11b815260040160405180910390fd5b335f9081526022602052604080822081516101408101909252805482908290610c8290613c9c565b80601f0160208091040260200160405190810160405280929190818152602001828054610cae90613c9c565b8015610cf95780601f10610cd057610100808354040283529160200191610cf9565b820191905f5260205f20905b815481529060010190602001808311610cdc57829003601f168201915b50505050508152602001600182018054610d1290613c9c565b80601f0160208091040260200160405190810160405280929190818152602001828054610d3e90613c9c565b8015610d895780601f10610d6057610100808354040283529160200191610d89565b820191905f5260205f20905b815481529060010190602001808311610d6c57829003601f168201915b5050509183525050600282015460ff9081166020830152600383015460408301526004830154606083015260058301546080830152600683015460a08301526007909201546001600160a01b03811660c083015262ffffff600160a01b82041660e0830152600160b81b9004909116610100918201528101519091505f90610e10906115e8565b9050610e2d8260a00151836060015183610e286110d2565b611f50565b826001600160a01b0316634bb278f36040518163ffffffff1660e01b81526004015f604051808303815f87803b158015610e65575f80fd5b505af1158015610e77573d5f803e3d5ffd5b5050335f90815260226020526040812092509050610e9582826132be565b610ea2600183015f6132be565b5060028101805460ff191690555f600382018190556004820181905560058201819055600682015560070180546001600160c01b0319169055505050565b5f805460408051808201909152600b81526a26b7b232b62432b63832b960a91b60208201526001600160a01b039091169063dacb2d0190610f2090612108565b6040518263ffffffff1660e01b8152600401610f64918152604060208201819052600e908201526d37379036b7b232b62432b63832b960911b606082015260800190565b602060405180830381865afa158015610f7f573d5f803e3d5ffd5b505050506040513d601f19601f820116820180604052508101906106529190613e34565b6005546001600160a01b03163314610fce576040516314b2e6c760e21b815260040160405180910390fd5b8051600a80546020840151604085015160ff908116620100000262ff0000199282166101000261ffff1990941691909516179190911716919091178155606082015182919061102190600b9060026132f8565b506080820151600282015560a0820151600382015560c082015160048201805460e085015161010086015162ffffff90811666010000000000000268ffffff0000000000001992821663010000000265ffffffffffff199094169190951617919091171691909117905561012082015160058201556101408201516006820155610160820151600782015561018082015160088201556101a082015160098201556101c090910151600a9091015550565b6110da61338d565b604080516101e081018252600a805460ff8082168452610100820481166020850152620100009091041682840152825180840193849052919290916060840191600b90600290825f855b82829054906101000a900461ffff1661ffff168152602001906002019060208260010104928301926001038202915080841161112457505050928452505050600282810154602083015260038301546040830152600483015480820b606084015263010000008104820b608084015266010000000000009004900b60a0820152600582015460c0820152600682015460e0820152600782015461010082015260088201546101208201526009820154610140820152600a9091015461016090910152919050565b5f805460408051808201909152600c81526b546f6b656e466163746f727960a01b60208201526001600160a01b039091169063dacb2d019061122c90612108565b6040518263ffffffff1660e01b8152600401610f64918152604060208201819052600f908201526e6e6f20546f6b656e466163746f727960881b606082015260800190565b6005546001600160a01b0316331461129c576040516314b2e6c760e21b815260040160405180910390fd5b8051601555602081015160165560408101516017556060810151601855608081015160195560a0810151601a5560c0810151601b5560e00151601c55565b5f805460408051808201909152600e81526d4164617074697665537570706c7960901b60208201526001600160a01b039091169063dacb2d019061131d90612108565b6040518263ffffffff1660e01b8152600401610f64918152604060208201819052601190820152706e6f204164617074697665537570706c7960781b606082015260800190565b335f8181526020805260409020600501546001600160a01b03161461139c576040516313063b3f60e11b815260040160405180910390fd5b335f908152602080526040908190206002015490516340c10f1960e01b81526001600160a01b03848116600483015260248201849052610100909204909116906340c10f19906044016106d9565b6001600160a01b0381165f908152601f6020526040812061140a906114b2565b92915050565b60605f61141c836113ea565b90505f8167ffffffffffffffff811115611438576114386135ef565b604051908082528060200260200182016040528015611461578160200160208202803683370190505b5090505f5b828110156114aa57611478858261216a565b82828151811061148a5761148a613e20565b6001600160a01b0390921660209283029190910190910152600101611466565b509392505050565b5f61140a825490565b5f80826001600160a01b03166395d89b416040518163ffffffff1660e01b81526004015f60405180830381865afa1580156114f8573d5f803e3d5ffd5b505050506040513d5f823e601f3d908101601f1916820160405261151f9190810190613e4f565b805190915081905f036115455760405163010466f160e21b815260040160405180910390fd5b60208201515f546040805163dacb2d0160e01b815260048101849052602481019190915260136044820152723737ba1030903932b9b2b93b32903a37b5b2b760691b60648201529194506001600160a01b03169063dacb2d0190608401602060405180830381865afa1580156115bd573d5f803e3d5ffd5b505050506040513d601f19601f820116820180604052508101906115e19190613e34565b5050505050565b5f61140a82612192565b600654604051630b4c774160e11b81526001600160a01b038681166004830152858116602483015262ffffff851660448301525f92169082908290631698ee8290606401602060405180830381865afa158015611651573d5f803e3d5ffd5b505050506040513d601f19601f820116820180604052508101906116759190613e34565b90505f876001600160a01b031663313ce5676040518163ffffffff1660e01b8152600401602060405180830381865afa1580156116b4573d5f803e3d5ffd5b505050506040513d601f19601f820116820180604052508101906116d89190613eb8565b90506001600160a01b0382166117d55760405163a167129560e01b81526001600160a01b038981166004830152888116602483015262ffffff8816604483015284169063a1671295906064016020604051808303815f875af1158015611740573d5f803e3d5ffd5b505050506040513d601f19601f820116820180604052508101906117649190613e34565b9150816001600160a01b031663f637731d6117808b8885612203565b6040516001600160e01b031960e084901b1681526001600160a01b0390911660048201526024015f604051808303815f87803b1580156117be575f80fd5b505af11580156117d0573d5f803e3d5ffd5b505050505b50979650505050505050565b5f8054604080518082019091526009815268115d18da15985d5b1d60ba1b6020820152829182916001600160a01b039091169063dacb2d019061182390612108565b6040518263ffffffff1660e01b8152600401611865918152604060208201819052600c908201526b1b9bc8115d18da15985d5b1d60a21b606082015260800190565b602060405180830381865afa158015611880573d5f803e3d5ffd5b505050506040513d601f19601f820116820180604052508101906118a49190613e34565b5f5460405163cda1ac0b60e01b81526001600160a01b03918216600482015291169063cda1ac0b9060240160408051808303815f875af11580156118ea573d5f803e3d5ffd5b505050506040513d601f19601f8201168201806040525081019061190e9190613ed3565b6001600160a01b0390811660c087015290811660a0860181905260048054885160208a015160608a0151604051632d882cc760e01b81529390961695632d882cc7956119639593949293309391929101613f00565b6060604051808303815f875af115801561197f573d5f803e3d5ffd5b505050506040513d601f19601f820116820180604052508101906119a39190613f4f565b6001600160a01b0390811661014088015290811661010087015290811660e08601526003545f5460405163c071e0cb60e01b8152306004820152908316602482015291169063c071e0cb906044016020604051808303815f875af1158015611a0d573d5f803e3d5ffd5b505050506040513d601f19601f82011682018060405250810190611a319190613e34565b600180546001600160a01b0319166001600160a01b0392909216918217905560a0850151604086015163f8c8765e913091611a6a610ee0565b60405160e086901b6001600160e01b03191681526001600160a01b0394851660048201529284166024840152908316604483015290911660648201526084015f604051808303815f87803b158015611ac0575f80fd5b505af1158015611ad2573d5f803e3d5ffd5b505050508360c001516001600160a01b031663c9d5fba58560a001515f8054906101000a90046001600160a01b03166001600160a01b031663dacb2d01611b44604051806040016040528060148152602001735661756c745570677261646546696e616c697a6560601b815250612108565b6040518263ffffffff1660e01b8152600401611b979181526040602082018190526017908201527f6e6f207661756c745570677261646546696e616c697a65000000000000000000606082015260800190565b602060405180830381865afa158015611bb2573d5f803e3d5ffd5b505050506040513d601f19601f82011682018060405250810190611bd69190613e34565b6040516001600160e01b031960e085901b1681526001600160a01b039283166004820152911660248201526044015f604051808303815f87803b158015611c1b575f80fd5b505af1158015611c2d573d5f803e3d5ffd5b5050600154602087015160609081015190880151611c5c94506001600160a01b0390811693509091169061221f565b6020840151606090810151908501516001546040516370a0823160e01b81526001600160a01b0391821660048201529116906370a0823190602401602060405180830381865afa158015611cb2573d5f803e3d5ffd5b505050506040513d601f19601f82011682018060405250810190611cd69190613f99565b14611cf45760405163a0ca77d960e01b815260040160405180910390fd5b6060840151600154610100860151604087015160a088015161014089015160208a01518a51611d3297966001600160a01b0316959493929190612276565b6001600160a01b0390811661012080870191825260408051918201815260208089018051518452805182015182850152805183015160ff16848401526060808b01518716908501525160e090810151861660808501523360a0808601919091528a018051871660c08601529451861690840152610100808a015186169084015292519093165f90815291805291902081518291908190611dd29082613ff4565b5060208201516001820190611de79082613ff4565b50604082810151600283018054606086015160ff9093166001600160a81b0319909116176101006001600160a01b0393841681029190911790915560808501516003850180546001600160a01b031990811692851692909217905560a080870151600487018054841691861691909117905560c0870151600587018054841691861691909117905560e087015160068701805484169186169190911790559190950151600790940180549095169390911692909217909255860151335f908152601f60205291909120611eb99161233b565b50611ec5601d3361233b565b50600160085f828254611ed891906140c4565b90915550505f5460a086015161010087015160e0880151610120890151611f27946001600160a01b031693929190611f0e6112da565b611f16610ee0565b6001546001600160a01b031661234f565b8460a0015185604001518660600151935093509350509250925092565b5f61140a601d8361272b565b60015481516001600160a01b0390911690636a384ed0908690606490611f799060ff16886140d7565b611f839190614102565b6040516001600160e01b031960e085901b16815260048101929092526024820152600285900b60448201526064015f604051808303815f87803b158015611fc8575f80fd5b505af1158015611fda573d5f803e3d5ffd5b505060015460608401518051602091820151918601516001600160a01b039093169450634303ca759350916064906120159060ff16896140d7565b61201f9190614102565b6040516001600160e01b031960e086901b16815261ffff938416600482015292909116602483015260448201526064015f604051808303815f87803b158015612066575f80fd5b505af1158015612078573d5f803e3d5ffd5b505060015460408401516001600160a01b03909116925063f431550691506120a39060ff16876140d7565b6040516001600160e01b031960e084901b16815260048101919091525f602482015260440160c0604051808303815f875af11580156120e4573d5f803e3d5ffd5b505050506040513d601f19601f820116820180604052508101906107029190614123565b80515f908290820361211c57505f92915050565b60208151111561212a575f80fd5b602083015181519092505b602081101561215d5761214981601f6141c6565b6121549060086140d7565b50600101612135565b5050919050565b50919050565b6001600160a01b0382165f908152601f6020526040812061218b908361272b565b9392505050565b5f8162ffffff166064036121a857506001919050565b8162ffffff166101f4036121be5750600a919050565b8162ffffff16610bb8036121d45750603c919050565b8162ffffff16612710036121ea575060c8919050565b604051631b99aa4560e11b815260040160405180910390fd5b5f612217612212858585612736565b61287b565b949350505050565b604080516001600160a01b038416602482015260448082018490528251808303909101815260649091019091526020810180516001600160e01b031663a9059cbb60e01b179052612271908490612885565b505050565b5f8061228687878a8888886128fc565b905083610120015160ff1660010361232e5761232e604051806101200160405280886001600160a01b03168152602001336001600160a01b031681526020018b6001600160a01b03168152602001896001600160a01b031681526020018a6001600160a01b03168152602001836001600160a01b031681526020018c6001600160a01b03168152602001876001600160a01b031681526020016123276110d2565b9052612d34565b9998505050505050505050565b5f61218b836001600160a01b038416612d91565b60408051600680825260e082019092525f916020820160c0803683370190505090506123a06040518060400160405280600e81526020016d4164617074697665537570706c7960901b815250612108565b815f815181106123b2576123b2613e20565b6020026020010181815250506123ea6040518060400160405280600b81526020016a26b7b232b62432b63832b960a91b815250612108565b816001815181106123fd576123fd613e20565b602002602001018181525050612431604051806040016040528060078152602001665374616b696e6760c81b815250612108565b8160028151811061244457612444613e20565b60200260200101818152505061247560405180604001604052806004815260200163734f4b5360e01b815250612108565b8160038151811061248857612488613e20565b6020026020010181815250506124bd604051806040016040528060088152602001672232b83637bcb2b960c11b815250612108565b816004815181106124d0576124d0613e20565b6020026020010181815250506125046040518060400160405280600781526020016650726573616c6560c81b815250612108565b8160058151811061251757612517613e20565b602090810291909101015260408051600680825260e082019092525f9181602001602082028036833701905050905084815f8151811061255957612559613e20565b60200260200101906001600160a01b031690816001600160a01b031681525050838160018151811061258d5761258d613e20565b60200260200101906001600160a01b031690816001600160a01b03168152505087816002815181106125c1576125c1613e20565b60200260200101906001600160a01b031690816001600160a01b03168152505086816003815181106125f5576125f5613e20565b60200260200101906001600160a01b031690816001600160a01b031681525050828160048151811061262957612629613e20565b60200260200101906001600160a01b031690816001600160a01b031681525050858160058151811061265d5761265d613e20565b6001600160a01b039283166020918202929092010152604051632caf59a960e21b81528a82166004820152908b169063b2bd66a4906024015f604051808303815f87803b1580156126ac575f80fd5b505af11580156126be573d5f803e3d5ffd5b505060405163094c3a6f60e41b81526001600160a01b038d1692506394c3a6f091506126f2908c90869086906004016141d9565b5f604051808303815f87803b158015612709575f80fd5b505af115801561271b573d5f803e3d5ffd5b5050505050505050505050505050565b5f61218b8383612ddd565b5f60068260ff161015801561274f575060128260ff1611155b61276c57604051630692acc560e51b815260040160405180910390fd5b5f612778836012614241565b61278390600a61433a565b905061278f8186614348565b94508361286868033dd1780914b9684073__$28bae0af19d0e90d77349cc0e88bc3c39a$__63bc4225aa6127cb8a670de0b6b3a7640000614348565b6040516001600160e01b031960e084901b1681526004810191909152670de0b6b3a764000060248201526706f05b59d3b200006044820152606401602060405180830381865af4158015612821573d5f803e3d5ffd5b505050506040513d601f19601f820116820180604052508101906128459190613f99565b61284f9190614377565b612863600288900b658334ae9d7c0a614348565b612e03565b6128729190614396565b95945050505050565b5f61140a82612e52565b5f8060205f8451602086015f885af1806128a4576040513d5f823e3d81fd5b50505f513d915081156128bb5780600114156128c8565b6001600160a01b0384163b155b156128f657604051635274afe760e01b81526001600160a01b03851660048201526024015b60405180910390fd5b50505050565b5f8061290c8461010001516115e8565b6040805180820190915260048152634e4f4d4160e01b6020918201528581015180519101209091505f907fe77118da920f2891833e88e9f140bcfc784f921d60561ffbf1adfad159a796cd1461296e576129698560a00151613263565b612974565b8460a001515b905084610120015160ff16600103612be6576001600160a01b0388165f908152602260205260409020855186919081906129ae9082613ff4565b50602082015160018201906129c39082613ff4565b506040820151816002015f6101000a81548160ff021916908360ff160217905550606082015181600301556080820151816004015560a0820151816005015560c0820151816006015560e0820151816007015f6101000a8154816001600160a01b0302191690836001600160a01b031602179055506101008201518160070160146101000a81548162ffffff021916908362ffffff1602179055506101208201518160070160176101000a81548160ff021916908360ff16021790555090505060025f9054906101000a90046001600160a01b03166001600160a01b0316639e98b262604051806101800160405280336001600160a01b031681526020018b6001600160a01b031681526020018c6001600160a01b03168152602001875f0151815260200184815260200187602001518152602001885f0151604051602001612b0c91906143b5565b60405160208183030381529060405281526020018860200151604051602001612b3591906143e2565b6040516020818303038152906040528152602001886040015160ff1681526020018560020b8152602001612b676110d2565b5160ff1681526060890151602090910152612b80610b94565b6040518363ffffffff1660e01b8152600401612b9d92919061440b565b6020604051808303815f875af1158015612bb9573d5f803e3d5ffd5b505050506040513d601f19601f82011682018060405250810190612bdd9190613e34565b92505050612d2a565b60408051610120810182526001600160a01b03808b168252336020808401919091526001548216838501528c8216606084018190528b8316608085015291871660a08401528351630dfe168160e01b81529351612caf9460c085019392630dfe1681926004808401938290030181865afa158015612c66573d5f803e3d5ffd5b505050506040513d601f19601f82011682018060405250810190612c8a9190613e34565b6001600160a01b03168152602001886001600160a01b031681526020016123276110d2565b612cc58560a00151866060015184610e286110d2565b60015f9054906101000a90046001600160a01b03166001600160a01b0316634bb278f36040518163ffffffff1660e01b81526004015f604051808303815f87803b158015612d11575f80fd5b505af1158015612d23573d5f803e3d5ffd5b5050505050505b9695505050505050565b805160208201516040808401516060850151608086015160a087015160e08801516101008901519551630a66e71960e11b81526001600160a01b038916976314cdce32976106d99730979296909592949093909190600401614515565b5f818152600183016020526040812054612dd657508154600181810184555f84815260208082209093018490558454848252828601909352604090209190915561140a565b505f61140a565b5f825f018281548110612df257612df2613e20565b905f5260205f200154905092915050565b5f61138861271083612e158683614348565b612e1f9190614563565b612e29919061458f565b13612e3d57612e388284614563565b61218b565b612e478284614563565b61218b9060016145a2565b5f805f8360020b12612e67578260020b612e74565b8260020b612e74906145c9565b9050612e83620d89e7196145e3565b60020b811115612eb95760405162461bcd60e51b81526020600482015260016024820152601560fa1b60448201526064016128ed565b5f816001165f03612ece57600160801b612ee0565b6ffffcb933bd6fad37aa2d162d1a5940015b70ffffffffffffffffffffffffffffffffff1690506002821615612f1f576080612f1a826ffff97272373d413259a46990580e213a6140d7565b901c90505b6004821615612f49576080612f44826ffff2e50f5f656932ef12357cf3c7fdcc6140d7565b901c90505b6008821615612f73576080612f6e826fffe5caca7e10e4e61c3624eaa0941cd06140d7565b901c90505b6010821615612f9d576080612f98826fffcb9843d60f6159c9db58835c9266446140d7565b901c90505b6020821615612fc7576080612fc2826fff973b41fa98c081472e6896dfb254c06140d7565b901c90505b6040821615612ff1576080612fec826fff2ea16466c96a3843ec78b326b528616140d7565b901c90505b608082161561301b576080613016826ffe5dee046a99a2a811c461f1969c30536140d7565b901c90505b610100821615613046576080613041826ffcbe86c7900a88aedcffc83b479aa3a46140d7565b901c90505b61020082161561307157608061306c826ff987a7253ac413176f2b074cf7815e546140d7565b901c90505b61040082161561309c576080613097826ff3392b0822b70005940c7a398e4b70f36140d7565b901c90505b6108008216156130c75760806130c2826fe7159475a2c29b7443b29c7fa6e889d96140d7565b901c90505b6110008216156130f25760806130ed826fd097f3bdfd2022b8845ad8f792aa58256140d7565b901c90505b61200082161561311d576080613118826fa9f746462d870fdf8a65dc1f90e061e56140d7565b901c90505b614000821615613148576080613143826f70d869a156d2a1b890bb3df62baf32f76140d7565b901c90505b61800082161561317357608061316e826f31be135f97d08fd981231505542fcfa66140d7565b901c90505b6201000082161561319f57608061319a826f09aa508b5b7a84e1c677de54f3e99bc96140d7565b901c90505b620200008216156131ca5760806131c5826e5d6af8dedb81196699c329225ee6046140d7565b901c90505b620400008216156131f45760806131ef826d2216e584f5fa1ea926041bedfe986140d7565b901c90505b6208000082161561321c576080613217826b048a170391f7dc42444e8fa26140d7565b901c90505b5f8460020b131561323557613232815f19614102565b90505b61324464010000000082614603565b15613250576001613252565b5f5b6122179060ff16602083901c6140c4565b5f61326c6110d2565b6101c001515f0361329057604051630e52390960e41b815260040160405180910390fd5b5f606461329b6110d2565b6101c001516132aa90856140d7565b6132b49190614102565b61218b90846140c4565b5080546132ca90613c9c565b5f825580601f106132d9575050565b601f0160209004905f5260205f20908101906132f59190613407565b50565b60018301918390821561337d579160200282015f5b8382111561334d57835183826101000a81548161ffff021916908361ffff160217905550926020019260020160208160010104928301926001030261330d565b801561337b5782816101000a81549061ffff021916905560020160208160010104928301926001030261334d565b505b50613389929150613407565b5090565b604080516101e0810182525f8082526020820181905291810191909152606081016133b661341b565b81526020015f81526020015f81526020015f60020b81526020015f60020b81526020015f60020b81526020015f81526020015f81526020015f81526020015f81526020015f81526020015f81525090565b5b80821115613389575f8155600101613408565b60405180604001604052806002906020820280368337509192915050565b6001600160a01b03811681146132f5575f80fd5b803561345881613439565b919050565b5f6020828403121561346d575f80fd5b813561218b81613439565b5f5b8381101561349257818101518382015260200161347a565b50505f910152565b5f81518084526134b1816020860160208601613478565b601f01601f19169290920160200192915050565b602081525f82516101208060208501526134e361014085018361349a565b91506020850151601f19858403016040860152613500838261349a565b9250506040850151613517606086018260ff169052565b5060608501516001600160a01b03811660808601525060808501516001600160a01b03811660a08601525060a08501516001600160a01b03811660c08601525060c08501516001600160a01b03811660e08601525060e0850151610100613588818701836001600160a01b03169052565b8601516001600160a01b0381168387015290505b5090949350505050565b5f80604083850312156135b7575f80fd5b82356135c281613439565b946020939093013593505050565b5f602082840312156135e0575f80fd5b8135801515811461218b575f80fd5b634e487b7160e01b5f52604160045260245ffd5b6040805190810167ffffffffffffffff81118282101715613626576136266135ef565b60405290565b604051610140810167ffffffffffffffff81118282101715613626576136266135ef565b6040516101e0810167ffffffffffffffff81118282101715613626576136266135ef565b60405160a0810167ffffffffffffffff81118282101715613626576136266135ef565b604051601f8201601f1916810167ffffffffffffffff811182821017156136c0576136c06135ef565b604052919050565b5f67ffffffffffffffff8211156136e1576136e16135ef565b50601f01601f191660200190565b5f82601f8301126136fe575f80fd5b813561371161370c826136c8565b613697565b818152846020838601011115613725575f80fd5b816020850160208301375f918101602001919091529392505050565b60ff811681146132f5575f80fd5b803561345881613741565b803562ffffff81168114613458575f80fd5b5f80828403606081121561377e575f80fd5b604081121561378b575f80fd5b50613794613603565b83358152602080850135908201529150604083013567ffffffffffffffff808211156137be575f80fd5b9084019061014082870312156137d2575f80fd5b6137da61362c565b8235828111156137e8575f80fd5b6137f4888286016136ef565b825250602083013582811115613808575f80fd5b613814888286016136ef565b6020830152506138266040840161374f565b6040820152606083013560608201526080830135608082015260a083013560a082015260c083013560c082015261385f60e0840161344d565b60e0820152610100915061387482840161375a565b82820152610120915061388882840161374f565b828201528093505050509250929050565b5f80604083850312156138aa575f80fd5b82356138b581613439565b915060208301356138c581613439565b809150509250929050565b5f815180845260208085019450602084015f5b838110156139085781516001600160a01b0316875295820195908201906001016138e3565b509495945050505050565b602081525f61218b60208301846138d0565b805182526020810151602083015260408101516040830152606081015160608301526080810151608083015260a081015160a083015260c081015160c083015260e081015160e08301525050565b610100810161140a8284613925565b5f82601f830112613991575f80fd5b613999613603565b8060408401858111156139aa575f80fd5b845b818110156139d357803561ffff811681146139c5575f80fd5b8452602093840193016139ac565b509095945050505050565b8060020b81146132f5575f80fd5b8035613458816139de565b5f6102008284031215613a08575f80fd5b613a10613650565b613a198361374f565b8152613a276020840161374f565b6020820152613a386040840161374f565b6040820152613a4a8460608501613982565b606082015260a0830135608082015260c083013560a0820152613a6f60e084016139ec565b60c0820152610100613a828185016139ec565b60e0830152610120613a958186016139ec565b828401526101409150818501358184015250610160808501358284015261018091508185013581840152506101a080850135828401526101c091508185013581840152506101e084013581830152508091505092915050565b805f5b60028110156128f657815161ffff16845260209384019390910190600101613af1565b805160ff1682526020810151613b2f602084018260ff169052565b506040810151613b44604084018260ff169052565b506060810151613b576060840182613aee565b50608081015160a083015260a081015160c083015260c0810151613b8060e084018260020b9052565b5060e0810151610100613b978185018360020b9052565b8201519050610120613bad8482018360020b9052565b8201516101408481019190915282015161016080850191909152820151610180808501919091528201516101a0808501919091528201516101c080850191909152909101516101e09092019190915250565b610200810161140a8284613b14565b5f610100808385031215613c20575f80fd5b6040519081019067ffffffffffffffff82118183101715613c4357613c436135ef565b81604052833581526020840135602082015260408401356040820152606084013560608201526080840135608082015260a084013560a082015260c084013560c082015260e084013560e0820152809250505092915050565b600181811c90821680613cb057607f821691505b60208210810361216457634e487b7160e01b5f52602260045260245ffd5b5f8351613cdf818460208801613478565b835190830190613cf3818360208801613478565b01949350505050565b602081525f8251610140806020850152613d1a61016085018361349a565b91506020850151601f19858403016040860152613d37838261349a565b9250506040850151613d4e606086018260ff169052565b5060608501516080850152608085015160a085015260a085015160c085015260c085015160e085015260e0850151610100613d93818701836001600160a01b03169052565b8601519050610120613dab8682018362ffffff169052565b86015160ff811683870152905061359c565b5f805f60608486031215613dcf575f80fd5b8351613dda81613439565b6020850151909350613deb81613439565b80925050604084015190509250925092565b6001600160a01b03831681526040602082018190525f906122179083018461349a565b634e487b7160e01b5f52603260045260245ffd5b5f60208284031215613e44575f80fd5b815161218b81613439565b5f60208284031215613e5f575f80fd5b815167ffffffffffffffff811115613e75575f80fd5b8201601f81018413613e85575f80fd5b8051613e9361370c826136c8565b818152856020838501011115613ea7575f80fd5b612872826020830160208601613478565b5f60208284031215613ec8575f80fd5b815161218b81613741565b5f8060408385031215613ee4575f80fd5b8251613eef81613439565b60208401519092506138c581613439565b60a081525f613f1260a083018861349a565b8281036020840152613f24818861349a565b6001600160a01b03968716604085015294861660608401525050921660809092019190915292915050565b5f805f60608486031215613f61575f80fd5b8351613f6c81613439565b6020850151909350613f7d81613439565b6040850151909250613f8e81613439565b809150509250925092565b5f60208284031215613fa9575f80fd5b5051919050565b601f82111561227157805f5260205f20601f840160051c81016020851015613fd55750805b601f840160051c820191505b818110156115e1575f8155600101613fe1565b815167ffffffffffffffff81111561400e5761400e6135ef565b6140228161401c8454613c9c565b84613fb0565b602080601f831160018114614055575f841561403e5750858301515b5f19600386901b1c1916600185901b178555610702565b5f85815260208120601f198616915b8281101561408357888601518255948401946001909101908401614064565b50858210156140a057878501515f19600388901b60f8161c191681555b5050505050600190811b01905550565b634e487b7160e01b5f52601160045260245ffd5b8082018082111561140a5761140a6140b0565b808202811582820484141761140a5761140a6140b0565b634e487b7160e01b5f52601260045260245ffd5b5f82614110576141106140ee565b500490565b805160038110613458575f80fd5b5f8082840360c0811215614135575f80fd5b60a0811215614142575f80fd5b5061414b613674565b8351614156816139de565b81526020840151614166816139de565b602082015260408401516fffffffffffffffffffffffffffffffff8116811461418d575f80fd5b60408201526060848101519082015260808401516141aa816139de565b608082015291506141bd60a08401614115565b90509250929050565b8181038181111561140a5761140a6140b0565b6001600160a01b03841681526060602080830182905284519183018290525f9185820191906080850190845b8181101561422157845183529383019391830191600101614205565b5050848103604086015261423581876138d0565b98975050505050505050565b60ff828116828216039081111561140a5761140a6140b0565b600181815b8085111561429457815f190482111561427a5761427a6140b0565b8085161561428757918102915b93841c939080029061425f565b509250929050565b5f826142aa5750600161140a565b816142b657505f61140a565b81600181146142cc57600281146142d6576142f2565b600191505061140a565b60ff8411156142e7576142e76140b0565b50506001821b61140a565b5060208310610133831016604e8410600b8410161715614315575081810a61140a565b61431f838361425a565b805f1904821115614332576143326140b0565b029392505050565b5f61218b60ff84168361429c565b8082025f8212600160ff1b84141615614363576143636140b0565b818105831482151761140a5761140a6140b0565b8181035f831280158383131683831282161715610b8d57610b8d6140b0565b5f8260020b8260020b028060020b9150808214610b8d57610b8d6140b0565b5f82516143c6818460208701613478565b6908141c9948105cdcd95d60b21b920191825250600a01919050565b61702d60f01b81525f82516143fe816002850160208701613478565b9190910160020192915050565b5f61012080835261442781840186516001600160a01b03169052565b6020850151610140614443818601836001600160a01b03169052565b60408701519150610160614461818701846001600160a01b03169052565b60608801519250610180838188015260808901516101a088015260a08901516101c088015260c08901519350806101e0880152506144a36102a087018461349a565b925060e088015161011f19878503016102008801526144c2848261349a565b9350506101008801516144db61022088018260ff169052565b5092870151926144f161024087018560020b9052565b90870151610260860152860151610280850152915061218b90506020830184613925565b6001600160a01b038981168252888116602083015287811660408301528681166060830152858116608083015284811660a0830152831660c08201526102e0810161232e60e0830184613b14565b5f82614571576145716140ee565b600160ff1b82145f198414161561458a5761458a6140b0565b500590565b5f8261459d5761459d6140ee565b500790565b8082018281125f8312801582168215821617156145c1576145c16140b0565b505092915050565b5f600160ff1b82016145dd576145dd6140b0565b505f0390565b5f8160020b627fffff1981036145fb576145fb6140b0565b5f0392915050565b5f82614611576146116140ee565b50069056fea2646970667358221220d949ab10484e4516e1d8c65720fccc9c8c848bf13d9f34bb3647bdebc15daf2564736f6c63430008170033","linkReferences":{"src/libraries/Logarithm.sol":{"Logarithm":[{"start":10608,"length":20}]}}},"methodIdentifiers":{"adaptiveSupply()":"ef5ddb31","burnFor(address,uint256)":"1dd319cb","deferredDeploy(address)":"7d19a2cb","deployVault((uint256,uint256),(string,string,uint8,uint256,uint256,uint256,uint256,address,uint24,uint8))":"52f882fe","getDeployers()":"607c12b5","getPresaleProtocolParams()":"615de71f","getProtocolParameters()":"c58aad87","getVaultDescription(address)":"0337c57a","getVaults(address)":"fe7c9c92","mintTokens(address,uint256)":"f0dda65c","modelHelper()":"a3e44b33","numDeployers()":"098eddb1","numVaults(address)":"f9c7bba5","owner()":"8da5cb5b","setMultiSigAddress(address)":"077f2cfc","setPermissionlessDeploy(bool)":"397ae005","setPresaleProtocolParams((uint256,uint256,uint256,uint256,uint256,uint256,uint256,uint256))":"ee4a3e37","setProtocolParameters((uint8,uint8,uint8,uint16[2],uint256,uint256,int24,int24,int24,uint256,uint256,uint256,uint256,uint256,uint256))":"a879b078","teamMultiSig()":"854567f1","tokenFactory()":"e77772fe","upgradeToken(address,address)":"55b8ce0a"},"id":87}