{"abi":[{"type":"constructor","inputs":[{"name":"_uniswapV3Factory","type":"address","internalType":"address"},{"name":"_resolver","type":"address","internalType":"address"},{"name":"_deployerFactory","type":"address","internalType":"address"},{"name":"_extFactory","type":"address","internalType":"address"},{"name":"_presaleFactory","type":"address","internalType":"address"}],"stateMutability":"nonpayable"},{"type":"function","name":"adaptiveSupply","inputs":[],"outputs":[{"name":"","type":"address","internalType":"address"}],"stateMutability":"view"},{"type":"function","name":"burnFor","inputs":[{"name":"from","type":"address","internalType":"address"},{"name":"amount","type":"uint256","internalType":"uint256"}],"outputs":[],"stateMutability":"nonpayable"},{"type":"function","name":"deferredDeploy","inputs":[{"name":"_deployerContract","type":"address","internalType":"address"}],"outputs":[],"stateMutability":"nonpayable"},{"type":"function","name":"deployVault","inputs":[{"name":"presaleParams","type":"tuple","internalType":"struct PresaleUserParams","components":[{"name":"softCap","type":"uint256","internalType":"uint256"},{"name":"deadline","type":"uint256","internalType":"uint256"}]},{"name":"vaultDeployParams","type":"tuple","internalType":"struct VaultDeployParams","components":[{"name":"name","type":"string","internalType":"string"},{"name":"symbol","type":"string","internalType":"string"},{"name":"decimals","type":"uint8","internalType":"uint8"},{"name":"totalSupply","type":"uint256","internalType":"uint256"},{"name":"IDOPrice","type":"uint256","internalType":"uint256"},{"name":"floorPrice","type":"uint256","internalType":"uint256"},{"name":"token1","type":"address","internalType":"address"},{"name":"feeTier","type":"uint24","internalType":"uint24"},{"name":"presale","type":"uint8","internalType":"uint8"}]}],"outputs":[{"name":"","type":"address","internalType":"address"},{"name":"","type":"address","internalType":"address"},{"name":"","type":"address","internalType":"address"}],"stateMutability":"nonpayable"},{"type":"function","name":"getDeployers","inputs":[],"outputs":[{"name":"","type":"address[]","internalType":"address[]"}],"stateMutability":"view"},{"type":"function","name":"getPresaleProtocolParams","inputs":[],"outputs":[{"name":"","type":"tuple","internalType":"struct PresaleProtocolParams","components":[{"name":"maxSoftCap","type":"uint256","internalType":"uint256"},{"name":"minContributionRatio","type":"uint256","internalType":"uint256"},{"name":"maxContributionRatio","type":"uint256","internalType":"uint256"},{"name":"presalePercentage","type":"uint256","internalType":"uint256"},{"name":"minDuration","type":"uint256","internalType":"uint256"},{"name":"maxDuration","type":"uint256","internalType":"uint256"},{"name":"referralPercentage","type":"uint256","internalType":"uint256"}]}],"stateMutability":"view"},{"type":"function","name":"getProtocolParameters","inputs":[],"outputs":[{"name":"","type":"tuple","internalType":"struct ProtocolParameters","components":[{"name":"floorPercentage","type":"uint8","internalType":"uint8"},{"name":"anchorPercentage","type":"uint8","internalType":"uint8"},{"name":"idoPriceMultiplier","type":"uint8","internalType":"uint8"},{"name":"floorBips","type":"uint16[2]","internalType":"uint16[2]"},{"name":"shiftRatio","type":"uint256","internalType":"uint256"},{"name":"slideRatio","type":"uint256","internalType":"uint256"},{"name":"discoveryBips","type":"int24","internalType":"int24"},{"name":"shiftAnchorUpperBips","type":"int24","internalType":"int24"},{"name":"slideAnchorUpperBips","type":"int24","internalType":"int24"},{"name":"lowBalanceThresholdFactor","type":"uint256","internalType":"uint256"},{"name":"highBalanceThresholdFactor","type":"uint256","internalType":"uint256"},{"name":"inflationFee","type":"uint256","internalType":"uint256"},{"name":"loanFee","type":"uint256","internalType":"uint256"},{"name":"deployFee","type":"uint256","internalType":"uint256"},{"name":"presalePremium","type":"uint256","internalType":"uint256"}]}],"stateMutability":"view"},{"type":"function","name":"getVaultDescription","inputs":[{"name":"_deployer","type":"address","internalType":"address"}],"outputs":[{"name":"","type":"tuple","internalType":"struct VaultDescription","components":[{"name":"tokenName","type":"string","internalType":"string"},{"name":"tokenSymbol","type":"string","internalType":"string"},{"name":"tokenDecimals","type":"uint8","internalType":"uint8"},{"name":"token0","type":"address","internalType":"address"},{"name":"token1","type":"address","internalType":"address"},{"name":"deployer","type":"address","internalType":"address"},{"name":"vault","type":"address","internalType":"address"},{"name":"presaleContract","type":"address","internalType":"address"},{"name":"stakingContract","type":"address","internalType":"address"}]}],"stateMutability":"view"},{"type":"function","name":"getVaults","inputs":[{"name":"_deployer","type":"address","internalType":"address"}],"outputs":[{"name":"","type":"address[]","internalType":"address[]"}],"stateMutability":"view"},{"type":"function","name":"mintTokens","inputs":[{"name":"to","type":"address","internalType":"address"},{"name":"amount","type":"uint256","internalType":"uint256"}],"outputs":[],"stateMutability":"nonpayable"},{"type":"function","name":"modelHelper","inputs":[],"outputs":[{"name":"","type":"address","internalType":"address"}],"stateMutability":"view"},{"type":"function","name":"numDeployers","inputs":[],"outputs":[{"name":"","type":"uint256","internalType":"uint256"}],"stateMutability":"view"},{"type":"function","name":"numVaults","inputs":[],"outputs":[{"name":"result","type":"uint256","internalType":"uint256"}],"stateMutability":"view"},{"type":"function","name":"numVaults","inputs":[{"name":"_deployer","type":"address","internalType":"address"}],"outputs":[{"name":"","type":"uint256","internalType":"uint256"}],"stateMutability":"view"},{"type":"function","name":"setPermissionlessDeploy","inputs":[{"name":"_flag","type":"bool","internalType":"bool"}],"outputs":[],"stateMutability":"nonpayable"},{"type":"function","name":"setPresaleProtocolParams","inputs":[{"name":"_params","type":"tuple","internalType":"struct PresaleProtocolParams","components":[{"name":"maxSoftCap","type":"uint256","internalType":"uint256"},{"name":"minContributionRatio","type":"uint256","internalType":"uint256"},{"name":"maxContributionRatio","type":"uint256","internalType":"uint256"},{"name":"presalePercentage","type":"uint256","internalType":"uint256"},{"name":"minDuration","type":"uint256","internalType":"uint256"},{"name":"maxDuration","type":"uint256","internalType":"uint256"},{"name":"referralPercentage","type":"uint256","internalType":"uint256"}]}],"outputs":[],"stateMutability":"nonpayable"},{"type":"function","name":"setProtocolParameters","inputs":[{"name":"_params","type":"tuple","internalType":"struct ProtocolParameters","components":[{"name":"floorPercentage","type":"uint8","internalType":"uint8"},{"name":"anchorPercentage","type":"uint8","internalType":"uint8"},{"name":"idoPriceMultiplier","type":"uint8","internalType":"uint8"},{"name":"floorBips","type":"uint16[2]","internalType":"uint16[2]"},{"name":"shiftRatio","type":"uint256","internalType":"uint256"},{"name":"slideRatio","type":"uint256","internalType":"uint256"},{"name":"discoveryBips","type":"int24","internalType":"int24"},{"name":"shiftAnchorUpperBips","type":"int24","internalType":"int24"},{"name":"slideAnchorUpperBips","type":"int24","internalType":"int24"},{"name":"lowBalanceThresholdFactor","type":"uint256","internalType":"uint256"},{"name":"highBalanceThresholdFactor","type":"uint256","internalType":"uint256"},{"name":"inflationFee","type":"uint256","internalType":"uint256"},{"name":"loanFee","type":"uint256","internalType":"uint256"},{"name":"deployFee","type":"uint256","internalType":"uint256"},{"name":"presalePremium","type":"uint256","internalType":"uint256"}]}],"outputs":[],"stateMutability":"nonpayable"},{"type":"function","name":"teamMultiSig","inputs":[],"outputs":[{"name":"","type":"address","internalType":"address"}],"stateMutability":"view"},{"type":"function","name":"tokenFactory","inputs":[],"outputs":[{"name":"","type":"address","internalType":"address"}],"stateMutability":"view"},{"type":"error","name":"InvalidDecimals","inputs":[]},{"type":"error","name":"InvalidFeeTier","inputs":[]},{"type":"error","name":"InvalidParameters","inputs":[]},{"type":"error","name":"InvalidSymbol","inputs":[]},{"type":"error","name":"NotAuthorityError","inputs":[]},{"type":"error","name":"OnlyVaultsError","inputs":[]},{"type":"error","name":"SafeERC20FailedOperation","inputs":[{"name":"token","type":"address","internalType":"address"}]},{"type":"error","name":"SupplyTransferError","inputs":[]},{"type":"error","name":"TokenAlreadyExistsError","inputs":[]},{"type":"error","name":"ZeroAddressError","inputs":[]}],"bytecode":{"object":"0x60806040523480156200001157600080fd5b50604051620045153803806200451583398101604081905262000034916200013e565b6001600160a01b03851615806200005257506001600160a01b038416155b806200006557506001600160a01b038316155b806200007857506001600160a01b038216155b806200008b57506001600160a01b038116155b15620000aa57604051633efa09af60e01b815260040160405180910390fd5b60058054336001600160a01b0319918216179091556006805482166001600160a01b0397881617905560008054821695871695909517909455600380548516938616939093179092556004805484169185169190911790556002805490921692169190911790556009805460ff19169055620001ae565b80516001600160a01b03811681146200013957600080fd5b919050565b600080600080600060a086880312156200015757600080fd5b620001628662000121565b9450620001726020870162000121565b9350620001826040870162000121565b9250620001926060870162000121565b9150620001a26080870162000121565b90509295509295909350565b61435780620001be6000396000f3fe608060405234801561001057600080fd5b50600436106101215760003560e01c8063a3e44b33116100ad578063e77772fe11610071578063e77772fe14610277578063ef5ddb311461027f578063f0dda65c14610287578063f9c7bba51461029a578063fe7c9c92146102ad57600080fd5b8063a3e44b33146101f7578063a879b078146101ff578063a95d61ca14610212578063c58aad8714610225578063d4850df51461023a57600080fd5b8063397ae005116100f4578063397ae00514610182578063607c12b514610195578063615de71f146101aa5780637d19a2cb146101bf578063854567f1146101d257600080fd5b80630337c57a14610126578063098eddb11461014f5780631dd319cb14610165578063264a62081461017a575b600080fd5b6101396101343660046131c9565b6102c0565b6040516101469190613236565b60405180910390f35b6101576104b7565b604051908152602001610146565b610178610173366004613318565b6104c8565b005b610157610584565b610178610190366004613344565b6105d8565b61019d610616565b60405161014691906133ab565b6101b26106b8565b6040516101469190613402565b6101786101cd3660046131c9565b61073d565b6007546001600160a01b03165b6040516001600160a01b039091168152602001610146565b6101df6109f9565b61017861020d366004613580565b610abf565b610178610220366004613679565b610bee565b61022d610c4f565b604051610146919061380f565b61024d6102483660046138af565b610d69565b604080516001600160a01b0394851681529284166020840152921691810191909152606001610146565b6101df610fd6565b6101df61105d565b610178610295366004613318565b6110e8565b6101576102a83660046131c9565b611172565b61019d6102bb3660046131c9565b611199565b6040805161012081018252606080825260208201819052600092820183905281018290526080810182905260a0810182905260c0810182905260e081018290526101008101919091526001600160a01b0382166000908152601f6020526040908190208151610120810190925280548290829061033c906139d6565b80601f0160208091040260200160405190810160405280929190818152602001828054610368906139d6565b80156103b55780601f1061038a576101008083540402835291602001916103b5565b820191906000526020600020905b81548152906001019060200180831161039857829003601f168201915b505050505081526020016001820180546103ce906139d6565b80601f01602080910402602001604051908101604052809291908181526020018280546103fa906139d6565b80156104475780601f1061041c57610100808354040283529160200191610447565b820191906000526020600020905b81548152906001019060200180831161042a57829003601f168201915b5050509183525050600282015460ff811660208301526001600160a01b03610100909104811660408301526003830154811660608301526004830154811660808301526005830154811660a08301526006830154811660c083015260079092015490911660e09091015292915050565b60006104c3601c61123e565b905090565b336000818152601f60205260409020600501546001600160a01b031614610502576040516313063b3f60e11b815260040160405180910390fd5b336000908152601f602052604090819020600201549051632770a7eb60e21b81526001600160a01b0384811660048301526024820184905261010090920490911690639dc29fac906044015b600060405180830381600087803b15801561056857600080fd5b505af115801561057c573d6000803e3d6000fd5b505050505050565b60008061058f610616565b905060005b81518110156105d3576105bf8282815181106105b2576105b2613a0a565b6020026020010151611172565b6105c99084613a36565b9250600101610594565b505090565b6005546001600160a01b03163314610603576040516314b2e6c760e21b815260040160405180910390fd5b6009805460ff1916911515919091179055565b606060006106226104b7565b905060008167ffffffffffffffff81111561063f5761063f613410565b604051908082528060200260200182016040528015610668578160200160208202803683370190505b50905060005b828110156106b15761067f81611248565b82828151811061069157610691613a0a565b6001600160a01b039092166020928302919091019091015260010161066e565b5092915050565b6106f86040518060e00160405280600081526020016000815260200160008152602001600081526020016000815260200160008152602001600081525090565b506040805160e081018252601554815260165460208201526017549181019190915260185460608201526019546080820152601a5460a0820152601b5460c082015290565b336000818152601f60205260409020600501546001600160a01b031614610777576040516313063b3f60e11b815260040160405180910390fd5b33600090815260216020526040808220815161012081019092528054829082906107a0906139d6565b80601f01602080910402602001604051908101604052809291908181526020018280546107cc906139d6565b80156108195780601f106107ee57610100808354040283529160200191610819565b820191906000526020600020905b8154815290600101906020018083116107fc57829003601f168201915b50505050508152602001600182018054610832906139d6565b80601f016020809104026020016040519081016040528092919081815260200182805461085e906139d6565b80156108ab5780601f10610880576101008083540402835291602001916108ab565b820191906000526020600020905b81548152906001019060200180831161088e57829003601f168201915b5050509183525050600282015460ff90811660208301526003830154604083015260048301546060830152600583015460808301526006909201546001600160a01b03811660a083015262ffffff600160a01b82041660c0830152600160b81b900490911660e09182015281015190915060009061092890611255565b90506109458260800151836060015183610940610c4f565b611260565b826001600160a01b0316634bb278f36040518163ffffffff1660e01b8152600401600060405180830381600087803b15801561098057600080fd5b505af1158015610994573d6000803e3d6000fd5b5050336000908152602160205260408120925090506109b38282613018565b6109c1600183016000613018565b5060028101805460ff1916905560006003820181905560048201819055600582015560060180546001600160c01b0319169055505050565b6000805460408051808201909152600b81526a26b7b232b62432b63832b960a91b60208201526001600160a01b039091169063dacb2d0190610a3a90611426565b6040518263ffffffff1660e01b8152600401610a7e918152604060208201819052600e908201526d37379036b7b232b62432b63832b960911b606082015260800190565b602060405180830381865afa158015610a9b573d6000803e3d6000fd5b505050506040513d601f19601f820116820180604052508101906104c39190613a49565b6005546001600160a01b03163314610aea576040516314b2e6c760e21b815260040160405180910390fd5b8051600a80546020840151604085015160ff908116620100000262ff0000199282166101000261ffff19909416919095161791909117169190911781556060820151829190610b3d90600b906002613055565b506080820151600282015560a0820151600382015560c082015160048201805460e085015161010086015162ffffff90811666010000000000000268ffffff0000000000001992821663010000000265ffffffffffff199094169190951617919091171691909117905561012082015160058201556101408201516006820155610160820151600782015561018082015160088201556101a082015160098201556101c090910151600a9091015550565b6005546001600160a01b03163314610c19576040516314b2e6c760e21b815260040160405180910390fd5b8051601555602081015160165560408101516017556060810151601855608081015160195560a0810151601a5560c00151601b55565b610c576130eb565b604080516101e081018252600a805460ff8082168452610100820481166020850152620100009091041682840152825180840193849052919290916060840191600b90600290826000855b82829054906101000a900461ffff1661ffff1681526020019060020190602082600101049283019260010382029150808411610ca257505050928452505050600282810154602083015260038301546040830152600483015480820b606084015263010000008104820b608084015266010000000000009004900b60a0820152600582015460c0820152600682015460e0820152600782015461010082015260088201546101208201526009820154610140820152600a9091015461016090910152919050565b6009546000908190819060ff16610da5576005546001600160a01b03163314610da5576040516314b2e6c760e21b815260040160405180910390fd5b610db28460c0015161148b565b6000610dc18560e00151611255565b8551602080880151604051939450600093610ddd939201613a66565b60408051601f198184030181529181528151602092830120600081815292805291205490915060ff1615610e2457604051637495878760e11b815260040160405180910390fd5b600080610e2f610fd6565b6001600160a01b031663679bdb11896040518263ffffffff1660e01b8152600401610e5a9190613a95565b6060604051808303816000875af1158015610e79573d6000803e3d6000fd5b505050506040513d601f19601f82011682018060405250810190610e9d9190613b4c565b5060008581526020805260408120805460ff1916600117905560808b015160c08c015160e08d01519496509294509092610ed9928591896115c1565b9050610f8f604080516101a08101825260006101608201818152610180830182905282528251610120810184526060808252602082810182905294820183905281018290526080810182905260a0810182905260c0810182905260e081018290526101008101919091529091820190815260006020820181905260408201819052606082018190526080820181905260a0820181905260c0820181905260e0820181905261010082018190526101209091015290565b8a8152602081018a90526001600160a01b03808316604083015283166060820152600286900b6080820152610fc3816117be565b9850985098505050505050509250925092565b6000805460408051808201909152600c81526b546f6b656e466163746f727960a01b60208201526001600160a01b039091169063dacb2d019061101890611426565b6040518263ffffffff1660e01b8152600401610a7e918152604060208201819052600f908201526e6e6f20546f6b656e466163746f727960881b606082015260800190565b6000805460408051808201909152600e81526d4164617074697665537570706c7960901b60208201526001600160a01b039091169063dacb2d01906110a190611426565b6040518263ffffffff1660e01b8152600401610a7e918152604060208201819052601190820152706e6f204164617074697665537570706c7960781b606082015260800190565b336000818152601f60205260409020600501546001600160a01b031614611122576040516313063b3f60e11b815260040160405180910390fd5b336000908152601f6020526040908190206002015490516340c10f1960e01b81526001600160a01b03848116600483015260248201849052610100909204909116906340c10f199060440161054e565b6001600160a01b0381166000908152601e602052604081206111939061123e565b92915050565b606060006111a683611172565b905060008167ffffffffffffffff8111156111c3576111c3613410565b6040519080825280602002602001820160405280156111ec578160200160208202803683370190505b50905060005b82811015611236576112048582611f41565b82828151811061121657611216613a0a565b6001600160a01b03909216602092830291909101909101526001016111f2565b509392505050565b6000611193825490565b6000611193601c83611f6a565b600061119382611f76565b60015481516001600160a01b0390911690636a384ed09086906064906112899060ff1688613b8f565b6112939190613bbc565b6040516001600160e01b031960e085901b16815260048101929092526024820152600285900b6044820152606401600060405180830381600087803b1580156112db57600080fd5b505af11580156112ef573d6000803e3d6000fd5b505060015460608401518051602091820151918601516001600160a01b039093169450634303ca7593509160649061132a9060ff1689613b8f565b6113349190613bbc565b6040516001600160e01b031960e086901b16815261ffff93841660048201529290911660248301526044820152606401600060405180830381600087803b15801561137e57600080fd5b505af1158015611392573d6000803e3d6000fd5b505060015460408401516001600160a01b03909116925063f431550691506113bd9060ff1687613b8f565b6040516001600160e01b031960e084901b16815260048101919091526000602482015260440160c0604051808303816000875af1158015611402573d6000803e3d6000fd5b505050506040513d601f19601f8201168201806040525081019061057c9190613bdf565b80516000908290820361143c5750600092915050565b60208151111561144b57600080fd5b602083015181519092505b602081101561147e5761146a81601f613c86565b611475906008613b8f565b50600101611456565b5050919050565b50919050565b600080826001600160a01b03166395d89b416040518163ffffffff1660e01b8152600401600060405180830381865afa1580156114cc573d6000803e3d6000fd5b505050506040513d6000823e601f3d908101601f191682016040526114f49190810190613c99565b8051909150819060000361151b5760405163010466f160e21b815260040160405180910390fd5b60208201516000546040805163dacb2d0160e01b815260048101849052602481019190915260136044820152723737ba1030903932b9b2b93b32903a37b5b2b760691b60648201529194506001600160a01b03169063dacb2d0190608401602060405180830381865afa158015611596573d6000803e3d6000fd5b505050506040513d601f19601f820116820180604052508101906115ba9190613a49565b5050505050565b600654604051630b4c774160e11b81526001600160a01b038681166004830152858116602483015262ffffff85166044830152600092169082908290631698ee8290606401602060405180830381865afa158015611623573d6000803e3d6000fd5b505050506040513d601f19601f820116820180604052508101906116479190613a49565b90506000876001600160a01b031663313ce5676040518163ffffffff1660e01b8152600401602060405180830381865afa158015611689573d6000803e3d6000fd5b505050506040513d601f19601f820116820180604052508101906116ad9190613d07565b90506001600160a01b0382166117b25760405163a167129560e01b81526001600160a01b038981166004830152888116602483015262ffffff8816604483015284169063a1671295906064016020604051808303816000875af1158015611718573d6000803e3d6000fd5b505050506040513d601f19601f8201168201806040525081019061173c9190613a49565b9150816001600160a01b031663f637731d6117588b8885611fe8565b6040516001600160e01b031960e084901b1681526001600160a01b039091166004820152602401600060405180830381600087803b15801561179957600080fd5b505af11580156117ad573d6000803e3d6000fd5b505050505b50979650505050505050565b60008054604080518082019091526009815268115d18da15985d5b1d60ba1b6020820152829182916001600160a01b039091169063dacb2d019061180190611426565b6040518263ffffffff1660e01b8152600401611843918152604060208201819052600c908201526b1b9bc8115d18da15985d5b1d60a21b606082015260800190565b602060405180830381865afa158015611860573d6000803e3d6000fd5b505050506040513d601f19601f820116820180604052508101906118849190613a49565b60005460405163cda1ac0b60e01b81526001600160a01b03918216600482015291169063cda1ac0b9060240160408051808303816000875af11580156118ce573d6000803e3d6000fd5b505050506040513d601f19601f820116820180604052508101906118f29190613d24565b6001600160a01b0390811660c087015290811660a0860181905260048054606088015160405163134a538760e11b8152309381019390935260248301939093529183166044820152911690632694a70e906064016060604051808303816000875af1158015611965573d6000803e3d6000fd5b505050506040513d601f19601f820116820180604052508101906119899190613d5e565b6001600160a01b0390811661014088015290811661010087015290811660e086015260035460005460405163c071e0cb60e01b8152306004820152908316602482015291169063c071e0cb906044016020604051808303816000875af11580156119f7573d6000803e3d6000fd5b505050506040513d601f19601f82011682018060405250810190611a1b9190613a49565b600180546001600160a01b0319166001600160a01b0392909216918217905560a0850151604086015163f8c8765e913091611a546109f9565b60405160e086901b6001600160e01b03191681526001600160a01b039485166004820152928416602484015290831660448301529091166064820152608401600060405180830381600087803b158015611aad57600080fd5b505af1158015611ac1573d6000803e3d6000fd5b505050508360c001516001600160a01b031663c9d5fba58560a0015160008054906101000a90046001600160a01b03166001600160a01b031663dacb2d01611b34604051806040016040528060148152602001735661756c745570677261646546696e616c697a6560601b815250611426565b6040518263ffffffff1660e01b8152600401611b879181526040602082018190526017908201527f6e6f207661756c745570677261646546696e616c697a65000000000000000000606082015260800190565b602060405180830381865afa158015611ba4573d6000803e3d6000fd5b505050506040513d601f19601f82011682018060405250810190611bc89190613a49565b6040516001600160e01b031960e085901b1681526001600160a01b03928316600482015291166024820152604401600060405180830381600087803b158015611c1057600080fd5b505af1158015611c24573d6000803e3d6000fd5b5050600154602087015160609081015190880151611c5394506001600160a01b03908116935090911690612005565b6020840151606090810151908501516001546040516370a0823160e01b81526001600160a01b0391821660048201529116906370a0823190602401602060405180830381865afa158015611cab573d6000803e3d6000fd5b505050506040513d601f19601f82011682018060405250810190611ccf9190613dab565b14611ced5760405163a0ca77d960e01b815260040160405180910390fd5b6060840151600154610100860151604087015160a088015161014089015160208a01518a51611d2b97966001600160a01b031695949392919061205c565b6001600160a01b0390811661012080870191825260408051918201815260208089018051518452805182015182850152805183015160ff16848401526060808b01518716908501525160c090810151861660808501523360a0808601919091528a0180518716918501919091529351851660e0840152610100808a015186169084015292519093166000908152601f90925291902081518291908190611dd19082613e0c565b5060208201516001820190611de69082613e0c565b50604082810151600283018054606086015160ff9093166001600160a81b0319909116176101006001600160a01b0393841681029190911790915560808501516003850180546001600160a01b031990811692851692909217905560a080870151600487018054841691861691909117905560c0870151600587018054841691861691909117905560e087015160068701805484169186169190911790559190950151600790940180549095169390911692909217909255860151336000908152601e60205291909120611eb991612122565b50611ec5601c33612122565b50600160086000828254611ed99190613a36565b909155505060005460a086015161010087015160e0880151610120890151611f29946001600160a01b031693929190611f1061105d565b611f186109f9565b6001546001600160a01b0316612137565b5050505060a081015160408201516060909201519092565b6001600160a01b0382166000908152601e60205260408120611f639083611f6a565b9392505050565b6000611f638383612522565b60008162ffffff16606403611f8d57506001919050565b8162ffffff166101f403611fa35750600a919050565b8162ffffff16610bb803611fb95750603c919050565b8162ffffff1661271003611fcf575060c8919050565b604051631b99aa4560e11b815260040160405180910390fd5b6000611ffd611ff885858561254c565b612695565b949350505050565b604080516001600160a01b038416602482015260448082018490528251808303909101815260649091019091526020810180516001600160e01b031663a9059cbb60e01b1790526120579084906126a0565b505050565b60008061206d87878a88888861271c565b905083610100015160ff1660010361211557612115604051806101200160405280886001600160a01b03168152602001336001600160a01b031681526020018b6001600160a01b03168152602001896001600160a01b031681526020018a6001600160a01b03168152602001836001600160a01b031681526020018c6001600160a01b03168152602001876001600160a01b0316815260200161210e610c4f565b9052612aa6565b9998505050505050505050565b6000611f63836001600160a01b038416612b03565b60408051600680825260e082019092526000916020820160c0803683370190505090506121896040518060400160405280600e81526020016d4164617074697665537570706c7960901b815250611426565b8160008151811061219c5761219c613a0a565b6020026020010181815250506121d46040518060400160405280600b81526020016a26b7b232b62432b63832b960a91b815250611426565b816001815181106121e7576121e7613a0a565b60200260200101818152505061221b604051806040016040528060078152602001665374616b696e6760c81b815250611426565b8160028151811061222e5761222e613a0a565b60200260200101818152505061226060405180604001604052806005815260200164734e6f6d6160d81b815250611426565b8160038151811061227357612273613a0a565b6020026020010181815250506122a8604051806040016040528060088152602001672232b83637bcb2b960c11b815250611426565b816004815181106122bb576122bb613a0a565b6020026020010181815250506122ef6040518060400160405280600781526020016650726573616c6560c81b815250611426565b8160058151811061230257612302613a0a565b602090810291909101015260408051600680825260e08201909252600091816020016020820280368337019050509050848160008151811061234657612346613a0a565b60200260200101906001600160a01b031690816001600160a01b031681525050838160018151811061237a5761237a613a0a565b60200260200101906001600160a01b031690816001600160a01b03168152505087816002815181106123ae576123ae613a0a565b60200260200101906001600160a01b031690816001600160a01b03168152505086816003815181106123e2576123e2613a0a565b60200260200101906001600160a01b031690816001600160a01b031681525050828160048151811061241657612416613a0a565b60200260200101906001600160a01b031690816001600160a01b031681525050858160058151811061244a5761244a613a0a565b6001600160a01b039283166020918202929092010152604051632caf59a960e21b81528a82166004820152908b169063b2bd66a490602401600060405180830381600087803b15801561249c57600080fd5b505af11580156124b0573d6000803e3d6000fd5b505060405163094c3a6f60e41b81526001600160a01b038d1692506394c3a6f091506124e4908c9086908690600401613ecc565b600060405180830381600087803b1580156124fe57600080fd5b505af1158015612512573d6000803e3d6000fd5b5050505050505050505050505050565b600082600001828154811061253957612539613a0a565b9060005260206000200154905092915050565b600060068260ff1610158015612566575060128260ff1611155b61258357604051630692acc560e51b815260040160405180910390fd5b6000612590836012613f35565b61259b90600a614032565b90506125a78186614041565b94508361268268033dd1780914b9684073__$28bae0af19d0e90d77349cc0e88bc3c39a$__63bc4225aa6125e38a670de0b6b3a7640000614041565b6040516001600160e01b031960e084901b1681526004810191909152670de0b6b3a764000060248201526706f05b59d3b200006044820152606401602060405180830381865af415801561263b573d6000803e3d6000fd5b505050506040513d601f19601f8201168201806040525081019061265f9190613dab565b6126699190614071565b61267d600288900b658334ae9d7c0a614041565b612b52565b61268c9190614091565b95945050505050565b600061119382612ba2565b600080602060008451602086016000885af1806126c3576040513d6000823e3d81fd5b50506000513d915081156126db5780600114156126e8565b6001600160a01b0384163b155b1561271657604051635274afe760e01b81526001600160a01b03851660048201526024015b60405180910390fd5b50505050565b60008061272c8460e00151611255565b905083610100015160ff16600103612951576001600160a01b0387166000908152602160205260409020845185919081906127679082613e0c565b506020820151600182019061277c9082613e0c565b506040828101516002808401805460ff93841660ff199091161790556060808601516003860155608080870151600487015560a0870151600587015560c08701516006909601805460e089015161010090990151909516600160b81b0260ff60b81b1962ffffff909916600160a01b026001600160b81b03199096166001600160a01b0398891617959095179790971693909317909555548251610180810184523381528c851660208201528d851693810193909352875194830194909452878101519390921692630f665b079282019061285690612fba565b81526020878101518183015288516040805193019261287592016140b1565b6040516020818303038152906040528152602001876020015160405160200161289e91906140df565b6040516020818303038152906040528152602001876040015160ff1681526020018460020b81526020016128d0610c4f565b5160ff16815260608801516020909101526128e96106b8565b6040518363ffffffff1660e01b8152600401612906929190614109565b6020604051808303816000875af1158015612925573d6000803e3d6000fd5b505050506040513d601f19601f820116820180604052508101906129499190613a49565b915050612a9c565b60408051610120810182526001600160a01b03808a168252336020808401919091526001548216838501528b8216606084018190528a8316608085015291861660a08401528351630dfe168160e01b81529351612a1c9460c085019392630dfe1681926004808401938290030181865afa1580156129d3573d6000803e3d6000fd5b505050506040513d601f19601f820116820180604052508101906129f79190613a49565b6001600160a01b03168152602001876001600160a01b0316815260200161210e610c4f565b612a328460800151856060015183610940610c4f565b600160009054906101000a90046001600160a01b03166001600160a01b0316634bb278f36040518163ffffffff1660e01b8152600401600060405180830381600087803b158015612a8257600080fd5b505af1158015612a96573d6000803e3d6000fd5b50505050505b9695505050505050565b805160208201516040808401516060850151608086015160a087015160e08801516101008901519551630a66e71960e11b81526001600160a01b038916976314cdce329761054e9730979296909592949093909190600401614217565b6000818152600183016020526040812054612b4a57508154600181810184556000848152602080822090930184905584548482528286019093526040902091909155611193565b506000611193565b600061138861271083612b658683614041565b612b6f9190614265565b612b799190614293565b13612b8d57612b888284614265565b611f63565b612b978284614265565b611f639060016142a7565b60008060008360020b12612bb9578260020b612bc6565b8260020b612bc6906142cf565b9050612bd5620d89e7196142eb565b60020b811115612c0b5760405162461bcd60e51b81526020600482015260016024820152601560fa1b604482015260640161270d565b600081600116600003612c2257600160801b612c34565b6ffffcb933bd6fad37aa2d162d1a5940015b70ffffffffffffffffffffffffffffffffff1690506002821615612c73576080612c6e826ffff97272373d413259a46990580e213a613b8f565b901c90505b6004821615612c9d576080612c98826ffff2e50f5f656932ef12357cf3c7fdcc613b8f565b901c90505b6008821615612cc7576080612cc2826fffe5caca7e10e4e61c3624eaa0941cd0613b8f565b901c90505b6010821615612cf1576080612cec826fffcb9843d60f6159c9db58835c926644613b8f565b901c90505b6020821615612d1b576080612d16826fff973b41fa98c081472e6896dfb254c0613b8f565b901c90505b6040821615612d45576080612d40826fff2ea16466c96a3843ec78b326b52861613b8f565b901c90505b6080821615612d6f576080612d6a826ffe5dee046a99a2a811c461f1969c3053613b8f565b901c90505b610100821615612d9a576080612d95826ffcbe86c7900a88aedcffc83b479aa3a4613b8f565b901c90505b610200821615612dc5576080612dc0826ff987a7253ac413176f2b074cf7815e54613b8f565b901c90505b610400821615612df0576080612deb826ff3392b0822b70005940c7a398e4b70f3613b8f565b901c90505b610800821615612e1b576080612e16826fe7159475a2c29b7443b29c7fa6e889d9613b8f565b901c90505b611000821615612e46576080612e41826fd097f3bdfd2022b8845ad8f792aa5825613b8f565b901c90505b612000821615612e71576080612e6c826fa9f746462d870fdf8a65dc1f90e061e5613b8f565b901c90505b614000821615612e9c576080612e97826f70d869a156d2a1b890bb3df62baf32f7613b8f565b901c90505b618000821615612ec7576080612ec2826f31be135f97d08fd981231505542fcfa6613b8f565b901c90505b62010000821615612ef3576080612eee826f09aa508b5b7a84e1c677de54f3e99bc9613b8f565b901c90505b62020000821615612f1e576080612f19826e5d6af8dedb81196699c329225ee604613b8f565b901c90505b62040000821615612f48576080612f43826d2216e584f5fa1ea926041bedfe98613b8f565b901c90505b62080000821615612f70576080612f6b826b048a170391f7dc42444e8fa2613b8f565b901c90505b60008460020b1315612f8b57612f8881600019613bbc565b90505b612f9a6401000000008261430d565b15612fa6576001612fa9565b60005b611ffd9060ff16602083901c613a36565b6000612fc4610c4f565b6101c00151600003612fe957604051630e52390960e41b815260040160405180910390fd5b60006064612ff5610c4f565b6101c001516130049085613b8f565b61300e9190613bbc565b611f639084613a36565b508054613024906139d6565b6000825580601f10613034575050565b601f0160209004906000526020600020908101906130529190613171565b50565b6001830191839082156130db5791602002820160005b838211156130ab57835183826101000a81548161ffff021916908361ffff160217905550926020019260020160208160010104928301926001030261306b565b80156130d95782816101000a81549061ffff02191690556002016020816001010492830192600103026130ab565b505b506130e7929150613171565b5090565b604080516101e0810182526000808252602082018190529181019190915260608101613115613186565b81526020016000815260200160008152602001600060020b8152602001600060020b8152602001600060020b81526020016000815260200160008152602001600081526020016000815260200160008152602001600081525090565b5b808211156130e75760008155600101613172565b60405180604001604052806002906020820280368337509192915050565b6001600160a01b038116811461305257600080fd5b80356131c4816131a4565b919050565b6000602082840312156131db57600080fd5b8135611f63816131a4565b60005b838110156132015781810151838201526020016131e9565b50506000910152565b600081518084526132228160208601602086016131e6565b601f01601f19169290920160200192915050565b602081526000825161012080602085015261325561014085018361320a565b91506020850151601f19858403016040860152613272838261320a565b9250506040850151613289606086018260ff169052565b5060608501516001600160a01b03811660808601525060808501516001600160a01b03811660a08601525060a08501516001600160a01b03811660c08601525060c08501516001600160a01b03811660e08601525060e08501516101006132fa818701836001600160a01b03169052565b8601516001600160a01b0381168387015290505b5090949350505050565b6000806040838503121561332b57600080fd5b8235613336816131a4565b946020939093013593505050565b60006020828403121561335657600080fd5b81358015158114611f6357600080fd5b60008151808452602080850194506020840160005b838110156133a05781516001600160a01b03168752958201959082019060010161337b565b509495945050505050565b602081526000611f636020830184613366565b805182526020810151602083015260408101516040830152606081015160608301526080810151608083015260a081015160a083015260c081015160c08301525050565b60e0810161119382846133be565b634e487b7160e01b600052604160045260246000fd5b6040805190810167ffffffffffffffff8111828210171561344957613449613410565b60405290565b6040516101e0810167ffffffffffffffff8111828210171561344957613449613410565b604051610120810167ffffffffffffffff8111828210171561344957613449613410565b60405160a0810167ffffffffffffffff8111828210171561344957613449613410565b604051601f8201601f1916810167ffffffffffffffff811182821017156134e3576134e3613410565b604052919050565b60ff8116811461305257600080fd5b80356131c4816134eb565b600082601f83011261351657600080fd5b61351e613426565b80604084018581111561353057600080fd5b845b8181101561355b57803561ffff8116811461354d5760008081fd5b845260209384019301613532565b509095945050505050565b8060020b811461305257600080fd5b80356131c481613566565b6000610200828403121561359357600080fd5b61359b61344f565b6135a4836134fa565b81526135b2602084016134fa565b60208201526135c3604084016134fa565b60408201526135d58460608501613505565b606082015260a0830135608082015260c083013560a08201526135fa60e08401613575565b60c082015261010061360d818501613575565b60e0830152610120613620818601613575565b828401526101409150818501358184015250610160808501358284015261018091508185013581840152506101a080850135828401526101c091508185013581840152506101e084013581830152508091505092915050565b600060e0828403121561368b57600080fd5b60405160e0810181811067ffffffffffffffff821117156136ae576136ae613410565b8060405250823581526020830135602082015260408301356040820152606083013560608201526080830135608082015260a083013560a082015260c083013560c08201528091505092915050565b8060005b600281101561271657815161ffff16845260209384019390910190600101613701565b805160ff168252602081015161373f602084018260ff169052565b506040810151613754604084018260ff169052565b50606081015161376760608401826136fd565b50608081015160a083015260a081015160c083015260c081015161379060e084018260020b9052565b5060e08101516101006137a78185018360020b9052565b82015190506101206137bd8482018360020b9052565b8201516101408481019190915282015161016080850191909152820151610180808501919091528201516101a0808501919091528201516101c080850191909152909101516101e09092019190915250565b61020081016111938284613724565b600067ffffffffffffffff82111561383857613838613410565b50601f01601f191660200190565b600082601f83011261385757600080fd5b813561386a6138658261381e565b6134ba565b81815284602083860101111561387f57600080fd5b816020850160208301376000918101602001919091529392505050565b803562ffffff811681146131c457600080fd5b60008082840360608112156138c357600080fd5b60408112156138d157600080fd5b506138da613426565b83358152602080850135908201529150604083013567ffffffffffffffff8082111561390557600080fd5b90840190610120828703121561391a57600080fd5b613922613473565b82358281111561393157600080fd5b61393d88828601613846565b82525060208301358281111561395257600080fd5b61395e88828601613846565b602083015250613970604084016134fa565b6040820152606083013560608201526080830135608082015260a083013560a082015261399f60c084016131b9565b60c08201526139b060e0840161389c565b60e082015261010091506139c58284016134fa565b828201528093505050509250929050565b600181811c908216806139ea57607f821691505b60208210810361148557634e487b7160e01b600052602260045260246000fd5b634e487b7160e01b600052603260045260246000fd5b634e487b7160e01b600052601160045260246000fd5b8082018082111561119357611193613a20565b600060208284031215613a5b57600080fd5b8151611f63816131a4565b60008351613a788184602088016131e6565b835190830190613a8c8183602088016131e6565b01949350505050565b6020815260008251610120806020850152613ab461014085018361320a565b91506020850151601f19858403016040860152613ad1838261320a565b9250506040850151613ae8606086018260ff169052565b5060608501516080850152608085015160a085015260a085015160c085015260c0850151613b2160e08601826001600160a01b03169052565b5060e0850151610100613b3a8187018362ffffff169052565b86015160ff811683870152905061330e565b600080600060608486031215613b6157600080fd5b8351613b6c816131a4565b6020850151909350613b7d816131a4565b80925050604084015190509250925092565b808202811582820484141761119357611193613a20565b634e487b7160e01b600052601260045260246000fd5b600082613bcb57613bcb613ba6565b500490565b8051600381106131c457600080fd5b60008082840360c0811215613bf357600080fd5b60a0811215613c0157600080fd5b50613c0a613497565b8351613c1581613566565b81526020840151613c2581613566565b602082015260408401516fffffffffffffffffffffffffffffffff81168114613c4d57600080fd5b6040820152606084810151908201526080840151613c6a81613566565b60808201529150613c7d60a08401613bd0565b90509250929050565b8181038181111561119357611193613a20565b600060208284031215613cab57600080fd5b815167ffffffffffffffff811115613cc257600080fd5b8201601f81018413613cd357600080fd5b8051613ce16138658261381e565b818152856020838501011115613cf657600080fd5b61268c8260208301602086016131e6565b600060208284031215613d1957600080fd5b8151611f63816134eb565b60008060408385031215613d3757600080fd5b8251613d42816131a4565b6020840151909250613d53816131a4565b809150509250929050565b600080600060608486031215613d7357600080fd5b8351613d7e816131a4565b6020850151909350613d8f816131a4565b6040850151909250613da0816131a4565b809150509250925092565b600060208284031215613dbd57600080fd5b5051919050565b601f821115612057576000816000526020600020601f850160051c81016020861015613ded5750805b601f850160051c820191505b8181101561057c57828155600101613df9565b815167ffffffffffffffff811115613e2657613e26613410565b613e3a81613e3484546139d6565b84613dc4565b602080601f831160018114613e6f5760008415613e575750858301515b600019600386901b1c1916600185901b17855561057c565b600085815260208120601f198616915b82811015613e9e57888601518255948401946001909101908401613e7f565b5085821015613ebc5787850151600019600388901b60f8161c191681555b5050505050600190811b01905550565b6001600160a01b038416815260606020808301829052845191830182905260009185820191906080850190845b81811015613f1557845183529383019391830191600101613ef9565b50508481036040860152613f298187613366565b98975050505050505050565b60ff828116828216039081111561119357611193613a20565b600181815b80851115613f89578160001904821115613f6f57613f6f613a20565b80851615613f7c57918102915b93841c9390800290613f53565b509250929050565b600082613fa057506001611193565b81613fad57506000611193565b8160018114613fc35760028114613fcd57613fe9565b6001915050611193565b60ff841115613fde57613fde613a20565b50506001821b611193565b5060208310610133831016604e8410600b841016171561400c575081810a611193565b6140168383613f4e565b806000190482111561402a5761402a613a20565b029392505050565b6000611f6360ff841683613f91565b80820260008212600160ff1b8414161561405d5761405d613a20565b818105831482151761119357611193613a20565b81810360008312801583831316838312821617156106b1576106b1613a20565b60008260020b8260020b028060020b91508082146106b1576106b1613a20565b600082516140c38184602087016131e6565b6908141c9948105cdcd95d60b21b920191825250600a01919050565b61702d60f01b8152600082516140fc8160028501602087016131e6565b9190910160020192915050565b600061010080835261412681840186516001600160a01b03169052565b6020850151610120614142818601836001600160a01b03169052565b60408701519150610140614160818701846001600160a01b03169052565b60608801519250610160838188015260808901519350610180848189015260a08a01516101a089015260c08a01519450806101c0890152506141a661028088018561320a565b935060e089015160ff19888603016101e08901526141c4858261320a565b958a015160ff81166102008a01529594506141dc9050565b8289015194506141f261022088018660020b9052565b90880151610240870152870151610260860152509150611f63905060208301846133be565b6001600160a01b038981168252888116602083015287811660408301528681166060830152858116608083015284811660a0830152831660c08201526102e0810161211560e0830184613724565b60008261427457614274613ba6565b600160ff1b82146000198414161561428e5761428e613a20565b500590565b6000826142a2576142a2613ba6565b500790565b80820182811260008312801582168215821617156142c7576142c7613a20565b505092915050565b6000600160ff1b82016142e4576142e4613a20565b5060000390565b60008160020b627fffff19810361430457614304613a20565b60000392915050565b60008261431c5761431c613ba6565b50069056fea26469706673582212200344e4fccb96ee92678fa0f4c3bc512dfd378e16439dd7fb17b6d4f89d5e6e8164736f6c63430008170033","linkReferences":{"src/libraries/Logarithm.sol":{"Logarithm":[{"start":10103,"length":20}]}}},"methodIdentifiers":{"adaptiveSupply()":"ef5ddb31","burnFor(address,uint256)":"1dd319cb","deferredDeploy(address)":"7d19a2cb","deployVault((uint256,uint256),(string,string,uint8,uint256,uint256,uint256,address,uint24,uint8))":"d4850df5","getDeployers()":"607c12b5","getPresaleProtocolParams()":"615de71f","getProtocolParameters()":"c58aad87","getVaultDescription(address)":"0337c57a","getVaults(address)":"fe7c9c92","mintTokens(address,uint256)":"f0dda65c","modelHelper()":"a3e44b33","numDeployers()":"098eddb1","numVaults()":"264a6208","numVaults(address)":"f9c7bba5","setPermissionlessDeploy(bool)":"397ae005","setPresaleProtocolParams((uint256,uint256,uint256,uint256,uint256,uint256,uint256))":"a95d61ca","setProtocolParameters((uint8,uint8,uint8,uint16[2],uint256,uint256,int24,int24,int24,uint256,uint256,uint256,uint256,uint256,uint256))":"a879b078","teamMultiSig()":"854567f1","tokenFactory()":"e77772fe"},"id":92}