{"abi":[{"type":"constructor","inputs":[],"stateMutability":"nonpayable"},{"type":"function","name":"UPGRADE_INTERFACE_VERSION","inputs":[],"outputs":[{"name":"","type":"string","internalType":"string"}],"stateMutability":"view"},{"type":"function","name":"allowance","inputs":[{"name":"owner","type":"address","internalType":"address"},{"name":"spender","type":"address","internalType":"address"}],"outputs":[{"name":"","type":"uint256","internalType":"uint256"}],"stateMutability":"view"},{"type":"function","name":"approve","inputs":[{"name":"spender","type":"address","internalType":"address"},{"name":"value","type":"uint256","internalType":"uint256"}],"outputs":[{"name":"","type":"bool","internalType":"bool"}],"stateMutability":"nonpayable"},{"type":"function","name":"balanceOf","inputs":[{"name":"account","type":"address","internalType":"address"}],"outputs":[{"name":"","type":"uint256","internalType":"uint256"}],"stateMutability":"view"},{"type":"function","name":"burn","inputs":[{"name":"account","type":"address","internalType":"address"},{"name":"amount","type":"uint256","internalType":"uint256"}],"outputs":[],"stateMutability":"nonpayable"},{"type":"function","name":"decimals","inputs":[],"outputs":[{"name":"","type":"uint8","internalType":"uint8"}],"stateMutability":"view"},{"type":"function","name":"initialize","inputs":[{"name":"_deployer","type":"address","internalType":"address"},{"name":"_initialSupply","type":"uint256","internalType":"uint256"},{"name":"_maxTotalSupply","type":"uint256","internalType":"uint256"},{"name":"_name","type":"string","internalType":"string"},{"name":"_symbol","type":"string","internalType":"string"},{"name":"_resolver","type":"address","internalType":"address"}],"outputs":[],"stateMutability":"nonpayable"},{"type":"function","name":"isBackLogAddress","inputs":[{"name":"","type":"address","internalType":"address"}],"outputs":[{"name":"","type":"bool","internalType":"bool"}],"stateMutability":"view"},{"type":"function","name":"maxTotalSupply","inputs":[],"outputs":[{"name":"","type":"uint256","internalType":"uint256"}],"stateMutability":"view"},{"type":"function","name":"mint","inputs":[{"name":"_recipient","type":"address","internalType":"address"},{"name":"_amount","type":"uint256","internalType":"uint256"}],"outputs":[],"stateMutability":"nonpayable"},{"type":"function","name":"name","inputs":[],"outputs":[{"name":"","type":"string","internalType":"string"}],"stateMutability":"view"},{"type":"function","name":"nomaFactory","inputs":[],"outputs":[{"name":"","type":"address","internalType":"address"}],"stateMutability":"view"},{"type":"function","name":"owner","inputs":[],"outputs":[{"name":"","type":"address","internalType":"address"}],"stateMutability":"view"},{"type":"function","name":"proxiableUUID","inputs":[],"outputs":[{"name":"","type":"bytes32","internalType":"bytes32"}],"stateMutability":"pure"},{"type":"function","name":"renounceOwnership","inputs":[],"outputs":[],"stateMutability":"nonpayable"},{"type":"function","name":"resolver","inputs":[],"outputs":[{"name":"","type":"address","internalType":"contract IAddressResolver"}],"stateMutability":"view"},{"type":"function","name":"setOwner","inputs":[{"name":"_owner","type":"address","internalType":"address"}],"outputs":[],"stateMutability":"nonpayable"},{"type":"function","name":"symbol","inputs":[],"outputs":[{"name":"","type":"string","internalType":"string"}],"stateMutability":"view"},{"type":"function","name":"totalSupply","inputs":[],"outputs":[{"name":"","type":"uint256","internalType":"uint256"}],"stateMutability":"view"},{"type":"function","name":"transfer","inputs":[{"name":"to","type":"address","internalType":"address"},{"name":"value","type":"uint256","internalType":"uint256"}],"outputs":[{"name":"","type":"bool","internalType":"bool"}],"stateMutability":"nonpayable"},{"type":"function","name":"transferFrom","inputs":[{"name":"from","type":"address","internalType":"address"},{"name":"to","type":"address","internalType":"address"},{"name":"value","type":"uint256","internalType":"uint256"}],"outputs":[{"name":"","type":"bool","internalType":"bool"}],"stateMutability":"nonpayable"},{"type":"function","name":"transferOwnership","inputs":[{"name":"newOwner","type":"address","internalType":"address"}],"outputs":[],"stateMutability":"nonpayable"},{"type":"function","name":"upgradeToAndCall","inputs":[{"name":"newImplementation","type":"address","internalType":"address"},{"name":"data","type":"bytes","internalType":"bytes"}],"outputs":[],"stateMutability":"payable"},{"type":"function","name":"version","inputs":[],"outputs":[{"name":"","type":"string","internalType":"string"}],"stateMutability":"pure"},{"type":"event","name":"Approval","inputs":[{"name":"owner","type":"address","indexed":true,"internalType":"address"},{"name":"spender","type":"address","indexed":true,"internalType":"address"},{"name":"value","type":"uint256","indexed":false,"internalType":"uint256"}],"anonymous":false},{"type":"event","name":"Initialized","inputs":[{"name":"version","type":"uint64","indexed":false,"internalType":"uint64"}],"anonymous":false},{"type":"event","name":"OwnershipTransferred","inputs":[{"name":"previousOwner","type":"address","indexed":true,"internalType":"address"},{"name":"newOwner","type":"address","indexed":true,"internalType":"address"}],"anonymous":false},{"type":"event","name":"Transfer","inputs":[{"name":"from","type":"address","indexed":true,"internalType":"address"},{"name":"to","type":"address","indexed":true,"internalType":"address"},{"name":"value","type":"uint256","indexed":false,"internalType":"uint256"}],"anonymous":false},{"type":"event","name":"Upgraded","inputs":[{"name":"implementation","type":"address","indexed":true,"internalType":"address"}],"anonymous":false},{"type":"error","name":"AddressEmptyCode","inputs":[{"name":"target","type":"address","internalType":"address"}]},{"type":"error","name":"CannotInitializeLogicContract","inputs":[]},{"type":"error","name":"ERC1967InvalidImplementation","inputs":[{"name":"implementation","type":"address","internalType":"address"}]},{"type":"error","name":"ERC1967NonPayable","inputs":[]},{"type":"error","name":"ERC20InsufficientAllowance","inputs":[{"name":"spender","type":"address","internalType":"address"},{"name":"allowance","type":"uint256","internalType":"uint256"},{"name":"needed","type":"uint256","internalType":"uint256"}]},{"type":"error","name":"ERC20InsufficientBalance","inputs":[{"name":"sender","type":"address","internalType":"address"},{"name":"balance","type":"uint256","internalType":"uint256"},{"name":"needed","type":"uint256","internalType":"uint256"}]},{"type":"error","name":"ERC20InvalidApprover","inputs":[{"name":"approver","type":"address","internalType":"address"}]},{"type":"error","name":"ERC20InvalidReceiver","inputs":[{"name":"receiver","type":"address","internalType":"address"}]},{"type":"error","name":"ERC20InvalidSender","inputs":[{"name":"sender","type":"address","internalType":"address"}]},{"type":"error","name":"ERC20InvalidSpender","inputs":[{"name":"spender","type":"address","internalType":"address"}]},{"type":"error","name":"FailedCall","inputs":[]},{"type":"error","name":"InvalidInitialization","inputs":[]},{"type":"error","name":"MaxSupplyReached","inputs":[]},{"type":"error","name":"NotInitializing","inputs":[]},{"type":"error","name":"OnlyFactory","inputs":[]},{"type":"error","name":"OwnableInvalidOwner","inputs":[{"name":"owner","type":"address","internalType":"address"}]},{"type":"error","name":"OwnableUnauthorizedAccount","inputs":[{"name":"account","type":"address","internalType":"address"}]},{"type":"error","name":"UUPSUnauthorizedCallContext","inputs":[]},{"type":"error","name":"UUPSUnsupportedProxiableUUID","inputs":[{"name":"slot","type":"bytes32","internalType":"bytes32"}]}],"bytecode":{"object":"0x60a060405230608052348015610013575f80fd5b5061001c610021565b6100d3565b7ff0c57e16840df040f15088dc2f81fe391c3923bec73e23a9662efc9c229c6a00805468010000000000000000900460ff16156100715760405163f92ee8a960e01b815260040160405180910390fd5b80546001600160401b03908116146100d05780546001600160401b0319166001600160401b0390811782556040519081527fc7f505b2f371ae2175ee4913f4499e1f2633a7b5936321eed1cdaeb6115181d29060200160405180910390a15b50565b60805161174b6100f25f395f8181610b100152610b39015261174b5ff3fe608060405260043610610147575f3560e01c806354fd4d50116100b3578063a9059cbb1161006d578063a9059cbb146103e3578063ad3cb1cc14610402578063d105f94214610432578063dd62ed3e14610451578063e73a2a7a14610470578063f2fde38b14610484575f80fd5b806354fd4d50146102f757806370a0823114610320578063715018a6146103605780638da5cb5b1461037457806395d89b41146103b05780639dc29fac146103c4575f80fd5b806323b872dd1161010457806323b872dd146102625780632ab4d05214610281578063313ce5671461029657806340c10f19146102b15780634f1ef286146102d057806352d1902d146102e3575f80fd5b806304f3bcec1461014b57806306fdde0314610186578063095ea7b3146101a757806313af4035146101d657806317e4a7e1146101f757806318160ddd14610225575b5f80fd5b348015610156575f80fd5b505f54610169906001600160a01b031681565b6040516001600160a01b0390911681526020015b60405180910390f35b348015610191575f80fd5b5061019a6104a3565b60405161017d9190611285565b3480156101b2575f80fd5b506101c66101c13660046112cb565b610563565b604051901515815260200161017d565b3480156101e1575f80fd5b506101f56101f03660046112f5565b61057c565b005b348015610202575f80fd5b506101c66102113660046112f5565b60026020525f908152604090205460ff1681565b348015610230575f80fd5b507f52c63247e1f47db19d5ce0460030c497f067ca4cebf71ba98eeadabe20bace02545b60405190815260200161017d565b34801561026d575f80fd5b506101c661027c366004611310565b610590565b34801561028c575f80fd5b5061025460015481565b3480156102a1575f80fd5b506040516012815260200161017d565b3480156102bc575f80fd5b506101f56102cb3660046112cb565b6105b5565b6101f56102de3660046113d5565b6105fc565b3480156102ee575f80fd5b50610254610617565b348015610302575f80fd5b506040805180820190915260018152603160f81b602082015261019a565b34801561032b575f80fd5b5061025461033a3660046112f5565b6001600160a01b03165f9081525f805160206116f6833981519152602052604090205490565b34801561036b575f80fd5b506101f5610645565b34801561037f575f80fd5b507f9016d09d72d40fdae2fd8ceac6b6234c7706214fd39c1cd1e609a0528c199300546001600160a01b0316610169565b3480156103bb575f80fd5b5061019a610657565b3480156103cf575f80fd5b506101f56103de3660046112cb565b610695565b3480156103ee575f80fd5b506101c66103fd3660046112cb565b6106d8565b34801561040d575f80fd5b5061019a604051806040016040528060058152602001640352e302e360dc1b81525081565b34801561043d575f80fd5b506101f561044c366004611453565b6106e5565b34801561045c575f80fd5b5061025461046b3660046114ea565b610853565b34801561047b575f80fd5b5061016961089c565b34801561048f575f80fd5b506101f561049e3660046112f5565b610964565b7f52c63247e1f47db19d5ce0460030c497f067ca4cebf71ba98eeadabe20bace0380546060915f805160206116f6833981519152916104e190611521565b80601f016020809104026020016040519081016040528092919081815260200182805461050d90611521565b80156105585780601f1061052f57610100808354040283529160200191610558565b820191905f5260205f20905b81548152906001019060200180831161053b57829003601f168201915b505050505091505090565b5f336105708185856109a3565b60019150505b92915050565b6105846109b5565b61058d81610964565b50565b5f3361059d858285610a10565b6105a8858585610a74565b60019150505b9392505050565b6105bd61089c565b6001600160a01b0316336001600160a01b0316146105ee57604051630636a15760e11b815260040160405180910390fd5b6105f88282610ad1565b5050565b610604610b05565b61060d82610bbc565b6105f88282610bc4565b5f7f360894a13ba1a3210667c828492db98dca3e2076cc3735a920a3ca505d382bbd816105ae600183611567565b61064d6109b5565b610655610645565b565b7f52c63247e1f47db19d5ce0460030c497f067ca4cebf71ba98eeadabe20bace0480546060915f805160206116f6833981519152916104e190611521565b61069d61089c565b6001600160a01b0316336001600160a01b0316146106ce57604051630636a15760e11b815260040160405180910390fd5b6105f88282610c93565b5f33610570818585610a74565b7ff0c57e16840df040f15088dc2f81fe391c3923bec73e23a9662efc9c229c6a008054600160401b810460ff16159067ffffffffffffffff165f8115801561072a5750825b90505f8267ffffffffffffffff1660011480156107465750303b155b905081158015610754575080155b156107725760405163f92ee8a960e01b815260040160405180910390fd5b845467ffffffffffffffff19166001178555831561079c57845460ff60401b1916600160401b1785555b3033036107bc57604051632c4311a560e11b815260040160405180910390fd5b6107c68888610cc7565b6107cf8b610cd9565b6107d7610cea565b6107e18b8b610ad1565b60018990555f80546001600160a01b0319166001600160a01b038816179055831561084657845460ff60401b19168555604051600181527fc7f505b2f371ae2175ee4913f4499e1f2633a7b5936321eed1cdaeb6115181d29060200160405180910390a15b5050505050505050505050565b6001600160a01b039182165f9081527f52c63247e1f47db19d5ce0460030c497f067ca4cebf71ba98eeadabe20bace016020908152604080832093909416825291909152205490565b5f805460408051808201909152600b81526a4e6f6d61466163746f727960a81b60208201526001600160a01b039091169063dacb2d01906108dc90610cf2565b6040518263ffffffff1660e01b8152600401610920918152604060208201819052600e908201526d6e6f204e6f6d61466163746f727960901b606082015260800190565b602060405180830381865afa15801561093b573d5f803e3d5ffd5b505050506040513d601f19601f8201168201806040525081019061095f919061157a565b905090565b61096c6109b5565b6001600160a01b03811661099a57604051631e4fbdf760e01b81525f60048201526024015b60405180910390fd5b61058d81610d54565b6109b08383836001610dc4565b505050565b336109e77f9016d09d72d40fdae2fd8ceac6b6234c7706214fd39c1cd1e609a0528c199300546001600160a01b031690565b6001600160a01b0316146106555760405163118cdaa760e01b8152336004820152602401610991565b5f610a1b8484610853565b90505f19811015610a6e5781811015610a6057604051637dc7a0d960e11b81526001600160a01b03841660048201526024810182905260448101839052606401610991565b610a6e84848484035f610dc4565b50505050565b6001600160a01b038316610a9d57604051634b637e8f60e11b81525f6004820152602401610991565b6001600160a01b038216610ac65760405163ec442f0560e01b81525f6004820152602401610991565b6109b0838383610ea8565b6001600160a01b038216610afa5760405163ec442f0560e01b81525f6004820152602401610991565b6105f85f8383610ea8565b306001600160a01b037f0000000000000000000000000000000000000000000000000000000000000000161480610b9e57507f00000000000000000000000000000000000000000000000000000000000000006001600160a01b0316610b927f360894a13ba1a3210667c828492db98dca3e2076cc3735a920a3ca505d382bbc546001600160a01b031690565b6001600160a01b031614155b156106555760405163703e46dd60e11b815260040160405180910390fd5b61058d6109b5565b816001600160a01b03166352d1902d6040518163ffffffff1660e01b8152600401602060405180830381865afa925050508015610c1e575060408051601f3d908101601f19168201909252610c1b91810190611595565b60015b610c4657604051634c9c8ce360e01b81526001600160a01b0383166004820152602401610991565b7f360894a13ba1a3210667c828492db98dca3e2076cc3735a920a3ca505d382bbc8114610c8957604051632a87526960e21b815260048101829052602401610991565b6109b08383610fe1565b6001600160a01b038216610cbc57604051634b637e8f60e11b81525f6004820152602401610991565b6105f8825f83610ea8565b610ccf611036565b6105f8828261107f565b610ce1611036565b61058d816110cf565b610655611036565b80515f9082908203610d0657505f92915050565b602081511115610d14575f80fd5b602083015181519092505b6020811015610d4757610d3381601f611567565b610d3e9060086115ac565b50600101610d1f565b5050919050565b50919050565b7f9016d09d72d40fdae2fd8ceac6b6234c7706214fd39c1cd1e609a0528c19930080546001600160a01b031981166001600160a01b03848116918217845560405192169182907f8be0079c531659141344cd1fd0a4f28419497f9722a3daafe3b4186f6b6457e0905f90a3505050565b5f805160206116f68339815191526001600160a01b038516610dfb5760405163e602df0560e01b81525f6004820152602401610991565b6001600160a01b038416610e2457604051634a1406b160e11b81525f6004820152602401610991565b6001600160a01b038086165f90815260018301602090815260408083209388168352929052208390558115610ea157836001600160a01b0316856001600160a01b03167f8c5be1e5ebec7d5bd14f71427d1e84f3dd0314c0f7b2291e5b200ac8c7c3b92585604051610e9891815260200190565b60405180910390a35b5050505050565b5f805160206116f68339815191526001600160a01b038416610ee25781816002015f828254610ed791906115c3565b90915550610f529050565b6001600160a01b0384165f9081526020829052604090205482811015610f345760405163391434e360e21b81526001600160a01b03861660048201526024810182905260448101849052606401610991565b6001600160a01b0385165f9081526020839052604090209083900390555b6001600160a01b038316610f70576002810180548390039055610f8e565b6001600160a01b0383165f9081526020829052604090208054830190555b826001600160a01b0316846001600160a01b03167fddf252ad1be2c89b69c2b068fc378daa952ba7f163c4a11628f55a4df523b3ef84604051610fd391815260200190565b60405180910390a350505050565b610fea826110d7565b6040516001600160a01b038316907fbc7cd75a20ee27fd9adebab32041f755214dbc6bffa90cc0225b39da2e5c2d3b905f90a280511561102e576109b0828261114d565b6105f86111bf565b7ff0c57e16840df040f15088dc2f81fe391c3923bec73e23a9662efc9c229c6a0054600160401b900460ff1661065557604051631afcd79f60e31b815260040160405180910390fd5b611087611036565b5f805160206116f68339815191527f52c63247e1f47db19d5ce0460030c497f067ca4cebf71ba98eeadabe20bace036110c0848261161a565b5060048101610a6e838261161a565b61096c611036565b806001600160a01b03163b5f0361110c57604051634c9c8ce360e01b81526001600160a01b0382166004820152602401610991565b7f360894a13ba1a3210667c828492db98dca3e2076cc3735a920a3ca505d382bbc80546001600160a01b0319166001600160a01b0392909216919091179055565b60605f80846001600160a01b03168460405161116991906116da565b5f60405180830381855af49150503d805f81146111a1576040519150601f19603f3d011682016040523d82523d5f602084013e6111a6565b606091505b50915091506111b68583836111de565b95945050505050565b34156106555760405163b398979f60e01b815260040160405180910390fd5b6060826111f3576111ee8261123a565b6105ae565b815115801561120a57506001600160a01b0384163b155b1561123357604051639996b31560e01b81526001600160a01b0385166004820152602401610991565b50806105ae565b80511561124a5780518082602001fd5b60405163d6bda27560e01b815260040160405180910390fd5b5f5b8381101561127d578181015183820152602001611265565b50505f910152565b602081525f82518060208401526112a3816040850160208701611263565b601f01601f19169190910160400192915050565b6001600160a01b038116811461058d575f80fd5b5f80604083850312156112dc575f80fd5b82356112e7816112b7565b946020939093013593505050565b5f60208284031215611305575f80fd5b81356105ae816112b7565b5f805f60608486031215611322575f80fd5b833561132d816112b7565b9250602084013561133d816112b7565b929592945050506040919091013590565b634e487b7160e01b5f52604160045260245ffd5b5f67ffffffffffffffff8084111561137c5761137c61134e565b604051601f8501601f19908116603f011681019082821181831017156113a4576113a461134e565b816040528093508581528686860111156113bc575f80fd5b858560208301375f602087830101525050509392505050565b5f80604083850312156113e6575f80fd5b82356113f1816112b7565b9150602083013567ffffffffffffffff81111561140c575f80fd5b8301601f8101851361141c575f80fd5b61142b85823560208401611362565b9150509250929050565b5f82601f830112611444575f80fd5b6105ae83833560208501611362565b5f805f805f8060c08789031215611468575f80fd5b8635611473816112b7565b95506020870135945060408701359350606087013567ffffffffffffffff8082111561149d575f80fd5b6114a98a838b01611435565b945060808901359150808211156114be575f80fd5b506114cb89828a01611435565b92505060a08701356114dc816112b7565b809150509295509295509295565b5f80604083850312156114fb575f80fd5b8235611506816112b7565b91506020830135611516816112b7565b809150509250929050565b600181811c9082168061153557607f821691505b602082108103610d4e57634e487b7160e01b5f52602260045260245ffd5b634e487b7160e01b5f52601160045260245ffd5b8181038181111561057657610576611553565b5f6020828403121561158a575f80fd5b81516105ae816112b7565b5f602082840312156115a5575f80fd5b5051919050565b808202811582820484141761057657610576611553565b8082018082111561057657610576611553565b601f8211156109b057805f5260205f20601f840160051c810160208510156115fb5750805b601f840160051c820191505b81811015610ea1575f8155600101611607565b815167ffffffffffffffff8111156116345761163461134e565b611648816116428454611521565b846115d6565b602080601f83116001811461167b575f84156116645750858301515b5f19600386901b1c1916600185901b1785556116d2565b5f85815260208120601f198616915b828110156116a95788860151825594840194600190910190840161168a565b50858210156116c657878501515f19600388901b60f8161c191681555b505060018460011b0185555b505050505050565b5f82516116eb818460208701611263565b919091019291505056fe52c63247e1f47db19d5ce0460030c497f067ca4cebf71ba98eeadabe20bace00a26469706673582212203f1dc7e743ae04791bdf859f154c2995453cfc98c512b65971b48fb1fc94e77864736f6c63430008170033","linkReferences":{}},"methodIdentifiers":{"UPGRADE_INTERFACE_VERSION()":"ad3cb1cc","allowance(address,address)":"dd62ed3e","approve(address,uint256)":"095ea7b3","balanceOf(address)":"70a08231","burn(address,uint256)":"9dc29fac","decimals()":"313ce567","initialize(address,uint256,uint256,string,string,address)":"d105f942","isBackLogAddress(address)":"17e4a7e1","maxTotalSupply()":"2ab4d052","mint(address,uint256)":"40c10f19","name()":"06fdde03","nomaFactory()":"e73a2a7a","owner()":"8da5cb5b","proxiableUUID()":"52d1902d","renounceOwnership()":"715018a6","resolver()":"04f3bcec","setOwner(address)":"13af4035","symbol()":"95d89b41","totalSupply()":"18160ddd","transfer(address,uint256)":"a9059cbb","transferFrom(address,address,uint256)":"23b872dd","transferOwnership(address)":"f2fde38b","upgradeToAndCall(address,bytes)":"4f1ef286","version()":"54fd4d50"},"id":121}