{"abi":[{"type":"constructor","inputs":[{"name":"_uniswapV3Factory","type":"address","internalType":"address"},{"name":"_resolver","type":"address","internalType":"address"},{"name":"_deployerFactory","type":"address","internalType":"address"},{"name":"_extFactory","type":"address","internalType":"address"},{"name":"_presaleFactory","type":"address","internalType":"address"}],"stateMutability":"nonpayable"},{"type":"function","name":"adaptiveSupply","inputs":[],"outputs":[{"name":"","type":"address","internalType":"address"}],"stateMutability":"view"},{"type":"function","name":"burnFor","inputs":[{"name":"from","type":"address","internalType":"address"},{"name":"amount","type":"uint256","internalType":"uint256"}],"outputs":[],"stateMutability":"nonpayable"},{"type":"function","name":"deferredDeploy","inputs":[{"name":"_deployerContract","type":"address","internalType":"address"}],"outputs":[],"stateMutability":"nonpayable"},{"type":"function","name":"deployVault","inputs":[{"name":"presaleParams","type":"tuple","internalType":"struct PresaleUserParams","components":[{"name":"softCap","type":"uint256","internalType":"uint256"},{"name":"deadline","type":"uint256","internalType":"uint256"}]},{"name":"vaultDeployParams","type":"tuple","internalType":"struct VaultDeployParams","components":[{"name":"name","type":"string","internalType":"string"},{"name":"symbol","type":"string","internalType":"string"},{"name":"decimals","type":"uint8","internalType":"uint8"},{"name":"initialSupply","type":"uint256","internalType":"uint256"},{"name":"maxTotalSupply","type":"uint256","internalType":"uint256"},{"name":"IDOPrice","type":"uint256","internalType":"uint256"},{"name":"floorPrice","type":"uint256","internalType":"uint256"},{"name":"token1","type":"address","internalType":"address"},{"name":"feeTier","type":"uint24","internalType":"uint24"},{"name":"presale","type":"uint8","internalType":"uint8"}]}],"outputs":[{"name":"","type":"address","internalType":"address"},{"name":"","type":"address","internalType":"address"},{"name":"","type":"address","internalType":"address"}],"stateMutability":"nonpayable"},{"type":"function","name":"getDeployers","inputs":[],"outputs":[{"name":"","type":"address[]","internalType":"address[]"}],"stateMutability":"view"},{"type":"function","name":"getPresaleProtocolParams","inputs":[],"outputs":[{"name":"","type":"tuple","internalType":"struct PresaleProtocolParams","components":[{"name":"maxSoftCap","type":"uint256","internalType":"uint256"},{"name":"minContributionRatio","type":"uint256","internalType":"uint256"},{"name":"maxContributionRatio","type":"uint256","internalType":"uint256"},{"name":"presalePercentage","type":"uint256","internalType":"uint256"},{"name":"minDuration","type":"uint256","internalType":"uint256"},{"name":"maxDuration","type":"uint256","internalType":"uint256"},{"name":"referralPercentage","type":"uint256","internalType":"uint256"},{"name":"teamFee","type":"uint256","internalType":"uint256"}]}],"stateMutability":"view"},{"type":"function","name":"getProtocolParameters","inputs":[],"outputs":[{"name":"","type":"tuple","internalType":"struct ProtocolParameters","components":[{"name":"floorPercentage","type":"uint8","internalType":"uint8"},{"name":"anchorPercentage","type":"uint8","internalType":"uint8"},{"name":"idoPriceMultiplier","type":"uint8","internalType":"uint8"},{"name":"floorBips","type":"uint16[2]","internalType":"uint16[2]"},{"name":"shiftRatio","type":"uint256","internalType":"uint256"},{"name":"slideRatio","type":"uint256","internalType":"uint256"},{"name":"discoveryBips","type":"int24","internalType":"int24"},{"name":"shiftAnchorUpperBips","type":"int24","internalType":"int24"},{"name":"slideAnchorUpperBips","type":"int24","internalType":"int24"},{"name":"lowBalanceThresholdFactor","type":"uint256","internalType":"uint256"},{"name":"highBalanceThresholdFactor","type":"uint256","internalType":"uint256"},{"name":"inflationFee","type":"uint256","internalType":"uint256"},{"name":"loanFee","type":"uint256","internalType":"uint256"},{"name":"deployFee","type":"uint256","internalType":"uint256"},{"name":"presalePremium","type":"uint256","internalType":"uint256"}]}],"stateMutability":"view"},{"type":"function","name":"getVaultDescription","inputs":[{"name":"_deployer","type":"address","internalType":"address"}],"outputs":[{"name":"","type":"tuple","internalType":"struct VaultDescription","components":[{"name":"tokenName","type":"string","internalType":"string"},{"name":"tokenSymbol","type":"string","internalType":"string"},{"name":"tokenDecimals","type":"uint8","internalType":"uint8"},{"name":"token0","type":"address","internalType":"address"},{"name":"token1","type":"address","internalType":"address"},{"name":"deployer","type":"address","internalType":"address"},{"name":"vault","type":"address","internalType":"address"},{"name":"presaleContract","type":"address","internalType":"address"},{"name":"stakingContract","type":"address","internalType":"address"}]}],"stateMutability":"view"},{"type":"function","name":"getVaults","inputs":[{"name":"_deployer","type":"address","internalType":"address"}],"outputs":[{"name":"","type":"address[]","internalType":"address[]"}],"stateMutability":"view"},{"type":"function","name":"mintTokens","inputs":[{"name":"to","type":"address","internalType":"address"},{"name":"amount","type":"uint256","internalType":"uint256"}],"outputs":[],"stateMutability":"nonpayable"},{"type":"function","name":"modelHelper","inputs":[],"outputs":[{"name":"","type":"address","internalType":"address"}],"stateMutability":"view"},{"type":"function","name":"numDeployers","inputs":[],"outputs":[{"name":"","type":"uint256","internalType":"uint256"}],"stateMutability":"view"},{"type":"function","name":"numVaults","inputs":[{"name":"_deployer","type":"address","internalType":"address"}],"outputs":[{"name":"","type":"uint256","internalType":"uint256"}],"stateMutability":"view"},{"type":"function","name":"owner","inputs":[],"outputs":[{"name":"","type":"address","internalType":"address"}],"stateMutability":"view"},{"type":"function","name":"setMultiSigAddress","inputs":[{"name":"_address","type":"address","internalType":"address"}],"outputs":[],"stateMutability":"nonpayable"},{"type":"function","name":"setPermissionlessDeploy","inputs":[{"name":"_flag","type":"bool","internalType":"bool"}],"outputs":[],"stateMutability":"nonpayable"},{"type":"function","name":"setPresaleProtocolParams","inputs":[{"name":"_params","type":"tuple","internalType":"struct PresaleProtocolParams","components":[{"name":"maxSoftCap","type":"uint256","internalType":"uint256"},{"name":"minContributionRatio","type":"uint256","internalType":"uint256"},{"name":"maxContributionRatio","type":"uint256","internalType":"uint256"},{"name":"presalePercentage","type":"uint256","internalType":"uint256"},{"name":"minDuration","type":"uint256","internalType":"uint256"},{"name":"maxDuration","type":"uint256","internalType":"uint256"},{"name":"referralPercentage","type":"uint256","internalType":"uint256"},{"name":"teamFee","type":"uint256","internalType":"uint256"}]}],"outputs":[],"stateMutability":"nonpayable"},{"type":"function","name":"setProtocolParameters","inputs":[{"name":"_params","type":"tuple","internalType":"struct ProtocolParameters","components":[{"name":"floorPercentage","type":"uint8","internalType":"uint8"},{"name":"anchorPercentage","type":"uint8","internalType":"uint8"},{"name":"idoPriceMultiplier","type":"uint8","internalType":"uint8"},{"name":"floorBips","type":"uint16[2]","internalType":"uint16[2]"},{"name":"shiftRatio","type":"uint256","internalType":"uint256"},{"name":"slideRatio","type":"uint256","internalType":"uint256"},{"name":"discoveryBips","type":"int24","internalType":"int24"},{"name":"shiftAnchorUpperBips","type":"int24","internalType":"int24"},{"name":"slideAnchorUpperBips","type":"int24","internalType":"int24"},{"name":"lowBalanceThresholdFactor","type":"uint256","internalType":"uint256"},{"name":"highBalanceThresholdFactor","type":"uint256","internalType":"uint256"},{"name":"inflationFee","type":"uint256","internalType":"uint256"},{"name":"loanFee","type":"uint256","internalType":"uint256"},{"name":"deployFee","type":"uint256","internalType":"uint256"},{"name":"presalePremium","type":"uint256","internalType":"uint256"}]}],"outputs":[],"stateMutability":"nonpayable"},{"type":"function","name":"teamMultiSig","inputs":[],"outputs":[{"name":"","type":"address","internalType":"address"}],"stateMutability":"view"},{"type":"function","name":"tokenFactory","inputs":[],"outputs":[{"name":"","type":"address","internalType":"address"}],"stateMutability":"view"},{"type":"function","name":"upgradeToken","inputs":[{"name":"_token","type":"address","internalType":"address"},{"name":"_newImplementation","type":"address","internalType":"address"}],"outputs":[],"stateMutability":"nonpayable"},{"type":"error","name":"InvalidDecimals","inputs":[]},{"type":"error","name":"InvalidFeeTier","inputs":[]},{"type":"error","name":"InvalidParameters","inputs":[]},{"type":"error","name":"InvalidSymbol","inputs":[]},{"type":"error","name":"NotAuthorityError","inputs":[]},{"type":"error","name":"OnlyVaultsError","inputs":[]},{"type":"error","name":"ReentrancyGuardReentrantCall","inputs":[]},{"type":"error","name":"SafeERC20FailedOperation","inputs":[{"name":"token","type":"address","internalType":"address"}]},{"type":"error","name":"SupplyTransferError","inputs":[]},{"type":"error","name":"TokenAlreadyExistsError","inputs":[]},{"type":"error","name":"ZeroAddressError","inputs":[]}],"bytecode":{"object":"0x60806040523480156200001157600080fd5b506040516200479f3803806200479f833981016040819052620000349162000150565b60016000556001600160a01b03851615806200005757506001600160a01b038416155b806200006a57506001600160a01b038316155b806200007d57506001600160a01b038216155b806200009057506001600160a01b038116155b15620000af57604051633efa09af60e01b815260040160405180910390fd5b60068054336001600160a01b031991821681179092556008805482169092179091556007805482166001600160a01b039788161790556001805482169587169590951790945560048054851693861693909317909255600580548416918516919091179055600380549092169216919091179055600a805460ff19169055620001c0565b80516001600160a01b03811681146200014b57600080fd5b919050565b600080600080600060a086880312156200016957600080fd5b620001748662000133565b9450620001846020870162000133565b9350620001946040870162000133565b9250620001a46060870162000133565b9150620001b46080870162000133565b90509295509295909350565b6145cf80620001d06000396000f3fe608060405234801561001057600080fd5b50600436106101375760003560e01c8063854567f1116100b8578063e77772fe1161007c578063e77772fe146102a9578063ee4a3e37146102b1578063ef5ddb31146102c4578063f0dda65c146102cc578063f9c7bba5146102df578063fe7c9c92146102f257600080fd5b8063854567f1146102435780638da5cb5b14610268578063a3e44b3314610279578063a879b07814610281578063c58aad871461029457600080fd5b806352f882fe116100ff57806352f882fe146101b657806355b8ce0a146101f3578063607c12b514610206578063615de71f1461021b5780637d19a2cb1461023057600080fd5b80630337c57a1461013c578063077f2cfc14610165578063098eddb11461017a5780631dd319cb14610190578063397ae005146101a3575b600080fd5b61014f61014a3660046133c3565b610305565b60405161015c9190613430565b60405180910390f35b6101786101733660046133c3565b6104fc565b005b610182610570565b60405190815260200161015c565b61017861019e366004613512565b610581565b6101786101b136600461353e565b61063d565b6101c96101c43660046136e6565b61067b565b604080516001600160a01b039485168152928416602084015292169181019190915260600161015c565b61017861020136600461381a565b610907565b61020e61096d565b60405161015c9190613898565b610223610a0f565b60405161015c91906138f9565b61017861023e3660046133c3565b610aa5565b6008546001600160a01b03165b6040516001600160a01b03909116815260200161015c565b6006546001600160a01b0316610250565b610250610d73565b61017861028f366004613983565b610e39565b61029c610f68565b60405161015c9190613b8e565b610250611082565b6101786102bf366004613b9d565b611109565b610250611172565b6101786102da366004613512565b6111fd565b6101826102ed3660046133c3565b611287565b61020e6103003660046133c3565b6112ad565b6040805161012081018252606080825260208201819052600092820183905281018290526080810182905260a0810182905260c0810182905260e081018290526101008101919091526001600160a01b038216600090815260216020526040908190208151610120810190925280548290829061038190613c2d565b80601f01602080910402602001604051908101604052809291908181526020018280546103ad90613c2d565b80156103fa5780601f106103cf576101008083540402835291602001916103fa565b820191906000526020600020905b8154815290600101906020018083116103dd57829003601f168201915b5050505050815260200160018201805461041390613c2d565b80601f016020809104026020016040519081016040528092919081815260200182805461043f90613c2d565b801561048c5780601f106104615761010080835404028352916020019161048c565b820191906000526020600020905b81548152906001019060200180831161046f57829003601f168201915b5050509183525050600282015460ff811660208301526001600160a01b03610100909104811660408301526003830154811660608301526004830154811660808301526005830154811660a08301526006830154811660c083015260079092015490911660e09091015292915050565b6008546001600160a01b03163314610527576040516314b2e6c760e21b815260040160405180910390fd5b6001600160a01b03811661054e57604051633efa09af60e01b815260040160405180910390fd5b600880546001600160a01b0319166001600160a01b0392909216919091179055565b600061057c601e611352565b905090565b336000818152602160205260409020600501546001600160a01b0316146105bb576040516313063b3f60e11b815260040160405180910390fd5b3360009081526021602052604090819020600201549051632770a7eb60e21b81526001600160a01b0384811660048301526024820184905261010090920490911690639dc29fac906044015b600060405180830381600087803b15801561062157600080fd5b505af1158015610635573d6000803e3d6000fd5b505050505050565b6006546001600160a01b03163314610668576040516314b2e6c760e21b815260040160405180910390fd5b600a805460ff1916911515919091179055565b600a546000908190819060ff166106b7576006546001600160a01b031633146106b7576040516314b2e6c760e21b815260040160405180910390fd5b6106bf61135c565b6106cc8460e00151611386565b60006106dc8561010001516114bc565b85516020808801516040519394506000936106f8939201613c61565b60408051601f1981840301815291815281516020928301206000818152602290935291205490915060ff161561074157604051637495878760e11b815260040160405180910390fd5b60008061074c611082565b6001600160a01b0316632da4bf24896040518263ffffffff1660e01b81526004016107779190613c90565b6060604051808303816000875af1158015610796573d6000803e3d6000fd5b505050506040513d601f19601f820116820180604052508101906107ba9190613d52565b506000858152602260205260408120805460ff1916600117905560a08b015160e08c01516101008d015194965092945090926107f8928591896114c7565b90506108b6604080516101a08101825260006101608201818152610180830182905282528251610140810184526060808252602082810182905294820183905281018290526080810182905260a0810182905260c0810182905260e0810182905261010081018290526101208101919091529091820190815260006020820181905260408201819052606082018190526080820181905260a0820181905260c0820181905260e0820181905261010082018190526101209091015290565b8a8152602081018a90526001600160a01b03808316604083015283166060820152600286900b60808201526108ea816116c4565b9850985098505050505050506109006001600055565b9250925092565b6006546001600160a01b03163314610932576040516314b2e6c760e21b815260040160405180910390fd5b6040805160008152602081019182905263278f794360e11b9091526001600160a01b03831690634f1ef2869061060790849060248101613d95565b60606000610979610570565b905060008167ffffffffffffffff81111561099657610996613560565b6040519080825280602002602001820160405280156109bf578160200160208202803683370190505b50905060005b82811015610a08576109d681611e45565b8282815181106109e8576109e8613db9565b6001600160a01b03909216602092830291909101909101526001016109c5565b5092915050565b610a5760405180610100016040528060008152602001600081526020016000815260200160008152602001600081526020016000815260200160008152602001600081525090565b50604080516101008101825260165481526017546020820152601854918101919091526019546060820152601a546080820152601b5460a0820152601c5460c0820152601d5460e082015290565b336000818152602160205260409020600501546001600160a01b031614610adf576040516313063b3f60e11b815260040160405180910390fd5b3360009081526023602052604080822081516101408101909252805482908290610b0890613c2d565b80601f0160208091040260200160405190810160405280929190818152602001828054610b3490613c2d565b8015610b815780601f10610b5657610100808354040283529160200191610b81565b820191906000526020600020905b815481529060010190602001808311610b6457829003601f168201915b50505050508152602001600182018054610b9a90613c2d565b80601f0160208091040260200160405190810160405280929190818152602001828054610bc690613c2d565b8015610c135780601f10610be857610100808354040283529160200191610c13565b820191906000526020600020905b815481529060010190602001808311610bf657829003601f168201915b5050509183525050600282015460ff9081166020830152600383015460408301526004830154606083015260058301546080830152600683015460a08301526007909201546001600160a01b03811660c083015262ffffff600160a01b82041660e0830152600160b81b900490911661010091820152810151909150600090610c9b906114bc565b9050610cb88260a00151836060015183610cb3610f68565b611e52565b826001600160a01b0316634bb278f36040518163ffffffff1660e01b8152600401600060405180830381600087803b158015610cf357600080fd5b505af1158015610d07573d6000803e3d6000fd5b505033600090815260236020526040812092509050610d268282613212565b610d34600183016000613212565b5060028101805460ff191690556000600382018190556004820181905560058201819055600682015560070180546001600160c01b0319169055505050565b60015460408051808201909152600b81526a26b7b232b62432b63832b960a91b60208201526000916001600160a01b03169063dacb2d0190610db490612018565b6040518263ffffffff1660e01b8152600401610df8918152604060208201819052600e908201526d37379036b7b232b62432b63832b960911b606082015260800190565b602060405180830381865afa158015610e15573d6000803e3d6000fd5b505050506040513d601f19601f8201168201806040525081019061057c9190613dcf565b6006546001600160a01b03163314610e64576040516314b2e6c760e21b815260040160405180910390fd5b8051600b80546020840151604085015160ff908116620100000262ff0000199282166101000261ffff19909416919095161791909117169190911781556060820151829190610eb790600c90600261324f565b506080820151600282015560a0820151600382015560c082015160048201805460e085015161010086015162ffffff90811666010000000000000268ffffff0000000000001992821663010000000265ffffffffffff199094169190951617919091171691909117905561012082015160058201556101408201516006820155610160820151600782015561018082015160088201556101a082015160098201556101c090910151600a9091015550565b610f706132e5565b604080516101e081018252600b805460ff8082168452610100820481166020850152620100009091041682840152825180840193849052919290916060840191600c90600290826000855b82829054906101000a900461ffff1661ffff1681526020019060020190602082600101049283019260010382029150808411610fbb57505050928452505050600282810154602083015260038301546040830152600483015480820b606084015263010000008104820b608084015266010000000000009004900b60a0820152600582015460c0820152600682015460e0820152600782015461010082015260088201546101208201526009820154610140820152600a9091015461016090910152919050565b60015460408051808201909152600c81526b546f6b656e466163746f727960a01b60208201526000916001600160a01b03169063dacb2d01906110c490612018565b6040518263ffffffff1660e01b8152600401610df8918152604060208201819052600f908201526e6e6f20546f6b656e466163746f727960881b606082015260800190565b6006546001600160a01b03163314611134576040516314b2e6c760e21b815260040160405180910390fd5b80516016556020810151601755604081015160185560608101516019556080810151601a5560a0810151601b5560c0810151601c5560e00151601d55565b60015460408051808201909152600e81526d4164617074697665537570706c7960901b60208201526000916001600160a01b03169063dacb2d01906111b690612018565b6040518263ffffffff1660e01b8152600401610df8918152604060208201819052601190820152706e6f204164617074697665537570706c7960781b606082015260800190565b336000818152602160205260409020600501546001600160a01b031614611237576040516313063b3f60e11b815260040160405180910390fd5b33600090815260216020526040908190206002015490516340c10f1960e01b81526001600160a01b03848116600483015260248201849052610100909204909116906340c10f1990604401610607565b6001600160a01b038116600090815260208052604081206112a790611352565b92915050565b606060006112ba83611287565b905060008167ffffffffffffffff8111156112d7576112d7613560565b604051908082528060200260200182016040528015611300578160200160208202803683370190505b50905060005b8281101561134a57611318858261207d565b82828151811061132a5761132a613db9565b6001600160a01b0390921660209283029190910190910152600101611306565b509392505050565b60006112a7825490565b60026000540361137f57604051633ee5aeb560e01b815260040160405180910390fd5b6002600055565b600080826001600160a01b03166395d89b416040518163ffffffff1660e01b8152600401600060405180830381865afa1580156113c7573d6000803e3d6000fd5b505050506040513d6000823e601f3d908101601f191682016040526113ef9190810190613dec565b805190915081906000036114165760405163010466f160e21b815260040160405180910390fd5b60208201516001546040805163dacb2d0160e01b815260048101849052602481019190915260136044820152723737ba1030903932b9b2b93b32903a37b5b2b760691b60648201529194506001600160a01b03169063dacb2d0190608401602060405180830381865afa158015611491573d6000803e3d6000fd5b505050506040513d601f19601f820116820180604052508101906114b59190613dcf565b5050505050565b60006112a7826120a5565b600754604051630b4c774160e11b81526001600160a01b038681166004830152858116602483015262ffffff85166044830152600092169082908290631698ee8290606401602060405180830381865afa158015611529573d6000803e3d6000fd5b505050506040513d601f19601f8201168201806040525081019061154d9190613dcf565b90506000876001600160a01b031663313ce5676040518163ffffffff1660e01b8152600401602060405180830381865afa15801561158f573d6000803e3d6000fd5b505050506040513d601f19601f820116820180604052508101906115b39190613e5a565b90506001600160a01b0382166116b85760405163a167129560e01b81526001600160a01b038981166004830152888116602483015262ffffff8816604483015284169063a1671295906064016020604051808303816000875af115801561161e573d6000803e3d6000fd5b505050506040513d601f19601f820116820180604052508101906116429190613dcf565b9150816001600160a01b031663f637731d61165e8b8885612117565b6040516001600160e01b031960e084901b1681526001600160a01b039091166004820152602401600060405180830381600087803b15801561169f57600080fd5b505af11580156116b3573d6000803e3d6000fd5b505050505b50979650505050505050565b600154604080518082019091526009815268115d18da15985d5b1d60ba1b6020820152600091829182916001600160a01b03169063dacb2d019061170790612018565b6040518263ffffffff1660e01b8152600401611749918152604060208201819052600c908201526b1b9bc8115d18da15985d5b1d60a21b606082015260800190565b602060405180830381865afa158015611766573d6000803e3d6000fd5b505050506040513d601f19601f8201168201806040525081019061178a9190613dcf565b60015460405163cda1ac0b60e01b81526001600160a01b03918216600482015291169063cda1ac0b9060240160408051808303816000875af11580156117d4573d6000803e3d6000fd5b505050506040513d601f19601f820116820180604052508101906117f89190613e77565b6001600160a01b0390811660c087015290811660a08601819052600554606087015160405163134a538760e11b815230600482015260248101939093528316604483015290911690632694a70e906064016060604051808303816000875af1158015611868573d6000803e3d6000fd5b505050506040513d601f19601f8201168201806040525081019061188c9190613ea6565b6001600160a01b0390811661014088015290811661010087015290811660e08601526004805460015460405163c071e0cb60e01b81523093810193909352831660248301529091169063c071e0cb906044016020604051808303816000875af11580156118fd573d6000803e3d6000fd5b505050506040513d601f19601f820116820180604052508101906119219190613dcf565b600280546001600160a01b0319166001600160a01b0392909216918217905560a0850151604086015163f8c8765e91309161195a610d73565b60405160e086901b6001600160e01b03191681526001600160a01b039485166004820152928416602484015290831660448301529091166064820152608401600060405180830381600087803b1580156119b357600080fd5b505af11580156119c7573d6000803e3d6000fd5b505050508360c001516001600160a01b031663c9d5fba58560a00151600160009054906101000a90046001600160a01b03166001600160a01b031663dacb2d01611a3c604051806040016040528060148152602001735661756c745570677261646546696e616c697a6560601b815250612018565b6040518263ffffffff1660e01b8152600401611a8f9181526040602082018190526017908201527f6e6f207661756c745570677261646546696e616c697a65000000000000000000606082015260800190565b602060405180830381865afa158015611aac573d6000803e3d6000fd5b505050506040513d601f19601f82011682018060405250810190611ad09190613dcf565b6040516001600160e01b031960e085901b1681526001600160a01b03928316600482015291166024820152604401600060405180830381600087803b158015611b1857600080fd5b505af1158015611b2c573d6000803e3d6000fd5b5050600254602087015160609081015190880151611b5b94506001600160a01b03908116935090911690612134565b6020840151606090810151908501516002546040516370a0823160e01b81526001600160a01b0391821660048201529116906370a0823190602401602060405180830381865afa158015611bb3573d6000803e3d6000fd5b505050506040513d601f19601f82011682018060405250810190611bd79190613ef3565b14611bf55760405163a0ca77d960e01b815260040160405180910390fd5b6060840151600254610100860151604087015160a088015161014089015160208a01518a51611c3397966001600160a01b031695949392919061218b565b6001600160a01b0390811661012080870191825260408051918201815260208089018051518452805182015182850152805183015160ff16848401526060808b01518716908501525160e090810151861660808501523360a0808601919091528a018051871660c08601529451861690840152610100808a015186169084015292519093166000908152602190925291902081518291908190611cd69082613f54565b5060208201516001820190611ceb9082613f54565b50604082810151600283018054606086015160ff9093166001600160a81b0319909116176101006001600160a01b0393841681029190911790915560808501516003850180546001600160a01b031990811692851692909217905560a080870151600487018054841691861691909117905560c0870151600587018054841691861691909117905560e0870151600687018054841691861691909117905591909501516007909401805490951693909116929092179092558601513360009081526020805291909120611dbd91612251565b50611dc9601e33612251565b50600160096000828254611ddd919061402a565b909155505060015460a086015161010087015160e0880151610120890151611e2d946001600160a01b031693929190611e14611172565b611e1c610d73565b6002546001600160a01b0316612266565b5050505060a081015160408201516060909201519092565b60006112a7601e83612650565b60025481516001600160a01b0390911690636a384ed0908690606490611e7b9060ff168861403d565b611e85919061406a565b6040516001600160e01b031960e085901b16815260048101929092526024820152600285900b6044820152606401600060405180830381600087803b158015611ecd57600080fd5b505af1158015611ee1573d6000803e3d6000fd5b505060025460608401518051602091820151918601516001600160a01b039093169450634303ca75935091606490611f1c9060ff168961403d565b611f26919061406a565b6040516001600160e01b031960e086901b16815261ffff93841660048201529290911660248301526044820152606401600060405180830381600087803b158015611f7057600080fd5b505af1158015611f84573d6000803e3d6000fd5b505060025460408401516001600160a01b03909116925063f43155069150611faf9060ff168761403d565b6040516001600160e01b031960e084901b16815260048101919091526000602482015260440160c0604051808303816000875af1158015611ff4573d6000803e3d6000fd5b505050506040513d601f19601f82011682018060405250810190610635919061408d565b80516000908290820361202e5750600092915050565b60208151111561203d57600080fd5b602083015181519092505b60208110156120705761205c81601f614134565b61206790600861403d565b50600101612048565b5050919050565b50919050565b6001600160a01b0382166000908152602080526040812061209e9083612650565b9392505050565b60008162ffffff166064036120bc57506001919050565b8162ffffff166101f4036120d25750600a919050565b8162ffffff16610bb8036120e85750603c919050565b8162ffffff16612710036120fe575060c8919050565b604051631b99aa4560e11b815260040160405180910390fd5b600061212c61212785858561265c565b6127a5565b949350505050565b604080516001600160a01b038416602482015260448082018490528251808303909101815260649091019091526020810180516001600160e01b031663a9059cbb60e01b1790526121869084906127b0565b505050565b60008061219c87878a88888861282c565b905083610120015160ff1660010361224457612244604051806101200160405280886001600160a01b03168152602001336001600160a01b031681526020018b6001600160a01b03168152602001896001600160a01b031681526020018a6001600160a01b03168152602001836001600160a01b031681526020018c6001600160a01b03168152602001876001600160a01b0316815260200161223d610f68565b9052612c76565b9998505050505050505050565b600061209e836001600160a01b038416612cd3565b60408051600680825260e082019092526000916020820160c0803683370190505090506122b86040518060400160405280600e81526020016d4164617074697665537570706c7960901b815250612018565b816000815181106122cb576122cb613db9565b6020026020010181815250506123036040518060400160405280600b81526020016a26b7b232b62432b63832b960a91b815250612018565b8160018151811061231657612316613db9565b60200260200101818152505061234a604051806040016040528060078152602001665374616b696e6760c81b815250612018565b8160028151811061235d5761235d613db9565b60200260200101818152505061238e60405180604001604052806004815260200163734f4b5360e01b815250612018565b816003815181106123a1576123a1613db9565b6020026020010181815250506123d6604051806040016040528060088152602001672232b83637bcb2b960c11b815250612018565b816004815181106123e9576123e9613db9565b60200260200101818152505061241d6040518060400160405280600781526020016650726573616c6560c81b815250612018565b8160058151811061243057612430613db9565b602090810291909101015260408051600680825260e08201909252600091816020016020820280368337019050509050848160008151811061247457612474613db9565b60200260200101906001600160a01b031690816001600160a01b03168152505083816001815181106124a8576124a8613db9565b60200260200101906001600160a01b031690816001600160a01b03168152505087816002815181106124dc576124dc613db9565b60200260200101906001600160a01b031690816001600160a01b031681525050868160038151811061251057612510613db9565b60200260200101906001600160a01b031690816001600160a01b031681525050828160048151811061254457612544613db9565b60200260200101906001600160a01b031690816001600160a01b031681525050858160058151811061257857612578613db9565b6001600160a01b039283166020918202929092010152604051632caf59a960e21b81528a82166004820152908b169063b2bd66a490602401600060405180830381600087803b1580156125ca57600080fd5b505af11580156125de573d6000803e3d6000fd5b505060405163094c3a6f60e41b81526001600160a01b038d1692506394c3a6f09150612612908c9086908690600401614147565b600060405180830381600087803b15801561262c57600080fd5b505af1158015612640573d6000803e3d6000fd5b5050505050505050505050505050565b600061209e8383612d22565b600060068260ff1610158015612676575060128260ff1611155b61269357604051630692acc560e51b815260040160405180910390fd5b60006126a08360126141b0565b6126ab90600a6142ad565b90506126b781866142bc565b94508361279268033dd1780914b9684073__$28bae0af19d0e90d77349cc0e88bc3c39a$__63bc4225aa6126f38a670de0b6b3a76400006142bc565b6040516001600160e01b031960e084901b1681526004810191909152670de0b6b3a764000060248201526706f05b59d3b200006044820152606401602060405180830381865af415801561274b573d6000803e3d6000fd5b505050506040513d601f19601f8201168201806040525081019061276f9190613ef3565b61277991906142ec565b61278d600288900b658334ae9d7c0a6142bc565b612d4c565b61279c919061430c565b95945050505050565b60006112a782612d9c565b600080602060008451602086016000885af1806127d3576040513d6000823e3d81fd5b50506000513d915081156127eb5780600114156127f8565b6001600160a01b0384163b155b1561282657604051635274afe760e01b81526001600160a01b03851660048201526024015b60405180910390fd5b50505050565b60008061283d8461010001516114bc565b6040805180820190915260038152624f4b5360e81b6020918201528581015180519101209091506000907f556dd016e360cba813f3849534afadc07904bc14611ae252eaced1eb8fc5cea81461289f5761289a8560a001516131b4565b6128a5565b8460a001515b905084610120015160ff16600103612b20576001600160a01b0388166000908152602360205260409020855186919081906128e09082613f54565b50602082015160018201906128f59082613f54565b5060408201518160020160006101000a81548160ff021916908360ff160217905550606082015181600301556080820151816004015560a0820151816005015560c0820151816006015560e08201518160070160006101000a8154816001600160a01b0302191690836001600160a01b031602179055506101008201518160070160146101000a81548162ffffff021916908362ffffff1602179055506101208201518160070160176101000a81548160ff021916908360ff160217905550905050600360009054906101000a90046001600160a01b03166001600160a01b0316639e98b262604051806101800160405280336001600160a01b031681526020018b6001600160a01b031681526020018c6001600160a01b0316815260200187600001518152602001848152602001876020015181526020018860000151604051602001612a43919061432c565b60405160208183030381529060405281526020018860200151604051602001612a6c919061435a565b6040516020818303038152906040528152602001886040015160ff1681526020018560020b8152602001612a9e610f68565b5160ff1681526060890151602090910152612ab7610a0f565b6040518363ffffffff1660e01b8152600401612ad4929190614384565b6020604051808303816000875af1158015612af3573d6000803e3d6000fd5b505050506040513d601f19601f82011682018060405250810190612b179190613dcf565b92505050612c6c565b60408051610120810182526001600160a01b03808b168252336020808401919091526002548216838501528c8216606084018190528b8316608085015291871660a08401528351630dfe168160e01b81529351612beb9460c085019392630dfe1681926004808401938290030181865afa158015612ba2573d6000803e3d6000fd5b505050506040513d601f19601f82011682018060405250810190612bc69190613dcf565b6001600160a01b03168152602001886001600160a01b0316815260200161223d610f68565b612c018560a00151866060015184610cb3610f68565b600260009054906101000a90046001600160a01b03166001600160a01b0316634bb278f36040518163ffffffff1660e01b8152600401600060405180830381600087803b158015612c5157600080fd5b505af1158015612c65573d6000803e3d6000fd5b5050505050505b9695505050505050565b805160208201516040808401516060850151608086015160a087015160e08801516101008901519551630a66e71960e11b81526001600160a01b038916976314cdce3297610607973097929690959294909390919060040161448f565b6000818152600183016020526040812054612d1a575081546001818101845560008481526020808220909301849055845484825282860190935260409020919091556112a7565b5060006112a7565b6000826000018281548110612d3957612d39613db9565b9060005260206000200154905092915050565b600061138861271083612d5f86836142bc565b612d6991906144dd565b612d73919061450b565b13612d8757612d8282846144dd565b61209e565b612d9182846144dd565b61209e90600161451f565b60008060008360020b12612db3578260020b612dc0565b8260020b612dc090614547565b9050612dcf620d89e719614563565b60020b811115612e055760405162461bcd60e51b81526020600482015260016024820152601560fa1b604482015260640161281d565b600081600116600003612e1c57600160801b612e2e565b6ffffcb933bd6fad37aa2d162d1a5940015b70ffffffffffffffffffffffffffffffffff1690506002821615612e6d576080612e68826ffff97272373d413259a46990580e213a61403d565b901c90505b6004821615612e97576080612e92826ffff2e50f5f656932ef12357cf3c7fdcc61403d565b901c90505b6008821615612ec1576080612ebc826fffe5caca7e10e4e61c3624eaa0941cd061403d565b901c90505b6010821615612eeb576080612ee6826fffcb9843d60f6159c9db58835c92664461403d565b901c90505b6020821615612f15576080612f10826fff973b41fa98c081472e6896dfb254c061403d565b901c90505b6040821615612f3f576080612f3a826fff2ea16466c96a3843ec78b326b5286161403d565b901c90505b6080821615612f69576080612f64826ffe5dee046a99a2a811c461f1969c305361403d565b901c90505b610100821615612f94576080612f8f826ffcbe86c7900a88aedcffc83b479aa3a461403d565b901c90505b610200821615612fbf576080612fba826ff987a7253ac413176f2b074cf7815e5461403d565b901c90505b610400821615612fea576080612fe5826ff3392b0822b70005940c7a398e4b70f361403d565b901c90505b610800821615613015576080613010826fe7159475a2c29b7443b29c7fa6e889d961403d565b901c90505b61100082161561304057608061303b826fd097f3bdfd2022b8845ad8f792aa582561403d565b901c90505b61200082161561306b576080613066826fa9f746462d870fdf8a65dc1f90e061e561403d565b901c90505b614000821615613096576080613091826f70d869a156d2a1b890bb3df62baf32f761403d565b901c90505b6180008216156130c15760806130bc826f31be135f97d08fd981231505542fcfa661403d565b901c90505b620100008216156130ed5760806130e8826f09aa508b5b7a84e1c677de54f3e99bc961403d565b901c90505b62020000821615613118576080613113826e5d6af8dedb81196699c329225ee60461403d565b901c90505b6204000082161561314257608061313d826d2216e584f5fa1ea926041bedfe9861403d565b901c90505b6208000082161561316a576080613165826b048a170391f7dc42444e8fa261403d565b901c90505b60008460020b1315613185576131828160001961406a565b90505b61319464010000000082614585565b156131a05760016131a3565b60005b61212c9060ff16602083901c61402a565b60006131be610f68565b6101c001516000036131e357604051630e52390960e41b815260040160405180910390fd5b600060646131ef610f68565b6101c001516131fe908561403d565b613208919061406a565b61209e908461402a565b50805461321e90613c2d565b6000825580601f1061322e575050565b601f01602090049060005260206000209081019061324c919061336b565b50565b6001830191839082156132d55791602002820160005b838211156132a557835183826101000a81548161ffff021916908361ffff1602179055509260200192600201602081600101049283019260010302613265565b80156132d35782816101000a81549061ffff02191690556002016020816001010492830192600103026132a5565b505b506132e192915061336b565b5090565b604080516101e081018252600080825260208201819052918101919091526060810161330f613380565b81526020016000815260200160008152602001600060020b8152602001600060020b8152602001600060020b81526020016000815260200160008152602001600081526020016000815260200160008152602001600081525090565b5b808211156132e1576000815560010161336c565b60405180604001604052806002906020820280368337509192915050565b6001600160a01b038116811461324c57600080fd5b80356133be8161339e565b919050565b6000602082840312156133d557600080fd5b813561209e8161339e565b60005b838110156133fb5781810151838201526020016133e3565b50506000910152565b6000815180845261341c8160208601602086016133e0565b601f01601f19169290920160200192915050565b602081526000825161012080602085015261344f610140850183613404565b91506020850151601f1985840301604086015261346c8382613404565b9250506040850151613483606086018260ff169052565b5060608501516001600160a01b03811660808601525060808501516001600160a01b03811660a08601525060a08501516001600160a01b03811660c08601525060c08501516001600160a01b03811660e08601525060e08501516101006134f4818701836001600160a01b03169052565b8601516001600160a01b0381168387015290505b5090949350505050565b6000806040838503121561352557600080fd5b82356135308161339e565b946020939093013593505050565b60006020828403121561355057600080fd5b8135801515811461209e57600080fd5b634e487b7160e01b600052604160045260246000fd5b6040805190810167ffffffffffffffff8111828210171561359957613599613560565b60405290565b604051610140810167ffffffffffffffff8111828210171561359957613599613560565b6040516101e0810167ffffffffffffffff8111828210171561359957613599613560565b60405160a0810167ffffffffffffffff8111828210171561359957613599613560565b604051601f8201601f1916810167ffffffffffffffff8111828210171561363357613633613560565b604052919050565b600067ffffffffffffffff82111561365557613655613560565b50601f01601f191660200190565b600082601f83011261367457600080fd5b81356136876136828261363b565b61360a565b81815284602083860101111561369c57600080fd5b816020850160208301376000918101602001919091529392505050565b60ff8116811461324c57600080fd5b80356133be816136b9565b803562ffffff811681146133be57600080fd5b60008082840360608112156136fa57600080fd5b604081121561370857600080fd5b50613711613576565b83358152602080850135908201529150604083013567ffffffffffffffff8082111561373c57600080fd5b90840190610140828703121561375157600080fd5b61375961359f565b82358281111561376857600080fd5b61377488828601613663565b82525060208301358281111561378957600080fd5b61379588828601613663565b6020830152506137a7604084016136c8565b6040820152606083013560608201526080830135608082015260a083013560a082015260c083013560c08201526137e060e084016133b3565b60e082015261010091506137f58284016136d3565b8282015261012091506138098284016136c8565b828201528093505050509250929050565b6000806040838503121561382d57600080fd5b82356138388161339e565b915060208301356138488161339e565b809150509250929050565b60008151808452602080850194506020840160005b8381101561388d5781516001600160a01b031687529582019590820190600101613868565b509495945050505050565b60208152600061209e6020830184613853565b805182526020810151602083015260408101516040830152606081015160608301526080810151608083015260a081015160a083015260c081015160c083015260e081015160e08301525050565b61010081016112a782846138ab565b600082601f83011261391957600080fd5b613921613576565b80604084018581111561393357600080fd5b845b8181101561395e57803561ffff811681146139505760008081fd5b845260209384019301613935565b509095945050505050565b8060020b811461324c57600080fd5b80356133be81613969565b6000610200828403121561399657600080fd5b61399e6135c3565b6139a7836136c8565b81526139b5602084016136c8565b60208201526139c6604084016136c8565b60408201526139d88460608501613908565b606082015260a0830135608082015260c083013560a08201526139fd60e08401613978565b60c0820152610100613a10818501613978565b60e0830152610120613a23818601613978565b828401526101409150818501358184015250610160808501358284015261018091508185013581840152506101a080850135828401526101c091508185013581840152506101e084013581830152508091505092915050565b8060005b600281101561282657815161ffff16845260209384019390910190600101613a80565b805160ff1682526020810151613abe602084018260ff169052565b506040810151613ad3604084018260ff169052565b506060810151613ae66060840182613a7c565b50608081015160a083015260a081015160c083015260c0810151613b0f60e084018260020b9052565b5060e0810151610100613b268185018360020b9052565b8201519050610120613b3c8482018360020b9052565b8201516101408481019190915282015161016080850191909152820151610180808501919091528201516101a0808501919091528201516101c080850191909152909101516101e09092019190915250565b61020081016112a78284613aa3565b6000610100808385031215613bb157600080fd5b6040519081019067ffffffffffffffff82118183101715613bd457613bd4613560565b81604052833581526020840135602082015260408401356040820152606084013560608201526080840135608082015260a084013560a082015260c084013560c082015260e084013560e0820152809250505092915050565b600181811c90821680613c4157607f821691505b60208210810361207757634e487b7160e01b600052602260045260246000fd5b60008351613c738184602088016133e0565b835190830190613c878183602088016133e0565b01949350505050565b6020815260008251610140806020850152613caf610160850183613404565b91506020850151601f19858403016040860152613ccc8382613404565b9250506040850151613ce3606086018260ff169052565b5060608501516080850152608085015160a085015260a085015160c085015260c085015160e085015260e0850151610100613d28818701836001600160a01b03169052565b8601519050610120613d408682018362ffffff169052565b86015160ff8116838701529050613508565b600080600060608486031215613d6757600080fd5b8351613d728161339e565b6020850151909350613d838161339e565b80925050604084015190509250925092565b6001600160a01b038316815260406020820181905260009061212c90830184613404565b634e487b7160e01b600052603260045260246000fd5b600060208284031215613de157600080fd5b815161209e8161339e565b600060208284031215613dfe57600080fd5b815167ffffffffffffffff811115613e1557600080fd5b8201601f81018413613e2657600080fd5b8051613e346136828261363b565b818152856020838501011115613e4957600080fd5b61279c8260208301602086016133e0565b600060208284031215613e6c57600080fd5b815161209e816136b9565b60008060408385031215613e8a57600080fd5b8251613e958161339e565b60208401519092506138488161339e565b600080600060608486031215613ebb57600080fd5b8351613ec68161339e565b6020850151909350613ed78161339e565b6040850151909250613ee88161339e565b809150509250925092565b600060208284031215613f0557600080fd5b5051919050565b601f821115612186576000816000526020600020601f850160051c81016020861015613f355750805b601f850160051c820191505b8181101561063557828155600101613f41565b815167ffffffffffffffff811115613f6e57613f6e613560565b613f8281613f7c8454613c2d565b84613f0c565b602080601f831160018114613fb75760008415613f9f5750858301515b600019600386901b1c1916600185901b178555610635565b600085815260208120601f198616915b82811015613fe657888601518255948401946001909101908401613fc7565b50858210156140045787850151600019600388901b60f8161c191681555b5050505050600190811b01905550565b634e487b7160e01b600052601160045260246000fd5b808201808211156112a7576112a7614014565b80820281158282048414176112a7576112a7614014565b634e487b7160e01b600052601260045260246000fd5b60008261407957614079614054565b500490565b8051600381106133be57600080fd5b60008082840360c08112156140a157600080fd5b60a08112156140af57600080fd5b506140b86135e7565b83516140c381613969565b815260208401516140d381613969565b602082015260408401516fffffffffffffffffffffffffffffffff811681146140fb57600080fd5b604082015260608481015190820152608084015161411881613969565b6080820152915061412b60a0840161407e565b90509250929050565b818103818111156112a7576112a7614014565b6001600160a01b038416815260606020808301829052845191830182905260009185820191906080850190845b8181101561419057845183529383019391830191600101614174565b505084810360408601526141a48187613853565b98975050505050505050565b60ff82811682821603908111156112a7576112a7614014565b600181815b808511156142045781600019048211156141ea576141ea614014565b808516156141f757918102915b93841c93908002906141ce565b509250929050565b60008261421b575060016112a7565b81614228575060006112a7565b816001811461423e576002811461424857614264565b60019150506112a7565b60ff84111561425957614259614014565b50506001821b6112a7565b5060208310610133831016604e8410600b8410161715614287575081810a6112a7565b61429183836141c9565b80600019048211156142a5576142a5614014565b029392505050565b600061209e60ff84168361420c565b80820260008212600160ff1b841416156142d8576142d8614014565b81810583148215176112a7576112a7614014565b8181036000831280158383131683831282161715610a0857610a08614014565b60008260020b8260020b028060020b9150808214610a0857610a08614014565b6000825161433e8184602087016133e0565b6908141c9948105cdcd95d60b21b920191825250600a01919050565b61702d60f01b8152600082516143778160028501602087016133e0565b9190910160020192915050565b60006101208083526143a181840186516001600160a01b03169052565b60208501516101406143bd818601836001600160a01b03169052565b604087015191506101606143db818701846001600160a01b03169052565b60608801519250610180838188015260808901516101a088015260a08901516101c088015260c08901519350806101e08801525061441d6102a0870184613404565b925060e088015161011f198785030161020088015261443c8482613404565b93505061010088015161445561022088018260ff169052565b50928701519261446b61024087018560020b9052565b90870151610260860152860151610280850152915061209e905060208301846138ab565b6001600160a01b038981168252888116602083015287811660408301528681166060830152858116608083015284811660a0830152831660c08201526102e0810161224460e0830184613aa3565b6000826144ec576144ec614054565b600160ff1b82146000198414161561450657614506614014565b500590565b60008261451a5761451a614054565b500790565b808201828112600083128015821682158216171561453f5761453f614014565b505092915050565b6000600160ff1b820161455c5761455c614014565b5060000390565b60008160020b627fffff19810361457c5761457c614014565b60000392915050565b60008261459457614594614054565b50069056fea264697066735822122038cf9ef976242284aba8a49a0e131364995888ac18c136b79f52e7da6f65417764736f6c63430008170033","linkReferences":{"src/libraries/Logarithm.sol":{"Logarithm":[{"start":10393,"length":20}]}}},"methodIdentifiers":{"adaptiveSupply()":"ef5ddb31","burnFor(address,uint256)":"1dd319cb","deferredDeploy(address)":"7d19a2cb","deployVault((uint256,uint256),(string,string,uint8,uint256,uint256,uint256,uint256,address,uint24,uint8))":"52f882fe","getDeployers()":"607c12b5","getPresaleProtocolParams()":"615de71f","getProtocolParameters()":"c58aad87","getVaultDescription(address)":"0337c57a","getVaults(address)":"fe7c9c92","mintTokens(address,uint256)":"f0dda65c","modelHelper()":"a3e44b33","numDeployers()":"098eddb1","numVaults(address)":"f9c7bba5","owner()":"8da5cb5b","setMultiSigAddress(address)":"077f2cfc","setPermissionlessDeploy(bool)":"397ae005","setPresaleProtocolParams((uint256,uint256,uint256,uint256,uint256,uint256,uint256,uint256))":"ee4a3e37","setProtocolParameters((uint8,uint8,uint8,uint16[2],uint256,uint256,int24,int24,int24,uint256,uint256,uint256,uint256,uint256,uint256))":"a879b078","teamMultiSig()":"854567f1","tokenFactory()":"e77772fe","upgradeToken(address,address)":"55b8ce0a"},"id":91}