{"abi":[{"type":"constructor","inputs":[{"name":"_factory","type":"address","internalType":"address"},{"name":"params","type":"tuple","internalType":"struct PresaleDeployParams","components":[{"name":"deployer","type":"address","internalType":"address"},{"name":"vaultAddress","type":"address","internalType":"address"},{"name":"pool","type":"address","internalType":"address"},{"name":"softCap","type":"uint256","internalType":"uint256"},{"name":"initialPrice","type":"uint256","internalType":"uint256"},{"name":"deadline","type":"uint256","internalType":"uint256"},{"name":"name","type":"string","internalType":"string"},{"name":"symbol","type":"string","internalType":"string"},{"name":"decimals","type":"uint8","internalType":"uint8"},{"name":"tickSpacing","type":"int24","internalType":"int24"},{"name":"floorPercentage","type":"uint256","internalType":"uint256"},{"name":"totalSupply","type":"uint256","internalType":"uint256"}]},{"name":"_protocolParams","type":"tuple","internalType":"struct PresaleProtocolParams","components":[{"name":"maxSoftCap","type":"uint256","internalType":"uint256"},{"name":"minContributionRatio","type":"uint256","internalType":"uint256"},{"name":"maxContributionRatio","type":"uint256","internalType":"uint256"},{"name":"presalePercentage","type":"uint256","internalType":"uint256"},{"name":"minDuration","type":"uint256","internalType":"uint256"},{"name":"maxDuration","type":"uint256","internalType":"uint256"},{"name":"referralPercentage","type":"uint256","internalType":"uint256"},{"name":"teamFee","type":"uint256","internalType":"uint256"}]}],"stateMutability":"nonpayable"},{"type":"function","name":"MAX_CONTRIBUTION","inputs":[],"outputs":[{"name":"","type":"uint256","internalType":"uint256"}],"stateMutability":"view"},{"type":"function","name":"MIN_CONTRIBUTION","inputs":[],"outputs":[{"name":"","type":"uint256","internalType":"uint256"}],"stateMutability":"view"},{"type":"function","name":"allowance","inputs":[{"name":"owner","type":"address","internalType":"address"},{"name":"spender","type":"address","internalType":"address"}],"outputs":[{"name":"","type":"uint256","internalType":"uint256"}],"stateMutability":"view"},{"type":"function","name":"approve","inputs":[{"name":"spender","type":"address","internalType":"address"},{"name":"value","type":"uint256","internalType":"uint256"}],"outputs":[{"name":"","type":"bool","internalType":"bool"}],"stateMutability":"nonpayable"},{"type":"function","name":"balanceOf","inputs":[{"name":"account","type":"address","internalType":"address"}],"outputs":[{"name":"","type":"uint256","internalType":"uint256"}],"stateMutability":"view"},{"type":"function","name":"contributions","inputs":[{"name":"","type":"address","internalType":"address"}],"outputs":[{"name":"","type":"uint256","internalType":"uint256"}],"stateMutability":"view"},{"type":"function","name":"contributors","inputs":[{"name":"","type":"uint256","internalType":"uint256"}],"outputs":[{"name":"","type":"address","internalType":"address"}],"stateMutability":"view"},{"type":"function","name":"deadline","inputs":[],"outputs":[{"name":"","type":"uint256","internalType":"uint256"}],"stateMutability":"view"},{"type":"function","name":"decimals","inputs":[],"outputs":[{"name":"","type":"uint8","internalType":"uint8"}],"stateMutability":"view"},{"type":"function","name":"deployer","inputs":[],"outputs":[{"name":"","type":"address","internalType":"address"}],"stateMutability":"view"},{"type":"function","name":"deposit","inputs":[{"name":"referralCode","type":"bytes32","internalType":"bytes32"}],"outputs":[],"stateMutability":"payable"},{"type":"function","name":"emergencyWithdrawal","inputs":[],"outputs":[],"stateMutability":"nonpayable"},{"type":"function","name":"emergencyWithdrawalFlag","inputs":[],"outputs":[{"name":"","type":"bool","internalType":"bool"}],"stateMutability":"view"},{"type":"function","name":"factory","inputs":[],"outputs":[{"name":"","type":"address","internalType":"address"}],"stateMutability":"view"},{"type":"function","name":"finalize","inputs":[],"outputs":[],"stateMutability":"nonpayable"},{"type":"function","name":"finalized","inputs":[],"outputs":[{"name":"","type":"bool","internalType":"bool"}],"stateMutability":"view"},{"type":"function","name":"floorPercentage","inputs":[],"outputs":[{"name":"","type":"uint256","internalType":"uint256"}],"stateMutability":"view"},{"type":"function","name":"getCurrentTimestamp","inputs":[],"outputs":[{"name":"","type":"uint256","internalType":"uint256"}],"stateMutability":"view"},{"type":"function","name":"getParticipantCount","inputs":[],"outputs":[{"name":"","type":"uint256","internalType":"uint256"}],"stateMutability":"view"},{"type":"function","name":"getPresaleParams","inputs":[],"outputs":[{"name":"","type":"tuple","internalType":"struct LivePresaleParams","components":[{"name":"softCap","type":"uint256","internalType":"uint256"},{"name":"hardCap","type":"uint256","internalType":"uint256"},{"name":"initialPrice","type":"uint256","internalType":"uint256"},{"name":"deadline","type":"uint256","internalType":"uint256"},{"name":"launchSupply","type":"uint256","internalType":"uint256"},{"name":"deployer","type":"address","internalType":"address"}]}],"stateMutability":"view"},{"type":"function","name":"getReferralUserCount","inputs":[{"name":"referralCode","type":"bytes32","internalType":"bytes32"}],"outputs":[{"name":"","type":"uint256","internalType":"uint256"}],"stateMutability":"view"},{"type":"function","name":"getTimeLeft","inputs":[],"outputs":[{"name":"","type":"uint256","internalType":"uint256"}],"stateMutability":"view"},{"type":"function","name":"getTotalReferredByCode","inputs":[{"name":"referralCode","type":"bytes32","internalType":"bytes32"}],"outputs":[{"name":"","type":"uint256","internalType":"uint256"}],"stateMutability":"view"},{"type":"function","name":"hardCap","inputs":[],"outputs":[{"name":"","type":"uint256","internalType":"uint256"}],"stateMutability":"view"},{"type":"function","name":"hasExpired","inputs":[],"outputs":[{"name":"","type":"bool","internalType":"bool"}],"stateMutability":"view"},{"type":"function","name":"initialPrice","inputs":[],"outputs":[{"name":"","type":"uint256","internalType":"uint256"}],"stateMutability":"view"},{"type":"function","name":"isContributor","inputs":[{"name":"","type":"address","internalType":"address"}],"outputs":[{"name":"","type":"bool","internalType":"bool"}],"stateMutability":"view"},{"type":"function","name":"launchSupply","inputs":[],"outputs":[{"name":"","type":"uint256","internalType":"uint256"}],"stateMutability":"view"},{"type":"function","name":"migrationContract","inputs":[],"outputs":[{"name":"","type":"address","internalType":"address"}],"stateMutability":"view"},{"type":"function","name":"name","inputs":[],"outputs":[{"name":"","type":"string","internalType":"string"}],"stateMutability":"view"},{"type":"function","name":"owner","inputs":[],"outputs":[{"name":"","type":"address","internalType":"address"}],"stateMutability":"view"},{"type":"function","name":"pool","inputs":[],"outputs":[{"name":"","type":"address","internalType":"contract IUniswapV3Pool"}],"stateMutability":"view"},{"type":"function","name":"protocolParams","inputs":[],"outputs":[{"name":"maxSoftCap","type":"uint256","internalType":"uint256"},{"name":"minContributionRatio","type":"uint256","internalType":"uint256"},{"name":"maxContributionRatio","type":"uint256","internalType":"uint256"},{"name":"presalePercentage","type":"uint256","internalType":"uint256"},{"name":"minDuration","type":"uint256","internalType":"uint256"},{"name":"maxDuration","type":"uint256","internalType":"uint256"},{"name":"referralPercentage","type":"uint256","internalType":"uint256"},{"name":"teamFee","type":"uint256","internalType":"uint256"}],"stateMutability":"view"},{"type":"function","name":"referralEarnings","inputs":[{"name":"","type":"bytes32","internalType":"bytes32"}],"outputs":[{"name":"","type":"uint256","internalType":"uint256"}],"stateMutability":"view"},{"type":"function","name":"referralPercentage","inputs":[],"outputs":[{"name":"","type":"uint256","internalType":"uint256"}],"stateMutability":"view"},{"type":"function","name":"renounceOwnership","inputs":[],"outputs":[],"stateMutability":"nonpayable"},{"type":"function","name":"setEmergencyWithdrawalFlag","inputs":[{"name":"flag","type":"bool","internalType":"bool"}],"outputs":[],"stateMutability":"nonpayable"},{"type":"function","name":"setMigrationContract","inputs":[{"name":"_migrationContract","type":"address","internalType":"address"}],"outputs":[],"stateMutability":"nonpayable"},{"type":"function","name":"softCap","inputs":[],"outputs":[{"name":"","type":"uint256","internalType":"uint256"}],"stateMutability":"view"},{"type":"function","name":"softCapReached","inputs":[],"outputs":[{"name":"","type":"bool","internalType":"bool"}],"stateMutability":"view"},{"type":"function","name":"symbol","inputs":[],"outputs":[{"name":"","type":"string","internalType":"string"}],"stateMutability":"view"},{"type":"function","name":"tickSpacing","inputs":[],"outputs":[{"name":"","type":"int24","internalType":"int24"}],"stateMutability":"view"},{"type":"function","name":"totalDeposited","inputs":[],"outputs":[{"name":"","type":"uint256","internalType":"uint256"}],"stateMutability":"view"},{"type":"function","name":"totalRaised","inputs":[],"outputs":[{"name":"","type":"uint256","internalType":"uint256"}],"stateMutability":"view"},{"type":"function","name":"totalSupply","inputs":[],"outputs":[{"name":"","type":"uint256","internalType":"uint256"}],"stateMutability":"view"},{"type":"function","name":"transfer","inputs":[{"name":"to","type":"address","internalType":"address"},{"name":"value","type":"uint256","internalType":"uint256"}],"outputs":[{"name":"","type":"bool","internalType":"bool"}],"stateMutability":"nonpayable"},{"type":"function","name":"transferFrom","inputs":[{"name":"from","type":"address","internalType":"address"},{"name":"to","type":"address","internalType":"address"},{"name":"value","type":"uint256","internalType":"uint256"}],"outputs":[{"name":"","type":"bool","internalType":"bool"}],"stateMutability":"nonpayable"},{"type":"function","name":"transferOwnership","inputs":[{"name":"newOwner","type":"address","internalType":"address"}],"outputs":[],"stateMutability":"nonpayable"},{"type":"function","name":"uniswapV3SwapCallback","inputs":[{"name":"amount0Delta","type":"int256","internalType":"int256"},{"name":"amount1Delta","type":"int256","internalType":"int256"},{"name":"data","type":"bytes","internalType":"bytes"}],"outputs":[],"stateMutability":"nonpayable"},{"type":"function","name":"vaultAddress","inputs":[],"outputs":[{"name":"","type":"address","internalType":"address"}],"stateMutability":"view"},{"type":"function","name":"withdraw","inputs":[],"outputs":[],"stateMutability":"nonpayable"},{"type":"function","name":"withdrawExcess","inputs":[],"outputs":[],"stateMutability":"nonpayable"},{"type":"event","name":"Approval","inputs":[{"name":"owner","type":"address","indexed":true,"internalType":"address"},{"name":"spender","type":"address","indexed":true,"internalType":"address"},{"name":"value","type":"uint256","indexed":false,"internalType":"uint256"}],"anonymous":false},{"type":"event","name":"Deposit","inputs":[{"name":"user","type":"address","indexed":true,"internalType":"address"},{"name":"amount","type":"uint256","indexed":false,"internalType":"uint256"},{"name":"referralCode","type":"bytes32","indexed":true,"internalType":"bytes32"}],"anonymous":false},{"type":"event","name":"Finalized","inputs":[{"name":"totalRaised","type":"uint256","indexed":false,"internalType":"uint256"},{"name":"feeTaken","type":"uint256","indexed":false,"internalType":"uint256"},{"name":"contributionAmount","type":"uint256","indexed":false,"internalType":"uint256"},{"name":"slippagePriceX96","type":"uint256","indexed":false,"internalType":"uint256"}],"anonymous":false},{"type":"event","name":"OwnershipTransferred","inputs":[{"name":"previousOwner","type":"address","indexed":true,"internalType":"address"},{"name":"newOwner","type":"address","indexed":true,"internalType":"address"}],"anonymous":false},{"type":"event","name":"ReferralPaid","inputs":[{"name":"referralCode","type":"bytes32","indexed":true,"internalType":"bytes32"},{"name":"amount","type":"uint256","indexed":false,"internalType":"uint256"}],"anonymous":false},{"type":"event","name":"TokenBurned","inputs":[{"name":"user","type":"address","indexed":true,"internalType":"address"},{"name":"amount","type":"uint256","indexed":false,"internalType":"uint256"}],"anonymous":false},{"type":"event","name":"TokensWithdrawn","inputs":[{"name":"user","type":"address","indexed":true,"internalType":"address"},{"name":"amount","type":"uint256","indexed":false,"internalType":"uint256"}],"anonymous":false},{"type":"event","name":"Transfer","inputs":[{"name":"from","type":"address","indexed":true,"internalType":"address"},{"name":"to","type":"address","indexed":true,"internalType":"address"},{"name":"value","type":"uint256","indexed":false,"internalType":"uint256"}],"anonymous":false},{"type":"error","name":"AlreadyFinalized","inputs":[]},{"type":"error","name":"CallbackCaller","inputs":[]},{"type":"error","name":"ERC20InsufficientAllowance","inputs":[{"name":"spender","type":"address","internalType":"address"},{"name":"allowance","type":"uint256","internalType":"uint256"},{"name":"needed","type":"uint256","internalType":"uint256"}]},{"type":"error","name":"ERC20InsufficientBalance","inputs":[{"name":"sender","type":"address","internalType":"address"},{"name":"balance","type":"uint256","internalType":"uint256"},{"name":"needed","type":"uint256","internalType":"uint256"}]},{"type":"error","name":"ERC20InvalidApprover","inputs":[{"name":"approver","type":"address","internalType":"address"}]},{"type":"error","name":"ERC20InvalidReceiver","inputs":[{"name":"receiver","type":"address","internalType":"address"}]},{"type":"error","name":"ERC20InvalidSender","inputs":[{"name":"sender","type":"address","internalType":"address"}]},{"type":"error","name":"ERC20InvalidSpender","inputs":[{"name":"spender","type":"address","internalType":"address"}]},{"type":"error","name":"EmergencyWithdrawalNotEnabled","inputs":[]},{"type":"error","name":"HardCapExceeded","inputs":[]},{"type":"error","name":"InvalidDecimals","inputs":[]},{"type":"error","name":"InvalidHardCap","inputs":[]},{"type":"error","name":"InvalidParameters","inputs":[]},{"type":"error","name":"InvalidSoftCap","inputs":[]},{"type":"error","name":"InvalidSwap","inputs":[]},{"type":"error","name":"NoContributionsToWithdraw","inputs":[]},{"type":"error","name":"NoReentrantCalls","inputs":[]},{"type":"error","name":"NoTokensExchanged","inputs":[]},{"type":"error","name":"NotAuthorized","inputs":[]},{"type":"error","name":"NotFinalized","inputs":[]},{"type":"error","name":"OnlyFactoryOwner","inputs":[]},{"type":"error","name":"OwnableInvalidOwner","inputs":[{"name":"owner","type":"address","internalType":"address"}]},{"type":"error","name":"OwnableUnauthorizedAccount","inputs":[{"name":"account","type":"address","internalType":"address"}]},{"type":"error","name":"PresaleEnded","inputs":[]},{"type":"error","name":"PresaleOngoing","inputs":[]},{"type":"error","name":"SafeERC20FailedOperation","inputs":[{"name":"token","type":"address","internalType":"address"}]},{"type":"error","name":"SoftCapNotMet","inputs":[]},{"type":"error","name":"WithdrawNotAllowedYet","inputs":[]}],"bytecode":{"object":"0x608060405234801562000010575f80fd5b5060405162003e3838038062003e38833981016040819052620000339162000723565b815160c083015160e08401516101008501518282600362000055838262000905565b50600462000064828262000905565b5050506001600160a01b03841692506200009a91505057604051631e4fbdf760e01b81525f600482015260240160405180910390fd5b620000a58162000507565b508151601380546001600160a01b039283166001600160a01b0319918216179091556020840151600680549184169183169190911790556040840151600c80549190931691161790556060820151600755608082015160095560a08201516200010f9042620009e5565b600d556101208201516023805462ffffff191662ffffff909216919091179055610160820151600a55610140820151600b558051601b55602080820151601c55604080830151601d556060830151601e556080830151601f5560a0830151825560c0830151602181905560e08401516022819055601191909155601480546001600160a01b0319166001600160a01b0388811691909117909155602691909155600c548251630dfe168160e01b815292515f949190921692630dfe168192600482810193928290030181865afa158015620001ec573d5f803e3d5ffd5b505050506040513d601f19601f8201168201806040525081019062000212919062000a01565b6001600160a01b031663313ce5676040518163ffffffff1660e01b8152600401602060405180830381865afa1580156200024e573d5f803e3d5ffd5b505050506040513d601f19601f8201168201806040525081019062000274919062000a24565b60ff16905060125f62000288838362000a40565b6200029590600a62000b4f565b600a54620002a4919062000b5c565b90505f620002b483601262000a40565b620002c190600a62000b4f565b600954620002d0919062000b5c565b90506064866101400151670de0b6b3a76400008385620002f1919062000b5c565b620002fd919062000b76565b62000309919062000b5c565b62000315919062000b76565b600881905585516064916200032b919062000b5c565b62000337919062000b76565b60075411156200035a57604051630e52390960e41b815260040160405180910390fd5b60085460075411156200038057604051631a683d1960e11b815260040160405180910390fd5b6040518060400160405280600c5f9054906101000a90046001600160a01b03166001600160a01b0316630dfe16816040518163ffffffff1660e01b8152600401602060405180830381865afa158015620003dc573d5f803e3d5ffd5b505050506040513d601f19601f8201168201806040525081019062000402919062000a01565b6001600160a01b03168152602001600c5f9054906101000a90046001600160a01b03166001600160a01b031663d21220a76040518163ffffffff1660e01b8152600401602060405180830381865afa15801562000461573d5f803e3d5ffd5b505050506040513d601f19601f8201168201806040525081019062000487919062000a01565b6001600160a01b039081169091528151601980549183166001600160a01b0319928316179055602092830151601a8054919093169116179055850151600854620004d2919062000b76565b6024556040850151600854620004e9919062000b76565b60255550506027805460ff191660011790555062000b969350505050565b600580546001600160a01b038381166001600160a01b0319831681179093556040519116919082907f8be0079c531659141344cd1fd0a4f28419497f9722a3daafe3b4186f6b6457e0905f90a35050565b80516001600160a01b03811681146200056f575f80fd5b919050565b634e487b7160e01b5f52604160045260245ffd5b60405161018081016001600160401b0381118282101715620005ae57620005ae62000574565b60405290565b604051601f8201601f191681016001600160401b0381118282101715620005df57620005df62000574565b604052919050565b5f82601f830112620005f7575f80fd5b81516001600160401b0381111562000613576200061362000574565b602062000629601f8301601f19168201620005b4565b82815285828487010111156200063d575f80fd5b5f5b838110156200065c5785810183015182820184015282016200063f565b505f928101909101919091529392505050565b805160ff811681146200056f575f80fd5b8051600281900b81146200056f575f80fd5b5f610100808385031215620006a5575f80fd5b604051908101906001600160401b0382118183101715620006ca57620006ca62000574565b81604052809250835181526020840151602082015260408401516040820152606084015160608201526080840151608082015260a084015160a082015260c084015160c082015260e084015160e0820152505092915050565b5f805f61014080858703121562000738575f80fd5b620007438562000558565b60208601519094506001600160401b038082111562000760575f80fd5b90860190610180828903121562000775575f80fd5b6200077f62000588565b6200078a8362000558565b81526200079a6020840162000558565b6020820152620007ad6040840162000558565b6040820152606083015160608201526080830151608082015260a083015160a082015260c083015182811115620007e2575f80fd5b620007f08a828601620005e7565b60c08301525060e08301518281111562000808575f80fd5b620008168a828601620005e7565b60e08301525061010091506200082e8284016200066f565b8282015261012091506200084482840162000680565b9181019190915281830151928101929092526101609081015190820152915062000872856040860162000692565b90509250925092565b600181811c908216806200089057607f821691505b602082108103620008af57634e487b7160e01b5f52602260045260245ffd5b50919050565b601f8211156200090057805f5260205f20601f840160051c81016020851015620008dc5750805b601f840160051c820191505b81811015620008fd575f8155600101620008e8565b50505b505050565b81516001600160401b0381111562000921576200092162000574565b62000939816200093284546200087b565b84620008b5565b602080601f8311600181146200096f575f8415620009575750858301515b5f19600386901b1c1916600185901b178555620009c9565b5f85815260208120601f198616915b828110156200099f578886015182559484019460019091019084016200097e565b5085821015620009bd57878501515f19600388901b60f8161c191681555b505060018460011b0185555b505050505050565b634e487b7160e01b5f52601160045260245ffd5b80820180821115620009fb57620009fb620009d1565b92915050565b5f6020828403121562000a12575f80fd5b62000a1d8262000558565b9392505050565b5f6020828403121562000a35575f80fd5b62000a1d826200066f565b81810381811115620009fb57620009fb620009d1565b600181815b8085111562000a9657815f190482111562000a7a5762000a7a620009d1565b8085161562000a8857918102915b93841c939080029062000a5b565b509250929050565b5f8262000aae57506001620009fb565b8162000abc57505f620009fb565b816001811462000ad5576002811462000ae05762000b00565b6001915050620009fb565b60ff84111562000af45762000af4620009d1565b50506001821b620009fb565b5060208310610133831016604e8410600b841016171562000b25575081810a620009fb565b62000b31838362000a56565b805f190482111562000b475762000b47620009d1565b029392505050565b5f62000a1d838362000a9e565b8082028115828204841417620009fb57620009fb620009d1565b5f8262000b9157634e487b7160e01b5f52601260045260245ffd5b500490565b6132948062000ba45f395ff3fe6080604052600436106102f3575f3560e01c806390e64d1311610189578063c45a0155116100d8578063dbb33deb11610092578063f2fde38b1161006d578063f2fde38b1461091a578063fa461e3314610939578063fb86a40414610958578063ff50abdc1461096d575f80fd5b8063dbb33deb1461085d578063dd62ed3e14610872578063e12ceb17146108b6575f80fd5b8063c45a0155146107b1578063c5c4744c146107d0578063c7e284b8146107e5578063d0c93a7c146107f9578063d5f3948814610825578063d6d4b53d14610844575f80fd5b8063a02f360111610143578063ad6057291161011e578063ad6057291461075d578063b214faa514610771578063b3f05b9714610784578063c264a0631461079d575f80fd5b8063a02f3601146106f4578063a5727e2514610713578063a9059cbb1461073e575f80fd5b806390e64d131461061457806393aab9d51461062a57806394d95f8f1461069757806395d89b41146106ac57806396ea8b9c146106c05780639f5bba58146106d5575f80fd5b80633f7ed6b7116102455780635b0a3843116101ff578063715018a6116101da578063715018a6146105af57806388b79cec146105c35780638da5cb5b146105e2578063906a26e0146105ff575f80fd5b80635b0a3843146105555780636c9230db1461056957806370a082311461057b575f80fd5b80633f7ed6b7146104a257806340650c91146104b757806342e94c90146104cc578063430bf08a146104f75780634b197be3146105165780634bb278f314610541575f80fd5b80631d0d35f5116102b05780632b9edee91161028b5780632b9edee91461043b578063313ce567146104525780633cb5d1001461046d5780633ccfd60b1461048c575f80fd5b80631d0d35f5146103d957806323b872dd1461040757806329dcb0cf14610426575f80fd5b806306fdde03146102f7578063095ea7b3146103215780630fee1a201461035057806316f0115b1461038757806318160ddd146103a65780631d0806ae146103c4575b5f80fd5b348015610302575f80fd5b5061030b610982565b6040516103189190612c43565b60405180910390f35b34801561032c575f80fd5b5061034061033b366004612ca3565b610a12565b6040519015158152602001610318565b34801561035b575f80fd5b5060155461036f906001600160a01b031681565b6040516001600160a01b039091168152602001610318565b348015610392575f80fd5b50600c5461036f906001600160a01b031681565b3480156103b1575f80fd5b506002545b604051908152602001610318565b3480156103cf575f80fd5b506103b660095481565b3480156103e4575f80fd5b506103406103f3366004612ccd565b60166020525f908152604090205460ff1681565b348015610412575f80fd5b50610340610421366004612ce8565b610a2b565b348015610431575f80fd5b506103b6600d5481565b348015610446575f80fd5b50600754471015610340565b34801561045d575f80fd5b5060405160128152602001610318565b348015610478575f80fd5b5061036f610487366004612d26565b610a4e565b348015610497575f80fd5b506104a0610a76565b005b3480156104ad575f80fd5b506103b6600a5481565b3480156104c2575f80fd5b506103b660245481565b3480156104d7575f80fd5b506103b66104e6366004612ccd565b600f6020525f908152604090205481565b348015610502575f80fd5b5060065461036f906001600160a01b031681565b348015610521575f80fd5b506103b6610530366004612d26565b60106020525f908152604090205481565b34801561054c575f80fd5b506104a0610c9a565b348015610560575f80fd5b506104a0611118565b348015610574575f80fd5b50426103b6565b348015610586575f80fd5b506103b6610595366004612ccd565b6001600160a01b03165f9081526020819052604090205490565b3480156105ba575f80fd5b506104a06112bb565b3480156105ce575f80fd5b506104a06105dd366004612ccd565b6112ce565b3480156105ed575f80fd5b506005546001600160a01b031661036f565b34801561060a575f80fd5b506103b660075481565b34801561061f575f80fd5b50600d544211610340565b348015610635575f80fd5b50601b54601c54601d54601e54601f5460205460215460225461065c979695949392919088565b604080519889526020890197909752958701949094526060860192909252608085015260a084015260c083015260e082015261010001610318565b3480156106a2575f80fd5b506103b660255481565b3480156106b7575f80fd5b5061030b611395565b3480156106cb575f80fd5b506103b660115481565b3480156106e0575f80fd5b506103b66106ef366004612d26565b6113a4565b3480156106ff575f80fd5b506104a061070e366004612d4a565b611473565b34801561071e575f80fd5b506103b661072d366004612d26565b5f9081526010602052604090205490565b348015610749575f80fd5b50610340610758366004612ca3565b611544565b348015610768575f80fd5b506012546103b6565b6104a061077f366004612d26565b611551565b34801561078f575f80fd5b50600e546103409060ff1681565b3480156107a8575f80fd5b506104a061183a565b3480156107bc575f80fd5b5060145461036f906001600160a01b031681565b3480156107db575f80fd5b506103b660175481565b3480156107f0575f80fd5b506103b6611852565b348015610804575f80fd5b506023546108129060020b81565b60405160029190910b8152602001610318565b348015610830575f80fd5b5060135461036f906001600160a01b031681565b34801561084f575f80fd5b506027546103409060ff1681565b348015610868575f80fd5b506103b6600b5481565b34801561087d575f80fd5b506103b661088c366004612d65565b6001600160a01b039182165f90815260016020908152604080832093909416825291909152205490565b3480156108c1575f80fd5b506108ca611875565b6040516103189190815181526020808301519082015260408083015190820152606080830151908201526080808301519082015260a0918201516001600160a01b03169181019190915260c00190565b348015610925575f80fd5b506104a0610934366004612ccd565b6118f7565b348015610944575f80fd5b506104a0610953366004612d9c565b611939565b348015610963575f80fd5b506103b660085481565b348015610978575f80fd5b506103b660185481565b60606003805461099190612e15565b80601f01602080910402602001604051908101604052809291908181526020018280546109bd90612e15565b8015610a085780601f106109df57610100808354040283529160200191610a08565b820191905f5260205f20905b8154815290600101906020018083116109eb57829003601f168201915b5050505050905090565b5f33610a1f8185856119ad565b60019150505b92915050565b5f33610a388582856119bf565b610a43858585611a34565b506001949350505050565b60128181548110610a5d575f80fd5b5f918252602090912001546001600160a01b0316905081565b602754610100900460ff1615610a9f57604051637fa8a98760e01b815260040160405180910390fd5b6027805461ff001916610100179055600e5460ff16610ad157604051630df706ad60e11b815260040160405180910390fd5b335f9081526020819052604081205490819003610b01576040516364bb3fe160e11b815260040160405180910390fd5b610b0b3382611a91565b600c5460408051630dfe168160e01b815290515f926001600160a01b031691630dfe16819160048083019260209291908290030181865afa158015610b52573d5f803e3d5ffd5b505050506040513d601f19601f82011682018060405250810190610b769190612e4d565b90505f6103e8610b88846103d9612e7c565b610b929190612ea7565b6040516370a0823160e01b81523060048201529091505f906001600160a01b038416906370a0823190602401602060405180830381865afa158015610bd9573d5f803e3d5ffd5b505050506040513d601f19601f82011682018060405250810190610bfd9190612eba565b90508180821015610c0b5750805b6015546001600160a01b031615801590610c3e57601554610c39906001600160a01b03878116911684611ac9565b610c52565b610c526001600160a01b0386163384611ac9565b60405182815233907f6352c5382c4a4578e712449ca65e83cdb392d045dfcf1cad9615189db2da244b9060200160405180910390a250506027805461ff001916905550505050565b602754610100900460ff1615610cc357604051637fa8a98760e01b815260040160405180910390fd5b6027805461ff001916610100179055600e5460ff1615610cf65760405163475a253560e01b815260040160405180910390fd5b600d544211610d18576040516336bdd46d60e21b815260040160405180910390fd5b6040805161010081018252601b548152601c54602080830191909152601d5492820192909252601e5460608201819052601f546080830152915460a082015260215460c082015260225460e082015290801580610d755750606481115b15610d9357604051630e52390960e41b815260040160405180910390fd5b475f6064610da18484612e7c565b610dab9190612ea7565b6015549091505f906001600160a01b0316610dcf57610dca8284612ed1565b610dd1565b825b6015549091505f906001600160a01b0316610e0e576064610df28682612ed1565b600754610dff9190612e7c565b610e099190612ea7565b610e12565b6007545b905080821015610e35576040516346c21a5560e01b815260040160405180910390fd5b600e805460ff191660011790556006546040805163899e868960e01b815290516001600160a01b039092169163899e8689916004808201925f9290919082900301818387803b158015610e86575f80fd5b505af1158015610e98573d5f803e3d5ffd5b5050601a5460408051630d0e30db60e41b815290516001600160a01b03909216935063d0e30db0925085916004808301925f92919082900301818588803b158015610ee1575f80fd5b505af1158015610ef3573d5f803e3d5ffd5b50505050505f600c5f9054906101000a90046001600160a01b03166001600160a01b0316633850c7bd6040518163ffffffff1660e01b815260040160e060405180830381865afa158015610f49573d5f803e3d5ffd5b505050506040513d601f19601f82011682018060405250810190610f6d9190612f0b565b505060405163b7df07b360e01b81526001600160a01b0386166004820152601260248201529495505f9473__$00856c2daf1848075e4d6b3791a97a7365$__945063b7df07b393506044019150610fc19050565b602060405180830381865af4158015610fdc573d5f803e3d5ffd5b505050506040513d601f19601f820116820180604052508101906110009190612eba565b90505f6103e8611011836005612e7c565b61101b9190612ea7565b6110259083612f9d565b6040805161012081018252600c546001600160a01b039081168252306020830152601954811692820192909252601a5490911660608201526023549192506110a891608082019061107c90859060020b6012611b1b565b6001600160a01b03168152602081018890526001604082018190525f6060830152608090910152611b37565b50506040805188815260208101889052908101869052606081018290527f32046dc3847a4f54dd5b5984bc3a183f0c8ddbfb0f73b68f0ba6693d09b673129060800160405180910390a16110fa611fa2565b611102612120565b50506027805461ff001916905550505050505050565b60275460ff1661113b57604051631d04ff5f60e11b815260040160405180910390fd5b602754610100900460ff161561116457604051637fa8a98760e01b815260040160405180910390fd5b6027805461ff001916610100179055600e5460ff16156111975760405163475a253560e01b815260040160405180910390fd5b600d546111a79062278d00612f9d565b4210156111c757604051634aeb789d60e01b815260040160405180910390fd5b335f908152600f6020526040812054908190036111f7576040516364bb3fe160e11b815260040160405180910390fd5b6009545f9061120e83670de0b6b3a7640000612e7c565b6112189190612ea7565b90506112243382611a91565b335f908152600f6020526040812081905560178054849290611247908490612ed1565b9091555050604051339083156108fc029084905f818181858888f19350505050158015611276573d5f803e3d5ffd5b5060405181815233907f1af5163f80e79b5e554f61e1d052084d3a3fe1166e42a265798c4e2ddce8ffa29060200160405180910390a250506027805461ff0019169055565b6112c361225c565b6112cc5f612289565b565b60145f9054906101000a90046001600160a01b03166001600160a01b0316638da5cb5b6040518163ffffffff1660e01b8152600401602060405180830381865afa15801561131e573d5f803e3d5ffd5b505050506040513d601f19601f820116820180604052508101906113429190612e4d565b6001600160a01b0316336001600160a01b031614611373576040516325f8474360e11b815260040160405180910390fd5b601580546001600160a01b0319166001600160a01b0392909216919091179055565b60606004805461099190612e15565b5f80805b60125481101561146c578373__$02d520d13cf184fb066b4c9912635b5d1d$__636c9c7b63601284815481106113e0576113e0612fb0565b5f9182526020909120015460405160e083901b6001600160e01b03191681526001600160a01b039091166004820152602401602060405180830381865af415801561142d573d5f803e3d5ffd5b505050506040513d601f19601f820116820180604052508101906114519190612eba565b03611464578161146081612fc4565b9250505b6001016113a8565b5092915050565b6005546001600160a01b03163314801590611513575060145f9054906101000a90046001600160a01b03166001600160a01b0316638da5cb5b6040518163ffffffff1660e01b8152600401602060405180830381865afa1580156114d9573d5f803e3d5ffd5b505050506040513d601f19601f820116820180604052508101906114fd9190612e4d565b6001600160a01b0316336001600160a01b031614155b156115315760405163ea8e4eb560e01b815260040160405180910390fd5b6027805460ff1916911515919091179055565b5f33610a1f818585611a34565b602754610100900460ff161561157a57604051637fa8a98760e01b815260040160405180910390fd5b6027805461ff001916610100179055611594600d54421190565b156115b257604051631eb1561f60e01b815260040160405180910390fd5b600e5460ff16156115d65760405163475a253560e01b815260040160405180910390fd5b345f036115f657604051630e52390960e41b815260040160405180910390fd5b801580159061163757506040516bffffffffffffffffffffffff193360601b1660208201526034016040516020818303038152906040528051906020012081145b1561165557604051630e52390960e41b815260040160405180910390fd5b6015546001600160a01b031661169457602454341080611676575060255434115b1561169457604051630e52390960e41b815260040160405180910390fd5b60085447908111156116b957604051631c4af3c960e11b815260040160405180910390fd5b335f908152600f6020526040812080543492906116d7908490612f9d565b925050819055503460185f8282546116ef9190612f9d565b925050819055503460175f8282546117079190612f9d565b90915550506009545f9061172334670de0b6b3a7640000612e7c565b61172d9190612ea7565b905061173933826122da565b335f9081526016602052604090205460ff166117a9576012805460018181019092557fbb8a6a4669ba250d26cd7a459eca9d215f8307e33aebe50379bc5a3617ec34440180546001600160a01b031916339081179091555f908152601660205260409020805460ff191690911790555b82156117f3575f6064601154346117c09190612e7c565b6117ca9190612ea7565b90508060105f8681526020019081526020015f205f8282546117ec9190612f9d565b9091555050505b604051348152839033907f1a771fe656018364a9369da21954bb3081cb08b0196c27e43ca59c7cae8727379060200160405180910390a350506027805461ff001916905550565b61184261225c565b61184a612120565b6112cc61230e565b5f600d5442111561186257505f90565b42600d546118709190612ed1565b905090565b6118b16040518060c001604052805f81526020015f81526020015f81526020015f81526020015f81526020015f6001600160a01b031681525090565b506040805160c0810182526007548152600854602082015260095491810191909152600d546060820152600a5460808201526013546001600160a01b031660a082015290565b6118ff61225c565b6001600160a01b03811661192d57604051631e4fbdf760e01b81525f60048201526024015b60405180910390fd5b61193681612289565b50565b600c546001600160a01b03163314611964576040516348b77d9160e11b815260040160405180910390fd5b5f84131561198857601954611983906001600160a01b03163386611ac9565b6119a7565b5f8313156119a757601a546119a7906001600160a01b03163385611ac9565b50505050565b6119ba8383836001612429565b505050565b6001600160a01b038381165f908152600160209081526040808320938616835292905220545f1981146119a75781811015611a2657604051637dc7a0d960e11b81526001600160a01b03841660048201526024810182905260448101839052606401611924565b6119a784848484035f612429565b6001600160a01b038316611a5d57604051634b637e8f60e11b81525f6004820152602401611924565b6001600160a01b038216611a865760405163ec442f0560e01b81525f6004820152602401611924565b6119ba8383836124fb565b6001600160a01b038216611aba57604051634b637e8f60e11b81525f6004820152602401611924565b611ac5825f836124fb565b5050565b604080516001600160a01b038416602482015260448082018490528251808303909101815260649091019091526020810180516001600160e01b031663a9059cbb60e01b1790526119ba908490612621565b5f611b2f611b2a85858561268d565b6127d2565b949350505050565b5f805f8360e00151611b4d578360400151611b53565b83606001515b60208501516040516370a0823160e01b81526001600160a01b0391821660048201529116906370a0823190602401602060405180830381865afa158015611b9c573d5f803e3d5ffd5b505050506040513d601f19601f82011682018060405250810190611bc09190612eba565b90505f845f01516001600160a01b031663d0c93a7c6040518163ffffffff1660e01b8152600401602060405180830381865afa158015611c02573d5f803e3d5ffd5b505050506040513d601f19601f82011682018060405250810190611c269190612fdc565b90505f73__$00856c2daf1848075e4d6b3791a97a7365$__63b7df07b387608001518860e00151611c5b578860400151611c61565b88606001515b6001600160a01b031663313ce5676040518163ffffffff1660e01b8152600401602060405180830381865afa158015611c9c573d5f803e3d5ffd5b505050506040513d601f19601f82011682018060405250810190611cc09190612ff5565b6040516001600160e01b031960e085901b1681526001600160a01b03909216600483015260ff166024820152604401602060405180830381865af4158015611d0a573d5f803e3d5ffd5b505050506040513d601f19601f82011682018060405250810190611d2e9190612eba565b90505f611e0c8760e00151611d685760648860c0015184611d4f9190612e7c565b611d599190612ea7565b611d639084612f9d565b611d8e565b60648860c0015184611d7a9190612e7c565b611d849190612ea7565b611d8e9084612ed1565b848960e00151611da2578960400151611da8565b89606001515b6001600160a01b031663313ce5676040518163ffffffff1660e01b8152600401602060405180830381865afa158015611de3573d5f803e3d5ffd5b505050506040513d601f19601f82011682018060405250810190611e079190612ff5565b611b1b565b9050865f01516001600160a01b031663128acb0888602001518960e001518a60a001518b6101000151611e3f5785611e45565b8b608001515b60405160e086901b6001600160e01b03191681526001600160a01b03948516600482015292151560248401526044830191909152909116606482015260a060848201525f60a482015260c40160408051808303815f875af1925050508015611eca575060408051601f3d908101601f19168201909252611ec791810190613015565b60015b611ee757604051631115766760e01b815260040160405180910390fd5b8197508096505f8960e00151611f01578960400151611f07565b89606001515b60208b01516040516370a0823160e01b81526001600160a01b0391821660048201529116906370a0823190602401602060405180830381865afa158015611f50573d5f803e3d5ffd5b505050506040513d601f19601f82011682018060405250810190611f749190612eba565b9050808703611f96576040516304ecdfb360e41b815260040160405180910390fd5b50505050505050915091565b600e5460ff16611fc557604051630df706ad60e11b815260040160405180910390fd5b5f5b601254811015611936575f73__$02d520d13cf184fb066b4c9912635b5d1d$__636c9c7b6360128481548110611fff57611fff612fb0565b5f9182526020909120015460405160e083901b6001600160e01b03191681526001600160a01b039091166004820152602401602060405180830381865af415801561204c573d5f803e3d5ffd5b505050506040513d601f19601f820116820180604052508101906120709190612eba565b5f818152601060205260409020549091508015612116575f82815260106020526040812055816001600160a01b03811615612114576040516001600160a01b0382169083156108fc029084905f818181858888f193505050501580156120d8573d5f803e3d5ffd5b50827f938b3b8d26a9cd6e627949e6e94bb50e3dd4d96a6abf6dd87d07871c5e39d52b8360405161210b91815260200190565b60405180910390a25b505b5050600101611fc7565b600e5460ff1661214357604051630df706ad60e11b815260040160405180910390fd5b60265447905f906064906121579084612e7c565b6121619190612ea7565b90505f60145f9054906101000a90046001600160a01b03166001600160a01b031663854567f16040518163ffffffff1660e01b8152600401602060405180830381865afa1580156121b4573d5f803e3d5ffd5b505050506040513d601f19601f820116820180604052508101906121d89190612e4d565b90506001600160a01b0381161561221e576040516001600160a01b0382169083156108fc029084905f818181858888f1935050505015801561221c573d5f803e3d5ffd5b505b6005546001600160a01b03166108fc6122378486612ed1565b6040518115909202915f818181858888f193505050501580156119a7573d5f803e3d5ffd5b6005546001600160a01b031633146112cc5760405163118cdaa760e01b8152336004820152602401611924565b600580546001600160a01b038381166001600160a01b0319831681179093556040519116919082907f8be0079c531659141344cd1fd0a4f28419497f9722a3daafe3b4186f6b6457e0905f90a35050565b6001600160a01b0382166123035760405163ec442f0560e01b81525f6004820152602401611924565b611ac55f83836124fb565b600e5460ff1661233157604051630df706ad60e11b815260040160405180910390fd5b600c5460408051630dfe168160e01b815290515f926001600160a01b031691630dfe16819160048083019260209291908290030181865afa158015612378573d5f803e3d5ffd5b505050506040513d601f19601f8201168201806040525081019061239c9190612e4d565b6040516370a0823160e01b81523060048201529091505f906001600160a01b038316906370a0823190602401602060405180830381865afa1580156123e3573d5f803e3d5ffd5b505050506040513d601f19601f820116820180604052508101906124079190612eba565b90508015611ac557600654611ac5906001600160a01b03848116911683611ac9565b6001600160a01b0384166124525760405163e602df0560e01b81525f6004820152602401611924565b6001600160a01b03831661247b57604051634a1406b160e11b81525f6004820152602401611924565b6001600160a01b038085165f90815260016020908152604080832093871683529290522082905580156119a757826001600160a01b0316846001600160a01b03167f8c5be1e5ebec7d5bd14f71427d1e84f3dd0314c0f7b2291e5b200ac8c7c3b925846040516124ed91815260200190565b60405180910390a350505050565b6001600160a01b038316612525578060025f82825461251a9190612f9d565b909155506125959050565b6001600160a01b0383165f90815260208190526040902054818110156125775760405163391434e360e21b81526001600160a01b03851660048201526024810182905260448101839052606401611924565b6001600160a01b0384165f9081526020819052604090209082900390555b6001600160a01b0382166125b1576002805482900390556125cf565b6001600160a01b0382165f9081526020819052604090208054820190555b816001600160a01b0316836001600160a01b03167fddf252ad1be2c89b69c2b068fc378daa952ba7f163c4a11628f55a4df523b3ef8360405161261491815260200190565b60405180910390a3505050565b5f8060205f8451602086015f885af180612640576040513d5f823e3d81fd5b50505f513d91508115612657578060011415612664565b6001600160a01b0384163b155b156119a757604051635274afe760e01b81526001600160a01b0385166004820152602401611924565b5f60068260ff16101580156126a6575060128260ff1611155b6126c357604051630692acc560e51b815260040160405180910390fd5b5f6126cf836012613037565b6126da90600a613130565b90506126e6818661313e565b9450836127bf68033dd1780914b9684073__$28bae0af19d0e90d77349cc0e88bc3c39a$__63bc4225aa6127228a670de0b6b3a764000061313e565b6040516001600160e01b031960e084901b1681526004810191909152670de0b6b3a764000060248201526706f05b59d3b200006044820152606401602060405180830381865af4158015612778573d5f803e3d5ffd5b505050506040513d601f19601f8201168201806040525081019061279c9190612eba565b6127a6919061316d565b6127ba600288900b658334ae9d7c0a61313e565b6127dc565b6127c9919061318c565b95945050505050565b5f610a2582612832565b5f611388612710836127ee868361313e565b6127f891906131ab565b61280291906131d7565b136128165761281182846131ab565b61282b565b61282082846131ab565b61282b9060016131ea565b9392505050565b5f805f8360020b12612847578260020b612854565b8260020b61285490613211565b9050612863620d89e71961322b565b60020b8111156128995760405162461bcd60e51b81526020600482015260016024820152601560fa1b6044820152606401611924565b5f816001165f036128ae57600160801b6128c0565b6ffffcb933bd6fad37aa2d162d1a5940015b70ffffffffffffffffffffffffffffffffff16905060028216156128ff5760806128fa826ffff97272373d413259a46990580e213a612e7c565b901c90505b6004821615612929576080612924826ffff2e50f5f656932ef12357cf3c7fdcc612e7c565b901c90505b600882161561295357608061294e826fffe5caca7e10e4e61c3624eaa0941cd0612e7c565b901c90505b601082161561297d576080612978826fffcb9843d60f6159c9db58835c926644612e7c565b901c90505b60208216156129a75760806129a2826fff973b41fa98c081472e6896dfb254c0612e7c565b901c90505b60408216156129d15760806129cc826fff2ea16466c96a3843ec78b326b52861612e7c565b901c90505b60808216156129fb5760806129f6826ffe5dee046a99a2a811c461f1969c3053612e7c565b901c90505b610100821615612a26576080612a21826ffcbe86c7900a88aedcffc83b479aa3a4612e7c565b901c90505b610200821615612a51576080612a4c826ff987a7253ac413176f2b074cf7815e54612e7c565b901c90505b610400821615612a7c576080612a77826ff3392b0822b70005940c7a398e4b70f3612e7c565b901c90505b610800821615612aa7576080612aa2826fe7159475a2c29b7443b29c7fa6e889d9612e7c565b901c90505b611000821615612ad2576080612acd826fd097f3bdfd2022b8845ad8f792aa5825612e7c565b901c90505b612000821615612afd576080612af8826fa9f746462d870fdf8a65dc1f90e061e5612e7c565b901c90505b614000821615612b28576080612b23826f70d869a156d2a1b890bb3df62baf32f7612e7c565b901c90505b618000821615612b53576080612b4e826f31be135f97d08fd981231505542fcfa6612e7c565b901c90505b62010000821615612b7f576080612b7a826f09aa508b5b7a84e1c677de54f3e99bc9612e7c565b901c90505b62020000821615612baa576080612ba5826e5d6af8dedb81196699c329225ee604612e7c565b901c90505b62040000821615612bd4576080612bcf826d2216e584f5fa1ea926041bedfe98612e7c565b901c90505b62080000821615612bfc576080612bf7826b048a170391f7dc42444e8fa2612e7c565b901c90505b5f8460020b1315612c1557612c12815f19612ea7565b90505b612c246401000000008261324b565b15612c30576001612c32565b5f5b611b2f9060ff16602083901c612f9d565b5f602080835283518060208501525f5b81811015612c6f57858101830151858201604001528201612c53565b505f604082860101526040601f19601f8301168501019250505092915050565b6001600160a01b0381168114611936575f80fd5b5f8060408385031215612cb4575f80fd5b8235612cbf81612c8f565b946020939093013593505050565b5f60208284031215612cdd575f80fd5b813561282b81612c8f565b5f805f60608486031215612cfa575f80fd5b8335612d0581612c8f565b92506020840135612d1581612c8f565b929592945050506040919091013590565b5f60208284031215612d36575f80fd5b5035919050565b8015158114611936575f80fd5b5f60208284031215612d5a575f80fd5b813561282b81612d3d565b5f8060408385031215612d76575f80fd5b8235612d8181612c8f565b91506020830135612d9181612c8f565b809150509250929050565b5f805f8060608587031215612daf575f80fd5b8435935060208501359250604085013567ffffffffffffffff80821115612dd4575f80fd5b818701915087601f830112612de7575f80fd5b813581811115612df5575f80fd5b886020828501011115612e06575f80fd5b95989497505060200194505050565b600181811c90821680612e2957607f821691505b602082108103612e4757634e487b7160e01b5f52602260045260245ffd5b50919050565b5f60208284031215612e5d575f80fd5b815161282b81612c8f565b634e487b7160e01b5f52601160045260245ffd5b8082028115828204841417610a2557610a25612e68565b634e487b7160e01b5f52601260045260245ffd5b5f82612eb557612eb5612e93565b500490565b5f60208284031215612eca575f80fd5b5051919050565b81810381811115610a2557610a25612e68565b8051600281900b8114612ef5575f80fd5b919050565b805161ffff81168114612ef5575f80fd5b5f805f805f805f60e0888a031215612f21575f80fd5b8751612f2c81612c8f565b9650612f3a60208901612ee4565b9550612f4860408901612efa565b9450612f5660608901612efa565b9350612f6460808901612efa565b925060a088015163ffffffff81168114612f7c575f80fd5b60c0890151909250612f8d81612d3d565b8091505092959891949750929550565b80820180821115610a2557610a25612e68565b634e487b7160e01b5f52603260045260245ffd5b5f60018201612fd557612fd5612e68565b5060010190565b5f60208284031215612fec575f80fd5b61282b82612ee4565b5f60208284031215613005575f80fd5b815160ff8116811461282b575f80fd5b5f8060408385031215613026575f80fd5b505080516020909101519092909150565b60ff8281168282160390811115610a2557610a25612e68565b600181815b8085111561308a57815f190482111561307057613070612e68565b8085161561307d57918102915b93841c9390800290613055565b509250929050565b5f826130a057506001610a25565b816130ac57505f610a25565b81600181146130c257600281146130cc576130e8565b6001915050610a25565b60ff8411156130dd576130dd612e68565b50506001821b610a25565b5060208310610133831016604e8410600b841016171561310b575081810a610a25565b6131158383613050565b805f190482111561312857613128612e68565b029392505050565b5f61282b60ff841683613092565b8082025f8212600160ff1b8414161561315957613159612e68565b8181058314821517610a2557610a25612e68565b8181035f83128015838313168383128216171561146c5761146c612e68565b5f8260020b8260020b028060020b915080821461146c5761146c612e68565b5f826131b9576131b9612e93565b600160ff1b82145f19841416156131d2576131d2612e68565b500590565b5f826131e5576131e5612e93565b500790565b8082018281125f83128015821682158216171561320957613209612e68565b505092915050565b5f600160ff1b820161322557613225612e68565b505f0390565b5f8160020b627fffff19810361324357613243612e68565b5f0392915050565b5f8261325957613259612e93565b50069056fea26469706673582212208f7d974c2d1269bd09f76f199c302228ec42d144336b14bdf22c38025d574c9164736f6c63430008170033","linkReferences":{"src/libraries/Conversions.sol":{"Conversions":[{"start":6973,"length":20},{"start":10191,"length":20}]},"src/libraries/Logarithm.sol":{"Logarithm":[{"start":12956,"length":20}]},"src/libraries/Utils.sol":{"Utils":[{"start":8025,"length":20},{"start":11128,"length":20}]}}},"methodIdentifiers":{"MAX_CONTRIBUTION()":"94d95f8f","MIN_CONTRIBUTION()":"40650c91","allowance(address,address)":"dd62ed3e","approve(address,uint256)":"095ea7b3","balanceOf(address)":"70a08231","contributions(address)":"42e94c90","contributors(uint256)":"3cb5d100","deadline()":"29dcb0cf","decimals()":"313ce567","deployer()":"d5f39488","deposit(bytes32)":"b214faa5","emergencyWithdrawal()":"5b0a3843","emergencyWithdrawalFlag()":"d6d4b53d","factory()":"c45a0155","finalize()":"4bb278f3","finalized()":"b3f05b97","floorPercentage()":"dbb33deb","getCurrentTimestamp()":"6c9230db","getParticipantCount()":"ad605729","getPresaleParams()":"e12ceb17","getReferralUserCount(bytes32)":"9f5bba58","getTimeLeft()":"c7e284b8","getTotalReferredByCode(bytes32)":"a5727e25","hardCap()":"fb86a404","hasExpired()":"90e64d13","initialPrice()":"1d0806ae","isContributor(address)":"1d0d35f5","launchSupply()":"3f7ed6b7","migrationContract()":"0fee1a20","name()":"06fdde03","owner()":"8da5cb5b","pool()":"16f0115b","protocolParams()":"93aab9d5","referralEarnings(bytes32)":"4b197be3","referralPercentage()":"96ea8b9c","renounceOwnership()":"715018a6","setEmergencyWithdrawalFlag(bool)":"a02f3601","setMigrationContract(address)":"88b79cec","softCap()":"906a26e0","softCapReached()":"2b9edee9","symbol()":"95d89b41","tickSpacing()":"d0c93a7c","totalDeposited()":"ff50abdc","totalRaised()":"c5c4744c","totalSupply()":"18160ddd","transfer(address,uint256)":"a9059cbb","transferFrom(address,address,uint256)":"23b872dd","transferOwnership(address)":"f2fde38b","uniswapV3SwapCallback(int256,int256,bytes)":"fa461e33","vaultAddress()":"430bf08a","withdraw()":"3ccfd60b","withdrawExcess()":"c264a063"},"id":84}